:100000000C945A000C945B050C9482050C948200AD
:100010000C9482000C9482000C9482000C94FE04D8
:100020000C9482000C9482000C9482000C94820048
:100030000C9482000C9482000C9482000C94820038
:100040000C94A9050C9482000C9415030C944D0398
:100050000C9482000C9482000C9482000C94820018
:100060000C9482000C94820002000000080002013F
:10007000000003040700000000000000000102046B
:10008000081020408001020408102001020408101A
:100090002004040404040404040202020202020311
:1000A000030303030300000000250028002B0000C9
:1000B0007D03EC0311241FBECFEFD8E0DEBFCDBF20
:1000C00011E0A0E0B1E0EAE6F0E102C005900D9297
:1000D000A834B107D9F722E0A8E4B1E001C01D922D
:1000E000A430B207E1F710E0CAE5D0E004C02197E0
:1000F000FE010E942D08C835D107C9F70E94F803F8
:100100000C9433080C9400003998419A87B18A7F87
:1001100087B98AB18C618AB9269A84B1876084B91B
:100120000895319B03C081E0809348018FEC97E0F4
:100130000197F1F700C00000319B1092480108952B
:10014000ECE7F0E0808180648083EAE7F0E0808182
:10015000836080838081806880830895ECE7F0E08D
:100160009081907F90839081892B8083EAE7F0E0F3
:10017000808180648083808186FDFDCFEAE7F0E0A6
:10018000808180648083808186FDFDCF80917800AE
:100190002091790090E0922B0895CF93DF93319BCB
:1001A00003C081E080934801319B1092480180E0B8
:1001B00090E00E94AE00BC0180E090E00E94010748
:1001C00027E83EEF49E75FE30E948F070E94D206CF
:1001D0007093500160934F0183E090E00E94AE0065
:1001E000BC0180E090E00E94010727E83EEF49E76C
:1001F0005FE30E948F070E94D20670934E016093C6
:100200004D0180914801882309F44EC020914F018F
:10021000309150013695279536952795ABE7B4E197
:100220000E941E0896958795EAE4F1E0808340914C
:100230004F015091500120914F013091500136955E
:100240002795369527950E941E089695879564E612
:10025000689F9001699F300D1124CA01821B930B86
:100260009C01ADECBCEC0E941E0896958795969576
:10027000879596958795818340914F0150915001C4
:1002800020914F01309150010E941E08969587954C
:100290009695879596958795880F982F990F990F22
:1002A000890F481B42834DC020914D0130914E0172
:1002B0003695279536952795ABE7B4E10E941E0841
:1002C00096958795EAE4F1E0808340914D01509145
:1002D0004E0120914D0130914E013695279536956E
:1002E00027950E941E089695879564E6689F900161
:1002F000699F300D1124CA01821B930B9C01ADEC48
:10030000BCEC0E941E0896958795969587959695C4
:100310008795818340914D0150914E0120914D016F
:1003200030914E010E941E08969587959695879567
:1003300096958795880F982F990F990F890F481BCD
:10034000428320914F013091500180914D01909155
:100350004E018217930710F42E9A01C02E988091B7
:100360004901813041F120F0823009F447C067C073
:1003700061E082E00E945D06C4E0D1E060E0888137
:100380000E945D06E0914C01F0E0E55FFE4F2081A8
:1003900041E060910001809102010E948E0661E0BF
:1003A00088810E945D0660E084E00E945D0681E035
:1003B0008093490144C061E084E00E945D06C4E08E
:1003C000D1E060E088810E945D06E0914B01F0E0A1
:1003D000E55FFE4F208141E06091000180910201C4
:1003E0000E948E0661E088810E945D0660E083E0E5
:1003F0000E945D0682E08093490121C061E083E0B4
:100400000E945D06C4E0D1E060E088810E945D0644
:10041000E0914A01F0E0E55FFE4F208141E060910C
:100420000001809102010E948E0661E088810E9495
:100430005D0660E082E00E945D0610924901DF9156
:10044000CF9108951092C50083E38093C400E0EC3F
:10045000F0E080818D7F808388E18093C10086E019
:100460008093C20008950E9422020E9484000E948C
:10047000A0000E949100109249010895FC01918D05
:10048000228D892F90E0805C9F4F821B91098F7392
:1004900099270895FC01918D828D981731F0828DF6
:1004A000E80FF11D858D90E008958FEF9FEF08957F
:1004B000FC01918D828D981761F0828DDF01A80F6C
:1004C000B11D5D968C91928D9F5F9F73928F90E08E
:1004D00008958FEF9FEF089583E793E0892B49F00C
:1004E00080E090E0892B29F00E94730381110E9423
:1004F00000000895FC01848DDF01A80FB11DA35AEF
:10050000BF4F8C91248D30E02F5F3F4F2F73307899
:10051000332334F421503109206C3F6F2F5F3F4F5C
:10052000248FA689B7898C93A089B1898C91806426
:100530008C93938D848D981306C00288F389E02DE7
:1005400080818F7D80830895CF93DF93EC01888D28
:1005500081110FC018C00FB607FC0DC0908195FF28
:100560000AC0A889B9898C9185FF05C0CE010E9477
:100570007A02EA89FB89908195FDEDCFA889B98936
:100580008C9186FFE8CFDF91CF9108950F931F9351
:10059000CF93DF93FC0181E0808F938D848D98133E
:1005A00022C0A089B1898C9185FD2FC01CC00FB6D7
:1005B00007FC08C0E889F989808185FF03C0CE0166
:1005C0000E947A029C8D091791F38B8DFE01E80F32
:1005D000F11DE35AFF4F10830B8FEA89FB8980815D
:1005E000806280831BC0238D30E02F5F3F4F2F73CD
:1005F0003078332334F421503109206C3F6F2F5F62
:100600003F4F162FEF01022FDDCFA689B7896C93DC
:100610000088F189E02D80818064808381E090E012
:10062000DF91CF911F910F9108951F920F920FB6F6
:100630000F9211242F938F939F93AF93BF93EF93B8
:10064000FF93E0916101F0916201808182FD14C00D
:10065000E1E5F1E0A689B7892C91818D8F5F8F73D9
:10066000928D891771F0DF01E18DF0E0EF5AFE4FB6
:10067000258F59968C9305C0E0916701F091680130
:100680008081FF91EF91BF91AF919F918F912F91B9
:100690000F900FBE0F901F9018951F920F920FB6DC
:1006A0000F9211242F933F934F935F936F937F93F8
:1006B0008F939F93AF93BF93EF93FF9381E591E067
:1006C0000E947A02FF91EF91BF91AF919F918F911C
:1006D0007F916F915F914F913F912F910F900FBE3E
:1006E0000F901F90189581E591E00E943E0221E055
:1006F000892B09F420E0822F0895E1E5F1E01382CF
:10070000128288EE93E0A0E0B0E084839583A68314
:10071000B78385E391E09183808385EC90E09587B2
:10072000848784EC90E09787868780EC90E0918BBB
:10073000808B81EC90E0938B828B82EC90E0958BA8
:10074000848B86EC90E0978B868B118E128E138EA5
:10075000148E08958F929F92AF92BF92CF92DF92A4
:10076000EF92FF920F931F93CF93DF935C017B0176
:100770004C0182E0880E911C6501E5E0CE0ED11C93
:1007800000E010E0F40161914F014AE050E0C70140
:100790000E94C004EC016EE2C7010E9436048C0F77
:1007A0009D1F080F191F8C149D0461F74AE050E04B
:1007B000F5016581C7010E94C004800F911FDF9180
:1007C000CF911F910F91FF90EF90DF90CF90BF904E
:1007D000AF909F908F900895EEEEF1E085E491E068
:1007E0009183808312821382148215820895089562
:1007F0000E94F3050E94F7030E943302CCE6D2E088
:100800000E94CD002097E1F30E946C02F9CFCF92B5
:10081000DF92EF92FF920F931F93CF93DF934115D7
:100820005105C1F06A018C01E62EF72EC0E0D0E040
:10083000D7016D917D01D801ED91FC910190F0817E
:10084000E02DC8010995892B39F02196CC16DD06DB
:1008500079F702C0C0E0D0E0CE01DF91CF911F91C7
:100860000F91FF90EF90DF90CF900895DC01ED9114
:10087000FC910190F081E02D099508954F925F92CF
:100880006F927F929F92AF92BF92CF92DF92EF9240
:10089000FF920F931F93CF93DF93CDB7DEB7A1974E
:1008A0000FB6F894DEBF0FBECDBF5C016A017B01BD
:1008B000922E19A281E0821720F00F2EFAE09F2ECF
:1008C000F02D8E010F5D1F4F492C512C612C712C86
:1008D000C701B601A30192010E94FC078C2D929ED4
:1008E00080191124015011098A3010F4805D01C073
:1008F000895CD8018C93C22ED32EE42EF52EC11420
:10090000D104E104F10421F70115110591F0F8017A
:1009100001900020E9F73197AF01401B510BD50141
:10092000ED91FC910280F381E02DB801C50109959C
:1009300002C080E090E0A1960FB6F894DEBF0FBE33
:10094000CDBFDF91CF911F910F91FF90EF90DF907E
:10095000CF90BF90AF909F907F906F905F904F909F
:1009600008952115310549F4DC01ED91FC910190C8
:10097000F081E02D642F099508950E943E040895AA
:100980009A01462F50E060E070E00E94B1040895A3
:10099000813039F018F0823051F0089510926E00D5
:1009A0000895EFE6F0E080818D7F80830895E0E791
:1009B000F0E080818D7F808381E08093B000E1EB67
:1009C000F0E08081887F846080831092B300089576
:1009D000CF93C82F809106018C1307C0E8E6F0E0A2
:1009E00084919FEF9093060101C08FEF0E94C8048D
:1009F00060E08C2F0E945D06CF9108951F920F92A8
:100A00000FB60F9211242F933F934F935F936F93E1
:100A10007F938F939F93AF93BF93EF93FF938091B7
:100A2000F7019091F801A091F901B091FA01892B99
:100A30008A2B8B2B51F18091F401E091F501F0911B
:100A4000F6019081892780838091F7019091F801C8
:100A5000A091F901B091FA01181619061A061B06A1
:100A6000C4F48091F7019091F801A091F901B0913F
:100A7000FA010197A109B1098093F7019093F80158
:100A8000A093F901B093FA0104C0809106010E947D
:100A9000E804FF91EF91BF91AF919F918F917F916A
:100AA0006F915F914F913F912F910F900FBE0F90DB
:100AB0001F90189508951F920F920FB60F92112450
:100AC0002F933F934F935F936F937F938F939F9356
:100AD000AF93BF93EF93FF93E0910701F09108016B
:100AE0000995FF91EF91BF91AF919F918F917F9168
:100AF0006F915F914F913F912F910F900FBE0F908B
:100B00001F9018951F920F920FB60F9211242F93DA
:100B10003F934F935F936F937F938F939F93AF9385
:100B2000BF93EF93FF93E0910901F0910A010995BA
:100B3000FF91EF91BF91AF919F918F917F916F91B5
:100B40005F914F913F912F910F900FBE0F901F908B
:100B500018951F920F920FB60F9211242F933F9367
:100B60008F939F93AF93BF938091FC019091FD0170
:100B7000A091FE01B091FF013091FB0123E0230F12
:100B80002D3720F40196A11DB11D05C026E8230FC5
:100B90000296A11DB11D2093FB018093FC0190934F
:100BA000FD01A093FE01B093FF018091000290919E
:100BB0000102A0910202B09103020196A11DB11D94
:100BC0008093000290930102A0930202B09303026B
:100BD000BF91AF919F918F913F912F910F900FBE39
:100BE0000F901F901895789484B5826084BD84B569
:100BF000816084BD85B5826085BD85B5816085BD18
:100C0000EEE6F0E0808181608083E1E8F0E0108230
:100C1000808182608083808181608083E0E8F0E071
:100C2000808181608083E1EBF0E08081846080835B
:100C3000E0EBF0E0808181608083EAE7F0E0808192
:100C400084608083808182608083808181608083F2
:100C50008081806880831092C1000895833069F09C
:100C600028F48130B1F08230C1F008958730C9F0A6
:100C70008830E9F0843001F506C0E0E8F0E08081DA
:100C80008F7780830895E0E8F0E080818F7D808316
:100C9000089584B58F7784BD089584B58F7D84BD14
:100CA0000895E0EBF0E080818F7780830895E0EB9A
:100CB000F0E080818F7D808308951F93CF93DF9331
:100CC000282F30E0F901E759FF4F8491F901E358EB
:100CD000FF4F1491F901EF56FF4FC491CC23D1F08F
:100CE000D62F81110E942E06EC2FF0E0EE0FFF1F91
:100CF000EB55FF4FA591B4918FB7F894D11106C071
:100D00009C91E12FE095E923EC9303C0EC91E12B5A
:100D1000EC938FBFDF91CF911F910895BF92CF9237
:100D2000DF92EF92FF920F931F93CF93DF93B82E32
:100D3000162F042FC7E0D0E0E22EF12C0F2EF7E0A3
:100D4000CF2ED12CF02D01110EC0C6018C1B9D0B96
:100D5000B70102C0759567958A95E2F761708B2D92
:100D60000E945D060BC0B7010C2E02C075956795F9
:100D70000A94E2F761708B2D0E945D0661E0812F7D
:100D80000E945D0660E0812F0E945D062197D8F6E3
:100D9000DF91CF911F910F91FF90EF90DF90CF9057
:100DA000BF9008950E946E0788F09F5798F0B92F62
:100DB0009927B751B0F0E1F0660F771F881F991F90
:100DC0001AF0BA95C9F714C0B13091F00E948807A3
:100DD000B1E008950C948807672F782F8827B85FB3
:100DE00039F0B93FCCF3869577956795B395D9F7E8
:100DF0003EF490958095709561957F4F8F4F9F4FF2
:100E00000895E89409C097FB3EF4909580957095FD
:100E100061957F4F8F4F9F4F9923A9F0F92F96E946
:100E2000BB279395F695879577956795B795F111BB
:100E3000F8CFFAF4BB0F11F460FF1BC06F5F7F4F58
:100E40008F4F9F4F16C0882311F096E911C077236A
:100E500021F09EE8872F762F05C0662371F096E873
:100E6000862F70E060E02AF09A95660F771F881F42
:100E7000DAF7880F9695879597F9089597F99F6700
:100E800080E870E060E008959FEF80EC0895002412
:100E90000A941616170618060906089500240A94DF
:100EA00012161306140605060895092E0394000C65
:100EB00011F4882352F0BB0F40F4BF2B11F460FFF4
:100EC00004C06F5F7F4F8F4F9F4F089557FD90581D
:100ED000440F551F59F05F3F71F04795880F97FBFE
:100EE000991F61F09F3F79F08795089512161306B8
:100EF0001406551FF2CF4695F1DF08C016161706E7
:100F00001806991FF1CF869571056105089408951B
:100F1000E894BB2766277727CB0197F908950E94AD
:100F2000A2070C9455070E94470738F00E944E070D
:100F300020F0952311F00C943E070C9444071124E3
:100F40000C9489070E94660770F3959FC1F3950F73
:100F500050E0551F629FF001729FBB27F00DB11D3D
:100F6000639FAA27F00DB11DAA1F649F6627B00DCD
:100F7000A11D661F829F2227B00DA11D621F739FB6
:100F8000B00DA11D621F839FA00D611D221F749FC4
:100F90003327A00D611D231F849F600D211D822F0B
:100FA000762F6A2F11249F5750409AF0F1F0882332
:100FB0004AF0EE0FFF1FBB1F661F771F881F91505F
:100FC0005040A9F79E3F510580F00C943E070C94C9
:100FD00089075F3FE4F3983ED4F38695779567954C
:100FE000B795F795E7959F5FC1F7FE2B880F911D89
:100FF0009695879597F90895A1E21A2EAA1BBB1B17
:10100000FD010DC0AA1FBB1FEE1FFF1FA217B307D4
:10101000E407F50720F0A21BB30BE40BF50B661FEA
:10102000771F881F991F1A9469F7609570958095AE
:1010300090959B01AC01BD01CF010895A29FB00125
:10104000B39FC001A39F700D811D1124911DB29FFC
:10105000700D811D1124911D0895EE0FFF1F059045
:0A106000F491E02D0994F894FFCFFD
:10106A00090008000A00FF5A055A05EE82DCD6B2CA
:10107A00767EC2FEF6FAFE6CEE7C78F6BA8286BA04
:10108A002C1AEAEEF8EEFA7668AEAE0EBAB2DC01C7
:10109A000000000000C60207043E0258024A02A4E9
:0810AA000200000000AA03008F
:00000001FF
