S00F00004D6178373231392E737265631C
S113000016C025C024C023C022C021C020C01FC0E8
S11300101EC01DC01CC01BC01AC019C018C0006679
S1130020661818003C42006666181881423C112488
S11300301FBECFE5D2E0DEBFCDBF20E0A0E6B0E03A
S113004001C01D92A836B207E1F75ED0A3C0D8CF95
S113005098E0C298882314F4C09A01C0C098C29A48
S1130060880F9150B1F70895CF93C62FC198F0DF50
S11300708C2FEEDFC19ACF910895CF93C0E0CF5F6C
S113008060E08C2FF1DFC830D1F7CF91089587B3AA
S1130090876087BB60E089E0E7DF61E08AE0E4DF56
S11300A067E08BE0E1DF61E08CE0DEDF60E08FE0C1
S11300B0DBDFE3DF0895EF92FF920F931F93CF935B
S11300C0DF930F2EF0E6EF2EF0E0FF2EF02D08E682
S11300D010E0E70169918C2F8E19C6DFC017D10794
S11300E0C9F7DF91CF911F910F91FF90EF90089581
S11300F0FC01A0E6B0E09C01285F3F4F85918D9301
S1130100E217F307D9F70895C2DFD0E000E810E062
S11301108EE190E0EDDFCFDF2FE936E881E021507A
S113012030408040E1F700C0000086E290E0E0DF6C
S1130130C2DF9FE926E831E0915020403040E1F7EA
S113014000C00000CD2FEC2FE695E695E695F0E093
S1130150E05AFF4F8C2F8770980102C03595279580
S11301608A95E2F7C901908189278083A4DF83EC13
S113017099E00197F1F700C00000CF5FC03419F790
S11301809FE926E831E0915020403040E1F700C07B
S10B01900000BECFF894FFCF7C
S9030000FC
