S01D000045696768744279456967687441544D4547413332382E737265631E
S11300000C9475000C9492000C9492000C94920041
S11300100C9492000C9492000C9492000C94920014
S11300200C9492000C9492000C9492000C94920004
S11300300C9492000C9492000C9492000C949200F4
S11300400C9492000C9492000C9492000C949200E4
S11300500C9492000C9492000C9492000C949200D4
S11300600C9492000C94920007634236B79BD8A775
S11300701A39685618AEBAAB558C1D3CB7CC5763C9
S1130080BD6DEDFD753EF6177231BF000000803F77
S113009008000000BE922449123EABAAAA2ABECD93
S11300A0CCCC4C3E00000080BEABAAAAAA3E000005
S11300B00000BF000000803F0000000000084178FD
S11300C0D3BB4387D1133D190E3CC3BD4282AD2B34
S11300D03E68EC8276BED98FE1A93E4C80EFFFBE2C
S11300E001C4FF7F3F000000000011241FBECFEFBA
S11300F0D8E0DEBFCDBF11E0A0E0B1E0ECEAF1E171
S113010002C005900D92AA3DB107D9F722E0AAEDED
S1130110B1E001C01D92A130B207E1F70E94520480
S11301200C94D4080C9400000F931F93CF938C016C
S1130130FC018081882351F0C0E00E94F304CF5F6A
S1130140F801EC0FF11D80818111F7CF8FE191E06F
S11301500E94FB04CF911F910F9108950F931F9359
S1130160CF93FC018081882359F08F01C0E00E9465
S1130170F304CF5FF801EC0FF11D80818111F7CFFB
S1130180CF911F910F910895CF93DF9300D000D0AA
S1130190CDB7DEB74AE0BE016F5F7F4F0E949F0874
S11301A0CE0101960E9494000F900F900F900F9033
S11301B0DF91CF910895CF93DF93EB010E94AE00BE
S11301C08FE691E00E94AE00CE010E94C4008FE150
S11301D091E00E94FB04DF91CF910895CF93DF93C8
S11301E0C0E1D1E06D8170E082E291E00E94DB0029
S11301F06E8170E088E291E00E94DB006F8170E024
S113020080E391E00E94DB00DF91CF910895CF93CA
S1130210DF93C0E1D1E06881798188E391E00E94B5
S1130220DB006A8170E08EE391E00E94DB006C8168
S113023070E085E491E00E94DB006B8170E089E46A
S113024091E00E94DB00DF91CF91089583E591E076
S11302500E9494001092B90080E28093B80008953F
S113026094EA9093BC0026E630E0ECEBF0E0908159
S113027099231CF021503109D1F78093BB0084E805
S11302808093BC0086E690E0ECEBF0E02081222332
S113029014F00197D9F7E9EBF0E080819081987F21
S11302A081E0983109F080E00895CF93DF93C82F5F
S11302B08F3F99F0D0E08C2F0E943001882349F0C1
S11302C0DF5F8EE591E00E94AE008C2F90E00E94EB
S11302D0C400CF5FCF3F79F701C0D0E08D2FDF910D
S11302E0CF9108958093BB0084E88093BC0086E698
S11302F090E0ECEBF0E02081222314F00197D9F791
S11303009091B900987F81E0983209F480E00895D3
S113031084E88093BC0086E690E0ECEBF0E020817A
S1130320222314F00197D9F78091BB000895CF934D
S1130330DF93D62FC42F0E9430018D2F0E947201AB
S11303408C2F0E94720184E98093BC00DF91CF91CD
S11303500895CF93DF93C82FD62F0E9430018D2F9D
S11303600E94720181E08C0F0E9430010E9488017A
S113037094E99093BC00DF91CF910895EF92FF929E
S11303800F931F93CF93DF93EC017B018A0162E00B
S113039080ED0E94A901888361E080ED0E94A9019B
S11303A0F701808360E080ED0E94A901F801808359
S11303B0988196FF03C09F71988302C09F739883AE
S11303C0DF91CF911F910F91FF90EF900895CF92FD
S11303D0DF92EF92FF920F931F93CF93DF936C0101
S11303E07B018A01E90166E080ED0E94A901F60122
S11303F0808365E080ED0E94A901F701808364E0B9
S113040080ED0E94A901F801808363E080ED0E94E1
S1130410A9018883DF91CF911F910F91FF90EF90F5
S1130420DF90CF900895482F60E080ED0E949701FF
S11304300895181619066CF420E030E0EFECF7E0AC
S11304403197F1F700C000002F5F3F4F281739079D
S1130450A9F708951F93CF93DF9380E00E9455017D
S1130460811115C0C0E0D0E02196BE0182E791E081
S11304700E94DB0080E00E945501182F8AEF90E073
S11304800E941902111103C0C330D10569F7DF912D
S1130490CF911F910895982F92959F70990F292FAE
S11304A0220F220F920F8F70890F0895CF92DF923F
S11304B0EF92FF920F931F93CF93DF9300D01F927D
S11304C0CDB7DEB72091180130911901232BE9F43F
S11304D08A017B016C01AE014F5F5F4FBE016D5F0E
S11304E07F4FCE0102960E94BE018A810E944B0278
S11304F0D6018C938B810E944B02F7018083898102
S11305000E944B02D8018C930BC0E0E1F1E02581FD
S1130510DC012C938681DB018C938781FA01808333
S11305200F900F900F90DF91CF911F910F91FF903B
S1130530EF90DF90CF900895AF92BF92CF92DF9269
S1130540EF92FF920F931F93CF93DF9300D000D0CD
S1130550CDB7DEB75C016B017A0189011C829E0173
S11305602C5F3F4FAE014D5F5F4FBE016E5F7F4F0B
S1130570CE0101960E94E70189810E944B02E82F77
S1130580F0E0D5011196FC93EE938A810E944B0210
S1130590F60180838B810E944B02D7018C938C815E
S11305A00E944B02F80180830F900F900F900F90E0
S11305B0DF91CF911F910F91FF90EF90DF90CF903B
S11305C0BF90AF900895EF92FF920F931F93CF9334
S11305D0DF93C0E1D1E08F810E941302198618864F
S11305E0C4E0D0E001E010E0E12CF12C47E151E05F
S11305F066E171E085E191E00E94560223E131E079
S113060044E151E062E171E080E191E00E949C02EA
S113061080911501883128F4809115018E2D9F2D2C
S113062007C0E0E1F1E0158216821782802F912F36
S1130630209116012C3318F42091160107C0E0E133
S1130640F1E0158216821782802F912F20911701D5
S11306502C3338F4E0E1F1E027812781222351F0A3
S113066019C0E0E1F1E015821682178287818823A0
S1130670D9F012C02091160121110CC002C0802FA4
S1130680912F20911701211105C088EE93E00E945B
S1130690190202C0892B19F0219709F0A7CF809184
S11306A017010E94130205C080911601882339F3B3
S11306B0F3CFDF91CF911F910F91FF90EF900895A9
S11306C098E02D98882314F42B9A01C02B982D9A26
S11306D0880F9150B1F70895CF93C62F2C980E949C
S11306E060038C2F0E9460032C9ACF910895CF93BE
S11306F0C0E0CF5F60E08C2F0E946C03C830C9F764
S1130700CF91089584B1886384B960E089E00E9440
S11307106C0361E08AE00E946C0367E08BE00E9456
S11307206C0361E08CE00E946C0360E08FE00E9447
S11307306C030E9477030895EF92FF920F931F9327
S1130740CF93DF930F2EF9EFEF2EF1E0FF2EF02D74
S113075001E012E0E70169918C2F8E190E946C036D
S1130760C017D107C1F7DF91CF911F910F91FF906F
S1130770EF900895FC01A9EFB1E09C01285F3F4F81
S113078081918D93E217F307D9F708950E94BA0374
S11307900E949C0308950F931F93CF93DF9300E06F
S11307A010E0C0E8D0E0C80111230CF40796959539
S11307B0879595958795959587959927FC01E75099
S11307C0FE4F980127703078332334F421503109D7
S11307D0286F3F6F2F5F3F4FAE0102C0559547957D
S11307E02A95E2F79A01DC01A750BE4F8C91282785
S11307F020830E949C030F5F1F4F0034110599F65C
S1130800DF91CF911F910F9108950E94E20488E82F
S113081091E00E9494000E94820380E091E00E9493
S1130820C6032FEF89E698E1215080409040E1F71C
S113083000C000008DE991E00E9494000E9426010E
S11308402FEF89E698E1215080409040E1F700C005
S113085000008CEA91E00E9494000E942A0284EC39
S113086091E00E9494000E94E30288E091E00E94DB
S1130870C6032FEF89E698E1215080409040E1F7CC
S113088000C000000E94CB032FEF89E698E12150BD
S113089080409040E1F700C0000082EE91E00E94A9
S11308A0C60308950E9405040AED11E0D12CEE243C
S11308B0E394F02ED12F0F2EF7E0CF2EF02D47E149
S11308C051E066E171E085E191E00E94560223E186
S11308D031E044E151E062E171E080E191E00E94A5
S11308E09C020E9407010E94EE00E0E1F1E0808199
S11308F09181D8018C93828111968C931197848174
S113090012968C931297858114968C9314978681F2
S113091015968C931597878116968C93CD2D6E2DF5
S113092013C06C2F70E080E090E00E9440059B01B2
S1130930AC0160E070E080E090E40E94A6050E94B3
S11309401105633008F06F5FF80167838F2D9D2FC9
S11309500E94C603FFE723E881E0F1502040804075
S1130960E1F700C00000CF5FC830D9F6CC2D6C2F62
S113097070E080E090E00E9440059B01AC0160E0E3
S113098070E080E090E40E94A6050E9411056330A7
S113099008F06F5FD80117966C938F2D9D2F0E94DE
S11309A0C603F801E782FFEB29E881E0F15020401B
S11309B08040E1F700C00000C150C9F6C8010E94A0
S11309C0C6037DCF1092C50083E38093C400E0EC9E
S11309D0F0E080818D7F808388E18093C10086E090
S11309E08093C2000895E0ECF0E0908195FFFDCF84
S11309F08093C60008950F931F93CF93FC018081C9
S1130A00882359F08F01C0E00E94F304CF5FF801FE
S1130A10EC0FF11D80818111F7CFCF911F910F91C0
S1130A2008950E94850588F09F5798F0B92F99275B
S1130A30B751B0F0E1F0660F771F881F991F1AF0C5
S1130A40BA95C9F714C0B13091F00E949F05B1E086
S1130A5008950C949F05672F782F8827B85F39F085
S1130A60B93FCCF3869577956795B395D9F73EF45E
S1130A7090958095709561957F4F8F4F9F4F089506
S1130A80E89409C097FB3EF4909580957095619524
S1130A907F4F8F4F9F4F9923A9F0F92F96E9BB27DA
S1130AA09395F695879577956795B795F111F8CF56
S1130AB0FAF4BB0F11F460FF1BC06F5F7F4F8F4FC1
S1130AC09F4F16C0882311F096E911C0772321F0B7
S1130AD09EE8872F762F05C0662371F096E8862F4F
S1130AE070E060E02AF09A95660F771F881FDAF7A6
S1130AF0880F9695879597F9089557FD9058440F58
S1130B00551F59F05F3F71F04795880F97FB991F68
S1130B1061F09F3F79F08795089512161306140625
S1130B20551FF2CF4695F1DF08C0161617061806B2
S1130B30991FF1CF86957105610508940895E8948D
S1130B40BB2766277727CB0197F90895FA01EE0FA3
S1130B50FF1F309621053105A1F16115710561F47E
S1130B608038BFE39B0749F168949038810561F0B0
S1130B708038BFEF9B0741F099234AF5FF3FE10519
S1130B803105210519F1E8940894E795D901AA23C0
S1130B9029F4AB2FBE2FF85FD0F310C0FF5F70F4C1
S1130BA0A695E0F7F73950F019F0FF3A38F49F773B
S1130BB09F930DD00F9007FC9058089546F00C9425
S1130BC0360660E070E080E89FE308954FE79F7782
S1130BD05F934F933F932F930E94AA062F913F91C7
S1130BE04F915F910E9426070C94FE0529F416F09C
S1130BF00C9430060C949F050C9436060E948505CF
S1130C00A8F39638A0F707F80F92E8942BE33AEA92
S1130C1048EB5FE70E943C070F920F920F924DB78B
S1130C205EB70F920E94F206E8E6F0E00E943906F1
S1130C304F915F91EF91FF91E595EE1FFF1F49F0F2
S1130C40FE57E0684427EE0F441FFA95E1F74195FB
S1130C50550B0E946C060F9007FE0C9460060895D5
S1130C6097F99F6780E870E060E008959FEF80EC5B
S1130C700895DF93CF931F930F93FF92EF92DF9228
S1130C807B018C01689406C0DA2EEF010E943907BB
S1130C90FE01E894A5912591359145915591A6F3CE
S1130CA0EF010E94AB07FE019701A801DA9469F7EE
S1130CB0DF90EF90FF900F911F91CF91DF910895F6
S1130CC09B01AC0160E070E080E89FE30C940008B5
S1130CD00C9430060C9472080E948505D8F399236D
S1130CE0C9F3940F511DA3F39150504094F059F05F
S1130CF0882332F0660F771F881F91505040C1F748
S1130D009E3F51052CF7880F911D9695879597F96D
S1130D1008955F3FACF0983E9CF0BB27869577958D
S1130D206795B79508F4B1609395C1F7BB0F58F771
S1130D3011F460FFE8CF6F5F7F4F8F4F9F4FE3CF7A
S1130D400C94A00516F00C9472080C943606689462
S1130D500C9430060E948505A8F39923C1F3AEF3E1
S1130D60DF93CF931F930F93FF92C92FDD2788231F
S1130D702AF02197660F771F881FDAF720E030E00A
S1130D8040E85FEB9FE3883920F0803E38F02196FD
S1130D908F770E949407E0E9F0E004C00E94940772
S1130DA0EDEBF0E00E9439068B01BE01EC01FB2E55
S1130DB06F5771097595771F880B990B0E9442052F
S1130DC028E132E741E35FE30E943907AF2D980140
S1130DD0AE01FF900F911F91CF91DF910E94AB075D
S1130DE00C948E08FA01DC01AA0FBB1F9B01AC0115
S1130DF0BF5728F4222733274427507820C0B751FF
S1130E0090F4AB2F0024469537952795011CA395A4
S1130E10D2F3002071F0220F331F441FB395DAF38D
S1130E200ED00C94930761307105A0E88A07B94687
S1130E3030F49B01AC016627772788279078309699
S1130E4021F0208331834283538308950E9439071C
S1130E500C948E080E94800838F00E94870820F0C5
S1130E60952311F00C9430060C94360611240C943E
S1130E70A0050E947D0570F3959FC1F3950F50E086
S1130E80551F629FF001729FBB27F00DB11D639F38
S1130E90AA27F00DB11DAA1F649F6627B00DA11DDE
S1130EA0661F829F2227B00DA11D621F739FB00D84
S1130EB0A11D621F839FA00D611D221F749F3327F4
S1130EC0A00D611D231F849F600D211D822F762F8D
S1130ED06A2F11249F5750409AF0F1F088234AF06A
S1130EE0EE0FFF1FBB1F661F771F881F91505040D6
S1130EF0A9F79E3F510580F00C9430060C94A00590
S1130F005F3FE4F3983ED4F3869577956795B7955C
S1130F10F795E7959F5FC1F7FE2B880F911D969576
S1130F20879597F908955058BB27AA270E94AB07C5
S1130F300C948E080E94800838F00E94870820F0E4
S1130F4039F49F3F19F426F40C9436060EF4E09518
S1130F50E7FB0C943006E92F0E947D0558F3BA177D
S1130F60620773078407950720F079F4A6F50C94BB
S1130F709F050EF4E0950B2EBA2FA02D0B01B9019D
S1130F8090010C01CA01A0011124FF27591B99F0FB
S1130F90593F50F4503E68F11A16F040A22F232F07
S1130FA0342F4427585FF3CF469537952795A79557
S1130FB0F0405395C9F77EF41F16BA0B620B730BFE
S1130FC0840BBAF09150A1F0FF0FBB1F661F771F6F
S1130FD0881FC2F70EC0BA0F621F731F841F48F424
S1130FE0879577956795B795F7959E3F08F0B0CFAD
S1130FF09395880F08F09927EE0F97958795089594
S11310000E9414080C948E080E94870858F00E94CD
S1131010800840F029F45F3F29F00C943006511108
S11310200C94A0050C9436060E947D0568F3992360
S1131030B1F3552391F3951B550BBB27AA276217D0
S11310407307840738F09F5F5F4F220F331F441FDD
S1131050AA1FA9F335D00E2E3AF0E0E832D0915011
S11310605040E695001CCAF72BD0FE2F29D0660FFE
S1131070771F881FBB1F261737074807AB07B0E841
S113108009F0BB0B802DBF01FF2793585F4F3AF047
S11310909E3F510578F00C9430060C94A0055F3FF8
S11310A0E4F3983ED4F3869577956795B795F795CD
S11310B09F5FC9F7880F911D9695879597F90895B5
S11310C0E1E0660F771F881FBB1F62177307840751
S11310D0BA0720F0621B730B840BBA0BEE1F88F760
S11310E0E09508959F3F31F0915020F487957795CE
S11310F06795B795880F911D9695879597F90895EB
S113110000240A94161617061806090608950024E2
S11311100A9412161306140605060895092E03945C
S1131120000C11F4882352F0BB0F40F4BF2B11F4D0
S113113060FF04C06F5F7F4F8F4F9F4F0895BB27A1
S11311404A3031F4992322F4BDE2909581959F4F62
S11311500C94AB08BB27FB015527AA27880F991FBE
S1131160AA1FA41710F0A41B83955051B9F7A05DD2
S1131170AA3308F0A95DA193009779F7B111B1934F
S11311801192CB010C94C408DC01FC01672F71910E
S11311907723E1F7329704C07C916D937083629159
S10F11A0AE17BF07C8F30895F894FFCF02
S11311AC0066661818003C42006666181881423CBA
S11311BC00000000000000000000000000FFFF0D14
S11311CC0A00486F757273004D696E75746573000F
S11311DC5365636F6E6473005965617273004D6F70
S11311EC6E74687300446179004461794F66576585
S11311FC656B004932435F494E49542829004932F2
S113120C43204144445245535320464F554E443A8F
S113121C200046494E4420444556494345204154F8
S113122C54454D5054202300496E697469616C69AE
S113123C7A696E67204D61783732313900496E69AD
S113124C7469616C697A65204932430046696E643D
S113125C206465766963657320696E204932432086
S113126C62757300496E697469616C697A652044AE
S10D127C533133303720525443003D
S9030000FC
