S00B00005254432E7372656330
S113000033C0000039C0000037C0000035C0000014
S113001033C0000031C000002FC000002DC000001C
S11300202BC0000029C0000027C0000025C000002C
S113003023C0000021C000001FC000001DC000003C
S11300401BC0000019C0000017C0000015C000004C
S113005013C0000011C000000FC000000DC000005C
S11300600BC0000009C0000011241FBECFEFD8E070
S1130070DEBFCDBF0BD00EC0C3CF95B184B18062BB
S11300808F7784B9892F806A85B90895F6DF80E077
S10B009090E00895F894FFCFFD
S9030000FC
