:100000000C9434000C9446000C9446000C9446006A
:100010000C9446000C9446000C9446000C94460048
:100020000C9446000C9446000C9446000C94460038
:100030000C9446000C9446000C9457000C94460017
:100040000C9446000C9446000C9446000C94460018
:100050000C9446000C9446000C9446000C94460008
:100060000C9446000C94460011241FBECFEFD4E040
:10007000DEBFCDBF11E0A0E0B1E001C01D92A13014
:10008000B107E1F70E9471000C9475000C94000018
:100090008FEF87BDEEE6F0E080818260808384B5DB
:1000A000826084BD789485B5836085BD08951F9274
:1000B0000F920FB60F9211248F93809100018F5FE2
:1000C00080930001809100018D3329F4109200018A
:1000D00088B1809588B98F910F900FBE0F901F90B7
:0E00E0001895389A0E944800FFCFF894FFCF81
:00000001FF
