:100000000C9434000C9451000C9451000C94510049
:100010000C9451000C9451000C9451000C9451001C
:100020000C9451000C9451000C9451000C9451000C
:100030000C9451000C9451000C9451000C945100FC
:100040000C9451000C9451000C9419030C9444032B
:100050000C9451000C9451000C9451000C945100DC
:100060000C9451000C94510011241FBECFEFD8E026
:10007000DEBFCDBF11E0A0E0B1E0EAE4F7E002C0EE
:1000800005900D92A430B107D9F721E0A4E0B1E0CA
:1000900001C01D92A235B207E1F70E94FC010C9449
:1000A000A3030C940000CF93882331F080910401C6
:1000B00081608093040105C0809104018E7F80934C
:1000C0000401809104018260809304016091040125
:1000D00080E00E94790262E080E00E94C90200C0D4
:1000E00064E080E00E946202C82F62E080E00E942B
:1000F000CD0200C062E080E00E94C90200C064E05E
:1001000080E00E946202C295C07F8F70C82B62E0BF
:1001100080E00E94CD028C2FCF91089580E00E9454
:1001200053008823DCF384E090E00197F1F780E04E
:100130000E945300089562E080E00E94C90200C05E
:1001400062E080E00E94CD020895CF93C82F66231D
:1001500031F08091040181608093040105C0809199
:1001600004018E7F80930401809104018D7F809330
:1001700004016091040180E00E94790280910401F1
:100180008F7780930401809104018F7B8093040119
:10019000809104018F7D80930401809104018F7E02
:1001A00080930401CC232CF4809104018068809317
:1001B0000401C6FF05C0809104018064809304019E
:1001C000C5FF05C080910401806280930401C4FFD3
:1001D00005C0809104018061809304016091040155
:1001E00080E00E9479020E949B00809104018F7739
:1001F00080930401809104018F7B8093040180919E
:1002000004018F7D80930401809104018F7E80938F
:100210000401C3FF05C0809104018068809304013C
:10022000C2FF05C080910401806480930401C1FF76
:1002300005C080910401806280930401C0FF05C065
:10024000809104018061809304016091040180E049
:100250000E9479020E949B0080910401806180933A
:100260000401809104018062809304018091040163
:10027000806480930401809104018068809304016C
:100280006091040180E00E947902CF910895CF939C
:10029000C82F0E948E0060E08C2F0E94A500CF9195
:1002A0000895611104C080580E9447010895805448
:1002B0000E944701089581E00E9447010895882324
:1002C00031F080910401877F8093040105C0809103
:1002D00004018860809304016091040180E00E9421
:1002E0007902089582E00E9447010895CF93C82FB4
:1002F0000E948E00CA3049F4803410F080E001C0C2
:1003000080E480580E94470113C0803129F460E0E6
:1003100080EC0E94A50006C0803521F460E080E8F2
:100320000E94A5000E948E0061E08C2F0E94A50013
:10033000CF910895CF93DF93EC012196FC0180814A
:10034000882329F00E94760189918111FBCFDF91EA
:10035000CF9108951F93CF93DF93182F0E945102DE
:10036000109204016091040180E00E94790280E013
:100370009DE70197F1F79091040190629093040139
:10038000909104019061909304016091040180E0D8
:100390000E9479020E949B00E0E0F7E23197F1F7BA
:1003A0000E949B00C0E8D0E0FE013197F1F70E9467
:1003B0009B00FE013197F1F7909104019F7E90938D
:1003C00004016091040180E00E9479020E949B0078
:1003D0002197F1F788E20E94470188E00E944701D7
:1003E0000E945B0186E00E944701812F0E94470125
:1003F000DF91CF911F910895CF93DF93CDB7DEB7F3
:100400002A970FB6F894DEBF0FBECDBF78948DE06B
:100410000E94AA010E947201C12C99249394D12CAC
:10042000A12CB12C8C2D0E945F01892DC1108D2D26
:10043000C82E0A2D1B2DEA2CFB2C4AE0BE016F5F53
:100440007F4FC7010E946E03602F8D2D0E945101C6
:1004500080E091E00E949A01602F83E00E945101A8
:10046000CE0101960E949A010F5F1F4F0170107814
:10047000112334F4015011090E6F1F6F0F5F1F4FCE
:100480002FEF84E39CE0215080409040E1F700C0D2
:1004900000002FEFE21AF20A8AE0E816F10469F68A
:1004A000C1CF0E94D1028AE18A95F1F700C080E0B5
:1004B00090E0FC01E65BFE4F1082019688309105CA
:1004C000C1F70895883088F4683088F4E82FF0E0A8
:1004D000E65BFE4F8081082E000C990B02C09595BB
:1004E00087956A95E2F7817008958FEF08958FEFF1
:1004F0000895CF93883098F4C62F982FE82FF0E016
:10050000E65BFE4F608387E2890F880F0E94D70267
:100510008C2F0E9407030E94FE0280E001C08FEF33
:10052000CF910895CF93DF93883068F5683068F5F0
:10053000282F30E0F901E65BFE4F9081442349F01B
:10054000C1E0D0E002C0CC0FDD1F6A95E2F7C92BF5
:1005500009C0C1E0D0E002C0CC0FDD1F6A95E2F710
:10056000C095C923982FF901E65BFE4FC08387E24F
:10057000890F880F0E94D7028C2F0E9407030E94C8
:10058000FE0280E003C08FEF01C08FEFDF91CF91BB
:10059000089541E00E949202089540E00E94920274
:1005A00008951092B90088E88093B800089594EAFD
:1005B0009093BC00ECEBF0E090819923ECF79091E4
:1005C000B900987F983011F09031A1F48093BB006E
:1005D00084E88093BC00ECEBF0E080818823ECF7AA
:1005E0009091B900987F983139F081E0903429F4E6
:1005F00080E0089581E0089580E0089584E9809383
:10060000BC00ECEBF0E0808184FDFDCF0895809389
:10061000BB0084E88093BC00ECEBF0E08081882391
:10062000ECF79091B900987F81E0983209F480E06E
:1006300008951F920F920FB60F9211242F938F934C
:100640009F93EF93FF938091C0002091C600887123
:10065000E0910701EF5FEF7190910601E91739F022
:10066000E0930701F0E0E65FFE4F208301C082E0E7
:1006700080930501FF91EF919F918F912F910F90A2
:100680000FBE0F901F9018951F920F920FB60F92EA
:1006900011248F939F93EF93FF9390910901809181
:1006A0000801981769F0E0910801EF5FEF71E0939E
:1006B0000801F0E0E65DFE4F80818093C60005C032
:1006C000E1ECF0E080818F7D8083FF91EF919F913D
:1006D0008F910F900FBE0F901F901895BB274A3037
:1006E00031F4992322F4BDE2909581959F4F0C94AB
:1006F0007A03BB27FB015527AA27880F991FAA1F3A
:10070000A41710F0A41B83955051B9F7A05DAA332C
:1007100008F0A95DA193009779F7B111B1931192F7
:10072000CB010C949303DC01FC01672F71917723BB
:10073000E1F7329704C07C916D9370836291AE179C
:0A074000BF07C8F30895F894FFCF37
:04074A00693D2000E5
:00000001FF
