
GccCppProject2.elf:     file format elf32-avr

Sections:
Idx Name          Size      VMA       LMA       File off  Algn
  0 .text         00000a8e  00000000  00000000  00000094  2**1
                  CONTENTS, ALLOC, LOAD, READONLY, CODE
  1 .data         00000010  00800060  00000a8e  00000b22  2**0
                  CONTENTS, ALLOC, LOAD, DATA
  2 .bss          0000004d  00800070  00800070  00000b32  2**0
                  ALLOC
  3 .comment      00000030  00000000  00000000  00000b32  2**0
                  CONTENTS, READONLY
  4 .note.gnu.avr.deviceinfo 0000003c  00000000  00000000  00000b64  2**2
                  CONTENTS, READONLY
  5 .debug_aranges 00000370  00000000  00000000  00000ba0  2**0
                  CONTENTS, READONLY, DEBUGGING
  6 .debug_info   00005de1  00000000  00000000  00000f10  2**0
                  CONTENTS, READONLY, DEBUGGING
  7 .debug_abbrev 00001387  00000000  00000000  00006cf1  2**0
                  CONTENTS, READONLY, DEBUGGING
  8 .debug_line   00001198  00000000  00000000  00008078  2**0
                  CONTENTS, READONLY, DEBUGGING
  9 .debug_frame  000009e0  00000000  00000000  00009210  2**2
                  CONTENTS, READONLY, DEBUGGING
 10 .debug_str    000018e6  00000000  00000000  00009bf0  2**0
                  CONTENTS, READONLY, DEBUGGING
 11 .debug_loc    000031f8  00000000  00000000  0000b4d6  2**0
                  CONTENTS, READONLY, DEBUGGING
 12 .debug_ranges 000002f8  00000000  00000000  0000e6ce  2**0
                  CONTENTS, READONLY, DEBUGGING

Disassembly of section .text:

00000000 <__vectors>:
   0:	33 c0       	rjmp	.+102    	; 0x68 <__ctors_end>
   2:	59 c2       	rjmp	.+1202   	; 0x4b6 <__vector_1>
   4:	56 c0       	rjmp	.+172    	; 0xb2 <__bad_interrupt>
   6:	55 c0       	rjmp	.+170    	; 0xb2 <__bad_interrupt>
   8:	54 c0       	rjmp	.+168    	; 0xb2 <__bad_interrupt>
   a:	7c c2       	rjmp	.+1272   	; 0x504 <__vector_5>
   c:	52 c0       	rjmp	.+164    	; 0xb2 <__bad_interrupt>
   e:	51 c0       	rjmp	.+162    	; 0xb2 <__bad_interrupt>
  10:	50 c0       	rjmp	.+160    	; 0xb2 <__bad_interrupt>
  12:	4f c0       	rjmp	.+158    	; 0xb2 <__bad_interrupt>
  14:	4e c0       	rjmp	.+156    	; 0xb2 <__bad_interrupt>
  16:	4d c0       	rjmp	.+154    	; 0xb2 <__bad_interrupt>
  18:	4c c0       	rjmp	.+152    	; 0xb2 <__bad_interrupt>
  1a:	2a c4       	rjmp	.+2132   	; 0x870 <__vector_13>
  1c:	45 c4       	rjmp	.+2186   	; 0x8a8 <__vector_14>

0000001e <__trampolines_end>:
  1e:	00 00       	nop
  20:	00 08       	sbc	r0, r0
  22:	00 02       	muls	r16, r16
  24:	01 00       	.word	0x0001	; ????
  26:	00 03       	mulsu	r16, r16
  28:	04 07       	cpc	r16, r20
	...

00000032 <digital_pin_to_bit_mask_PGM>:
  32:	01 02 04 08 10 20 40 80 01 02 04 08 10 20 01 02     ..... @...... ..
  42:	04 08 10 20                                         ... 

00000046 <digital_pin_to_port_PGM>:
  46:	04 04 04 04 04 04 04 04 02 02 02 02 02 02 03 03     ................
  56:	03 03 03 03                                         ....

0000005a <port_to_output_PGM>:
  5a:	00 00 00 00 38 00                                   ....8.

00000060 <port_to_mode_PGM>:
  60:	00 00 00 00 37 00                                   ....7.

00000066 <__ctors_start>:
  66:	b3 01       	movw	r22, r6

00000068 <__ctors_end>:
  68:	11 24       	eor	r1, r1
  6a:	1f be       	out	0x3f, r1	; 63
  6c:	cf e5       	ldi	r28, 0x5F	; 95
  6e:	d2 e0       	ldi	r29, 0x02	; 2
  70:	de bf       	out	0x3e, r29	; 62
  72:	cd bf       	out	0x3d, r28	; 61

00000074 <__do_copy_data>:
  74:	10 e0       	ldi	r17, 0x00	; 0
  76:	a0 e6       	ldi	r26, 0x60	; 96
  78:	b0 e0       	ldi	r27, 0x00	; 0
  7a:	ee e8       	ldi	r30, 0x8E	; 142
  7c:	fa e0       	ldi	r31, 0x0A	; 10
  7e:	02 c0       	rjmp	.+4      	; 0x84 <__do_copy_data+0x10>
  80:	05 90       	lpm	r0, Z+
  82:	0d 92       	st	X+, r0
  84:	a0 37       	cpi	r26, 0x70	; 112
  86:	b1 07       	cpc	r27, r17
  88:	d9 f7       	brne	.-10     	; 0x80 <__do_copy_data+0xc>

0000008a <__do_clear_bss>:
  8a:	20 e0       	ldi	r18, 0x00	; 0
  8c:	a0 e7       	ldi	r26, 0x70	; 112
  8e:	b0 e0       	ldi	r27, 0x00	; 0
  90:	01 c0       	rjmp	.+2      	; 0x94 <.do_clear_bss_start>

00000092 <.do_clear_bss_loop>:
  92:	1d 92       	st	X+, r1

00000094 <.do_clear_bss_start>:
  94:	ad 3b       	cpi	r26, 0xBD	; 189
  96:	b2 07       	cpc	r27, r18
  98:	e1 f7       	brne	.-8      	; 0x92 <.do_clear_bss_loop>

0000009a <__do_global_ctors>:
  9a:	10 e0       	ldi	r17, 0x00	; 0
  9c:	c4 e3       	ldi	r28, 0x34	; 52
  9e:	d0 e0       	ldi	r29, 0x00	; 0
  a0:	03 c0       	rjmp	.+6      	; 0xa8 <__do_global_ctors+0xe>
  a2:	21 97       	sbiw	r28, 0x01	; 1
  a4:	fe 01       	movw	r30, r28
  a6:	eb d4       	rcall	.+2518   	; 0xa7e <__tablejump2__>
  a8:	c3 33       	cpi	r28, 0x33	; 51
  aa:	d1 07       	cpc	r29, r17
  ac:	d1 f7       	brne	.-12     	; 0xa2 <__do_global_ctors+0x8>
  ae:	67 d1       	rcall	.+718    	; 0x37e <main>
  b0:	ec c4       	rjmp	.+2520   	; 0xa8a <_exit>

000000b2 <__bad_interrupt>:
  b2:	a6 cf       	rjmp	.-180    	; 0x0 <__vectors>

000000b4 <_Z12receiveEventh>:
 *
 * This needs to complete before the next incoming transaction (start, data, restart/stop) on the bus does
 * so be quick, set flags for long running tasks to be called from the mainloop instead of running them directly,
 */
void receiveEvent(uint8_t howMany)
{
  b4:	1f 93       	push	r17
  b6:	cf 93       	push	r28
  b8:	df 93       	push	r29
    if (howMany < 1)
  ba:	cf ef       	ldi	r28, 0xFF	; 255
  bc:	c8 0f       	add	r28, r24
  be:	c0 31       	cpi	r28, 0x10	; 16
  c0:	28 f5       	brcc	.+74     	; 0x10c <_Z12receiveEventh+0x58>
  c2:	18 2f       	mov	r17, r24
    {
        // Also insane number
        return;
    }

    reg_position = TinyWireS.receive();
  c4:	80 e9       	ldi	r24, 0x90	; 144
  c6:	90 e0       	ldi	r25, 0x00	; 0
  c8:	9d d3       	rcall	.+1850   	; 0x804 <_ZN9USI_TWI_S7receiveEv>
  ca:	80 93 80 00 	sts	0x0080, r24
    howMany--;
    if (!howMany)
  ce:	c1 11       	cpse	r28, r1
  d0:	1b c0       	rjmp	.+54     	; 0x108 <_Z12receiveEventh+0x54>
  d2:	1c c0       	rjmp	.+56     	; 0x10c <_Z12receiveEventh+0x58>
    {
        // This write was only to set the buffer for next read
        return;
    }
    while(howMany--)
  d4:	18 2f       	mov	r17, r24
    {
        i2c_regs[reg_position] = TinyWireS.receive();
  d6:	c0 91 80 00 	lds	r28, 0x0080
  da:	d0 e0       	ldi	r29, 0x00	; 0
  dc:	80 e9       	ldi	r24, 0x90	; 144
  de:	90 e0       	ldi	r25, 0x00	; 0
  e0:	91 d3       	rcall	.+1826   	; 0x804 <_ZN9USI_TWI_S7receiveEv>
  e2:	cf 59       	subi	r28, 0x9F	; 159
  e4:	df 4f       	sbci	r29, 0xFF	; 255
  e6:	88 83       	st	Y, r24
        reg_position++;
  e8:	80 91 80 00 	lds	r24, 0x0080
  ec:	8f 5f       	subi	r24, 0xFF	; 255
  ee:	80 93 80 00 	sts	0x0080, r24
        if (reg_position >= reg_size)
  f2:	80 91 80 00 	lds	r24, 0x0080
  f6:	84 30       	cpi	r24, 0x04	; 4
  f8:	10 f0       	brcs	.+4      	; 0xfe <_Z12receiveEventh+0x4a>
        {
            reg_position = 0;
  fa:	10 92 80 00 	sts	0x0080, r1
    if (!howMany)
    {
        // This write was only to set the buffer for next read
        return;
    }
    while(howMany--)
  fe:	8f ef       	ldi	r24, 0xFF	; 255
 100:	81 0f       	add	r24, r17
 102:	11 11       	cpse	r17, r1
 104:	e7 cf       	rjmp	.-50     	; 0xd4 <_Z12receiveEventh+0x20>
 106:	02 c0       	rjmp	.+4      	; 0x10c <_Z12receiveEventh+0x58>
 108:	12 50       	subi	r17, 0x02	; 2
 10a:	e5 cf       	rjmp	.-54     	; 0xd6 <_Z12receiveEventh+0x22>
        if (reg_position >= reg_size)
        {
            reg_position = 0;
        }
    }
}
 10c:	df 91       	pop	r29
 10e:	cf 91       	pop	r28
 110:	1f 91       	pop	r17
 112:	08 95       	ret

00000114 <setup>:

byte volatile theTime[4] = {0,0,0,0}; // make this 238 for 0 on the display

void setup() {     

  pinMode(latchPin, OUTPUT);  
 114:	61 e0       	ldi	r22, 0x01	; 1
 116:	88 e0       	ldi	r24, 0x08	; 8
 118:	c3 d2       	rcall	.+1414   	; 0x6a0 <pinMode>
  pinMode(clockPin, OUTPUT);
 11a:	61 e0       	ldi	r22, 0x01	; 1
 11c:	8a e0       	ldi	r24, 0x0A	; 10
 11e:	c0 d2       	rcall	.+1408   	; 0x6a0 <pinMode>
  pinMode(dataPin, OUTPUT);
 120:	61 e0       	ldi	r22, 0x01	; 1
 122:	89 e0       	ldi	r24, 0x09	; 9
 124:	bd d2       	rcall	.+1402   	; 0x6a0 <pinMode>
  
  pinMode(hourTensPin, OUTPUT);
 126:	61 e0       	ldi	r22, 0x01	; 1
 128:	85 e0       	ldi	r24, 0x05	; 5
 12a:	ba d2       	rcall	.+1396   	; 0x6a0 <pinMode>
  pinMode(hourOnesPin, OUTPUT);
 12c:	61 e0       	ldi	r22, 0x01	; 1
 12e:	84 e0       	ldi	r24, 0x04	; 4
 130:	b7 d2       	rcall	.+1390   	; 0x6a0 <pinMode>
  pinMode(minuteTensPin, OUTPUT);
 132:	61 e0       	ldi	r22, 0x01	; 1
 134:	83 e0       	ldi	r24, 0x03	; 3
 136:	b4 d2       	rcall	.+1384   	; 0x6a0 <pinMode>
  pinMode(minuteOnesPin, OUTPUT);
 138:	61 e0       	ldi	r22, 0x01	; 1
 13a:	82 e0       	ldi	r24, 0x02	; 2
 13c:	b1 d2       	rcall	.+1378   	; 0x6a0 <pinMode>
    
//  Wire.begin(slaveAddress);          // join i2c bus with address #32
//  TWBR=32;                           // == 100kHz SCL frequency  
//  Wire.onReceive(receiveEvent);      // register event

  TinyWireS.begin(slaveAddress);
 13e:	60 e1       	ldi	r22, 0x10	; 16
 140:	80 e9       	ldi	r24, 0x90	; 144
 142:	90 e0       	ldi	r25, 0x00	; 0
 144:	5c d3       	rcall	.+1720   	; 0x7fe <_ZN9USI_TWI_S5beginEh>
  TinyWireS.onReceive(receiveEvent);
 146:	6a e5       	ldi	r22, 0x5A	; 90
 148:	70 e0       	ldi	r23, 0x00	; 0
 14a:	80 e9       	ldi	r24, 0x90	; 144
 14c:	90 e0       	ldi	r25, 0x00	; 0
 14e:	5c d3       	rcall	.+1720   	; 0x808 <_ZN9USI_TWI_S9onReceiveEPFvhE>
 150:	08 95       	ret

00000152 <loop>:

}

void loop() {
 152:	0f 93       	push	r16
 154:	1f 93       	push	r17
  hourTensVal = theTime[hourTensPos];
 156:	e0 e7       	ldi	r30, 0x70	; 112
 158:	f0 e0       	ldi	r31, 0x00	; 0
 15a:	81 81       	ldd	r24, Z+1	; 0x01
 15c:	80 93 77 00 	sts	0x0077, r24
  hourOnesVal = theTime[hourOnesPos];
 160:	82 81       	ldd	r24, Z+2	; 0x02
 162:	80 93 76 00 	sts	0x0076, r24
  minuteTensVal = theTime[minuteTensPos];
 166:	83 81       	ldd	r24, Z+3	; 0x03
 168:	80 93 75 00 	sts	0x0075, r24
  minuteOnesVal = theTime[minuteOnesPos];
 16c:	84 81       	ldd	r24, Z+4	; 0x04
 16e:	80 93 74 00 	sts	0x0074, r24
        hourTensVal = CHAR_SPACE;
      }
    }
  }
*/
  currentTime = millis();
 172:	12 d2       	rcall	.+1060   	; 0x598 <millis>
 174:	60 93 7c 00 	sts	0x007C, r22
 178:	70 93 7d 00 	sts	0x007D, r23
 17c:	80 93 7e 00 	sts	0x007E, r24
 180:	90 93 7f 00 	sts	0x007F, r25
  if (currentTime > timeToSwitch) {
 184:	00 91 78 00 	lds	r16, 0x0078
 188:	10 91 79 00 	lds	r17, 0x0079
 18c:	20 91 7a 00 	lds	r18, 0x007A
 190:	30 91 7b 00 	lds	r19, 0x007B
 194:	06 17       	cp	r16, r22
 196:	17 07       	cpc	r17, r23
 198:	28 07       	cpc	r18, r24
 19a:	39 07       	cpc	r19, r25
 19c:	b0 f5       	brcc	.+108    	; 0x20a <loop+0xb8>
    timeToSwitch = currentTime + BLINK_DURATION; 
 19e:	dc 01       	movw	r26, r24
 1a0:	cb 01       	movw	r24, r22
 1a2:	8c 50       	subi	r24, 0x0C	; 12
 1a4:	9e 4f       	sbci	r25, 0xFE	; 254
 1a6:	af 4f       	sbci	r26, 0xFF	; 255
 1a8:	bf 4f       	sbci	r27, 0xFF	; 255
 1aa:	80 93 78 00 	sts	0x0078, r24
 1ae:	90 93 79 00 	sts	0x0079, r25
 1b2:	a0 93 7a 00 	sts	0x007A, r26
 1b6:	b0 93 7b 00 	sts	0x007B, r27
    ledOn = !ledOn;
 1ba:	90 91 60 00 	lds	r25, 0x0060
 1be:	81 e0       	ldi	r24, 0x01	; 1
 1c0:	89 27       	eor	r24, r25
 1c2:	80 93 60 00 	sts	0x0060, r24
    if (!ledOn) {
 1c6:	81 11       	cpse	r24, r1
 1c8:	17 c0       	rjmp	.+46     	; 0x1f8 <loop+0xa6>
      if (theTime[instructionPos] & (1 << BLINK_DISPLAY)) {
 1ca:	80 91 70 00 	lds	r24, 0x0070
 1ce:	80 ff       	sbrs	r24, 0
 1d0:	09 c0       	rjmp	.+18     	; 0x1e4 <loop+0x92>
        // make all of the digits blank
        hourTensVal = CHAR_SPACE;
 1d2:	10 92 77 00 	sts	0x0077, r1
        hourOnesVal = CHAR_SPACE;
 1d6:	10 92 76 00 	sts	0x0076, r1
        minuteTensVal = CHAR_SPACE;
 1da:	10 92 75 00 	sts	0x0075, r1
        minuteOnesVal = CHAR_SPACE;
 1de:	10 92 74 00 	sts	0x0074, r1
 1e2:	13 c0       	rjmp	.+38     	; 0x20a <loop+0xb8>
      } else if (theTime[instructionPos] & (1 << DECIMAL_BLINK)) {
 1e4:	80 91 70 00 	lds	r24, 0x0070
 1e8:	82 ff       	sbrs	r24, 2
 1ea:	0f c0       	rjmp	.+30     	; 0x20a <loop+0xb8>
        minuteOnesVal = theTime[minuteOnesPos] | (1 << CHAR_DECIMAL);
 1ec:	80 91 74 00 	lds	r24, 0x0074
 1f0:	81 60       	ori	r24, 0x01	; 1
 1f2:	80 93 74 00 	sts	0x0074, r24
 1f6:	09 c0       	rjmp	.+18     	; 0x20a <loop+0xb8>
      }
    } else if (theTime[instructionPos] & (1 << DECIMAL_BLINK)) {
 1f8:	80 91 70 00 	lds	r24, 0x0070
 1fc:	82 ff       	sbrs	r24, 2
 1fe:	05 c0       	rjmp	.+10     	; 0x20a <loop+0xb8>
        minuteOnesVal = theTime[minuteOnesPos] & ~(1 << CHAR_DECIMAL);
 200:	80 91 74 00 	lds	r24, 0x0074
 204:	8e 7f       	andi	r24, 0xFE	; 254
 206:	80 93 74 00 	sts	0x0074, r24
    }
  }
  
  if (!((1 << DECIMAL_BLINK) & theTime[instructionPos]) &&  // if we're not blinking the decimal and
 20a:	80 91 70 00 	lds	r24, 0x0070
 20e:	82 fd       	sbrc	r24, 2
 210:	04 c0       	rjmp	.+8      	; 0x21a <loop+0xc8>
     (theTime[instructionPos] & (1 << DECIMAL_ON))) {       // if the decimal point is on
 212:	80 91 70 00 	lds	r24, 0x0070
    } else if (theTime[instructionPos] & (1 << DECIMAL_BLINK)) {
        minuteOnesVal = theTime[minuteOnesPos] & ~(1 << CHAR_DECIMAL);
    }
  }
  
  if (!((1 << DECIMAL_BLINK) & theTime[instructionPos]) &&  // if we're not blinking the decimal and
 216:	81 fd       	sbrc	r24, 1
 218:	5d c0       	rjmp	.+186    	; 0x2d4 <__stack+0x75>
     (theTime[instructionPos] & (1 << DECIMAL_ON))) {       // if the decimal point is on
    minuteOnesVal = theTime[minuteOnesPos] | (1 << CHAR_DECIMAL);  // add one to the number to send to the SS
  }

  digitalWrite(latchPin, LOW);  
 21a:	60 e0       	ldi	r22, 0x00	; 0
 21c:	88 e0       	ldi	r24, 0x08	; 8
 21e:	7f d2       	rcall	.+1278   	; 0x71e <digitalWrite>
  shiftOut(dataPin, clockPin, MSBFIRST, hourTensVal);  
 220:	20 91 77 00 	lds	r18, 0x0077
 224:	41 e0       	ldi	r20, 0x01	; 1
 226:	6a e0       	ldi	r22, 0x0A	; 10
 228:	89 e0       	ldi	r24, 0x09	; 9
 22a:	a9 d2       	rcall	.+1362   	; 0x77e <shiftOut>
  digitalWrite(latchPin, HIGH);   // take the latch pin high so the LEDs will light up:
 22c:	61 e0       	ldi	r22, 0x01	; 1
 22e:	88 e0       	ldi	r24, 0x08	; 8
 230:	76 d2       	rcall	.+1260   	; 0x71e <digitalWrite>
  digitalWrite(hourTensPin, LOW); // turn on the switch
 232:	60 e0       	ldi	r22, 0x00	; 0
 234:	85 e0       	ldi	r24, 0x05	; 5
 236:	73 d2       	rcall	.+1254   	; 0x71e <digitalWrite>
  delay(delayTime);               // wait
 238:	65 e0       	ldi	r22, 0x05	; 5
 23a:	70 e0       	ldi	r23, 0x00	; 0
 23c:	80 e0       	ldi	r24, 0x00	; 0
 23e:	90 e0       	ldi	r25, 0x00	; 0
 240:	de d1       	rcall	.+956    	; 0x5fe <delay>
  digitalWrite(hourTensPin, HIGH);// turn off the switch
 242:	61 e0       	ldi	r22, 0x01	; 1
 244:	85 e0       	ldi	r24, 0x05	; 5
 246:	6b d2       	rcall	.+1238   	; 0x71e <digitalWrite>
  
  digitalWrite(latchPin, LOW);  
 248:	60 e0       	ldi	r22, 0x00	; 0
 24a:	88 e0       	ldi	r24, 0x08	; 8
 24c:	68 d2       	rcall	.+1232   	; 0x71e <digitalWrite>
  shiftOut(dataPin, clockPin, MSBFIRST, hourOnesVal);  
 24e:	20 91 76 00 	lds	r18, 0x0076
 252:	41 e0       	ldi	r20, 0x01	; 1
 254:	6a e0       	ldi	r22, 0x0A	; 10
 256:	89 e0       	ldi	r24, 0x09	; 9
 258:	92 d2       	rcall	.+1316   	; 0x77e <shiftOut>
  digitalWrite(latchPin, HIGH); //take the latch pin high so the LEDs will light up:
 25a:	61 e0       	ldi	r22, 0x01	; 1
 25c:	88 e0       	ldi	r24, 0x08	; 8
 25e:	5f d2       	rcall	.+1214   	; 0x71e <digitalWrite>
  digitalWrite(hourOnesPin, LOW);
 260:	60 e0       	ldi	r22, 0x00	; 0
 262:	84 e0       	ldi	r24, 0x04	; 4
 264:	5c d2       	rcall	.+1208   	; 0x71e <digitalWrite>
  delay(delayTime);
 266:	65 e0       	ldi	r22, 0x05	; 5
 268:	70 e0       	ldi	r23, 0x00	; 0
 26a:	80 e0       	ldi	r24, 0x00	; 0
 26c:	90 e0       	ldi	r25, 0x00	; 0
 26e:	c7 d1       	rcall	.+910    	; 0x5fe <delay>
  digitalWrite(hourOnesPin, HIGH);
 270:	61 e0       	ldi	r22, 0x01	; 1
 272:	84 e0       	ldi	r24, 0x04	; 4
 274:	54 d2       	rcall	.+1192   	; 0x71e <digitalWrite>
  
  digitalWrite(latchPin, LOW);  
 276:	60 e0       	ldi	r22, 0x00	; 0
 278:	88 e0       	ldi	r24, 0x08	; 8
 27a:	51 d2       	rcall	.+1186   	; 0x71e <digitalWrite>
  shiftOut(dataPin, clockPin, MSBFIRST, minuteTensVal);  
 27c:	20 91 75 00 	lds	r18, 0x0075
 280:	41 e0       	ldi	r20, 0x01	; 1
 282:	6a e0       	ldi	r22, 0x0A	; 10
 284:	89 e0       	ldi	r24, 0x09	; 9
 286:	7b d2       	rcall	.+1270   	; 0x77e <shiftOut>
  digitalWrite(latchPin, HIGH);   // take the latch pin high so the LEDs will light up:
 288:	61 e0       	ldi	r22, 0x01	; 1
 28a:	88 e0       	ldi	r24, 0x08	; 8
 28c:	48 d2       	rcall	.+1168   	; 0x71e <digitalWrite>
  digitalWrite(minuteTensPin, LOW); // turn on the switch
 28e:	60 e0       	ldi	r22, 0x00	; 0
 290:	83 e0       	ldi	r24, 0x03	; 3
 292:	45 d2       	rcall	.+1162   	; 0x71e <digitalWrite>
  delay(delayTime);               // wait
 294:	65 e0       	ldi	r22, 0x05	; 5
 296:	70 e0       	ldi	r23, 0x00	; 0
 298:	80 e0       	ldi	r24, 0x00	; 0
 29a:	90 e0       	ldi	r25, 0x00	; 0
 29c:	b0 d1       	rcall	.+864    	; 0x5fe <delay>
  digitalWrite(minuteTensPin, HIGH);// turn off the switch
 29e:	61 e0       	ldi	r22, 0x01	; 1
 2a0:	83 e0       	ldi	r24, 0x03	; 3
 2a2:	3d d2       	rcall	.+1146   	; 0x71e <digitalWrite>
  
  digitalWrite(latchPin, LOW);  
 2a4:	60 e0       	ldi	r22, 0x00	; 0
 2a6:	88 e0       	ldi	r24, 0x08	; 8
 2a8:	3a d2       	rcall	.+1140   	; 0x71e <digitalWrite>
  shiftOut(dataPin, clockPin, MSBFIRST, minuteOnesVal);  
 2aa:	20 91 74 00 	lds	r18, 0x0074
 2ae:	41 e0       	ldi	r20, 0x01	; 1
 2b0:	6a e0       	ldi	r22, 0x0A	; 10
 2b2:	89 e0       	ldi	r24, 0x09	; 9
 2b4:	64 d2       	rcall	.+1224   	; 0x77e <shiftOut>
  digitalWrite(latchPin, HIGH);   // take the latch                                                                   pin high so the LEDs will light up:
 2b6:	61 e0       	ldi	r22, 0x01	; 1
 2b8:	88 e0       	ldi	r24, 0x08	; 8
 2ba:	31 d2       	rcall	.+1122   	; 0x71e <digitalWrite>
  digitalWrite(minuteOnesPin, LOW); // turn on the switch
 2bc:	60 e0       	ldi	r22, 0x00	; 0
 2be:	82 e0       	ldi	r24, 0x02	; 2
 2c0:	2e d2       	rcall	.+1116   	; 0x71e <digitalWrite>
  delay(delayTime);               // wait
 2c2:	65 e0       	ldi	r22, 0x05	; 5
 2c4:	70 e0       	ldi	r23, 0x00	; 0
 2c6:	80 e0       	ldi	r24, 0x00	; 0
 2c8:	90 e0       	ldi	r25, 0x00	; 0
 2ca:	99 d1       	rcall	.+818    	; 0x5fe <delay>
  digitalWrite(minuteOnesPin, HIGH);// turn off the switch
 2cc:	61 e0       	ldi	r22, 0x01	; 1
 2ce:	82 e0       	ldi	r24, 0x02	; 2
 2d0:	26 d2       	rcall	.+1100   	; 0x71e <digitalWrite>
 2d2:	06 c0       	rjmp	.+12     	; 0x2e0 <__stack+0x81>
    }
  }
  
  if (!((1 << DECIMAL_BLINK) & theTime[instructionPos]) &&  // if we're not blinking the decimal and
     (theTime[instructionPos] & (1 << DECIMAL_ON))) {       // if the decimal point is on
    minuteOnesVal = theTime[minuteOnesPos] | (1 << CHAR_DECIMAL);  // add one to the number to send to the SS
 2d4:	80 91 74 00 	lds	r24, 0x0074
 2d8:	81 60       	ori	r24, 0x01	; 1
 2da:	80 93 74 00 	sts	0x0074, r24
 2de:	9d cf       	rjmp	.-198    	; 0x21a <loop+0xc8>
  digitalWrite(latchPin, HIGH);   // take the latch                                                                   pin high so the LEDs will light up:
  digitalWrite(minuteOnesPin, LOW); // turn on the switch
  delay(delayTime);               // wait
  digitalWrite(minuteOnesPin, HIGH);// turn off the switch

}
 2e0:	1f 91       	pop	r17
 2e2:	0f 91       	pop	r16
 2e4:	08 95       	ret

000002e6 <yield>:
 * libraries or sketches that supports cooperative threads.
 *
 * Its defined as a weak symbol and it can be redefined to implement a
 * real cooperative scheduler.
 */
static void __empty() {
 2e6:	08 95       	ret

000002e8 <_ZNK9IPAddress7printToER5Print>:
{
    return memcmp(addr, _address.bytes, sizeof(_address.bytes)) == 0;
}

size_t IPAddress::printTo(Print& p) const
{
 2e8:	8f 92       	push	r8
 2ea:	9f 92       	push	r9
 2ec:	af 92       	push	r10
 2ee:	bf 92       	push	r11
 2f0:	cf 92       	push	r12
 2f2:	df 92       	push	r13
 2f4:	ef 92       	push	r14
 2f6:	ff 92       	push	r15
 2f8:	0f 93       	push	r16
 2fa:	1f 93       	push	r17
 2fc:	cf 93       	push	r28
 2fe:	df 93       	push	r29
 300:	5c 01       	movw	r10, r24
 302:	7b 01       	movw	r14, r22
 304:	4c 01       	movw	r8, r24
 306:	82 e0       	ldi	r24, 0x02	; 2
 308:	88 0e       	add	r8, r24
 30a:	91 1c       	adc	r9, r1
 30c:	65 01       	movw	r12, r10
 30e:	e5 e0       	ldi	r30, 0x05	; 5
 310:	ce 0e       	add	r12, r30
 312:	d1 1c       	adc	r13, r1
    size_t n = 0;
 314:	00 e0       	ldi	r16, 0x00	; 0
 316:	10 e0       	ldi	r17, 0x00	; 0
    for (int i =0; i < 3; i++)
    {
        n += p.print(_address.bytes[i], DEC);
 318:	f4 01       	movw	r30, r8
 31a:	61 91       	ld	r22, Z+
 31c:	4f 01       	movw	r8, r30
 31e:	4a e0       	ldi	r20, 0x0A	; 10
 320:	50 e0       	ldi	r21, 0x00	; 0
 322:	c7 01       	movw	r24, r14
 324:	c0 d0       	rcall	.+384    	; 0x4a6 <_ZN5Print5printEhi>
 326:	ec 01       	movw	r28, r24
        n += p.print('.');
 328:	6e e2       	ldi	r22, 0x2E	; 46
 32a:	c7 01       	movw	r24, r14
 32c:	32 d0       	rcall	.+100    	; 0x392 <_ZN5Print5printEc>
 32e:	8c 0f       	add	r24, r28
 330:	9d 1f       	adc	r25, r29
 332:	08 0f       	add	r16, r24
 334:	19 1f       	adc	r17, r25
}

size_t IPAddress::printTo(Print& p) const
{
    size_t n = 0;
    for (int i =0; i < 3; i++)
 336:	8c 14       	cp	r8, r12
 338:	9d 04       	cpc	r9, r13
 33a:	71 f7       	brne	.-36     	; 0x318 <_ZNK9IPAddress7printToER5Print+0x30>
    {
        n += p.print(_address.bytes[i], DEC);
        n += p.print('.');
    }
    n += p.print(_address.bytes[3], DEC);
 33c:	4a e0       	ldi	r20, 0x0A	; 10
 33e:	50 e0       	ldi	r21, 0x00	; 0
 340:	f5 01       	movw	r30, r10
 342:	65 81       	ldd	r22, Z+5	; 0x05
 344:	c7 01       	movw	r24, r14
 346:	af d0       	rcall	.+350    	; 0x4a6 <_ZN5Print5printEhi>
    return n;
}
 348:	80 0f       	add	r24, r16
 34a:	91 1f       	adc	r25, r17
 34c:	df 91       	pop	r29
 34e:	cf 91       	pop	r28
 350:	1f 91       	pop	r17
 352:	0f 91       	pop	r16
 354:	ff 90       	pop	r15
 356:	ef 90       	pop	r14
 358:	df 90       	pop	r13
 35a:	cf 90       	pop	r12
 35c:	bf 90       	pop	r11
 35e:	af 90       	pop	r10
 360:	9f 90       	pop	r9
 362:	8f 90       	pop	r8
 364:	08 95       	ret

00000366 <_GLOBAL__sub_I__ZN9IPAddressC2Ev>:
IPAddress::IPAddress()
{
    _address.dword = 0;
}

IPAddress::IPAddress(uint8_t first_octet, uint8_t second_octet, uint8_t third_octet, uint8_t fourth_octet)
 366:	e1 e8       	ldi	r30, 0x81	; 129
 368:	f0 e0       	ldi	r31, 0x00	; 0
 36a:	8d e6       	ldi	r24, 0x6D	; 109
 36c:	90 e0       	ldi	r25, 0x00	; 0
 36e:	91 83       	std	Z+1, r25	; 0x01
 370:	80 83       	st	Z, r24
{
    _address.bytes[0] = first_octet;
 372:	12 82       	std	Z+2, r1	; 0x02
    _address.bytes[1] = second_octet;
 374:	13 82       	std	Z+3, r1	; 0x03
    _address.bytes[2] = third_octet;
 376:	14 82       	std	Z+4, r1	; 0x04
    _address.bytes[3] = fourth_octet;
 378:	15 82       	std	Z+5, r1	; 0x05
 37a:	08 95       	ret

0000037c <initVariant>:
int atexit(void (* /*func*/ )()) { return 0; }

// Weak empty variant initialization function.
// May be redefined by variant files.
void initVariant() __attribute__((weak));
void initVariant() { }
 37c:	08 95       	ret

0000037e <main>:
void setupUSB() __attribute__((weak));
void setupUSB() { }

int main(void)
{
	init();
 37e:	68 d1       	rcall	.+720    	; 0x650 <init>

	initVariant();
 380:	fd df       	rcall	.-6      	; 0x37c <initVariant>

#if defined(USBCON)
	USBDevice.attach();
#endif
	
	setup();
 382:	c8 de       	rcall	.-624    	; 0x114 <setup>
    
	for (;;) {
		loop();
		if (serialEventRun) serialEventRun();
 384:	c0 e0       	ldi	r28, 0x00	; 0
 386:	d0 e0       	ldi	r29, 0x00	; 0
#endif
	
	setup();
    
	for (;;) {
		loop();
 388:	e4 de       	rcall	.-568    	; 0x152 <loop>
		if (serialEventRun) serialEventRun();
 38a:	20 97       	sbiw	r28, 0x00	; 0
 38c:	e9 f3       	breq	.-6      	; 0x388 <main+0xa>
 38e:	38 de       	rcall	.-912    	; 0x0 <__vectors>
 390:	fb cf       	rjmp	.-10     	; 0x388 <main+0xa>

00000392 <_ZN5Print5printEc>:
  return write(str);
}

size_t Print::print(char c)
{
  return write(c);
 392:	dc 01       	movw	r26, r24
 394:	ed 91       	ld	r30, X+
 396:	fc 91       	ld	r31, X
 398:	01 90       	ld	r0, Z+
 39a:	f0 81       	ld	r31, Z
 39c:	e0 2d       	mov	r30, r0
 39e:	09 95       	icall
}
 3a0:	08 95       	ret

000003a2 <_ZN5Print11printNumberEmh>:
  return n;
}

// Private Methods /////////////////////////////////////////////////////////////

size_t Print::printNumber(unsigned long n, uint8_t base) {
 3a2:	4f 92       	push	r4
 3a4:	5f 92       	push	r5
 3a6:	6f 92       	push	r6
 3a8:	7f 92       	push	r7
 3aa:	9f 92       	push	r9
 3ac:	af 92       	push	r10
 3ae:	bf 92       	push	r11
 3b0:	cf 92       	push	r12
 3b2:	df 92       	push	r13
 3b4:	ef 92       	push	r14
 3b6:	ff 92       	push	r15
 3b8:	0f 93       	push	r16
 3ba:	1f 93       	push	r17
 3bc:	cf 93       	push	r28
 3be:	df 93       	push	r29
 3c0:	cd b7       	in	r28, 0x3d	; 61
 3c2:	de b7       	in	r29, 0x3e	; 62
 3c4:	a1 97       	sbiw	r28, 0x21	; 33
 3c6:	0f b6       	in	r0, 0x3f	; 63
 3c8:	f8 94       	cli
 3ca:	de bf       	out	0x3e, r29	; 62
 3cc:	0f be       	out	0x3f, r0	; 63
 3ce:	cd bf       	out	0x3d, r28	; 61
 3d0:	5c 01       	movw	r10, r24
 3d2:	6a 01       	movw	r12, r20
 3d4:	7b 01       	movw	r14, r22
 3d6:	92 2e       	mov	r9, r18
  char buf[8 * sizeof(long) + 1]; // Assumes 8-bit chars plus zero byte.
  char *str = &buf[sizeof(buf) - 1];

  *str = '\0';
 3d8:	19 a2       	std	Y+33, r1	; 0x21

  // prevent crash if called with base == 1
  if (base < 2) base = 10;
 3da:	81 e0       	ldi	r24, 0x01	; 1
 3dc:	82 17       	cp	r24, r18
 3de:	20 f0       	brcs	.+8      	; 0x3e8 <_ZN5Print11printNumberEmh+0x46>
 3e0:	0f 2e       	mov	r0, r31
 3e2:	fa e0       	ldi	r31, 0x0A	; 10
 3e4:	9f 2e       	mov	r9, r31
 3e6:	f0 2d       	mov	r31, r0
 3e8:	8e 01       	movw	r16, r28
 3ea:	0f 5d       	subi	r16, 0xDF	; 223
 3ec:	1f 4f       	sbci	r17, 0xFF	; 255

  do {
    unsigned long m = n;
    n /= base;
 3ee:	49 2c       	mov	r4, r9
 3f0:	51 2c       	mov	r5, r1
 3f2:	61 2c       	mov	r6, r1
 3f4:	71 2c       	mov	r7, r1
 3f6:	c7 01       	movw	r24, r14
 3f8:	b6 01       	movw	r22, r12
 3fa:	a3 01       	movw	r20, r6
 3fc:	92 01       	movw	r18, r4
 3fe:	1d d3       	rcall	.+1594   	; 0xa3a <__udivmodsi4>
    char c = m - base * n;
 400:	89 2d       	mov	r24, r9
 402:	62 2f       	mov	r22, r18
 404:	11 d3       	rcall	.+1570   	; 0xa28 <__mulqi3>
 406:	9c 2d       	mov	r25, r12
 408:	98 1b       	sub	r25, r24
 40a:	89 2f       	mov	r24, r25
    *--str = c < 10 ? c + '0' : c + 'A' - 10;
 40c:	01 50       	subi	r16, 0x01	; 1
 40e:	11 09       	sbc	r17, r1
 410:	9a 30       	cpi	r25, 0x0A	; 10
 412:	10 f4       	brcc	.+4      	; 0x418 <_ZN5Print11printNumberEmh+0x76>
 414:	80 5d       	subi	r24, 0xD0	; 208
 416:	01 c0       	rjmp	.+2      	; 0x41a <_ZN5Print11printNumberEmh+0x78>
 418:	89 5c       	subi	r24, 0xC9	; 201
 41a:	d8 01       	movw	r26, r16
 41c:	8c 93       	st	X, r24
  // prevent crash if called with base == 1
  if (base < 2) base = 10;

  do {
    unsigned long m = n;
    n /= base;
 41e:	c2 2e       	mov	r12, r18
 420:	d3 2e       	mov	r13, r19
 422:	e4 2e       	mov	r14, r20
 424:	f5 2e       	mov	r15, r21
  *str = '\0';

  // prevent crash if called with base == 1
  if (base < 2) base = 10;

  do {
 426:	c1 14       	cp	r12, r1
 428:	d1 04       	cpc	r13, r1
 42a:	e1 04       	cpc	r14, r1
 42c:	f1 04       	cpc	r15, r1
 42e:	19 f7       	brne	.-58     	; 0x3f6 <_ZN5Print11printNumberEmh+0x54>
    int getWriteError() { return write_error; }
    void clearWriteError() { setWriteError(0); }
  
    virtual size_t write(uint8_t) = 0;
    size_t write(const char *str) {
      if (str == NULL) return 0;
 430:	01 15       	cp	r16, r1
 432:	11 05       	cpc	r17, r1
 434:	91 f0       	breq	.+36     	; 0x45a <_ZN5Print11printNumberEmh+0xb8>
      return write((const uint8_t *)str, strlen(str));
 436:	f8 01       	movw	r30, r16
 438:	01 90       	ld	r0, Z+
 43a:	00 20       	and	r0, r0
 43c:	e9 f7       	brne	.-6      	; 0x438 <_ZN5Print11printNumberEmh+0x96>
 43e:	31 97       	sbiw	r30, 0x01	; 1
 440:	af 01       	movw	r20, r30
 442:	40 1b       	sub	r20, r16
 444:	51 0b       	sbc	r21, r17
 446:	d5 01       	movw	r26, r10
 448:	ed 91       	ld	r30, X+
 44a:	fc 91       	ld	r31, X
 44c:	02 80       	ldd	r0, Z+2	; 0x02
 44e:	f3 81       	ldd	r31, Z+3	; 0x03
 450:	e0 2d       	mov	r30, r0
 452:	b8 01       	movw	r22, r16
 454:	c5 01       	movw	r24, r10
 456:	09 95       	icall
 458:	02 c0       	rjmp	.+4      	; 0x45e <_ZN5Print11printNumberEmh+0xbc>
    int getWriteError() { return write_error; }
    void clearWriteError() { setWriteError(0); }
  
    virtual size_t write(uint8_t) = 0;
    size_t write(const char *str) {
      if (str == NULL) return 0;
 45a:	80 e0       	ldi	r24, 0x00	; 0
 45c:	90 e0       	ldi	r25, 0x00	; 0
    char c = m - base * n;
    *--str = c < 10 ? c + '0' : c + 'A' - 10;
  } while(n);

  return write(str);
}
 45e:	a1 96       	adiw	r28, 0x21	; 33
 460:	0f b6       	in	r0, 0x3f	; 63
 462:	f8 94       	cli
 464:	de bf       	out	0x3e, r29	; 62
 466:	0f be       	out	0x3f, r0	; 63
 468:	cd bf       	out	0x3d, r28	; 61
 46a:	df 91       	pop	r29
 46c:	cf 91       	pop	r28
 46e:	1f 91       	pop	r17
 470:	0f 91       	pop	r16
 472:	ff 90       	pop	r15
 474:	ef 90       	pop	r14
 476:	df 90       	pop	r13
 478:	cf 90       	pop	r12
 47a:	bf 90       	pop	r11
 47c:	af 90       	pop	r10
 47e:	9f 90       	pop	r9
 480:	7f 90       	pop	r7
 482:	6f 90       	pop	r6
 484:	5f 90       	pop	r5
 486:	4f 90       	pop	r4
 488:	08 95       	ret

0000048a <_ZN5Print5printEmi>:
  }
}

size_t Print::print(unsigned long n, int base)
{
  if (base == 0) return write(n);
 48a:	21 15       	cp	r18, r1
 48c:	31 05       	cpc	r19, r1
 48e:	49 f4       	brne	.+18     	; 0x4a2 <_ZN5Print5printEmi+0x18>
 490:	dc 01       	movw	r26, r24
 492:	ed 91       	ld	r30, X+
 494:	fc 91       	ld	r31, X
 496:	01 90       	ld	r0, Z+
 498:	f0 81       	ld	r31, Z
 49a:	e0 2d       	mov	r30, r0
 49c:	64 2f       	mov	r22, r20
 49e:	09 95       	icall
 4a0:	08 95       	ret
  else return printNumber(n, base);
 4a2:	7f df       	rcall	.-258    	; 0x3a2 <_ZN5Print11printNumberEmh>
}
 4a4:	08 95       	ret

000004a6 <_ZN5Print5printEhi>:
{
  return write(c);
}

size_t Print::print(unsigned char b, int base)
{
 4a6:	9a 01       	movw	r18, r20
  return print((unsigned long) b, base);
 4a8:	46 2f       	mov	r20, r22
 4aa:	50 e0       	ldi	r21, 0x00	; 0
 4ac:	60 e0       	ldi	r22, 0x00	; 0
 4ae:	70 e0       	ldi	r23, 0x00	; 0
 4b0:	ec df       	rcall	.-40     	; 0x48a <_ZN5Print5printEmi>
}
 4b2:	08 95       	ret

000004b4 <nothing>:
#include <avr/pgmspace.h>
#include <stdio.h>

#include "wiring_private.h"

static void nothing(void) {
 4b4:	08 95       	ret

000004b6 <__vector_1>:
    intFunc[EXTERNAL_INT_7]();
}

#else

ISR(INT0_vect) {
 4b6:	1f 92       	push	r1
 4b8:	0f 92       	push	r0
 4ba:	0f b6       	in	r0, 0x3f	; 63
 4bc:	0f 92       	push	r0
 4be:	11 24       	eor	r1, r1
 4c0:	2f 93       	push	r18
 4c2:	3f 93       	push	r19
 4c4:	4f 93       	push	r20
 4c6:	5f 93       	push	r21
 4c8:	6f 93       	push	r22
 4ca:	7f 93       	push	r23
 4cc:	8f 93       	push	r24
 4ce:	9f 93       	push	r25
 4d0:	af 93       	push	r26
 4d2:	bf 93       	push	r27
 4d4:	ef 93       	push	r30
 4d6:	ff 93       	push	r31
    intFunc[EXTERNAL_INT_0]();
 4d8:	e0 91 65 00 	lds	r30, 0x0065
 4dc:	f0 91 66 00 	lds	r31, 0x0066
 4e0:	09 95       	icall
}
 4e2:	ff 91       	pop	r31
 4e4:	ef 91       	pop	r30
 4e6:	bf 91       	pop	r27
 4e8:	af 91       	pop	r26
 4ea:	9f 91       	pop	r25
 4ec:	8f 91       	pop	r24
 4ee:	7f 91       	pop	r23
 4f0:	6f 91       	pop	r22
 4f2:	5f 91       	pop	r21
 4f4:	4f 91       	pop	r20
 4f6:	3f 91       	pop	r19
 4f8:	2f 91       	pop	r18
 4fa:	0f 90       	pop	r0
 4fc:	0f be       	out	0x3f, r0	; 63
 4fe:	0f 90       	pop	r0
 500:	1f 90       	pop	r1
 502:	18 95       	reti

00000504 <__vector_5>:
#if defined(__AVR_ATtiny24__) || defined(__AVR_ATtiny44__) || defined(__AVR_ATtiny84__)
ISR(TIM0_OVF_vect)
#else
ISR(TIMER0_OVF_vect)
#endif
{
 504:	1f 92       	push	r1
 506:	0f 92       	push	r0
 508:	0f b6       	in	r0, 0x3f	; 63
 50a:	0f 92       	push	r0
 50c:	11 24       	eor	r1, r1
 50e:	2f 93       	push	r18
 510:	3f 93       	push	r19
 512:	8f 93       	push	r24
 514:	9f 93       	push	r25
 516:	af 93       	push	r26
 518:	bf 93       	push	r27
	// copy these to local variables so they can be stored in registers
	// (volatile variables must be read from memory on every access)
	unsigned long m = timer0_millis;
 51a:	80 91 88 00 	lds	r24, 0x0088
 51e:	90 91 89 00 	lds	r25, 0x0089
 522:	a0 91 8a 00 	lds	r26, 0x008A
 526:	b0 91 8b 00 	lds	r27, 0x008B
	unsigned char f = timer0_fract;
 52a:	30 91 87 00 	lds	r19, 0x0087

	m += MILLIS_INC;
	f += FRACT_INC;
 52e:	23 e0       	ldi	r18, 0x03	; 3
 530:	23 0f       	add	r18, r19
	if (f >= FRACT_MAX) {
 532:	2d 37       	cpi	r18, 0x7D	; 125
 534:	20 f4       	brcc	.+8      	; 0x53e <__vector_5+0x3a>
	// copy these to local variables so they can be stored in registers
	// (volatile variables must be read from memory on every access)
	unsigned long m = timer0_millis;
	unsigned char f = timer0_fract;

	m += MILLIS_INC;
 536:	01 96       	adiw	r24, 0x01	; 1
 538:	a1 1d       	adc	r26, r1
 53a:	b1 1d       	adc	r27, r1
 53c:	05 c0       	rjmp	.+10     	; 0x548 <__vector_5+0x44>
	f += FRACT_INC;
	if (f >= FRACT_MAX) {
		f -= FRACT_MAX;
 53e:	26 e8       	ldi	r18, 0x86	; 134
 540:	23 0f       	add	r18, r19
		m += 1;
 542:	02 96       	adiw	r24, 0x02	; 2
 544:	a1 1d       	adc	r26, r1
 546:	b1 1d       	adc	r27, r1
	}

	timer0_fract = f;
 548:	20 93 87 00 	sts	0x0087, r18
	timer0_millis = m;
 54c:	80 93 88 00 	sts	0x0088, r24
 550:	90 93 89 00 	sts	0x0089, r25
 554:	a0 93 8a 00 	sts	0x008A, r26
 558:	b0 93 8b 00 	sts	0x008B, r27
	timer0_overflow_count++;
 55c:	80 91 8c 00 	lds	r24, 0x008C
 560:	90 91 8d 00 	lds	r25, 0x008D
 564:	a0 91 8e 00 	lds	r26, 0x008E
 568:	b0 91 8f 00 	lds	r27, 0x008F
 56c:	01 96       	adiw	r24, 0x01	; 1
 56e:	a1 1d       	adc	r26, r1
 570:	b1 1d       	adc	r27, r1
 572:	80 93 8c 00 	sts	0x008C, r24
 576:	90 93 8d 00 	sts	0x008D, r25
 57a:	a0 93 8e 00 	sts	0x008E, r26
 57e:	b0 93 8f 00 	sts	0x008F, r27
}
 582:	bf 91       	pop	r27
 584:	af 91       	pop	r26
 586:	9f 91       	pop	r25
 588:	8f 91       	pop	r24
 58a:	3f 91       	pop	r19
 58c:	2f 91       	pop	r18
 58e:	0f 90       	pop	r0
 590:	0f be       	out	0x3f, r0	; 63
 592:	0f 90       	pop	r0
 594:	1f 90       	pop	r1
 596:	18 95       	reti

00000598 <millis>:

unsigned long millis()
{
	unsigned long m;
	uint8_t oldSREG = SREG;
 598:	2f b7       	in	r18, 0x3f	; 63

	// disable interrupts while we read timer0_millis or we might get an
	// inconsistent value (e.g. in the middle of a write to timer0_millis)
	cli();
 59a:	f8 94       	cli
	m = timer0_millis;
 59c:	60 91 88 00 	lds	r22, 0x0088
 5a0:	70 91 89 00 	lds	r23, 0x0089
 5a4:	80 91 8a 00 	lds	r24, 0x008A
 5a8:	90 91 8b 00 	lds	r25, 0x008B
	SREG = oldSREG;
 5ac:	2f bf       	out	0x3f, r18	; 63

	return m;
}
 5ae:	08 95       	ret

000005b0 <micros>:

unsigned long micros() {
	unsigned long m;
	uint8_t oldSREG = SREG, t;
 5b0:	3f b7       	in	r19, 0x3f	; 63
	
	cli();
 5b2:	f8 94       	cli
	m = timer0_overflow_count;
 5b4:	80 91 8c 00 	lds	r24, 0x008C
 5b8:	90 91 8d 00 	lds	r25, 0x008D
 5bc:	a0 91 8e 00 	lds	r26, 0x008E
 5c0:	b0 91 8f 00 	lds	r27, 0x008F
#if defined(TCNT0)
	t = TCNT0;
 5c4:	22 b7       	in	r18, 0x32	; 50

#ifdef TIFR0
	if ((TIFR0 & _BV(TOV0)) && (t < 255))
		m++;
#else
	if ((TIFR & _BV(TOV0)) && (t < 255))
 5c6:	08 b6       	in	r0, 0x38	; 56
 5c8:	01 fe       	sbrs	r0, 1
 5ca:	05 c0       	rjmp	.+10     	; 0x5d6 <micros+0x26>
 5cc:	2f 3f       	cpi	r18, 0xFF	; 255
 5ce:	19 f0       	breq	.+6      	; 0x5d6 <micros+0x26>
		m++;
 5d0:	01 96       	adiw	r24, 0x01	; 1
 5d2:	a1 1d       	adc	r26, r1
 5d4:	b1 1d       	adc	r27, r1
#endif

	SREG = oldSREG;
 5d6:	3f bf       	out	0x3f, r19	; 63
	
	return ((m << 8) + t) * (64 / clockCyclesPerMicrosecond());
 5d8:	ba 2f       	mov	r27, r26
 5da:	a9 2f       	mov	r26, r25
 5dc:	98 2f       	mov	r25, r24
 5de:	88 27       	eor	r24, r24
 5e0:	82 0f       	add	r24, r18
 5e2:	91 1d       	adc	r25, r1
 5e4:	a1 1d       	adc	r26, r1
 5e6:	b1 1d       	adc	r27, r1
 5e8:	bc 01       	movw	r22, r24
 5ea:	cd 01       	movw	r24, r26
 5ec:	66 0f       	add	r22, r22
 5ee:	77 1f       	adc	r23, r23
 5f0:	88 1f       	adc	r24, r24
 5f2:	99 1f       	adc	r25, r25
 5f4:	66 0f       	add	r22, r22
 5f6:	77 1f       	adc	r23, r23
 5f8:	88 1f       	adc	r24, r24
 5fa:	99 1f       	adc	r25, r25
}
 5fc:	08 95       	ret

000005fe <delay>:

void delay(unsigned long ms)
{
 5fe:	cf 92       	push	r12
 600:	df 92       	push	r13
 602:	ef 92       	push	r14
 604:	ff 92       	push	r15
 606:	cf 93       	push	r28
 608:	df 93       	push	r29
 60a:	6b 01       	movw	r12, r22
 60c:	7c 01       	movw	r14, r24
	uint16_t start = (uint16_t)micros();
 60e:	d0 df       	rcall	.-96     	; 0x5b0 <micros>
 610:	eb 01       	movw	r28, r22

	while (ms > 0) {
 612:	c1 14       	cp	r12, r1
 614:	d1 04       	cpc	r13, r1
 616:	e1 04       	cpc	r14, r1
 618:	f1 04       	cpc	r15, r1
 61a:	99 f0       	breq	.+38     	; 0x642 <delay+0x44>
		yield();
 61c:	64 de       	rcall	.-824    	; 0x2e6 <yield>
		if (((uint16_t)micros() - start) >= 1000) {
 61e:	c8 df       	rcall	.-112    	; 0x5b0 <micros>
 620:	6c 1b       	sub	r22, r28
 622:	7d 0b       	sbc	r23, r29
 624:	68 3e       	cpi	r22, 0xE8	; 232
 626:	73 40       	sbci	r23, 0x03	; 3
 628:	38 f0       	brcs	.+14     	; 0x638 <delay+0x3a>
			ms--;
 62a:	81 e0       	ldi	r24, 0x01	; 1
 62c:	c8 1a       	sub	r12, r24
 62e:	d1 08       	sbc	r13, r1
 630:	e1 08       	sbc	r14, r1
 632:	f1 08       	sbc	r15, r1
			start += 1000;
 634:	c8 51       	subi	r28, 0x18	; 24
 636:	dc 4f       	sbci	r29, 0xFC	; 252

void delay(unsigned long ms)
{
	uint16_t start = (uint16_t)micros();

	while (ms > 0) {
 638:	c1 14       	cp	r12, r1
 63a:	d1 04       	cpc	r13, r1
 63c:	e1 04       	cpc	r14, r1
 63e:	f1 04       	cpc	r15, r1
 640:	69 f7       	brne	.-38     	; 0x61c <delay+0x1e>
		if (((uint16_t)micros() - start) >= 1000) {
			ms--;
			start += 1000;
		}
	}
}
 642:	df 91       	pop	r29
 644:	cf 91       	pop	r28
 646:	ff 90       	pop	r15
 648:	ef 90       	pop	r14
 64a:	df 90       	pop	r13
 64c:	cf 90       	pop	r12
 64e:	08 95       	ret

00000650 <init>:

void init()
{
	// this needs to be called before setup() or some functions won't
	// work there
	sei();
 650:	78 94       	sei
	
	// on the ATmega168, timer 0 is also used for fast hardware pwm
	// (using phase-correct PWM would mean that timer 0 overflowed half as often
	// resulting in different millis() behavior on the ATmega8 and ATmega168)
#if defined(TCCR0A) && defined(WGM01)
	sbi(TCCR0A, WGM01);
 652:	8a b5       	in	r24, 0x2a	; 42
 654:	82 60       	ori	r24, 0x02	; 2
 656:	8a bd       	out	0x2a, r24	; 42
	sbi(TCCR0A, WGM00);
 658:	8a b5       	in	r24, 0x2a	; 42
 65a:	81 60       	ori	r24, 0x01	; 1
 65c:	8a bd       	out	0x2a, r24	; 42
	// this combination is for the standard atmega8
	sbi(TCCR0, CS01);
	sbi(TCCR0, CS00);
#elif defined(TCCR0B) && defined(CS01) && defined(CS00)
	// this combination is for the standard 168/328/1280/2560
	sbi(TCCR0B, CS01);
 65e:	83 b7       	in	r24, 0x33	; 51
 660:	82 60       	ori	r24, 0x02	; 2
 662:	83 bf       	out	0x33, r24	; 51
	sbi(TCCR0B, CS00);
 664:	83 b7       	in	r24, 0x33	; 51
 666:	81 60       	ori	r24, 0x01	; 1
 668:	83 bf       	out	0x33, r24	; 51
	#error Timer 0 prescale factor 64 not set correctly
#endif

	// enable timer 0 overflow interrupt
#if defined(TIMSK) && defined(TOIE0)
	sbi(TIMSK, TOIE0);
 66a:	89 b7       	in	r24, 0x39	; 57
 66c:	82 60       	ori	r24, 0x02	; 2
 66e:	89 bf       	out	0x39, r24	; 57
	sbi(TCCR1B, CS11);
#if F_CPU >= 8000000L
	sbi(TCCR1B, CS10);
#endif
#elif defined(TCCR1) && defined(CS11) && defined(CS10)
	sbi(TCCR1, CS11);
 670:	80 b7       	in	r24, 0x30	; 48
 672:	82 60       	ori	r24, 0x02	; 2
 674:	80 bf       	out	0x30, r24	; 48
#if F_CPU >= 8000000L
	sbi(TCCR1, CS10);
 676:	80 b7       	in	r24, 0x30	; 48
 678:	81 60       	ori	r24, 0x01	; 1
 67a:	80 bf       	out	0x30, r24	; 48
#endif

#if defined(ADCSRA)
	// set a2d prescaler so we are inside the desired 50-200 KHz range.
	#if F_CPU >= 16000000 // 16 MHz / 128 = 125 KHz
		sbi(ADCSRA, ADPS2);
 67c:	32 9a       	sbi	0x06, 2	; 6
		sbi(ADCSRA, ADPS1);
 67e:	31 9a       	sbi	0x06, 1	; 6
		sbi(ADCSRA, ADPS0);
 680:	30 9a       	sbi	0x06, 0	; 6
		cbi(ADCSRA, ADPS2);
		cbi(ADCSRA, ADPS1);
		sbi(ADCSRA, ADPS0);
	#endif
	// enable a2d conversions
	sbi(ADCSRA, ADEN);
 682:	37 9a       	sbi	0x06, 7	; 6
 684:	08 95       	ret

00000686 <turnOffPWM>:
//
//static inline void turnOffPWM(uint8_t timer) __attribute__ ((always_inline));
//static inline void turnOffPWM(uint8_t timer)
static void turnOffPWM(uint8_t timer)
{
	switch (timer)
 686:	81 30       	cpi	r24, 0x01	; 1
 688:	19 f0       	breq	.+6      	; 0x690 <turnOffPWM+0xa>
 68a:	82 30       	cpi	r24, 0x02	; 2
 68c:	29 f0       	breq	.+10     	; 0x698 <turnOffPWM+0x12>
 68e:	08 95       	ret
		#if defined(TCCR2) && defined(COM21)
		case  TIMER2:   cbi(TCCR2, COM21);      break;
		#endif
		
		#if defined(TCCR0A) && defined(COM0A1)
		case  TIMER0A:  cbi(TCCR0A, COM0A1);    break;
 690:	8a b5       	in	r24, 0x2a	; 42
 692:	8f 77       	andi	r24, 0x7F	; 127
 694:	8a bd       	out	0x2a, r24	; 42
 696:	08 95       	ret
		#endif
		
		#if defined(TCCR0A) && defined(COM0B1)
		case  TIMER0B:  cbi(TCCR0A, COM0B1);    break;
 698:	8a b5       	in	r24, 0x2a	; 42
 69a:	8f 7d       	andi	r24, 0xDF	; 223
 69c:	8a bd       	out	0x2a, r24	; 42
 69e:	08 95       	ret

000006a0 <pinMode>:
#define ARDUINO_MAIN
#include "wiring_private.h"
#include "pins_arduino.h"

void pinMode(uint8_t pin, uint8_t mode)
{
 6a0:	cf 93       	push	r28
 6a2:	df 93       	push	r29
	uint8_t bit = digitalPinToBitMask(pin);
 6a4:	90 e0       	ldi	r25, 0x00	; 0
 6a6:	fc 01       	movw	r30, r24
 6a8:	ee 5c       	subi	r30, 0xCE	; 206
 6aa:	ff 4f       	sbci	r31, 0xFF	; 255
 6ac:	24 91       	lpm	r18, Z
	uint8_t port = digitalPinToPort(pin);
 6ae:	fc 01       	movw	r30, r24
 6b0:	ea 5b       	subi	r30, 0xBA	; 186
 6b2:	ff 4f       	sbci	r31, 0xFF	; 255
 6b4:	84 91       	lpm	r24, Z
	volatile uint8_t *reg, *out;

	if (port == NOT_A_PIN) return;
 6b6:	88 23       	and	r24, r24
 6b8:	79 f1       	breq	.+94     	; 0x718 <pinMode+0x78>

	// JWS: can I let the optimizer do this?
	reg = portModeRegister(port);
 6ba:	90 e0       	ldi	r25, 0x00	; 0
 6bc:	88 0f       	add	r24, r24
 6be:	99 1f       	adc	r25, r25
 6c0:	fc 01       	movw	r30, r24
 6c2:	e0 5a       	subi	r30, 0xA0	; 160
 6c4:	ff 4f       	sbci	r31, 0xFF	; 255
 6c6:	a5 91       	lpm	r26, Z+
 6c8:	b4 91       	lpm	r27, Z
	out = portOutputRegister(port);
 6ca:	fc 01       	movw	r30, r24
 6cc:	e6 5a       	subi	r30, 0xA6	; 166
 6ce:	ff 4f       	sbci	r31, 0xFF	; 255
 6d0:	c5 91       	lpm	r28, Z+
 6d2:	d4 91       	lpm	r29, Z

	if (mode == INPUT) { 
 6d4:	61 11       	cpse	r22, r1
 6d6:	0c c0       	rjmp	.+24     	; 0x6f0 <pinMode+0x50>
		uint8_t oldSREG = SREG;
 6d8:	9f b7       	in	r25, 0x3f	; 63
                cli();
 6da:	f8 94       	cli
		*reg &= ~bit;
 6dc:	8c 91       	ld	r24, X
 6de:	e2 2f       	mov	r30, r18
 6e0:	e0 95       	com	r30
 6e2:	8e 23       	and	r24, r30
 6e4:	8c 93       	st	X, r24
		*out &= ~bit;
 6e6:	28 81       	ld	r18, Y
 6e8:	e2 23       	and	r30, r18
 6ea:	e8 83       	st	Y, r30
		SREG = oldSREG;
 6ec:	9f bf       	out	0x3f, r25	; 63
 6ee:	14 c0       	rjmp	.+40     	; 0x718 <pinMode+0x78>
	} else if (mode == INPUT_PULLUP) {
 6f0:	62 30       	cpi	r22, 0x02	; 2
 6f2:	61 f4       	brne	.+24     	; 0x70c <pinMode+0x6c>
		uint8_t oldSREG = SREG;
 6f4:	9f b7       	in	r25, 0x3f	; 63
                cli();
 6f6:	f8 94       	cli
		*reg &= ~bit;
 6f8:	3c 91       	ld	r19, X
 6fa:	82 2f       	mov	r24, r18
 6fc:	80 95       	com	r24
 6fe:	83 23       	and	r24, r19
 700:	8c 93       	st	X, r24
		*out |= bit;
 702:	e8 81       	ld	r30, Y
 704:	e2 2b       	or	r30, r18
 706:	e8 83       	st	Y, r30
		SREG = oldSREG;
 708:	9f bf       	out	0x3f, r25	; 63
 70a:	06 c0       	rjmp	.+12     	; 0x718 <pinMode+0x78>
	} else {
		uint8_t oldSREG = SREG;
 70c:	8f b7       	in	r24, 0x3f	; 63
                cli();
 70e:	f8 94       	cli
		*reg |= bit;
 710:	ec 91       	ld	r30, X
 712:	e2 2b       	or	r30, r18
 714:	ec 93       	st	X, r30
		SREG = oldSREG;
 716:	8f bf       	out	0x3f, r24	; 63
	}
}
 718:	df 91       	pop	r29
 71a:	cf 91       	pop	r28
 71c:	08 95       	ret

0000071e <digitalWrite>:
		#endif
	}
}

void digitalWrite(uint8_t pin, uint8_t val)
{
 71e:	1f 93       	push	r17
 720:	cf 93       	push	r28
 722:	df 93       	push	r29
	uint8_t timer = digitalPinToTimer(pin);
 724:	28 2f       	mov	r18, r24
 726:	30 e0       	ldi	r19, 0x00	; 0
 728:	f9 01       	movw	r30, r18
 72a:	e2 5e       	subi	r30, 0xE2	; 226
 72c:	ff 4f       	sbci	r31, 0xFF	; 255
 72e:	84 91       	lpm	r24, Z
	uint8_t bit = digitalPinToBitMask(pin);
 730:	f9 01       	movw	r30, r18
 732:	ee 5c       	subi	r30, 0xCE	; 206
 734:	ff 4f       	sbci	r31, 0xFF	; 255
 736:	14 91       	lpm	r17, Z
	uint8_t port = digitalPinToPort(pin);
 738:	f9 01       	movw	r30, r18
 73a:	ea 5b       	subi	r30, 0xBA	; 186
 73c:	ff 4f       	sbci	r31, 0xFF	; 255
 73e:	c4 91       	lpm	r28, Z
	volatile uint8_t *out;

	if (port == NOT_A_PIN) return;
 740:	cc 23       	and	r28, r28
 742:	c9 f0       	breq	.+50     	; 0x776 <digitalWrite+0x58>
 744:	d6 2f       	mov	r29, r22

	// If the pin that support PWM output, we need to turn it off
	// before doing a digital write.
	if (timer != NOT_ON_TIMER) turnOffPWM(timer);
 746:	81 11       	cpse	r24, r1
 748:	9e df       	rcall	.-196    	; 0x686 <turnOffPWM>

	out = portOutputRegister(port);
 74a:	ec 2f       	mov	r30, r28
 74c:	f0 e0       	ldi	r31, 0x00	; 0
 74e:	ee 0f       	add	r30, r30
 750:	ff 1f       	adc	r31, r31
 752:	e6 5a       	subi	r30, 0xA6	; 166
 754:	ff 4f       	sbci	r31, 0xFF	; 255
 756:	a5 91       	lpm	r26, Z+
 758:	b4 91       	lpm	r27, Z

	uint8_t oldSREG = SREG;
 75a:	8f b7       	in	r24, 0x3f	; 63
	cli();
 75c:	f8 94       	cli

	if (val == LOW) {
 75e:	d1 11       	cpse	r29, r1
 760:	06 c0       	rjmp	.+12     	; 0x76e <digitalWrite+0x50>
		*out &= ~bit;
 762:	9c 91       	ld	r25, X
 764:	e1 2f       	mov	r30, r17
 766:	e0 95       	com	r30
 768:	e9 23       	and	r30, r25
 76a:	ec 93       	st	X, r30
 76c:	03 c0       	rjmp	.+6      	; 0x774 <digitalWrite+0x56>
	} else {
		*out |= bit;
 76e:	ec 91       	ld	r30, X
 770:	e1 2b       	or	r30, r17
 772:	ec 93       	st	X, r30
	}

	SREG = oldSREG;
 774:	8f bf       	out	0x3f, r24	; 63
}
 776:	df 91       	pop	r29
 778:	cf 91       	pop	r28
 77a:	1f 91       	pop	r17
 77c:	08 95       	ret

0000077e <shiftOut>:
	}
	return value;
}

void shiftOut(uint8_t dataPin, uint8_t clockPin, uint8_t bitOrder, uint8_t val)
{
 77e:	bf 92       	push	r11
 780:	cf 92       	push	r12
 782:	df 92       	push	r13
 784:	ef 92       	push	r14
 786:	ff 92       	push	r15
 788:	0f 93       	push	r16
 78a:	1f 93       	push	r17
 78c:	cf 93       	push	r28
 78e:	df 93       	push	r29
 790:	b8 2e       	mov	r11, r24
 792:	16 2f       	mov	r17, r22
 794:	04 2f       	mov	r16, r20
 796:	c7 e0       	ldi	r28, 0x07	; 7
 798:	d0 e0       	ldi	r29, 0x00	; 0

	for (i = 0; i < 8; i++)  {
		if (bitOrder == LSBFIRST)
			digitalWrite(dataPin, !!(val & (1 << i)));
		else	
			digitalWrite(dataPin, !!(val & (1 << (7 - i))));
 79a:	e2 2e       	mov	r14, r18
 79c:	f1 2c       	mov	r15, r1
 79e:	0f 2e       	mov	r0, r31
 7a0:	f7 e0       	ldi	r31, 0x07	; 7
 7a2:	cf 2e       	mov	r12, r31
 7a4:	d1 2c       	mov	r13, r1
 7a6:	f0 2d       	mov	r31, r0
void shiftOut(uint8_t dataPin, uint8_t clockPin, uint8_t bitOrder, uint8_t val)
{
	uint8_t i;

	for (i = 0; i < 8; i++)  {
		if (bitOrder == LSBFIRST)
 7a8:	01 11       	cpse	r16, r1
 7aa:	0d c0       	rjmp	.+26     	; 0x7c6 <shiftOut+0x48>
 7ac:	c6 01       	movw	r24, r12
 7ae:	8c 1b       	sub	r24, r28
 7b0:	9d 0b       	sbc	r25, r29
			digitalWrite(dataPin, !!(val & (1 << i)));
 7b2:	b7 01       	movw	r22, r14
 7b4:	02 c0       	rjmp	.+4      	; 0x7ba <shiftOut+0x3c>
 7b6:	75 95       	asr	r23
 7b8:	67 95       	ror	r22
 7ba:	8a 95       	dec	r24
 7bc:	e2 f7       	brpl	.-8      	; 0x7b6 <shiftOut+0x38>
 7be:	61 70       	andi	r22, 0x01	; 1
 7c0:	8b 2d       	mov	r24, r11
 7c2:	ad df       	rcall	.-166    	; 0x71e <digitalWrite>
 7c4:	0a c0       	rjmp	.+20     	; 0x7da <shiftOut+0x5c>
		else	
			digitalWrite(dataPin, !!(val & (1 << (7 - i))));
 7c6:	b7 01       	movw	r22, r14
 7c8:	0c 2e       	mov	r0, r28
 7ca:	02 c0       	rjmp	.+4      	; 0x7d0 <shiftOut+0x52>
 7cc:	75 95       	asr	r23
 7ce:	67 95       	ror	r22
 7d0:	0a 94       	dec	r0
 7d2:	e2 f7       	brpl	.-8      	; 0x7cc <shiftOut+0x4e>
 7d4:	61 70       	andi	r22, 0x01	; 1
 7d6:	8b 2d       	mov	r24, r11
 7d8:	a2 df       	rcall	.-188    	; 0x71e <digitalWrite>
			
		digitalWrite(clockPin, HIGH);
 7da:	61 e0       	ldi	r22, 0x01	; 1
 7dc:	81 2f       	mov	r24, r17
 7de:	9f df       	rcall	.-194    	; 0x71e <digitalWrite>
		digitalWrite(clockPin, LOW);		
 7e0:	60 e0       	ldi	r22, 0x00	; 0
 7e2:	81 2f       	mov	r24, r17
 7e4:	9c df       	rcall	.-200    	; 0x71e <digitalWrite>
 7e6:	21 97       	sbiw	r28, 0x01	; 1
 7e8:	f8 f6       	brcc	.-66     	; 0x7a8 <shiftOut+0x2a>
	}
}
 7ea:	df 91       	pop	r29
 7ec:	cf 91       	pop	r28
 7ee:	1f 91       	pop	r17
 7f0:	0f 91       	pop	r16
 7f2:	ff 90       	pop	r15
 7f4:	ef 90       	pop	r14
 7f6:	df 90       	pop	r13
 7f8:	cf 90       	pop	r12
 7fa:	bf 90       	pop	r11
 7fc:	08 95       	ret

000007fe <_ZN9USI_TWI_S5beginEh>:
}


// Public Methods //////////////////////////////////////////////////////////////

void USI_TWI_S::begin(uint8_t slaveAddr){ // initialize I2C lib
 7fe:	86 2f       	mov	r24, r22
  usiTwiSlaveInit(slaveAddr); 
 800:	08 d0       	rcall	.+16     	; 0x812 <usiTwiSlaveInit>
 802:	08 95       	ret

00000804 <_ZN9USI_TWI_S7receiveEv>:
  return usiTwiAmountDataInReceiveBuffer(); 
  //return usiTwiDataInReceiveBuffer(); // This is wrong as far as the Wire API is concerned since it returns boolean and not amount
}
 
uint8_t USI_TWI_S::receive(){ // returns the bytes received one at a time
  return usiTwiReceiveByte(); 
 804:	1f d0       	rcall	.+62     	; 0x844 <usiTwiReceiveByte>
}
 806:	08 95       	ret

00000808 <_ZN9USI_TWI_S9onReceiveEPFvhE>:

// sets function called on slave write
void USI_TWI_S::onReceive( void (*function)(uint8_t) )
{
  usi_onReceiverPtr = function;
 808:	70 93 92 00 	sts	0x0092, r23
 80c:	60 93 91 00 	sts	0x0091, r22
 810:	08 95       	ret

00000812 <usiTwiSlaveInit>:
void
flushTwiBuffers(
  void
)
{
  rxTail = 0;
 812:	10 92 a9 00 	sts	0x00A9, r1
  rxHead = 0;
 816:	10 92 aa 00 	sts	0x00AA, r1
  rxCount = 0;
 81a:	10 92 a8 00 	sts	0x00A8, r1
  txTail = 0;
 81e:	10 92 96 00 	sts	0x0096, r1
  txHead = 0;
 822:	10 92 97 00 	sts	0x0097, r1
  txCount = 0;
 826:	10 92 95 00 	sts	0x0095, r1
)
{

  flushTwiBuffers( );

  slaveAddress = ownAddress;
 82a:	80 93 bc 00 	sts	0x00BC, r24
  // low when a start condition is detected or a counter overflow (only
  // for USIWM1, USIWM0 = 11).  This inserts a wait state.  SCL is released
  // by the ISRs (USI_START_vect and USI_OVERFLOW_vect).

  // Set SCL and SDA as output
  DDR_USI |= ( 1 << PORT_USI_SCL ) | ( 1 << PORT_USI_SDA );
 82e:	87 b3       	in	r24, 0x17	; 23
 830:	85 60       	ori	r24, 0x05	; 5
 832:	87 bb       	out	0x17, r24	; 23

  // set SCL high
  PORT_USI |= ( 1 << PORT_USI_SCL );
 834:	c2 9a       	sbi	0x18, 2	; 24

  // set SDA high
  PORT_USI |= ( 1 << PORT_USI_SDA );
 836:	c0 9a       	sbi	0x18, 0	; 24

  // Set SDA as input
  DDR_USI &= ~( 1 << PORT_USI_SDA );
 838:	b8 98       	cbi	0x17, 0	; 23

  USICR =
 83a:	88 ea       	ldi	r24, 0xA8	; 168
 83c:	8d b9       	out	0x0d, r24	; 13
       // no toggle clock-port pin
       ( 0 << USITC );

  // clear all interrupt flags and reset overflow counter

  USISR = ( 1 << USI_START_COND_INT ) | ( 1 << USIOIF ) | ( 1 << USIPF ) | ( 1 << USIDC );
 83e:	80 ef       	ldi	r24, 0xF0	; 240
 840:	8e b9       	out	0x0e, r24	; 14
 842:	08 95       	ret

00000844 <usiTwiReceiveByte>:
)
{
  uint8_t rtn_byte;

  // wait for Rx data
  while ( !rxCount );
 844:	80 91 a8 00 	lds	r24, 0x00A8
 848:	88 23       	and	r24, r24
 84a:	e1 f3       	breq	.-8      	; 0x844 <usiTwiReceiveByte>

  rtn_byte = rxBuf [ rxTail ];
 84c:	e0 91 a9 00 	lds	r30, 0x00A9
 850:	f0 e0       	ldi	r31, 0x00	; 0
 852:	e5 55       	subi	r30, 0x55	; 85
 854:	ff 4f       	sbci	r31, 0xFF	; 255
 856:	80 81       	ld	r24, Z
  // calculate buffer index
  rxTail = ( rxTail + 1 ) & TWI_RX_BUFFER_MASK;
 858:	90 91 a9 00 	lds	r25, 0x00A9
 85c:	9f 5f       	subi	r25, 0xFF	; 255
 85e:	9f 70       	andi	r25, 0x0F	; 15
 860:	90 93 a9 00 	sts	0x00A9, r25
  rxCount--;
 864:	90 91 a8 00 	lds	r25, 0x00A8
 868:	91 50       	subi	r25, 0x01	; 1
 86a:	90 93 a8 00 	sts	0x00A8, r25

  // return data from the buffer.
  return rtn_byte;

} // end usiTwiReceiveByte
 86e:	08 95       	ret

00000870 <__vector_13>:
                            USI Start Condition ISR

********************************************************************************/

ISR( USI_START_VECTOR )
{
 870:	1f 92       	push	r1
 872:	0f 92       	push	r0
 874:	0f b6       	in	r0, 0x3f	; 63
 876:	0f 92       	push	r0
 878:	11 24       	eor	r1, r1
 87a:	8f 93       	push	r24
  // This triggers on second write, but claims to the callback there is only *one* byte in buffer
  USI_RECEIVE_CALLBACK();
  */

  // set default starting conditions for new TWI package
  overflowState = USI_SLAVE_CHECK_ADDRESS;
 87c:	10 92 bb 00 	sts	0x00BB, r1

  // set SDA as input
  DDR_USI &= ~( 1 << PORT_USI_SDA );
 880:	b8 98       	cbi	0x17, 0	; 23
  // wait for SCL to go low to ensure the Start Condition has completed (the
  // start detector will hold SCL low ) - if a Stop Condition arises then leave
  // the interrupt to prevent waiting forever - don't use USISR to test for Stop
  // Condition as in Application Note AVR312 because the Stop Condition Flag is
  // going to be set from the last TWI sequence
  while (
 882:	b2 9b       	sbis	0x16, 2	; 22
 884:	02 c0       	rjmp	.+4      	; 0x88a <__vector_13+0x1a>
       // SCL his high
       ( PIN_USI & ( 1 << PIN_USI_SCL ) ) &&
 886:	b0 9b       	sbis	0x16, 0	; 22
 888:	fc cf       	rjmp	.-8      	; 0x882 <__vector_13+0x12>
       // and SDA is low
       !( ( PIN_USI & ( 1 << PIN_USI_SDA ) ) )
  );


  if ( !( PIN_USI & ( 1 << PIN_USI_SDA ) ) )
 88a:	b0 99       	sbic	0x16, 0	; 22
 88c:	03 c0       	rjmp	.+6      	; 0x894 <__vector_13+0x24>
  {

    // a Stop Condition did not occur

    USICR =
 88e:	88 ef       	ldi	r24, 0xF8	; 248
 890:	8d b9       	out	0x0d, r24	; 13
 892:	02 c0       	rjmp	.+4      	; 0x898 <__vector_13+0x28>
  }
  else
  {
    // a Stop Condition did occur

    USICR =
 894:	88 ea       	ldi	r24, 0xA8	; 168
 896:	8d b9       	out	0x0d, r24	; 13
         // no toggle clock-port pin
         ( 0 << USITC );

  } // end if

  USISR =
 898:	80 ef       	ldi	r24, 0xF0	; 240
 89a:	8e b9       	out	0x0e, r24	; 14
       ( 1 << USIPF ) |( 1 << USIDC ) |
       // set USI to sample 8 bits (count 16 external SCL pin toggles)
       ( 0x0 << USICNT0);


} // end ISR( USI_START_VECTOR )
 89c:	8f 91       	pop	r24
 89e:	0f 90       	pop	r0
 8a0:	0f be       	out	0x3f, r0	; 63
 8a2:	0f 90       	pop	r0
 8a4:	1f 90       	pop	r1
 8a6:	18 95       	reti

000008a8 <__vector_14>:
Only disabled when waiting for a new Start Condition.

********************************************************************************/

ISR( USI_OVERFLOW_VECTOR )
{
 8a8:	1f 92       	push	r1
 8aa:	0f 92       	push	r0
 8ac:	0f b6       	in	r0, 0x3f	; 63
 8ae:	0f 92       	push	r0
 8b0:	11 24       	eor	r1, r1
 8b2:	2f 93       	push	r18
 8b4:	3f 93       	push	r19
 8b6:	4f 93       	push	r20
 8b8:	5f 93       	push	r21
 8ba:	6f 93       	push	r22
 8bc:	7f 93       	push	r23
 8be:	8f 93       	push	r24
 8c0:	9f 93       	push	r25
 8c2:	af 93       	push	r26
 8c4:	bf 93       	push	r27
 8c6:	ef 93       	push	r30
 8c8:	ff 93       	push	r31

  switch ( overflowState )
 8ca:	80 91 bb 00 	lds	r24, 0x00BB
 8ce:	82 30       	cpi	r24, 0x02	; 2
 8d0:	09 f4       	brne	.+2      	; 0x8d4 <__vector_14+0x2c>
 8d2:	6d c0       	rjmp	.+218    	; 0x9ae <__vector_14+0x106>
 8d4:	30 f4       	brcc	.+12     	; 0x8e2 <__vector_14+0x3a>
 8d6:	88 23       	and	r24, r24
 8d8:	61 f0       	breq	.+24     	; 0x8f2 <__vector_14+0x4a>
 8da:	81 30       	cpi	r24, 0x01	; 1
 8dc:	09 f4       	brne	.+2      	; 0x8e0 <__vector_14+0x38>
 8de:	41 c0       	rjmp	.+130    	; 0x962 <__vector_14+0xba>
 8e0:	92 c0       	rjmp	.+292    	; 0xa06 <__vector_14+0x15e>
 8e2:	84 30       	cpi	r24, 0x04	; 4
 8e4:	09 f4       	brne	.+2      	; 0x8e8 <__vector_14+0x40>
 8e6:	6b c0       	rjmp	.+214    	; 0x9be <__vector_14+0x116>
 8e8:	a0 f1       	brcs	.+104    	; 0x952 <__vector_14+0xaa>
 8ea:	85 30       	cpi	r24, 0x05	; 5
 8ec:	09 f4       	brne	.+2      	; 0x8f0 <__vector_14+0x48>
 8ee:	6e c0       	rjmp	.+220    	; 0x9cc <__vector_14+0x124>
 8f0:	8a c0       	rjmp	.+276    	; 0xa06 <__vector_14+0x15e>
  {

    // Address mode: check address and send ACK (and next USI_SLAVE_SEND_DATA) if OK,
    // else reset USI
    case USI_SLAVE_CHECK_ADDRESS:
      if ( ( USIDR == 0 ) || ( ( USIDR >> 1 ) == slaveAddress) )
 8f2:	8f b1       	in	r24, 0x0f	; 15
 8f4:	88 23       	and	r24, r24
 8f6:	31 f0       	breq	.+12     	; 0x904 <__vector_14+0x5c>
 8f8:	8f b1       	in	r24, 0x0f	; 15
 8fa:	86 95       	lsr	r24
 8fc:	90 91 bc 00 	lds	r25, 0x00BC
 900:	89 13       	cpse	r24, r25
 902:	22 c0       	rjmp	.+68     	; 0x948 <__vector_14+0xa0>
      {
        if ( USIDR & 0x01 )
 904:	78 9b       	sbis	0x0f, 0	; 15
 906:	18 c0       	rjmp	.+48     	; 0x938 <__vector_14+0x90>
        {
          USI_REQUEST_CALLBACK();
 908:	e0 91 91 00 	lds	r30, 0x0091
 90c:	f0 91 92 00 	lds	r31, 0x0092
 910:	30 97       	sbiw	r30, 0x00	; 0
 912:	39 f0       	breq	.+14     	; 0x922 <__vector_14+0x7a>



uint8_t usiTwiAmountDataInReceiveBuffer(void)
{
    return rxCount;
 914:	80 91 a8 00 	lds	r24, 0x00A8
    case USI_SLAVE_CHECK_ADDRESS:
      if ( ( USIDR == 0 ) || ( ( USIDR >> 1 ) == slaveAddress) )
      {
        if ( USIDR & 0x01 )
        {
          USI_REQUEST_CALLBACK();
 918:	88 23       	and	r24, r24
 91a:	19 f0       	breq	.+6      	; 0x922 <__vector_14+0x7a>



uint8_t usiTwiAmountDataInReceiveBuffer(void)
{
    return rxCount;
 91c:	80 91 a8 00 	lds	r24, 0x00A8
    case USI_SLAVE_CHECK_ADDRESS:
      if ( ( USIDR == 0 ) || ( ( USIDR >> 1 ) == slaveAddress) )
      {
        if ( USIDR & 0x01 )
        {
          USI_REQUEST_CALLBACK();
 920:	09 95       	icall
 922:	e0 91 93 00 	lds	r30, 0x0093
 926:	f0 91 94 00 	lds	r31, 0x0094
 92a:	30 97       	sbiw	r30, 0x00	; 0
 92c:	09 f0       	breq	.+2      	; 0x930 <__vector_14+0x88>
 92e:	09 95       	icall
          overflowState = USI_SLAVE_SEND_DATA;
 930:	81 e0       	ldi	r24, 0x01	; 1
 932:	80 93 bb 00 	sts	0x00BB, r24
 936:	03 c0       	rjmp	.+6      	; 0x93e <__vector_14+0x96>
        }
        else
        {
          overflowState = USI_SLAVE_REQUEST_DATA;
 938:	84 e0       	ldi	r24, 0x04	; 4
 93a:	80 93 bb 00 	sts	0x00BB, r24
        } // end if
        SET_USI_TO_SEND_ACK( );
 93e:	1f b8       	out	0x0f, r1	; 15
 940:	b8 9a       	sbi	0x17, 0	; 23
 942:	8e e7       	ldi	r24, 0x7E	; 126
 944:	8e b9       	out	0x0e, r24	; 14
 946:	5f c0       	rjmp	.+190    	; 0xa06 <__vector_14+0x15e>
      }
      else
      {
        SET_USI_TO_TWI_START_CONDITION_MODE( );
 948:	88 ea       	ldi	r24, 0xA8	; 168
 94a:	8d b9       	out	0x0d, r24	; 13
 94c:	80 e7       	ldi	r24, 0x70	; 112
 94e:	8e b9       	out	0x0e, r24	; 14
 950:	5a c0       	rjmp	.+180    	; 0xa06 <__vector_14+0x15e>
      break;

    // Master write data mode: check reply and goto USI_SLAVE_SEND_DATA if OK,
    // else reset USI
    case USI_SLAVE_CHECK_REPLY_FROM_SEND_DATA:
      if ( USIDR )
 952:	8f b1       	in	r24, 0x0f	; 15
 954:	88 23       	and	r24, r24
 956:	29 f0       	breq	.+10     	; 0x962 <__vector_14+0xba>
      {
        // if NACK, the master does not want more data
        SET_USI_TO_TWI_START_CONDITION_MODE( );
 958:	88 ea       	ldi	r24, 0xA8	; 168
 95a:	8d b9       	out	0x0d, r24	; 13
 95c:	80 e7       	ldi	r24, 0x70	; 112
 95e:	8e b9       	out	0x0e, r24	; 14
        return;
 960:	52 c0       	rjmp	.+164    	; 0xa06 <__vector_14+0x15e>

    // copy data from buffer to USIDR and set USI to shift byte
    // next USI_SLAVE_REQUEST_REPLY_FROM_SEND_DATA
    case USI_SLAVE_SEND_DATA:
      // Get data from Buffer
      if ( txCount )
 962:	80 91 95 00 	lds	r24, 0x0095
 966:	88 23       	and	r24, r24
 968:	c9 f0       	breq	.+50     	; 0x99c <__vector_14+0xf4>
      {
        USIDR = txBuf[ txTail ];
 96a:	e0 91 96 00 	lds	r30, 0x0096
 96e:	f0 e0       	ldi	r31, 0x00	; 0
 970:	e8 56       	subi	r30, 0x68	; 104
 972:	ff 4f       	sbci	r31, 0xFF	; 255
 974:	80 81       	ld	r24, Z
 976:	8f b9       	out	0x0f, r24	; 15
        txTail = ( txTail + 1 ) & TWI_TX_BUFFER_MASK;
 978:	80 91 96 00 	lds	r24, 0x0096
 97c:	8f 5f       	subi	r24, 0xFF	; 255
 97e:	8f 70       	andi	r24, 0x0F	; 15
 980:	80 93 96 00 	sts	0x0096, r24
        txCount--;
 984:	80 91 95 00 	lds	r24, 0x0095
 988:	81 50       	subi	r24, 0x01	; 1
 98a:	80 93 95 00 	sts	0x0095, r24
        // the buffer is empty
        SET_USI_TO_READ_ACK( ); // This might be neccessary sometimes see http://www.avrfreaks.net/index.php?name=PNphpBB2&file=viewtopic&p=805227#805227
        SET_USI_TO_TWI_START_CONDITION_MODE( );
        return;
      } // end if
      overflowState = USI_SLAVE_REQUEST_REPLY_FROM_SEND_DATA;
 98e:	82 e0       	ldi	r24, 0x02	; 2
 990:	80 93 bb 00 	sts	0x00BB, r24
      SET_USI_TO_SEND_DATA( );
 994:	b8 9a       	sbi	0x17, 0	; 23
 996:	80 e7       	ldi	r24, 0x70	; 112
 998:	8e b9       	out	0x0e, r24	; 14
      break;
 99a:	35 c0       	rjmp	.+106    	; 0xa06 <__vector_14+0x15e>
        txCount--;
      }
      else
      {
        // the buffer is empty
        SET_USI_TO_READ_ACK( ); // This might be neccessary sometimes see http://www.avrfreaks.net/index.php?name=PNphpBB2&file=viewtopic&p=805227#805227
 99c:	b8 98       	cbi	0x17, 0	; 23
 99e:	1f b8       	out	0x0f, r1	; 15
 9a0:	8e e7       	ldi	r24, 0x7E	; 126
 9a2:	8e b9       	out	0x0e, r24	; 14
        SET_USI_TO_TWI_START_CONDITION_MODE( );
 9a4:	88 ea       	ldi	r24, 0xA8	; 168
 9a6:	8d b9       	out	0x0d, r24	; 13
 9a8:	80 e7       	ldi	r24, 0x70	; 112
 9aa:	8e b9       	out	0x0e, r24	; 14
        return;
 9ac:	2c c0       	rjmp	.+88     	; 0xa06 <__vector_14+0x15e>
      break;

    // set USI to sample reply from master
    // next USI_SLAVE_CHECK_REPLY_FROM_SEND_DATA
    case USI_SLAVE_REQUEST_REPLY_FROM_SEND_DATA:
      overflowState = USI_SLAVE_CHECK_REPLY_FROM_SEND_DATA;
 9ae:	83 e0       	ldi	r24, 0x03	; 3
 9b0:	80 93 bb 00 	sts	0x00BB, r24
      SET_USI_TO_READ_ACK( );
 9b4:	b8 98       	cbi	0x17, 0	; 23
 9b6:	1f b8       	out	0x0f, r1	; 15
 9b8:	8e e7       	ldi	r24, 0x7E	; 126
 9ba:	8e b9       	out	0x0e, r24	; 14
      break;
 9bc:	24 c0       	rjmp	.+72     	; 0xa06 <__vector_14+0x15e>

    // Master read data mode: set USI to sample data from master, next
    // USI_SLAVE_GET_DATA_AND_SEND_ACK
    case USI_SLAVE_REQUEST_DATA:
      overflowState = USI_SLAVE_GET_DATA_AND_SEND_ACK;
 9be:	85 e0       	ldi	r24, 0x05	; 5
 9c0:	80 93 bb 00 	sts	0x00BB, r24
      SET_USI_TO_READ_DATA( );
 9c4:	b8 98       	cbi	0x17, 0	; 23
 9c6:	80 e7       	ldi	r24, 0x70	; 112
 9c8:	8e b9       	out	0x0e, r24	; 14
      break;
 9ca:	1d c0       	rjmp	.+58     	; 0xa06 <__vector_14+0x15e>
    // copy data from USIDR and send ACK
    // next USI_SLAVE_REQUEST_DATA
    case USI_SLAVE_GET_DATA_AND_SEND_ACK:
      // put data into buffer
      // check buffer size
      if ( rxCount < TWI_RX_BUFFER_SIZE )
 9cc:	80 91 a8 00 	lds	r24, 0x00A8
 9d0:	80 31       	cpi	r24, 0x10	; 16
 9d2:	90 f4       	brcc	.+36     	; 0x9f8 <__vector_14+0x150>
      {
        rxBuf[ rxHead ] = USIDR;
 9d4:	e0 91 aa 00 	lds	r30, 0x00AA
 9d8:	8f b1       	in	r24, 0x0f	; 15
 9da:	f0 e0       	ldi	r31, 0x00	; 0
 9dc:	e5 55       	subi	r30, 0x55	; 85
 9de:	ff 4f       	sbci	r31, 0xFF	; 255
 9e0:	80 83       	st	Z, r24
        rxHead = ( rxHead + 1 ) & TWI_RX_BUFFER_MASK;
 9e2:	80 91 aa 00 	lds	r24, 0x00AA
 9e6:	8f 5f       	subi	r24, 0xFF	; 255
 9e8:	8f 70       	andi	r24, 0x0F	; 15
 9ea:	80 93 aa 00 	sts	0x00AA, r24
        rxCount++;
 9ee:	80 91 a8 00 	lds	r24, 0x00A8
 9f2:	8f 5f       	subi	r24, 0xFF	; 255
 9f4:	80 93 a8 00 	sts	0x00A8, r24
      } else {
        // overrun
        // drop data
      }
      // next USI_SLAVE_REQUEST_DATA
      overflowState = USI_SLAVE_REQUEST_DATA;
 9f8:	84 e0       	ldi	r24, 0x04	; 4
 9fa:	80 93 bb 00 	sts	0x00BB, r24
      SET_USI_TO_SEND_ACK( );
 9fe:	1f b8       	out	0x0f, r1	; 15
 a00:	b8 9a       	sbi	0x17, 0	; 23
 a02:	8e e7       	ldi	r24, 0x7E	; 126
 a04:	8e b9       	out	0x0e, r24	; 14
      break;

  } // end switch

} // end ISR( USI_OVERFLOW_VECTOR )
 a06:	ff 91       	pop	r31
 a08:	ef 91       	pop	r30
 a0a:	bf 91       	pop	r27
 a0c:	af 91       	pop	r26
 a0e:	9f 91       	pop	r25
 a10:	8f 91       	pop	r24
 a12:	7f 91       	pop	r23
 a14:	6f 91       	pop	r22
 a16:	5f 91       	pop	r21
 a18:	4f 91       	pop	r20
 a1a:	3f 91       	pop	r19
 a1c:	2f 91       	pop	r18
 a1e:	0f 90       	pop	r0
 a20:	0f be       	out	0x3f, r0	; 63
 a22:	0f 90       	pop	r0
 a24:	1f 90       	pop	r1
 a26:	18 95       	reti

00000a28 <__mulqi3>:
 a28:	00 24       	eor	r0, r0

00000a2a <__mulqi3_loop>:
 a2a:	80 fd       	sbrc	r24, 0
 a2c:	06 0e       	add	r0, r22
 a2e:	66 0f       	add	r22, r22
 a30:	11 f0       	breq	.+4      	; 0xa36 <__mulqi3_exit>
 a32:	86 95       	lsr	r24
 a34:	d1 f7       	brne	.-12     	; 0xa2a <__mulqi3_loop>

00000a36 <__mulqi3_exit>:
 a36:	80 2d       	mov	r24, r0
 a38:	08 95       	ret

00000a3a <__udivmodsi4>:
 a3a:	a1 e2       	ldi	r26, 0x21	; 33
 a3c:	1a 2e       	mov	r1, r26
 a3e:	aa 1b       	sub	r26, r26
 a40:	bb 1b       	sub	r27, r27
 a42:	fd 01       	movw	r30, r26
 a44:	0d c0       	rjmp	.+26     	; 0xa60 <__udivmodsi4_ep>

00000a46 <__udivmodsi4_loop>:
 a46:	aa 1f       	adc	r26, r26
 a48:	bb 1f       	adc	r27, r27
 a4a:	ee 1f       	adc	r30, r30
 a4c:	ff 1f       	adc	r31, r31
 a4e:	a2 17       	cp	r26, r18
 a50:	b3 07       	cpc	r27, r19
 a52:	e4 07       	cpc	r30, r20
 a54:	f5 07       	cpc	r31, r21
 a56:	20 f0       	brcs	.+8      	; 0xa60 <__udivmodsi4_ep>
 a58:	a2 1b       	sub	r26, r18
 a5a:	b3 0b       	sbc	r27, r19
 a5c:	e4 0b       	sbc	r30, r20
 a5e:	f5 0b       	sbc	r31, r21

00000a60 <__udivmodsi4_ep>:
 a60:	66 1f       	adc	r22, r22
 a62:	77 1f       	adc	r23, r23
 a64:	88 1f       	adc	r24, r24
 a66:	99 1f       	adc	r25, r25
 a68:	1a 94       	dec	r1
 a6a:	69 f7       	brne	.-38     	; 0xa46 <__udivmodsi4_loop>
 a6c:	60 95       	com	r22
 a6e:	70 95       	com	r23
 a70:	80 95       	com	r24
 a72:	90 95       	com	r25
 a74:	9b 01       	movw	r18, r22
 a76:	ac 01       	movw	r20, r24
 a78:	bd 01       	movw	r22, r26
 a7a:	cf 01       	movw	r24, r30
 a7c:	08 95       	ret

00000a7e <__tablejump2__>:
 a7e:	ee 0f       	add	r30, r30
 a80:	ff 1f       	adc	r31, r31
 a82:	05 90       	lpm	r0, Z+
 a84:	f4 91       	lpm	r31, Z
 a86:	e0 2d       	mov	r30, r0
 a88:	09 94       	ijmp

00000a8a <_exit>:
 a8a:	f8 94       	cli

00000a8c <__stop_program>:
 a8c:	ff cf       	rjmp	.-2      	; 0xa8c <__stop_program>
