S016000047636343707050726F6A656374322E73726563D5
S113000033C059C256C055C054C07CC252C051C03E
S113001050C04FC04EC04DC04CC02AC445C400009F
S113002000080002010000030407000000000000B3
S1130030000001020408102040800102040810207E
S11300400102040810200404040404040404020249
S1130050020202020303030303030000000038004A
S1130060000000003700B30111241FBECFE5D2E029
S1130070DEBFCDBF10E0A0E6B0E0EEE8FAE002C0DB
S113008005900D92A037B107D9F720E0A0E7B0E0C2
S113009001C01D92AD3BB207E1F710E0C4E3D0E02C
S11300A003C02197FE01EBD4C333D107D1F767D145
S11300B0ECC4A6CF1F93CF93DF93CFEFC80FC0310B
S11300C028F5182F80E990E09DD380938000C1111A
S11300D01BC01CC0182FC0918000D0E080E990E0C4
S11300E091D3CF59DF4F8883809180008F5F8093B5
S11300F0800080918000843010F0109280008FEF97
S1130100810F1111E7CF02C01250E5CFDF91CF91DB
S11301101F91089561E088E0C3D261E08AE0C0D213
S113012061E089E0BDD261E085E0BAD261E084E0BB
S1130130B7D261E083E0B4D261E082E0B1D260E1A1
S113014080E990E05CD36AE570E080E990E05CD3FC
S113015008950F931F93E0E7F0E081818093770087
S1130160828180937600838180937500848180935B
S1130170740012D260937C0070937D0080937E00A3
S113018090937F00009178001091790020917A007B
S113019030917B000617170728073907B0F5DC01F3
S11301A0CB018C509E4FAF4FBF4F809378009093FC
S11301B07900A0937A00B0937B009091600081E075
S11301C0892780936000811117C08091700080FF9F
S11301D009C0109277001092760010927500109268
S11301E0740013C08091700082FF0FC0809174006E
S11301F081608093740009C08091700082FF05C003
S1130200809174008E7F809374008091700082FDD1
S113021004C08091700081FD5DC060E088E07FD201
S11302202091770041E06AE089E0A9D261E088E0AA
S113023076D260E085E073D265E070E080E090E023
S1130240DED161E085E06BD260E088E068D2209185
S1130250760041E06AE089E092D261E088E05FD212
S113026060E084E05CD265E070E080E090E0C7D1BB
S113027061E084E054D260E088E051D220917500BE
S113028041E06AE089E07BD261E088E048D260E046
S113029083E045D265E070E080E090E0B0D161E0B9
S11302A083E03DD260E088E03AD22091740041E0DE
S11302B06AE089E064D261E088E031D260E082E003
S11302C02ED265E070E080E090E099D161E082E0B8
S11302D026D206C0809174008160809374009DCF03
S11302E01F910F91089508958F929F92AF92BF929C
S11302F0CF92DF92EF92FF920F931F93CF93DF93EE
S11303005C017B014C0182E0880E911C6501E5E0F3
S1130310CE0ED11C00E010E0F40161914F014AE0DF
S113032050E0C701C0D0EC016EE2C70132D08C0F9F
S11303309D1F080F191F8C149D0471F74AE050E0AB
S1130340F5016581C701AFD0800F911FDF91CF9177
S11303501F910F91FF90EF90DF90CF90BF90AF90DF
S11303609F908F900895E1E8F0E08DE690E091830E
S1130370808312821382148215820895089568D1AD
S1130380FDDFC8DEC0E0D0E0E4DE2097E9F338DE2C
S1130390FBCFDC01ED91FC910190F081E02D0995FA
S11303A008954F925F926F927F929F92AF92BF9205
S11303B0CF92DF92EF92FF920F931F93CF93DF932D
S11303C0CDB7DEB7A1970FB6F894DEBF0FBECDBF91
S11303D05C016A017B01922E19A281E0821720F050
S11303E00F2EFAE09F2EF02D8E010F5D1F4F492C2A
S11303F0512C612C712CC701B601A30192011DD3AC
S1130400892D622F11D39C2D981B892F015011091E
S11304109A3010F4805D01C0895CD8018C93C22E9F
S1130420D32EE42EF52EC114D104E104F10419F7FE
S11304300115110591F0F80101900020E9F73197B9
S1130440AF01401B510BD501ED91FC910280F3816A
S1130450E02DB801C501099502C080E090E0A196A5
S11304600FB6F894DEBF0FBECDBFDF91CF911F91C1
S11304700F91FF90EF90DF90CF90BF90AF909F903F
S11304807F906F905F904F9008952115310549F446
S1130490DC01ED91FC910190F081E02D642F099530
S11304A008957FDF08959A01462F50E060E070E0E0
S11304B0ECDF089508951F920F920FB60F92112446
S11304C02F933F934F935F936F937F938F939F9358
S11304D0AF93BF93EF93FF93E0916500F0916600B3
S11304E00995FF91EF91BF91AF919F918F917F916A
S11304F06F915F914F913F912F910F900FBE0F908D
S11305001F9018951F920F920FB60F9211242F93DC
S11305103F938F939F93AF93BF9380918800909163
S11305208900A0918A00B0918B003091870023E06C
S1130530230F2D3720F40196A11DB11D05C026E817
S1130540230F0296A11DB11D20938700809388007C
S113055090938900A0938A00B0938B0080918C00C3
S113056090918D00A0918E00B0918F000196A11DF5
S1130570B11D80938C0090938D00A0938E00B09356
S11305808F00BF91AF919F918F913F912F910F90C9
S11305900FBE0F901F9018952FB7F89460918800A4
S11305A07091890080918A0090918B002FBF0895EB
S11305B03FB7F89480918C0090918D00A0918E00AB
S11305C0B0918F0022B708B601FE05C02F3F19F085
S11305D00196A11DB11D3FBFBA2FA92F982F8827BF
S11305E0820F911DA11DB11DBC01CD01660F771FA6
S11305F0881F991F660F771F881F991F0895CF9230
S1130600DF92EF92FF92CF93DF936B017C01D0DFF7
S1130610EB01C114D104E104F10499F064DEC8DFF4
S11306206C1B7D0B683E734038F081E0C81AD1081A
S1130630E108F108C851DC4FC114D104E104F1040C
S113064069F7DF91CF91FF90EF90DF90CF900895FD
S113065078948AB582608ABD8AB581608ABD83B781
S1130660826083BF83B7816083BF89B7826089BF9B
S113067080B7826080BF80B7816080BF329A319A30
S1130680309A379A0895813019F0823029F008950C
S11306908AB58F778ABD08958AB58F7D8ABD0895FE
S11306A0CF93DF9390E0FC01EE5CFF4F2491FC01BB
S11306B0EA5BFF4F8491882379F190E0880F991FBA
S11306C0FC01E05AFF4FA591B491FC01E65AFF4F9B
S11306D0C591D49161110CC09FB7F8948C91E22F0D
S11306E0E0958E238C932881E223E8839FBF14C076
S11306F0623061F49FB7F8943C91822F80958323F4
S11307008C93E881E22BE8839FBF06C08FB7F894EF
S1130710EC91E22BEC938FBFDF91CF9108951F935F
S1130720CF93DF93282F30E0F901E25EFF4F8491ED
S1130730F901EE5CFF4F1491F901EA5BFF4FC4919C
S1130740CC23C9F0D62F81119EDFEC2FF0E0EE0F01
S1130750FF1FE65AFF4FA591B4918FB7F894D111BA
S113076006C09C91E12FE095E923EC9303C0EC9142
S1130770E12BEC938FBFDF91CF911F910895BF922E
S1130780CF92DF92EF92FF920F931F93CF93DF9359
S1130790B82E162F042FC7E0D0E0E22EF12C0F2E36
S11307A0F7E0CF2ED12CF02D01110DC0C6018C1B0A
S11307B09D0BB70102C0759567958A95E2F7617044
S11307C08B2DADDF0AC0B7010C2E02C0759567955D
S11307D00A94E2F761708B2DA2DF61E0812F9FDF25
S11307E060E0812F9CDF2197F8F6DF91CF911F9174
S11307F00F91FF90EF90DF90CF90BF900895862FD8
S113080008D008951FD008957093920060939100CA
S113081008951092A9001092AA001092A8001092B4
S1130820960010929700109295008093BC0087B3B5
S1130830856087BBC29AC09AB89888EA8DB980EF60
S11308408EB908958091A8008823E1F3E091A9006E
S1130850F0E0E555FF4F80819091A9009F5F9F7064
S11308609093A9009091A80091509093A8000895A6
S11308701F920F920FB60F9211248F931092BB0008
S1130880B898B29B02C0B09BFCCFB09903C088EF6C
S11308908DB902C088EA8DB980EF8EB98F910F901F
S11308A00FBE0F901F9018951F920F920FB60F92C4
S11308B011242F933F934F935F936F937F938F9361
S11308C09F93AF93BF93EF93FF938091BB008230CC
S11308D009F46DC030F4882361F0813009F441C01B
S11308E092C0843009F46BC0A0F1853009F46EC065
S11308F08AC08FB1882331F08FB186959091BC0066
S1130900891322C0789B18C0E0919100F091920065
S1130910309739F08091A800882319F08091A800BD
S11309200995E0919300F0919400309709F00995AE
S113093081E08093BB0003C084E08093BB001FB8B8
S1130940B89A8EE78EB95FC088EA8DB980E78EB910
S11309505AC08FB1882329F088EA8DB980E78EB90F
S113096052C0809195008823C9F0E0919600F0E090
S1130970E856FF4F80818FB9809196008F5F8F700A
S1130980809396008091950081508093950082E039
S11309908093BB00B89A80E78EB935C0B8981FB869
S11309A08EE78EB988EA8DB980E78EB92CC083E0D2
S11309B08093BB00B8981FB88EE78EB924C085E039
S11309C08093BB00B89880E78EB91DC08091A800C1
S11309D0803190F4E091AA008FB1F0E0E555FF4F2B
S11309E080838091AA008F5F8F708093AA0080918A
S11309F0A8008F5F8093A80084E08093BB001FB899
S1130A00B89A8EE78EB9FF91EF91BF91AF919F9104
S1130A108F917F916F915F914F913F912F910F90A3
S1130A200FBE0F901F901895002480FD060E660FD0
S1130A3011F08695D1F7802D0895A1E21A2EAA1BF4
S1130A40BB1BFD010DC0AA1FBB1FEE1FFF1FA2177A
S1130A50B307E407F50720F0A21BB30BE40BF50B77
S1130A60661F771F881F991F1A9469F76095709500
S1130A70809590959B01AC01BD01CF010895EE0FC7
S1110A80FF1F0590F491E02D0994F894FFCF28
S1130A8E01DEADBEEF5A025A0200000000740100EE
S9030000FC
