S01500004144435F4558414D504C4532312E7372656379
S113000033C0000041C000003FC000003DC00000FC
S11300103BC0000039C0000037C0000035C00000FC
S113002033C0000031C000002FC000002DC000000C
S11300302BC0000029C0000027C0000025C000001C
S113004023C0000021C000001FC000001DC000002C
S11300501BC000001AC0000017C0000015C000003B
S113006013C0000011C0000011241FBECFEFD4E064
S1130070DEBFCDBF21E0A0E0B1E001C01D92A530FC
S1130080B207E1F742D05DC0BBCF1F920F920FB60B
S11300900F9211242F933F934F935F938F939F93CA
S11300A0809102018031A9F48091000190910101B5
S11300B0929582958F7089279F7089279093040168
S11300C08093030110920201109201011092000129
S11300D011C0209178003091790040910001509135
S11300E00101240F351F30930101209300018F5F1C
S11300F0809302019F918F915F914F913F912F9136
S11301000F900FBE0F901F9018958FEF84B9EAE7F8
S1130110F0E087E8808380E480937C0080818062C3
S113012080838081886080838081806480837894E8
S11301302FB7F89480910301909104012FBF95B9D2
S1090140F7CFF894FFCF95
S9030000FC
