
SensorReport.elf:     file format elf32-avr

Sections:
Idx Name          Size      VMA       LMA       File off  Algn
  0 .data         000000b6  00800100  00000e28  00000ebc  2**0
                  CONTENTS, ALLOC, LOAD, DATA
  1 .text         00000e28  00000000  00000000  00000094  2**1
                  CONTENTS, ALLOC, LOAD, READONLY, CODE
  2 .bss          00000022  008001b6  008001b6  00000f72  2**0
                  ALLOC
  3 .comment      00000030  00000000  00000000  00000f72  2**0
                  CONTENTS, READONLY
  4 .note.gnu.avr.deviceinfo 00000040  00000000  00000000  00000fa4  2**2
                  CONTENTS, READONLY
  5 .debug_aranges 00000168  00000000  00000000  00000fe4  2**0
                  CONTENTS, READONLY, DEBUGGING
  6 .debug_info   00001397  00000000  00000000  0000114c  2**0
                  CONTENTS, READONLY, DEBUGGING
  7 .debug_abbrev 00000594  00000000  00000000  000024e3  2**0
                  CONTENTS, READONLY, DEBUGGING
  8 .debug_line   00000650  00000000  00000000  00002a77  2**0
                  CONTENTS, READONLY, DEBUGGING
  9 .debug_frame  00000400  00000000  00000000  000030c8  2**2
                  CONTENTS, READONLY, DEBUGGING
 10 .debug_str    000006c1  00000000  00000000  000034c8  2**0
                  CONTENTS, READONLY, DEBUGGING
 11 .debug_loc    00000d15  00000000  00000000  00003b89  2**0
                  CONTENTS, READONLY, DEBUGGING
 12 .debug_ranges 00000138  00000000  00000000  0000489e  2**0
                  CONTENTS, READONLY, DEBUGGING

Disassembly of section .text:

00000000 <__vectors>:
   0:	0c 94 f5 00 	jmp	0x1ea	; 0x1ea <__ctors_end>
   4:	0c 94 12 01 	jmp	0x224	; 0x224 <__bad_interrupt>
   8:	0c 94 12 01 	jmp	0x224	; 0x224 <__bad_interrupt>
   c:	0c 94 12 01 	jmp	0x224	; 0x224 <__bad_interrupt>
  10:	0c 94 a8 01 	jmp	0x350	; 0x350 <__vector_4>
  14:	0c 94 12 01 	jmp	0x224	; 0x224 <__bad_interrupt>
  18:	0c 94 12 01 	jmp	0x224	; 0x224 <__bad_interrupt>
  1c:	0c 94 12 01 	jmp	0x224	; 0x224 <__bad_interrupt>
  20:	0c 94 12 01 	jmp	0x224	; 0x224 <__bad_interrupt>
  24:	0c 94 12 01 	jmp	0x224	; 0x224 <__bad_interrupt>
  28:	0c 94 12 01 	jmp	0x224	; 0x224 <__bad_interrupt>
  2c:	0c 94 8e 01 	jmp	0x31c	; 0x31c <__vector_11>
  30:	0c 94 12 01 	jmp	0x224	; 0x224 <__bad_interrupt>
  34:	0c 94 12 01 	jmp	0x224	; 0x224 <__bad_interrupt>
  38:	0c 94 12 01 	jmp	0x224	; 0x224 <__bad_interrupt>
  3c:	0c 94 12 01 	jmp	0x224	; 0x224 <__bad_interrupt>
  40:	0c 94 12 01 	jmp	0x224	; 0x224 <__bad_interrupt>
  44:	0c 94 12 01 	jmp	0x224	; 0x224 <__bad_interrupt>
  48:	0c 94 12 01 	jmp	0x224	; 0x224 <__bad_interrupt>
  4c:	0c 94 12 01 	jmp	0x224	; 0x224 <__bad_interrupt>
  50:	0c 94 12 01 	jmp	0x224	; 0x224 <__bad_interrupt>
  54:	0c 94 12 01 	jmp	0x224	; 0x224 <__bad_interrupt>
  58:	0c 94 12 01 	jmp	0x224	; 0x224 <__bad_interrupt>
  5c:	0c 94 12 01 	jmp	0x224	; 0x224 <__bad_interrupt>
  60:	0c 94 cd 03 	jmp	0x79a	; 0x79a <__vector_24>
  64:	0c 94 12 01 	jmp	0x224	; 0x224 <__bad_interrupt>
  68:	f1 03       	fmuls	r23, r17
  6a:	12 05       	cpc	r17, r2
  6c:	12 05       	cpc	r17, r2
  6e:	12 05       	cpc	r17, r2
  70:	12 05       	cpc	r17, r2
  72:	12 05       	cpc	r17, r2
  74:	12 05       	cpc	r17, r2
  76:	12 05       	cpc	r17, r2
  78:	f1 03       	fmuls	r23, r17
  7a:	12 05       	cpc	r17, r2
  7c:	12 05       	cpc	r17, r2
  7e:	12 05       	cpc	r17, r2
  80:	12 05       	cpc	r17, r2
  82:	12 05       	cpc	r17, r2
  84:	12 05       	cpc	r17, r2
  86:	12 05       	cpc	r17, r2
  88:	10 04       	cpc	r1, r0
  8a:	12 05       	cpc	r17, r2
  8c:	12 05       	cpc	r17, r2
  8e:	12 05       	cpc	r17, r2
  90:	12 05       	cpc	r17, r2
  92:	12 05       	cpc	r17, r2
  94:	12 05       	cpc	r17, r2
  96:	12 05       	cpc	r17, r2
  98:	09 05       	cpc	r16, r9
  9a:	12 05       	cpc	r17, r2
  9c:	12 05       	cpc	r17, r2
  9e:	12 05       	cpc	r17, r2
  a0:	12 05       	cpc	r17, r2
  a2:	12 05       	cpc	r17, r2
  a4:	12 05       	cpc	r17, r2
  a6:	12 05       	cpc	r17, r2
  a8:	10 04       	cpc	r1, r0
  aa:	12 05       	cpc	r17, r2
  ac:	12 05       	cpc	r17, r2
  ae:	12 05       	cpc	r17, r2
  b0:	12 05       	cpc	r17, r2
  b2:	12 05       	cpc	r17, r2
  b4:	12 05       	cpc	r17, r2
  b6:	12 05       	cpc	r17, r2
  b8:	09 05       	cpc	r16, r9
  ba:	12 05       	cpc	r17, r2
  bc:	12 05       	cpc	r17, r2
  be:	12 05       	cpc	r17, r2
  c0:	12 05       	cpc	r17, r2
  c2:	12 05       	cpc	r17, r2
  c4:	12 05       	cpc	r17, r2
  c6:	12 05       	cpc	r17, r2
  c8:	12 05       	cpc	r17, r2
  ca:	12 05       	cpc	r17, r2
  cc:	12 05       	cpc	r17, r2
  ce:	12 05       	cpc	r17, r2
  d0:	12 05       	cpc	r17, r2
  d2:	12 05       	cpc	r17, r2
  d4:	12 05       	cpc	r17, r2
  d6:	12 05       	cpc	r17, r2
  d8:	67 04       	cpc	r6, r7
  da:	12 05       	cpc	r17, r2
  dc:	12 05       	cpc	r17, r2
  de:	12 05       	cpc	r17, r2
  e0:	12 05       	cpc	r17, r2
  e2:	12 05       	cpc	r17, r2
  e4:	12 05       	cpc	r17, r2
  e6:	12 05       	cpc	r17, r2
  e8:	09 05       	cpc	r16, r9
  ea:	12 05       	cpc	r17, r2
  ec:	12 05       	cpc	r17, r2
  ee:	12 05       	cpc	r17, r2
  f0:	12 05       	cpc	r17, r2
  f2:	12 05       	cpc	r17, r2
  f4:	12 05       	cpc	r17, r2
  f6:	12 05       	cpc	r17, r2
  f8:	52 04       	cpc	r5, r2
  fa:	12 05       	cpc	r17, r2
  fc:	12 05       	cpc	r17, r2
  fe:	12 05       	cpc	r17, r2
 100:	12 05       	cpc	r17, r2
 102:	12 05       	cpc	r17, r2
 104:	12 05       	cpc	r17, r2
 106:	12 05       	cpc	r17, r2
 108:	7b 04       	cpc	r7, r11
 10a:	12 05       	cpc	r17, r2
 10c:	12 05       	cpc	r17, r2
 10e:	12 05       	cpc	r17, r2
 110:	12 05       	cpc	r17, r2
 112:	12 05       	cpc	r17, r2
 114:	12 05       	cpc	r17, r2
 116:	12 05       	cpc	r17, r2
 118:	a3 04       	cpc	r10, r3
 11a:	12 05       	cpc	r17, r2
 11c:	12 05       	cpc	r17, r2
 11e:	12 05       	cpc	r17, r2
 120:	12 05       	cpc	r17, r2
 122:	12 05       	cpc	r17, r2
 124:	12 05       	cpc	r17, r2
 126:	12 05       	cpc	r17, r2
 128:	a3 04       	cpc	r10, r3
 12a:	12 05       	cpc	r17, r2
 12c:	12 05       	cpc	r17, r2
 12e:	12 05       	cpc	r17, r2
 130:	12 05       	cpc	r17, r2
 132:	12 05       	cpc	r17, r2
 134:	12 05       	cpc	r17, r2
 136:	12 05       	cpc	r17, r2
 138:	a3 04       	cpc	r10, r3
 13a:	12 05       	cpc	r17, r2
 13c:	12 05       	cpc	r17, r2
 13e:	12 05       	cpc	r17, r2
 140:	12 05       	cpc	r17, r2
 142:	12 05       	cpc	r17, r2
 144:	12 05       	cpc	r17, r2
 146:	12 05       	cpc	r17, r2
 148:	a3 04       	cpc	r10, r3
 14a:	12 05       	cpc	r17, r2
 14c:	12 05       	cpc	r17, r2
 14e:	12 05       	cpc	r17, r2
 150:	12 05       	cpc	r17, r2
 152:	12 05       	cpc	r17, r2
 154:	12 05       	cpc	r17, r2
 156:	12 05       	cpc	r17, r2
 158:	ab 04       	cpc	r10, r11
 15a:	12 05       	cpc	r17, r2
 15c:	12 05       	cpc	r17, r2
 15e:	12 05       	cpc	r17, r2
 160:	12 05       	cpc	r17, r2
 162:	12 05       	cpc	r17, r2
 164:	12 05       	cpc	r17, r2
 166:	12 05       	cpc	r17, r2
 168:	05 05       	cpc	r16, r5
 16a:	12 05       	cpc	r17, r2
 16c:	12 05       	cpc	r17, r2
 16e:	12 05       	cpc	r17, r2
 170:	12 05       	cpc	r17, r2
 172:	12 05       	cpc	r17, r2
 174:	12 05       	cpc	r17, r2
 176:	12 05       	cpc	r17, r2
 178:	ab 04       	cpc	r10, r11
 17a:	12 05       	cpc	r17, r2
 17c:	12 05       	cpc	r17, r2
 17e:	12 05       	cpc	r17, r2
 180:	12 05       	cpc	r17, r2
 182:	12 05       	cpc	r17, r2
 184:	12 05       	cpc	r17, r2
 186:	12 05       	cpc	r17, r2
 188:	05 05       	cpc	r16, r5
 18a:	12 05       	cpc	r17, r2
 18c:	12 05       	cpc	r17, r2
 18e:	12 05       	cpc	r17, r2
 190:	12 05       	cpc	r17, r2
 192:	12 05       	cpc	r17, r2
 194:	12 05       	cpc	r17, r2
 196:	12 05       	cpc	r17, r2
 198:	cf 04       	cpc	r12, r15
 19a:	12 05       	cpc	r17, r2
 19c:	12 05       	cpc	r17, r2
 19e:	12 05       	cpc	r17, r2
 1a0:	12 05       	cpc	r17, r2
 1a2:	12 05       	cpc	r17, r2
 1a4:	12 05       	cpc	r17, r2
 1a6:	12 05       	cpc	r17, r2
 1a8:	e1 04       	cpc	r14, r1
 1aa:	12 05       	cpc	r17, r2
 1ac:	12 05       	cpc	r17, r2
 1ae:	12 05       	cpc	r17, r2
 1b0:	12 05       	cpc	r17, r2
 1b2:	12 05       	cpc	r17, r2
 1b4:	12 05       	cpc	r17, r2
 1b6:	12 05       	cpc	r17, r2
 1b8:	e1 04       	cpc	r14, r1
 1ba:	12 05       	cpc	r17, r2
 1bc:	12 05       	cpc	r17, r2
 1be:	12 05       	cpc	r17, r2
 1c0:	12 05       	cpc	r17, r2
 1c2:	12 05       	cpc	r17, r2
 1c4:	12 05       	cpc	r17, r2
 1c6:	12 05       	cpc	r17, r2
 1c8:	e5 04       	cpc	r14, r5
 1ca:	12 05       	cpc	r17, r2
 1cc:	12 05       	cpc	r17, r2
 1ce:	12 05       	cpc	r17, r2
 1d0:	12 05       	cpc	r17, r2
 1d2:	12 05       	cpc	r17, r2
 1d4:	12 05       	cpc	r17, r2
 1d6:	12 05       	cpc	r17, r2
 1d8:	05 05       	cpc	r16, r5
 1da:	12 05       	cpc	r17, r2
 1dc:	12 05       	cpc	r17, r2
 1de:	12 05       	cpc	r17, r2
 1e0:	12 05       	cpc	r17, r2
 1e2:	12 05       	cpc	r17, r2
 1e4:	12 05       	cpc	r17, r2
 1e6:	12 05       	cpc	r17, r2
 1e8:	05 05       	cpc	r16, r5

000001ea <__ctors_end>:
 1ea:	11 24       	eor	r1, r1
 1ec:	1f be       	out	0x3f, r1	; 63
 1ee:	cf ef       	ldi	r28, 0xFF	; 255
 1f0:	d8 e0       	ldi	r29, 0x08	; 8
 1f2:	de bf       	out	0x3e, r29	; 62
 1f4:	cd bf       	out	0x3d, r28	; 61

000001f6 <__do_copy_data>:
 1f6:	11 e0       	ldi	r17, 0x01	; 1
 1f8:	a0 e0       	ldi	r26, 0x00	; 0
 1fa:	b1 e0       	ldi	r27, 0x01	; 1
 1fc:	e8 e2       	ldi	r30, 0x28	; 40
 1fe:	fe e0       	ldi	r31, 0x0E	; 14
 200:	02 c0       	rjmp	.+4      	; 0x206 <__do_copy_data+0x10>
 202:	05 90       	lpm	r0, Z+
 204:	0d 92       	st	X+, r0
 206:	a6 3b       	cpi	r26, 0xB6	; 182
 208:	b1 07       	cpc	r27, r17
 20a:	d9 f7       	brne	.-10     	; 0x202 <__do_copy_data+0xc>

0000020c <__do_clear_bss>:
 20c:	21 e0       	ldi	r18, 0x01	; 1
 20e:	a6 eb       	ldi	r26, 0xB6	; 182
 210:	b1 e0       	ldi	r27, 0x01	; 1
 212:	01 c0       	rjmp	.+2      	; 0x216 <.do_clear_bss_start>

00000214 <.do_clear_bss_loop>:
 214:	1d 92       	st	X+, r1

00000216 <.do_clear_bss_start>:
 216:	a8 3d       	cpi	r26, 0xD8	; 216
 218:	b2 07       	cpc	r27, r18
 21a:	e1 f7       	brne	.-8      	; 0x214 <.do_clear_bss_loop>
 21c:	0e 94 40 02 	call	0x480	; 0x480 <main>
 220:	0c 94 12 07 	jmp	0xe24	; 0xe24 <_exit>

00000224 <__bad_interrupt>:
 224:	0c 94 00 00 	jmp	0	; 0x0 <__vectors>

00000228 <debug>:
		z--;
	}
}

//--------------Debug Routines-----------------------------------------
void debug(const char myString[]) {
 228:	0f 93       	push	r16
 22a:	1f 93       	push	r17
 22c:	cf 93       	push	r28
 22e:	8c 01       	movw	r16, r24
	if (DEBUG) {
		uint8_t i = 0;
		while (myString[i]) {
 230:	fc 01       	movw	r30, r24
 232:	80 81       	ld	r24, Z
 234:	88 23       	and	r24, r24
 236:	51 f0       	breq	.+20     	; 0x24c <debug+0x24>
 238:	c0 e0       	ldi	r28, 0x00	; 0
			transmitByte(myString[i]);
 23a:	0e 94 3f 05 	call	0xa7e	; 0xa7e <transmitByte>
			i++;
 23e:	cf 5f       	subi	r28, 0xFF	; 255

//--------------Debug Routines-----------------------------------------
void debug(const char myString[]) {
	if (DEBUG) {
		uint8_t i = 0;
		while (myString[i]) {
 240:	f8 01       	movw	r30, r16
 242:	ec 0f       	add	r30, r28
 244:	f1 1d       	adc	r31, r1
 246:	80 81       	ld	r24, Z
 248:	81 11       	cpse	r24, r1
 24a:	f7 cf       	rjmp	.-18     	; 0x23a <debug+0x12>
			transmitByte(myString[i]);
			i++;
		}
		printString("\r\n");
 24c:	80 e0       	ldi	r24, 0x00	; 0
 24e:	91 e0       	ldi	r25, 0x01	; 1
 250:	0e 94 47 05 	call	0xa8e	; 0xa8e <printString>
	}
}
 254:	cf 91       	pop	r28
 256:	1f 91       	pop	r17
 258:	0f 91       	pop	r16
 25a:	08 95       	ret

0000025c <debugInt>:
			i++;
		}
	}
}

void debugInt(signed int anInt) {
 25c:	cf 93       	push	r28
 25e:	df 93       	push	r29
 260:	00 d0       	rcall	.+0      	; 0x262 <debugInt+0x6>
 262:	00 d0       	rcall	.+0      	; 0x264 <debugInt+0x8>
 264:	cd b7       	in	r28, 0x3d	; 61
 266:	de b7       	in	r29, 0x3e	; 62
    } else if (__radix < 2 || __radix > 36) {
	*__s = 0;
	return __s;
    } else {
	extern char *__itoa_ncheck (int, char *, unsigned char);
	return __itoa_ncheck (__val, __s, __radix);
 268:	4a e0       	ldi	r20, 0x0A	; 10
 26a:	be 01       	movw	r22, r28
 26c:	6f 5f       	subi	r22, 0xFF	; 255
 26e:	7f 4f       	sbci	r23, 0xFF	; 255
 270:	0e 94 dd 06 	call	0xdba	; 0xdba <__itoa_ncheck>
	if (DEBUG) {
		char myInt[4];
		itoa(anInt,myInt,10);
		debug(myInt);
 274:	ce 01       	movw	r24, r28
 276:	01 96       	adiw	r24, 0x01	; 1
 278:	0e 94 14 01 	call	0x228	; 0x228 <debug>
	}
}
 27c:	0f 90       	pop	r0
 27e:	0f 90       	pop	r0
 280:	0f 90       	pop	r0
 282:	0f 90       	pop	r0
 284:	df 91       	pop	r29
 286:	cf 91       	pop	r28
 288:	08 95       	ret

0000028a <handle_I2C_interrupt>:
							0,											// slave address mask
							0											// enable general call
						 );
} 

void handle_I2C_interrupt(volatile uint8_t TWI_match_addr, uint8_t status){
 28a:	cf 93       	push	r28
 28c:	df 93       	push	r29
 28e:	1f 92       	push	r1
 290:	cd b7       	in	r28, 0x3d	; 61
 292:	de b7       	in	r29, 0x3e	; 62
 294:	89 83       	std	Y+1, r24	; 0x01
	debug("I2C INTERRUPT");
 296:	83 e0       	ldi	r24, 0x03	; 3
 298:	91 e0       	ldi	r25, 0x01	; 1
 29a:	0e 94 14 01 	call	0x228	; 0x228 <debug>
	debug("Sensor Detected: "); debugInt(sensorDetected);
 29e:	81 e1       	ldi	r24, 0x11	; 17
 2a0:	91 e0       	ldi	r25, 0x01	; 1
 2a2:	0e 94 14 01 	call	0x228	; 0x228 <debug>
 2a6:	80 91 d5 01 	lds	r24, 0x01D5
 2aa:	90 91 d6 01 	lds	r25, 0x01D6
 2ae:	0e 94 2e 01 	call	0x25c	; 0x25c <debugInt>
	debug("Sensor Thresholod: "); debugInt(sensorThreshold);
 2b2:	83 e2       	ldi	r24, 0x23	; 35
 2b4:	91 e0       	ldi	r25, 0x01	; 1
 2b6:	0e 94 14 01 	call	0x228	; 0x228 <debug>
 2ba:	80 91 b8 01 	lds	r24, 0x01B8
 2be:	90 91 b9 01 	lds	r25, 0x01B9
 2c2:	0e 94 2e 01 	call	0x25c	; 0x25c <debugInt>
	if(status==TWI_success){
	}
} 
 2c6:	0f 90       	pop	r0
 2c8:	df 91       	pop	r29
 2ca:	cf 91       	pop	r28
 2cc:	08 95       	ret

000002ce <initHC595>:
#define HC595_DS_POS	PB0												// Data pin (DS) pin location
#define HC595_SH_CP_POS	PB1												// Shift Clock (SH_CP) pin location
#define HC595_ST_CP_POS	PB2												// Store Clock (ST_CP) pin location
																		// END Configure Connections
void initHC595() {														// Initialize HC595 System
	debug("INITHC595()");
 2ce:	87 e3       	ldi	r24, 0x37	; 55
 2d0:	91 e0       	ldi	r25, 0x01	; 1
 2d2:	0e 94 14 01 	call	0x228	; 0x228 <debug>
	HC595_DDR|=((1<<HC595_SH_CP_POS)|(1<<HC595_ST_CP_POS)|(1<<HC595_DS_POS));
 2d6:	84 b1       	in	r24, 0x04	; 4
 2d8:	87 60       	ori	r24, 0x07	; 7
 2da:	84 b9       	out	0x04, r24	; 4
 2dc:	08 95       	ret

000002de <HC595Pulse>:

#define HC595DataHigh() (HC595_PORT|=(1<<HC595_DS_POS))					// Low level macro to change data (DS)lines
#define HC595DataLow() (HC595_PORT&=(~(1<<HC595_DS_POS)))				// Low level macro to change data (DS)lines

void HC595Pulse() {														// Sends a clock pulse on SH_CP line
	HC595_PORT|=(1<<HC595_SH_CP_POS);									// Pulse the Shift Clock HIGH
 2de:	29 9a       	sbi	0x05, 1	; 5
	HC595_PORT&=(~(1<<HC595_SH_CP_POS));								// Pulse the Shift Clock LOW
 2e0:	29 98       	cbi	0x05, 1	; 5
 2e2:	08 95       	ret

000002e4 <HC595Latch>:
}

void HC595Latch() {														// Sends a clock pulse on ST_CP line
	HC595_PORT|=(1<<HC595_ST_CP_POS);									// Pulse the Store Clock HIGH
 2e4:	2a 9a       	sbi	0x05, 2	; 5
    can be achieved.
*/
void
_delay_loop_1(uint8_t __count)
{
	__asm__ volatile (
 2e6:	81 e0       	ldi	r24, 0x01	; 1
 2e8:	98 2f       	mov	r25, r24
 2ea:	9a 95       	dec	r25
 2ec:	f1 f7       	brne	.-4      	; 0x2ea <HC595Latch+0x6>
	_delay_loop_1(1);
	HC595_PORT&=(~(1<<HC595_ST_CP_POS));								// Pulse the Store Clock LOW
 2ee:	2a 98       	cbi	0x05, 2	; 5
 2f0:	8a 95       	dec	r24
 2f2:	f1 f7       	brne	.-4      	; 0x2f0 <HC595Latch+0xc>
 2f4:	08 95       	ret

000002f6 <HC595Write>:
	_delay_loop_1(1);
}

void HC595Write(uint8_t data) {											// write a single byte to output shift register 74HC595. 
 2f6:	cf 93       	push	r28
 2f8:	df 93       	push	r29
 2fa:	d8 2f       	mov	r29, r24
 2fc:	c8 e0       	ldi	r28, 0x08	; 8
																		// The byte is serially transfered to 74HC595 and then latched. The byte is then available on
																		// output line Q0 to Q7 of the HC595 IC.
	for(uint8_t i=0;i<8;i++) {											// Send each 8 bits serially, order is MSB first
		if(data & 0b10000000) {											// Output the data on DS line according to the value of MSB	
 2fe:	dd 23       	and	r29, r29
 300:	14 f4       	brge	.+4      	; 0x306 <HC595Write+0x10>
			HC595DataHigh();											// MSB is 1 so output high
 302:	28 9a       	sbi	0x05, 0	; 5
 304:	01 c0       	rjmp	.+2      	; 0x308 <HC595Write+0x12>
		} else {
			HC595DataLow();												// MSB is 0 so output high
 306:	28 98       	cbi	0x05, 0	; 5
		}
		HC595Pulse();													// Pulse the Clock line
 308:	0e 94 6f 01 	call	0x2de	; 0x2de <HC595Pulse>
		data=data<<1;													// Now bring next bit at MSB position
 30c:	dd 0f       	add	r29, r29
 30e:	c1 50       	subi	r28, 0x01	; 1
}

void HC595Write(uint8_t data) {											// write a single byte to output shift register 74HC595. 
																		// The byte is serially transfered to 74HC595 and then latched. The byte is then available on
																		// output line Q0 to Q7 of the HC595 IC.
	for(uint8_t i=0;i<8;i++) {											// Send each 8 bits serially, order is MSB first
 310:	b1 f7       	brne	.-20     	; 0x2fe <HC595Write+0x8>
			HC595DataLow();												// MSB is 0 so output high
		}
		HC595Pulse();													// Pulse the Clock line
		data=data<<1;													// Now bring next bit at MSB position
	}
	HC595Latch();														// Now all 8 bits have been transferred to shift register, move them to output latch at one
 312:	0e 94 72 01 	call	0x2e4	; 0x2e4 <HC595Latch>
}
 316:	df 91       	pop	r29
 318:	cf 91       	pop	r28
 31a:	08 95       	ret

0000031c <__vector_11>:
	TCCR1B |= (1 << WGM12);												// Mode 4, CTC on OCR1A
	TIMSK1 |= (1 << OCIE1A);											// Set interrupt on compare match
	TCCR1B |= (1 << CS12) | (1 << CS10);								// set prescaler to 1024 and start the timer
}

ISR(TIMER1_COMPA_vect) {												// ISR for Timer 1
 31c:	1f 92       	push	r1
 31e:	0f 92       	push	r0
 320:	0f b6       	in	r0, 0x3f	; 63
 322:	0f 92       	push	r0
 324:	11 24       	eor	r1, r1
	// Moving the switch clause in main() here yields strange behavior.  The correct values make it through
	// to HC595Write, but the same value is output on the shift registers output pins regardless; e.g. 2.
	// That value changes if the MCU is reset!
}
 326:	0f 90       	pop	r0
 328:	0f be       	out	0x3f, r0	; 63
 32a:	0f 90       	pop	r0
 32c:	1f 90       	pop	r1
 32e:	18 95       	reti

00000330 <initInturrupts>:

void initInturrupts() {													// Set up the interrupt used for the switch
	debug("INITINTURRUPTS()");
 330:	83 e4       	ldi	r24, 0x43	; 67
 332:	91 e0       	ldi	r25, 0x01	; 1
 334:	0e 94 14 01 	call	0x228	; 0x228 <debug>
	PCICR |= (1 << PCIE1);												// Set pin change interrupt for C pins
 338:	e8 e6       	ldi	r30, 0x68	; 104
 33a:	f0 e0       	ldi	r31, 0x00	; 0
 33c:	80 81       	ld	r24, Z
 33e:	82 60       	ori	r24, 0x02	; 2
 340:	80 83       	st	Z, r24
	PCMSK1 |= (1 << PCINT9);											// Set mask to look for PCINT9 / PC1
 342:	ec e6       	ldi	r30, 0x6C	; 108
 344:	f0 e0       	ldi	r31, 0x00	; 0
 346:	80 81       	ld	r24, Z
 348:	82 60       	ori	r24, 0x02	; 2
 34a:	80 83       	st	Z, r24
	sei();																// enable global interrupts
 34c:	78 94       	sei
 34e:	08 95       	ret

00000350 <__vector_4>:
}

/* Interrupts for buttons and switches */
ISR (PCINT1_vect) {
 350:	1f 92       	push	r1
 352:	0f 92       	push	r0
 354:	0f b6       	in	r0, 0x3f	; 63
 356:	0f 92       	push	r0
 358:	11 24       	eor	r1, r1
 35a:	8f 93       	push	r24
	#else
		//round up by default
		__ticks_dc = (uint32_t)(ceil(fabs(__tmp)));
	#endif

	__builtin_avr_delay_cycles(__ticks_dc);
 35c:	86 ea       	ldi	r24, 0xA6	; 166
 35e:	8a 95       	dec	r24
 360:	f1 f7       	brne	.-4      	; 0x35e <__vector_4+0xe>
 362:	00 c0       	rjmp	.+0      	; 0x364 <__vector_4+0x14>
	_delay_us(DEBOUNCE_TIME);
	if (bit_is_set(PINC, PINC1)) {
 364:	31 9b       	sbis	0x06, 1	; 6
 366:	03 c0       	rjmp	.+6      	; 0x36e <__vector_4+0x1e>
		switchPosition = 1;
 368:	81 e0       	ldi	r24, 0x01	; 1
 36a:	80 93 d7 01 	sts	0x01D7, r24
 36e:	86 ea       	ldi	r24, 0xA6	; 166
 370:	8a 95       	dec	r24
 372:	f1 f7       	brne	.-4      	; 0x370 <__vector_4+0x20>
 374:	00 c0       	rjmp	.+0      	; 0x376 <__vector_4+0x26>
	}
	_delay_us(DEBOUNCE_TIME);
	if (bit_is_clear(PINC, PINC1)) {            
 376:	31 9b       	sbis	0x06, 1	; 6
		switchPosition = 0;
 378:	10 92 d7 01 	sts	0x01D7, r1
	}
}
 37c:	8f 91       	pop	r24
 37e:	0f 90       	pop	r0
 380:	0f be       	out	0x3f, r0	; 63
 382:	0f 90       	pop	r0
 384:	1f 90       	pop	r1
 386:	18 95       	reti

00000388 <initPins>:

void initPins() {
	debug("INITPINS()");
 388:	84 e5       	ldi	r24, 0x54	; 84
 38a:	91 e0       	ldi	r25, 0x01	; 1
 38c:	0e 94 14 01 	call	0x228	; 0x228 <debug>
	DDRC &= ~(1 << DDC1);												// Set PC1 to input for switch
 390:	39 98       	cbi	0x07, 1	; 7
	PORTC |= (1 << PORTC1);												// Turn on the pull up
 392:	41 9a       	sbi	0x08, 1	; 8
	DDRC &= ~((1 << DDC0) | (1 << DDC2));								// Set PC0 & PC2 to input for ADC
 394:	87 b1       	in	r24, 0x07	; 7
 396:	8a 7f       	andi	r24, 0xFA	; 250
 398:	87 b9       	out	0x07, r24	; 7
	DDRD |= (1 << DDD2)|(1 << DDD3)|(1 << DDD4);						// transistors for multiplexing seven segment display
 39a:	8a b1       	in	r24, 0x0a	; 10
 39c:	8c 61       	ori	r24, 0x1C	; 28
 39e:	8a b9       	out	0x0a, r24	; 10
	DDRB |= (1 << DDB6);												// make LED pin an output (PB6)
 3a0:	26 9a       	sbi	0x04, 6	; 4
	DDRB |= (1 << DDB0)|(1 << DDB1)|(1 << DDB2);						// Set PB0, PB1, and PB2 as output for shift register (redundant)
 3a2:	84 b1       	in	r24, 0x04	; 4
 3a4:	87 60       	ori	r24, 0x07	; 7
 3a6:	84 b9       	out	0x04, r24	; 4
 3a8:	08 95       	ret

000003aa <initSwitchPosition>:
}

void initSwitchPosition() {
	debug("INITSWITCHPOSITION()");
 3aa:	8f e5       	ldi	r24, 0x5F	; 95
 3ac:	91 e0       	ldi	r25, 0x01	; 1
 3ae:	0e 94 14 01 	call	0x228	; 0x228 <debug>
	if (bit_is_set(PINC, PINC1)) {
 3b2:	31 9b       	sbis	0x06, 1	; 6
 3b4:	03 c0       	rjmp	.+6      	; 0x3bc <initSwitchPosition+0x12>
		switchPosition = 1;
 3b6:	81 e0       	ldi	r24, 0x01	; 1
 3b8:	80 93 d7 01 	sts	0x01D7, r24
	}
	if (bit_is_clear(PINC, PINC1)) {            
 3bc:	31 9b       	sbis	0x06, 1	; 6
		switchPosition = 0;
 3be:	10 92 d7 01 	sts	0x01D7, r1
 3c2:	08 95       	ret

000003c4 <initADC>:
	}
}

void initADC() {
	debug("INITADC()");
 3c4:	84 e7       	ldi	r24, 0x74	; 116
 3c6:	91 e0       	ldi	r25, 0x01	; 1
 3c8:	0e 94 14 01 	call	0x228	; 0x228 <debug>
	ADMUX |= (1 << REFS0);												// reference voltage on AVCC 
 3cc:	ec e7       	ldi	r30, 0x7C	; 124
 3ce:	f0 e0       	ldi	r31, 0x00	; 0
 3d0:	80 81       	ld	r24, Z
 3d2:	80 64       	ori	r24, 0x40	; 64
 3d4:	80 83       	st	Z, r24
	ADCSRA |= (1 << ADPS1) | (1 << ADPS0);								// ADC clock prescaler  / 8 
 3d6:	ea e7       	ldi	r30, 0x7A	; 122
 3d8:	f0 e0       	ldi	r31, 0x00	; 0
 3da:	80 81       	ld	r24, Z
 3dc:	83 60       	ori	r24, 0x03	; 3
 3de:	80 83       	st	Z, r24
	ADCSRA |= (1 << ADEN);												// enable ADC 
 3e0:	80 81       	ld	r24, Z
 3e2:	80 68       	ori	r24, 0x80	; 128
 3e4:	80 83       	st	Z, r24
 3e6:	08 95       	ret

000003e8 <readADC>:
}

uint16_t readADC(int channel) {
	ADMUX &= 0b11110000;												// 0xF0 clear the older channel that was read
 3e8:	ec e7       	ldi	r30, 0x7C	; 124
 3ea:	f0 e0       	ldi	r31, 0x00	; 0
 3ec:	90 81       	ld	r25, Z
 3ee:	90 7f       	andi	r25, 0xF0	; 240
 3f0:	90 83       	st	Z, r25
	ADMUX |= channel;													// Defines the new ADC channel to be read
 3f2:	90 81       	ld	r25, Z
 3f4:	89 2b       	or	r24, r25
 3f6:	80 83       	st	Z, r24
																		// first sample after you've changed the
																		// multiplexer will still be from the old
																		// analog source, you need to wait at
																		// least one complete ADC cycle before
																		// getting a value from the new channel
	ADCSRA |= (1 << ADSC);												// start ADC conversion
 3f8:	ea e7       	ldi	r30, 0x7A	; 122
 3fa:	f0 e0       	ldi	r31, 0x00	; 0
 3fc:	80 81       	ld	r24, Z
 3fe:	80 64       	ori	r24, 0x40	; 64
 400:	80 83       	st	Z, r24
	loop_until_bit_is_clear(ADCSRA, ADSC);								// wait until done
 402:	80 81       	ld	r24, Z
 404:	86 fd       	sbrc	r24, 6
 406:	fd cf       	rjmp	.-6      	; 0x402 <readADC+0x1a>
	ADCSRA |= (1 << ADSC);												// start ADC conversion
 408:	ea e7       	ldi	r30, 0x7A	; 122
 40a:	f0 e0       	ldi	r31, 0x00	; 0
 40c:	80 81       	ld	r24, Z
 40e:	80 64       	ori	r24, 0x40	; 64
 410:	80 83       	st	Z, r24
	loop_until_bit_is_clear(ADCSRA, ADSC);								// wait until done
 412:	80 81       	ld	r24, Z
 414:	86 fd       	sbrc	r24, 6
 416:	fd cf       	rjmp	.-6      	; 0x412 <readADC+0x2a>
	uint8_t theLowADC = ADCL;
 418:	80 91 78 00 	lds	r24, 0x0078
	uint16_t theTenBitResult = ADCH<<8 | theLowADC;
 41c:	20 91 79 00 	lds	r18, 0x0079
 420:	90 e0       	ldi	r25, 0x00	; 0
	return(theTenBitResult);
}
 422:	92 2b       	or	r25, r18
 424:	08 95       	ret

00000426 <initTWI>:

void initTWI() {
 426:	cf 92       	push	r12
 428:	df 92       	push	r13
 42a:	ef 92       	push	r14
 42c:	ff 92       	push	r15
 42e:	0f 93       	push	r16
 430:	1f 93       	push	r17
	debug("INITTWI()");													// Initialize I2C
 432:	8e e7       	ldi	r24, 0x7E	; 126
 434:	91 e0       	ldi	r25, 0x01	; 1
 436:	0e 94 14 01 	call	0x228	; 0x228 <debug>
//  TWI_init(   F_CPU,													// clock frequency
    TWI_init(   8000000UL,												// clock frequency
 43a:	0f 2e       	mov	r0, r31
 43c:	f5 e4       	ldi	r31, 0x45	; 69
 43e:	cf 2e       	mov	r12, r31
 440:	f1 e0       	ldi	r31, 0x01	; 1
 442:	df 2e       	mov	r13, r31
 444:	f0 2d       	mov	r31, r0
 446:	68 94       	set
 448:	ee 24       	eor	r14, r14
 44a:	e2 f8       	bld	r14, 2
 44c:	f1 2c       	mov	r15, r1
 44e:	0d eb       	ldi	r16, 0xBD	; 189
 450:	11 e0       	ldi	r17, 0x01	; 1
 452:	20 ea       	ldi	r18, 0xA0	; 160
 454:	36 e8       	ldi	r19, 0x86	; 134
 456:	41 e0       	ldi	r20, 0x01	; 1
 458:	50 e0       	ldi	r21, 0x00	; 0
 45a:	60 e0       	ldi	r22, 0x00	; 0
 45c:	72 e1       	ldi	r23, 0x12	; 18
 45e:	8a e7       	ldi	r24, 0x7A	; 122
 460:	90 e0       	ldi	r25, 0x00	; 0
 462:	0e 94 8a 03 	call	0x714	; 0x714 <TWI_init>
				&handle_I2C_interrupt									// pointer to callback function  Compile WARNING: passing argument 5 of 'TWI_init' from incompatible pointer type	SensorReport	C:\dev\avr\code\SensorReport\SensorReport\SensorReport.c	277

			);
    
																		// give our slave address and enable I2C
    TWI_enable_slave_mode(  I2C_SLAVE_ADDRESS,							// device address of slave
 466:	40 e0       	ldi	r20, 0x00	; 0
 468:	50 e0       	ldi	r21, 0x00	; 0
 46a:	60 e0       	ldi	r22, 0x00	; 0
 46c:	80 e1       	ldi	r24, 0x10	; 16
 46e:	0e 94 bb 03 	call	0x776	; 0x776 <TWI_enable_slave_mode>
							0,											// slave address mask
							0											// enable general call
						 );
} 
 472:	1f 91       	pop	r17
 474:	0f 91       	pop	r16
 476:	ff 90       	pop	r15
 478:	ef 90       	pop	r14
 47a:	df 90       	pop	r13
 47c:	cf 90       	pop	r12
 47e:	08 95       	ret

00000480 <main>:
	if(status==TWI_success){
	}
} 

int main(void) {
	initUSART();
 480:	0e 94 2e 05 	call	0xa5c	; 0xa5c <initUSART>
	debug("MAIN()");
 484:	88 e8       	ldi	r24, 0x88	; 136
 486:	91 e0       	ldi	r25, 0x01	; 1
 488:	0e 94 14 01 	call	0x228	; 0x228 <debug>
	initPins();
 48c:	0e 94 c4 01 	call	0x388	; 0x388 <initPins>
	initADC();
 490:	0e 94 e2 01 	call	0x3c4	; 0x3c4 <initADC>
	initTWI();
 494:	0e 94 13 02 	call	0x426	; 0x426 <initTWI>
	initInturrupts();
 498:	0e 94 98 01 	call	0x330	; 0x330 <initInturrupts>
	initHC595();														// Initialize HC595 system
 49c:	0e 94 67 01 	call	0x2ce	; 0x2ce <initHC595>
	initSwitchPosition();												// determines if the switch is on or off
 4a0:	0e 94 d5 01 	call	0x3aa	; 0x3aa <initSwitchPosition>
	charToLight = 0;
 4a4:	10 92 cd 01 	sts	0x01CD, r1
	while (1) {	

		sensorDetected  = readADC(0b00000000) * 0.97654;				// ADC0 = PC0, MUX3..0 = 0000
		sensorThreshold = readADC(0b00000011) * 0.97654;				// ADC3 = PC3, MUX3..0 = 0011

		I2C_buffer[0] = sensorDetected>>8;								// high byte of sensorDetected
 4a8:	cd eb       	ldi	r28, 0xBD	; 189
 4aa:	d1 e0       	ldi	r29, 0x01	; 1
 		if (switchPosition) {
			charPosition[2] = (sensorDetected / 100);
			charPosition[1] = ((sensorDetected - ((sensorDetected / 100) * 100)) / 10 );
			charPosition[0] = (sensorDetected - ((sensorDetected / 10) * 10));
		} else {
			charPosition[2] = (sensorThreshold / 100);
 4ac:	00 ed       	ldi	r16, 0xD0	; 208
 4ae:	11 e0       	ldi	r17, 0x01	; 1
			charPosition[1] = ((sensorThreshold - ((sensorThreshold / 100) * 100)) / 10 );
 4b0:	0f 2e       	mov	r0, r31
 4b2:	f4 e6       	ldi	r31, 0x64	; 100
 4b4:	ff 2e       	mov	r15, r31
 4b6:	f0 2d       	mov	r31, r0
				break;
			case 1 :
				PORTD |= (1 << PORTD4);									// Turn off the transistor for the ones place
				HC595Write(ssCharMap[charPosition[1]]);
				PORTD &= ~(1 << PORTD3);								// Turn on the transistor for the tens place
				charToLight = 2;
 4b8:	68 94       	set
 4ba:	dd 24       	eor	r13, r13
 4bc:	d1 f8       	bld	r13, 1
		switch(charToLight) {											// determine which transistor to flip on
			case 0 :
				PORTD |= (1 << PORTD2);									// Turn off the transistor for the hundreds place
				HC595Write(ssCharMap[charPosition[0]]);
				PORTD &= ~(1 << PORTD4);								// Turn on the transistor for the ones place
				charToLight = 1;
 4be:	ee 24       	eor	r14, r14
 4c0:	e3 94       	inc	r14
	initHC595();														// Initialize HC595 system
	initSwitchPosition();												// determines if the switch is on or off
	charToLight = 0;
	while (1) {	

		sensorDetected  = readADC(0b00000000) * 0.97654;				// ADC0 = PC0, MUX3..0 = 0000
 4c2:	80 e0       	ldi	r24, 0x00	; 0
 4c4:	90 e0       	ldi	r25, 0x00	; 0
 4c6:	0e 94 f4 01 	call	0x3e8	; 0x3e8 <readADC>
 4ca:	bc 01       	movw	r22, r24
 4cc:	80 e0       	ldi	r24, 0x00	; 0
 4ce:	90 e0       	ldi	r25, 0x00	; 0
 4d0:	0e 94 8c 05 	call	0xb18	; 0xb18 <__floatunsisf>
 4d4:	27 e8       	ldi	r18, 0x87	; 135
 4d6:	3e ef       	ldi	r19, 0xFE	; 254
 4d8:	49 e7       	ldi	r20, 0x79	; 121
 4da:	5f e3       	ldi	r21, 0x3F	; 63
 4dc:	0e 94 f2 05 	call	0xbe4	; 0xbe4 <__mulsf3>
 4e0:	0e 94 5d 05 	call	0xaba	; 0xaba <__fixunssfsi>
 4e4:	70 93 d6 01 	sts	0x01D6, r23
 4e8:	60 93 d5 01 	sts	0x01D5, r22
		sensorThreshold = readADC(0b00000011) * 0.97654;				// ADC3 = PC3, MUX3..0 = 0011
 4ec:	83 e0       	ldi	r24, 0x03	; 3
 4ee:	90 e0       	ldi	r25, 0x00	; 0
 4f0:	0e 94 f4 01 	call	0x3e8	; 0x3e8 <readADC>
 4f4:	bc 01       	movw	r22, r24
 4f6:	80 e0       	ldi	r24, 0x00	; 0
 4f8:	90 e0       	ldi	r25, 0x00	; 0
 4fa:	0e 94 8c 05 	call	0xb18	; 0xb18 <__floatunsisf>
 4fe:	27 e8       	ldi	r18, 0x87	; 135
 500:	3e ef       	ldi	r19, 0xFE	; 254
 502:	49 e7       	ldi	r20, 0x79	; 121
 504:	5f e3       	ldi	r21, 0x3F	; 63
 506:	0e 94 f2 05 	call	0xbe4	; 0xbe4 <__mulsf3>
 50a:	0e 94 5d 05 	call	0xaba	; 0xaba <__fixunssfsi>
 50e:	70 93 b9 01 	sts	0x01B9, r23
 512:	60 93 b8 01 	sts	0x01B8, r22

		I2C_buffer[0] = sensorDetected>>8;								// high byte of sensorDetected
 516:	80 91 d5 01 	lds	r24, 0x01D5
 51a:	90 91 d6 01 	lds	r25, 0x01D6
 51e:	98 83       	st	Y, r25
		I2C_buffer[1] = sensorDetected & 0xFF;							// low byte of sensorDetected
 520:	80 91 d5 01 	lds	r24, 0x01D5
 524:	90 91 d6 01 	lds	r25, 0x01D6
 528:	89 83       	std	Y+1, r24	; 0x01
		I2C_buffer[2] = sensorThreshold>>8;								// high byte of sensorThreshold
 52a:	80 91 b8 01 	lds	r24, 0x01B8
 52e:	90 91 b9 01 	lds	r25, 0x01B9
 532:	9a 83       	std	Y+2, r25	; 0x02
		I2C_buffer[3] = sensorThreshold & 0xFF;							// low byte of sensorThreshold
 534:	80 91 b8 01 	lds	r24, 0x01B8
 538:	90 91 b9 01 	lds	r25, 0x01B9
 53c:	8b 83       	std	Y+3, r24	; 0x03

 		if (switchPosition) {
 53e:	80 91 d7 01 	lds	r24, 0x01D7
 542:	88 23       	and	r24, r24
 544:	09 f4       	brne	.+2      	; 0x548 <main+0xc8>
 546:	54 c0       	rjmp	.+168    	; 0x5f0 <main+0x170>
			charPosition[2] = (sensorDetected / 100);
 548:	20 91 d5 01 	lds	r18, 0x01D5
 54c:	30 91 d6 01 	lds	r19, 0x01D6
 550:	36 95       	lsr	r19
 552:	27 95       	ror	r18
 554:	36 95       	lsr	r19
 556:	27 95       	ror	r18
 558:	ab e7       	ldi	r26, 0x7B	; 123
 55a:	b4 e1       	ldi	r27, 0x14	; 20
 55c:	0e 94 ac 06 	call	0xd58	; 0xd58 <__umulhisi3>
 560:	96 95       	lsr	r25
 562:	87 95       	ror	r24
 564:	d8 01       	movw	r26, r16
 566:	12 96       	adiw	r26, 0x02	; 2
 568:	8c 93       	st	X, r24
			charPosition[1] = ((sensorDetected - ((sensorDetected / 100) * 100)) / 10 );
 56a:	40 91 d5 01 	lds	r20, 0x01D5
 56e:	50 91 d6 01 	lds	r21, 0x01D6
 572:	20 91 d5 01 	lds	r18, 0x01D5
 576:	30 91 d6 01 	lds	r19, 0x01D6
 57a:	36 95       	lsr	r19
 57c:	27 95       	ror	r18
 57e:	36 95       	lsr	r19
 580:	27 95       	ror	r18
 582:	ab e7       	ldi	r26, 0x7B	; 123
 584:	b4 e1       	ldi	r27, 0x14	; 20
 586:	0e 94 ac 06 	call	0xd58	; 0xd58 <__umulhisi3>
 58a:	96 95       	lsr	r25
 58c:	87 95       	ror	r24
 58e:	f8 9e       	mul	r15, r24
 590:	90 01       	movw	r18, r0
 592:	f9 9e       	mul	r15, r25
 594:	30 0d       	add	r19, r0
 596:	11 24       	eor	r1, r1
 598:	fa 01       	movw	r30, r20
 59a:	e2 1b       	sub	r30, r18
 59c:	f3 0b       	sbc	r31, r19
 59e:	9f 01       	movw	r18, r30
 5a0:	ad ec       	ldi	r26, 0xCD	; 205
 5a2:	bc ec       	ldi	r27, 0xCC	; 204
 5a4:	0e 94 ac 06 	call	0xd58	; 0xd58 <__umulhisi3>
 5a8:	96 95       	lsr	r25
 5aa:	87 95       	ror	r24
 5ac:	96 95       	lsr	r25
 5ae:	87 95       	ror	r24
 5b0:	96 95       	lsr	r25
 5b2:	87 95       	ror	r24
 5b4:	d8 01       	movw	r26, r16
 5b6:	11 96       	adiw	r26, 0x01	; 1
 5b8:	8c 93       	st	X, r24
			charPosition[0] = (sensorDetected - ((sensorDetected / 10) * 10));
 5ba:	40 91 d5 01 	lds	r20, 0x01D5
 5be:	50 91 d6 01 	lds	r21, 0x01D6
 5c2:	20 91 d5 01 	lds	r18, 0x01D5
 5c6:	30 91 d6 01 	lds	r19, 0x01D6
 5ca:	ad ec       	ldi	r26, 0xCD	; 205
 5cc:	bc ec       	ldi	r27, 0xCC	; 204
 5ce:	0e 94 ac 06 	call	0xd58	; 0xd58 <__umulhisi3>
 5d2:	96 95       	lsr	r25
 5d4:	87 95       	ror	r24
 5d6:	96 95       	lsr	r25
 5d8:	87 95       	ror	r24
 5da:	96 95       	lsr	r25
 5dc:	87 95       	ror	r24
 5de:	88 0f       	add	r24, r24
 5e0:	98 2f       	mov	r25, r24
 5e2:	99 0f       	add	r25, r25
 5e4:	99 0f       	add	r25, r25
 5e6:	89 0f       	add	r24, r25
 5e8:	48 1b       	sub	r20, r24
 5ea:	f8 01       	movw	r30, r16
 5ec:	40 83       	st	Z, r20
 5ee:	53 c0       	rjmp	.+166    	; 0x696 <main+0x216>
		} else {
			charPosition[2] = (sensorThreshold / 100);
 5f0:	20 91 b8 01 	lds	r18, 0x01B8
 5f4:	30 91 b9 01 	lds	r19, 0x01B9
 5f8:	36 95       	lsr	r19
 5fa:	27 95       	ror	r18
 5fc:	36 95       	lsr	r19
 5fe:	27 95       	ror	r18
 600:	ab e7       	ldi	r26, 0x7B	; 123
 602:	b4 e1       	ldi	r27, 0x14	; 20
 604:	0e 94 ac 06 	call	0xd58	; 0xd58 <__umulhisi3>
 608:	96 95       	lsr	r25
 60a:	87 95       	ror	r24
 60c:	d8 01       	movw	r26, r16
 60e:	12 96       	adiw	r26, 0x02	; 2
 610:	8c 93       	st	X, r24
			charPosition[1] = ((sensorThreshold - ((sensorThreshold / 100) * 100)) / 10 );
 612:	40 91 b8 01 	lds	r20, 0x01B8
 616:	50 91 b9 01 	lds	r21, 0x01B9
 61a:	20 91 b8 01 	lds	r18, 0x01B8
 61e:	30 91 b9 01 	lds	r19, 0x01B9
 622:	36 95       	lsr	r19
 624:	27 95       	ror	r18
 626:	36 95       	lsr	r19
 628:	27 95       	ror	r18
 62a:	ab e7       	ldi	r26, 0x7B	; 123
 62c:	b4 e1       	ldi	r27, 0x14	; 20
 62e:	0e 94 ac 06 	call	0xd58	; 0xd58 <__umulhisi3>
 632:	96 95       	lsr	r25
 634:	87 95       	ror	r24
 636:	f8 9e       	mul	r15, r24
 638:	90 01       	movw	r18, r0
 63a:	f9 9e       	mul	r15, r25
 63c:	30 0d       	add	r19, r0
 63e:	11 24       	eor	r1, r1
 640:	fa 01       	movw	r30, r20
 642:	e2 1b       	sub	r30, r18
 644:	f3 0b       	sbc	r31, r19
 646:	9f 01       	movw	r18, r30
 648:	ad ec       	ldi	r26, 0xCD	; 205
 64a:	bc ec       	ldi	r27, 0xCC	; 204
 64c:	0e 94 ac 06 	call	0xd58	; 0xd58 <__umulhisi3>
 650:	96 95       	lsr	r25
 652:	87 95       	ror	r24
 654:	96 95       	lsr	r25
 656:	87 95       	ror	r24
 658:	96 95       	lsr	r25
 65a:	87 95       	ror	r24
 65c:	d8 01       	movw	r26, r16
 65e:	11 96       	adiw	r26, 0x01	; 1
 660:	8c 93       	st	X, r24
			charPosition[0] = (sensorThreshold - ((sensorThreshold / 10) * 10));
 662:	40 91 b8 01 	lds	r20, 0x01B8
 666:	50 91 b9 01 	lds	r21, 0x01B9
 66a:	20 91 b8 01 	lds	r18, 0x01B8
 66e:	30 91 b9 01 	lds	r19, 0x01B9
 672:	ad ec       	ldi	r26, 0xCD	; 205
 674:	bc ec       	ldi	r27, 0xCC	; 204
 676:	0e 94 ac 06 	call	0xd58	; 0xd58 <__umulhisi3>
 67a:	96 95       	lsr	r25
 67c:	87 95       	ror	r24
 67e:	96 95       	lsr	r25
 680:	87 95       	ror	r24
 682:	96 95       	lsr	r25
 684:	87 95       	ror	r24
 686:	88 0f       	add	r24, r24
 688:	98 2f       	mov	r25, r24
 68a:	99 0f       	add	r25, r25
 68c:	99 0f       	add	r25, r25
 68e:	89 0f       	add	r24, r25
 690:	48 1b       	sub	r20, r24
 692:	f8 01       	movw	r30, r16
 694:	40 83       	st	Z, r20
		}
//		debugNoLF("SENSOR THRESHOLD: "); debugInt(sensorThreshold);
//		debugNoLF("SENSOR DETECTED: "); debugInt(sensorDetected);
		if (sensorDetected > sensorThreshold) {
 696:	20 91 d5 01 	lds	r18, 0x01D5
 69a:	30 91 d6 01 	lds	r19, 0x01D6
 69e:	80 91 b8 01 	lds	r24, 0x01B8
 6a2:	90 91 b9 01 	lds	r25, 0x01B9
 6a6:	82 17       	cp	r24, r18
 6a8:	93 07       	cpc	r25, r19
 6aa:	10 f4       	brcc	.+4      	; 0x6b0 <main+0x230>
			PORTB |= (1 << PORTB6);										// Sound the alarm
 6ac:	2e 9a       	sbi	0x05, 6	; 5
 6ae:	01 c0       	rjmp	.+2      	; 0x6b2 <main+0x232>
		}
		else {
			PORTB &= ~(1 << PORTB6);									// Silence the alarm
 6b0:	2e 98       	cbi	0x05, 6	; 5
		}
		switch(charToLight) {											// determine which transistor to flip on
 6b2:	80 91 cd 01 	lds	r24, 0x01CD
 6b6:	81 30       	cpi	r24, 0x01	; 1
 6b8:	89 f0       	breq	.+34     	; 0x6dc <main+0x25c>
 6ba:	18 f0       	brcs	.+6      	; 0x6c2 <main+0x242>
 6bc:	82 30       	cpi	r24, 0x02	; 2
 6be:	e1 f0       	breq	.+56     	; 0x6f8 <main+0x278>
 6c0:	00 cf       	rjmp	.-512    	; 0x4c2 <main+0x42>
			case 0 :
				PORTD |= (1 << PORTD2);									// Turn off the transistor for the hundreds place
 6c2:	5a 9a       	sbi	0x0b, 2	; 11
				HC595Write(ssCharMap[charPosition[0]]);
 6c4:	d8 01       	movw	r26, r16
 6c6:	ec 91       	ld	r30, X
 6c8:	f0 e0       	ldi	r31, 0x00	; 0
 6ca:	e1 57       	subi	r30, 0x71	; 113
 6cc:	fe 4f       	sbci	r31, 0xFE	; 254
 6ce:	80 81       	ld	r24, Z
 6d0:	0e 94 7b 01 	call	0x2f6	; 0x2f6 <HC595Write>
				PORTD &= ~(1 << PORTD4);								// Turn on the transistor for the ones place
 6d4:	5c 98       	cbi	0x0b, 4	; 11
				charToLight = 1;
 6d6:	e0 92 cd 01 	sts	0x01CD, r14
				break;
 6da:	f3 ce       	rjmp	.-538    	; 0x4c2 <main+0x42>
			case 1 :
				PORTD |= (1 << PORTD4);									// Turn off the transistor for the ones place
 6dc:	5c 9a       	sbi	0x0b, 4	; 11
				HC595Write(ssCharMap[charPosition[1]]);
 6de:	d8 01       	movw	r26, r16
 6e0:	11 96       	adiw	r26, 0x01	; 1
 6e2:	ec 91       	ld	r30, X
 6e4:	f0 e0       	ldi	r31, 0x00	; 0
 6e6:	e1 57       	subi	r30, 0x71	; 113
 6e8:	fe 4f       	sbci	r31, 0xFE	; 254
 6ea:	80 81       	ld	r24, Z
 6ec:	0e 94 7b 01 	call	0x2f6	; 0x2f6 <HC595Write>
				PORTD &= ~(1 << PORTD3);								// Turn on the transistor for the tens place
 6f0:	5b 98       	cbi	0x0b, 3	; 11
				charToLight = 2;
 6f2:	d0 92 cd 01 	sts	0x01CD, r13
				break;
 6f6:	e5 ce       	rjmp	.-566    	; 0x4c2 <main+0x42>
			case 2 :
				PORTD |= (1 << PORTD3);									// Turn off the transistor for the tens place
 6f8:	5b 9a       	sbi	0x0b, 3	; 11
				HC595Write(ssCharMap[charPosition[2]]);
 6fa:	d8 01       	movw	r26, r16
 6fc:	12 96       	adiw	r26, 0x02	; 2
 6fe:	ec 91       	ld	r30, X
 700:	f0 e0       	ldi	r31, 0x00	; 0
 702:	e1 57       	subi	r30, 0x71	; 113
 704:	fe 4f       	sbci	r31, 0xFE	; 254
 706:	80 81       	ld	r24, Z
 708:	0e 94 7b 01 	call	0x2f6	; 0x2f6 <HC595Write>
				PORTD &= ~(1 << PORTD2);								// Turn on the transistor for the hundreds place
 70c:	5a 98       	cbi	0x0b, 2	; 11
				charToLight = 0;
 70e:	10 92 cd 01 	sts	0x01CD, r1
				break;
 712:	d7 ce       	rjmp	.-594    	; 0x4c2 <main+0x42>

00000714 <TWI_init>:
 714:	cf 92       	push	r12
 716:	df 92       	push	r13
 718:	ef 92       	push	r14
 71a:	ff 92       	push	r15
 71c:	0f 93       	push	r16
 71e:	1f 93       	push	r17
 720:	d0 92 c8 01 	sts	0x01C8, r13
 724:	c0 92 c7 01 	sts	0x01C7, r12
 728:	10 93 c3 01 	sts	0x01C3, r17
 72c:	00 93 c2 01 	sts	0x01C2, r16
 730:	f0 92 bb 01 	sts	0x01BB, r15
 734:	e0 92 ba 01 	sts	0x01BA, r14
 738:	0e 94 87 06 	call	0xd0e	; 0xd0e <__divmodsi4>
 73c:	ba 01       	movw	r22, r20
 73e:	a9 01       	movw	r20, r18
 740:	40 51       	subi	r20, 0x10	; 16
 742:	51 09       	sbc	r21, r1
 744:	61 09       	sbc	r22, r1
 746:	71 09       	sbc	r23, r1
 748:	db 01       	movw	r26, r22
 74a:	ca 01       	movw	r24, r20
 74c:	1a f4       	brpl	.+6      	; 0x754 <TWI_init+0x40>
 74e:	01 96       	adiw	r24, 0x01	; 1
 750:	a1 1d       	adc	r26, r1
 752:	b1 1d       	adc	r27, r1
 754:	b5 95       	asr	r27
 756:	a7 95       	ror	r26
 758:	97 95       	ror	r25
 75a:	87 95       	ror	r24
 75c:	80 93 b8 00 	sts	0x00B8, r24
 760:	10 92 b9 00 	sts	0x00B9, r1
 764:	10 92 cb 01 	sts	0x01CB, r1
 768:	1f 91       	pop	r17
 76a:	0f 91       	pop	r16
 76c:	ff 90       	pop	r15
 76e:	ef 90       	pop	r14
 770:	df 90       	pop	r13
 772:	cf 90       	pop	r12
 774:	08 95       	ret

00000776 <TWI_enable_slave_mode>:
 776:	50 93 c8 01 	sts	0x01C8, r21
 77a:	40 93 c7 01 	sts	0x01C7, r20
 77e:	88 0f       	add	r24, r24
 780:	80 93 ba 00 	sts	0x00BA, r24
 784:	66 23       	and	r22, r22
 786:	29 f0       	breq	.+10     	; 0x792 <TWI_enable_slave_mode+0x1c>
 788:	ea eb       	ldi	r30, 0xBA	; 186
 78a:	f0 e0       	ldi	r31, 0x00	; 0
 78c:	80 81       	ld	r24, Z
 78e:	81 60       	ori	r24, 0x01	; 1
 790:	80 83       	st	Z, r24
 792:	85 ec       	ldi	r24, 0xC5	; 197
 794:	80 93 bc 00 	sts	0x00BC, r24
 798:	08 95       	ret

0000079a <__vector_24>:
 79a:	1f 92       	push	r1
 79c:	0f 92       	push	r0
 79e:	0f b6       	in	r0, 0x3f	; 63
 7a0:	0f 92       	push	r0
 7a2:	11 24       	eor	r1, r1
 7a4:	2f 93       	push	r18
 7a6:	3f 93       	push	r19
 7a8:	4f 93       	push	r20
 7aa:	5f 93       	push	r21
 7ac:	6f 93       	push	r22
 7ae:	7f 93       	push	r23
 7b0:	8f 93       	push	r24
 7b2:	9f 93       	push	r25
 7b4:	af 93       	push	r26
 7b6:	bf 93       	push	r27
 7b8:	ef 93       	push	r30
 7ba:	ff 93       	push	r31
 7bc:	80 91 b9 00 	lds	r24, 0x00B9
 7c0:	88 7f       	andi	r24, 0xF8	; 248
 7c2:	80 93 c1 01 	sts	0x01C1, r24
 7c6:	e0 91 c1 01 	lds	r30, 0x01C1
 7ca:	8e 2f       	mov	r24, r30
 7cc:	90 e0       	ldi	r25, 0x00	; 0
 7ce:	fc 01       	movw	r30, r24
 7d0:	38 97       	sbiw	r30, 0x08	; 8
 7d2:	e1 3c       	cpi	r30, 0xC1	; 193
 7d4:	f1 05       	cpc	r31, r1
 7d6:	08 f0       	brcs	.+2      	; 0x7da <__vector_24+0x40>
 7d8:	25 c1       	rjmp	.+586    	; 0xa24 <__stack+0x125>
 7da:	ec 5c       	subi	r30, 0xCC	; 204
 7dc:	ff 4f       	sbci	r31, 0xFF	; 255
 7de:	0c 94 a6 06 	jmp	0xd4c	; 0xd4c <__tablejump2__>
 7e2:	80 91 bc 01 	lds	r24, 0x01BC
 7e6:	81 30       	cpi	r24, 0x01	; 1
 7e8:	19 f0       	breq	.+6      	; 0x7f0 <__vector_24+0x56>
 7ea:	82 30       	cpi	r24, 0x02	; 2
 7ec:	59 f0       	breq	.+22     	; 0x804 <__vector_24+0x6a>
 7ee:	14 c0       	rjmp	.+40     	; 0x818 <__vector_24+0x7e>
 7f0:	10 92 d4 01 	sts	0x01D4, r1
 7f4:	10 92 d3 01 	sts	0x01D3, r1
 7f8:	80 91 c9 01 	lds	r24, 0x01C9
 7fc:	88 0f       	add	r24, r24
 7fe:	80 93 bb 00 	sts	0x00BB, r24
 802:	0a c0       	rjmp	.+20     	; 0x818 <__vector_24+0x7e>
 804:	10 92 d4 01 	sts	0x01D4, r1
 808:	10 92 d3 01 	sts	0x01D3, r1
 80c:	80 91 c9 01 	lds	r24, 0x01C9
 810:	88 0f       	add	r24, r24
 812:	81 60       	ori	r24, 0x01	; 1
 814:	80 93 bb 00 	sts	0x00BB, r24
 818:	85 ec       	ldi	r24, 0xC5	; 197
 81a:	80 93 bc 00 	sts	0x00BC, r24
 81e:	0d c1       	rjmp	.+538    	; 0xa3a <__stack+0x13b>
 820:	20 91 d3 01 	lds	r18, 0x01D3
 824:	30 91 d4 01 	lds	r19, 0x01D4
 828:	80 91 b6 01 	lds	r24, 0x01B6
 82c:	90 91 b7 01 	lds	r25, 0x01B7
 830:	28 17       	cp	r18, r24
 832:	39 07       	cpc	r19, r25
 834:	f1 f4       	brne	.+60     	; 0x872 <__vector_24+0xd8>
 836:	80 91 cc 01 	lds	r24, 0x01CC
 83a:	83 30       	cpi	r24, 0x03	; 3
 83c:	39 f4       	brne	.+14     	; 0x84c <__vector_24+0xb2>
 83e:	82 e0       	ldi	r24, 0x02	; 2
 840:	80 93 bc 01 	sts	0x01BC, r24
 844:	85 ea       	ldi	r24, 0xA5	; 165
 846:	80 93 bc 00 	sts	0x00BC, r24
 84a:	f7 c0       	rjmp	.+494    	; 0xa3a <__stack+0x13b>
 84c:	e0 91 c7 01 	lds	r30, 0x01C7
 850:	f0 91 c8 01 	lds	r31, 0x01C8
 854:	30 97       	sbiw	r30, 0x00	; 0
 856:	11 f0       	breq	.+4      	; 0x85c <__vector_24+0xc2>
 858:	80 e0       	ldi	r24, 0x00	; 0
 85a:	09 95       	icall
 85c:	85 e9       	ldi	r24, 0x95	; 149
 85e:	80 93 bc 00 	sts	0x00BC, r24
 862:	ec eb       	ldi	r30, 0xBC	; 188
 864:	f0 e0       	ldi	r31, 0x00	; 0
 866:	80 81       	ld	r24, Z
 868:	84 fd       	sbrc	r24, 4
 86a:	fd cf       	rjmp	.-6      	; 0x866 <__vector_24+0xcc>
 86c:	10 92 cb 01 	sts	0x01CB, r1
 870:	e4 c0       	rjmp	.+456    	; 0xa3a <__stack+0x13b>
 872:	20 91 c2 01 	lds	r18, 0x01C2
 876:	30 91 c3 01 	lds	r19, 0x01C3
 87a:	80 91 d3 01 	lds	r24, 0x01D3
 87e:	90 91 d4 01 	lds	r25, 0x01D4
 882:	ac 01       	movw	r20, r24
 884:	4f 5f       	subi	r20, 0xFF	; 255
 886:	5f 4f       	sbci	r21, 0xFF	; 255
 888:	50 93 d4 01 	sts	0x01D4, r21
 88c:	40 93 d3 01 	sts	0x01D3, r20
 890:	f9 01       	movw	r30, r18
 892:	e8 0f       	add	r30, r24
 894:	f9 1f       	adc	r31, r25
 896:	80 81       	ld	r24, Z
 898:	80 93 bb 00 	sts	0x00BB, r24
 89c:	85 e8       	ldi	r24, 0x85	; 133
 89e:	80 93 bc 00 	sts	0x00BC, r24
 8a2:	cb c0       	rjmp	.+406    	; 0xa3a <__stack+0x13b>
 8a4:	20 91 c2 01 	lds	r18, 0x01C2
 8a8:	30 91 c3 01 	lds	r19, 0x01C3
 8ac:	80 91 d3 01 	lds	r24, 0x01D3
 8b0:	90 91 d4 01 	lds	r25, 0x01D4
 8b4:	ac 01       	movw	r20, r24
 8b6:	4f 5f       	subi	r20, 0xFF	; 255
 8b8:	5f 4f       	sbci	r21, 0xFF	; 255
 8ba:	50 93 d4 01 	sts	0x01D4, r21
 8be:	40 93 d3 01 	sts	0x01D3, r20
 8c2:	f9 01       	movw	r30, r18
 8c4:	e8 0f       	add	r30, r24
 8c6:	f9 1f       	adc	r31, r25
 8c8:	20 91 bb 00 	lds	r18, 0x00BB
 8cc:	20 83       	st	Z, r18
 8ce:	80 91 c5 01 	lds	r24, 0x01C5
 8d2:	90 91 c6 01 	lds	r25, 0x01C6
 8d6:	20 91 d3 01 	lds	r18, 0x01D3
 8da:	30 91 d4 01 	lds	r19, 0x01D4
 8de:	01 97       	sbiw	r24, 0x01	; 1
 8e0:	82 17       	cp	r24, r18
 8e2:	93 07       	cpc	r25, r19
 8e4:	21 f4       	brne	.+8      	; 0x8ee <__vector_24+0x154>
 8e6:	85 e8       	ldi	r24, 0x85	; 133
 8e8:	80 93 bc 00 	sts	0x00BC, r24
 8ec:	a6 c0       	rjmp	.+332    	; 0xa3a <__stack+0x13b>
 8ee:	85 ec       	ldi	r24, 0xC5	; 197
 8f0:	80 93 bc 00 	sts	0x00BC, r24
 8f4:	a2 c0       	rjmp	.+324    	; 0xa3a <__stack+0x13b>
 8f6:	20 91 c2 01 	lds	r18, 0x01C2
 8fa:	30 91 c3 01 	lds	r19, 0x01C3
 8fe:	80 91 d3 01 	lds	r24, 0x01D3
 902:	90 91 d4 01 	lds	r25, 0x01D4
 906:	ac 01       	movw	r20, r24
 908:	4f 5f       	subi	r20, 0xFF	; 255
 90a:	5f 4f       	sbci	r21, 0xFF	; 255
 90c:	50 93 d4 01 	sts	0x01D4, r21
 910:	40 93 d3 01 	sts	0x01D3, r20
 914:	f9 01       	movw	r30, r18
 916:	e8 0f       	add	r30, r24
 918:	f9 1f       	adc	r31, r25
 91a:	20 91 bb 00 	lds	r18, 0x00BB
 91e:	20 83       	st	Z, r18
 920:	e0 91 c7 01 	lds	r30, 0x01C7
 924:	f0 91 c8 01 	lds	r31, 0x01C8
 928:	30 97       	sbiw	r30, 0x00	; 0
 92a:	11 f0       	breq	.+4      	; 0x930 <__stack+0x31>
 92c:	80 e0       	ldi	r24, 0x00	; 0
 92e:	09 95       	icall
 930:	85 e9       	ldi	r24, 0x95	; 149
 932:	80 93 bc 00 	sts	0x00BC, r24
 936:	ec eb       	ldi	r30, 0xBC	; 188
 938:	f0 e0       	ldi	r31, 0x00	; 0
 93a:	80 81       	ld	r24, Z
 93c:	84 fd       	sbrc	r24, 4
 93e:	fd cf       	rjmp	.-6      	; 0x93a <__stack+0x3b>
 940:	10 92 cb 01 	sts	0x01CB, r1
 944:	7a c0       	rjmp	.+244    	; 0xa3a <__stack+0x13b>
 946:	10 92 d4 01 	sts	0x01D4, r1
 94a:	10 92 d3 01 	sts	0x01D3, r1
 94e:	85 ec       	ldi	r24, 0xC5	; 197
 950:	80 93 bc 00 	sts	0x00BC, r24
 954:	72 c0       	rjmp	.+228    	; 0xa3a <__stack+0x13b>
 956:	20 91 d3 01 	lds	r18, 0x01D3
 95a:	30 91 d4 01 	lds	r19, 0x01D4
 95e:	80 91 ba 01 	lds	r24, 0x01BA
 962:	90 91 bb 01 	lds	r25, 0x01BB
 966:	28 17       	cp	r18, r24
 968:	39 07       	cpc	r19, r25
 96a:	a8 f4       	brcc	.+42     	; 0x996 <__stack+0x97>
 96c:	20 91 c2 01 	lds	r18, 0x01C2
 970:	30 91 c3 01 	lds	r19, 0x01C3
 974:	80 91 d3 01 	lds	r24, 0x01D3
 978:	90 91 d4 01 	lds	r25, 0x01D4
 97c:	ac 01       	movw	r20, r24
 97e:	4f 5f       	subi	r20, 0xFF	; 255
 980:	5f 4f       	sbci	r21, 0xFF	; 255
 982:	50 93 d4 01 	sts	0x01D4, r21
 986:	40 93 d3 01 	sts	0x01D3, r20
 98a:	f9 01       	movw	r30, r18
 98c:	e8 0f       	add	r30, r24
 98e:	f9 1f       	adc	r31, r25
 990:	20 91 bb 00 	lds	r18, 0x00BB
 994:	20 83       	st	Z, r18
 996:	85 ec       	ldi	r24, 0xC5	; 197
 998:	80 93 bc 00 	sts	0x00BC, r24
 99c:	4e c0       	rjmp	.+156    	; 0xa3a <__stack+0x13b>
 99e:	80 91 d3 01 	lds	r24, 0x01D3
 9a2:	90 91 d4 01 	lds	r25, 0x01D4
 9a6:	80 93 ca 01 	sts	0x01CA, r24
 9aa:	e0 91 c7 01 	lds	r30, 0x01C7
 9ae:	f0 91 c8 01 	lds	r31, 0x01C8
 9b2:	30 97       	sbiw	r30, 0x00	; 0
 9b4:	11 f0       	breq	.+4      	; 0x9ba <__stack+0xbb>
 9b6:	80 e0       	ldi	r24, 0x00	; 0
 9b8:	09 95       	icall
 9ba:	85 ec       	ldi	r24, 0xC5	; 197
 9bc:	80 93 bc 00 	sts	0x00BC, r24
 9c0:	3c c0       	rjmp	.+120    	; 0xa3a <__stack+0x13b>
 9c2:	10 92 d4 01 	sts	0x01D4, r1
 9c6:	10 92 d3 01 	sts	0x01D3, r1
 9ca:	20 91 d3 01 	lds	r18, 0x01D3
 9ce:	30 91 d4 01 	lds	r19, 0x01D4
 9d2:	80 91 ba 01 	lds	r24, 0x01BA
 9d6:	90 91 bb 01 	lds	r25, 0x01BB
 9da:	28 17       	cp	r18, r24
 9dc:	39 07       	cpc	r19, r25
 9de:	a8 f4       	brcc	.+42     	; 0xa0a <__stack+0x10b>
 9e0:	20 91 c2 01 	lds	r18, 0x01C2
 9e4:	30 91 c3 01 	lds	r19, 0x01C3
 9e8:	80 91 d3 01 	lds	r24, 0x01D3
 9ec:	90 91 d4 01 	lds	r25, 0x01D4
 9f0:	ac 01       	movw	r20, r24
 9f2:	4f 5f       	subi	r20, 0xFF	; 255
 9f4:	5f 4f       	sbci	r21, 0xFF	; 255
 9f6:	50 93 d4 01 	sts	0x01D4, r21
 9fa:	40 93 d3 01 	sts	0x01D3, r20
 9fe:	f9 01       	movw	r30, r18
 a00:	e8 0f       	add	r30, r24
 a02:	f9 1f       	adc	r31, r25
 a04:	80 81       	ld	r24, Z
 a06:	80 93 bb 00 	sts	0x00BB, r24
 a0a:	85 ec       	ldi	r24, 0xC5	; 197
 a0c:	80 93 bc 00 	sts	0x00BC, r24
 a10:	14 c0       	rjmp	.+40     	; 0xa3a <__stack+0x13b>
 a12:	e0 91 c7 01 	lds	r30, 0x01C7
 a16:	f0 91 c8 01 	lds	r31, 0x01C8
 a1a:	30 97       	sbiw	r30, 0x00	; 0
 a1c:	19 f0       	breq	.+6      	; 0xa24 <__stack+0x125>
 a1e:	80 91 c1 01 	lds	r24, 0x01C1
 a22:	09 95       	icall
 a24:	85 e9       	ldi	r24, 0x95	; 149
 a26:	80 93 bc 00 	sts	0x00BC, r24
 a2a:	ec eb       	ldi	r30, 0xBC	; 188
 a2c:	f0 e0       	ldi	r31, 0x00	; 0
 a2e:	80 81       	ld	r24, Z
 a30:	84 fd       	sbrc	r24, 4
 a32:	fd cf       	rjmp	.-6      	; 0xa2e <__stack+0x12f>
 a34:	85 ea       	ldi	r24, 0xA5	; 165
 a36:	80 93 bc 00 	sts	0x00BC, r24
 a3a:	ff 91       	pop	r31
 a3c:	ef 91       	pop	r30
 a3e:	bf 91       	pop	r27
 a40:	af 91       	pop	r26
 a42:	9f 91       	pop	r25
 a44:	8f 91       	pop	r24
 a46:	7f 91       	pop	r23
 a48:	6f 91       	pop	r22
 a4a:	5f 91       	pop	r21
 a4c:	4f 91       	pop	r20
 a4e:	3f 91       	pop	r19
 a50:	2f 91       	pop	r18
 a52:	0f 90       	pop	r0
 a54:	0f be       	out	0x3f, r0	; 63
 a56:	0f 90       	pop	r0
 a58:	1f 90       	pop	r1
 a5a:	18 95       	reti

00000a5c <initUSART>:
 a5c:	10 92 c5 00 	sts	0x00C5, r1
 a60:	83 e3       	ldi	r24, 0x33	; 51
 a62:	80 93 c4 00 	sts	0x00C4, r24
 a66:	e0 ec       	ldi	r30, 0xC0	; 192
 a68:	f0 e0       	ldi	r31, 0x00	; 0
 a6a:	80 81       	ld	r24, Z
 a6c:	8d 7f       	andi	r24, 0xFD	; 253
 a6e:	80 83       	st	Z, r24
 a70:	88 e1       	ldi	r24, 0x18	; 24
 a72:	80 93 c1 00 	sts	0x00C1, r24
 a76:	86 e0       	ldi	r24, 0x06	; 6
 a78:	80 93 c2 00 	sts	0x00C2, r24
 a7c:	08 95       	ret

00000a7e <transmitByte>:
 a7e:	e0 ec       	ldi	r30, 0xC0	; 192
 a80:	f0 e0       	ldi	r31, 0x00	; 0
 a82:	90 81       	ld	r25, Z
 a84:	95 ff       	sbrs	r25, 5
 a86:	fd cf       	rjmp	.-6      	; 0xa82 <transmitByte+0x4>
 a88:	80 93 c6 00 	sts	0x00C6, r24
 a8c:	08 95       	ret

00000a8e <printString>:
 a8e:	0f 93       	push	r16
 a90:	1f 93       	push	r17
 a92:	cf 93       	push	r28
 a94:	fc 01       	movw	r30, r24
 a96:	80 81       	ld	r24, Z
 a98:	88 23       	and	r24, r24
 a9a:	59 f0       	breq	.+22     	; 0xab2 <printString+0x24>
 a9c:	8f 01       	movw	r16, r30
 a9e:	c0 e0       	ldi	r28, 0x00	; 0
 aa0:	0e 94 3f 05 	call	0xa7e	; 0xa7e <transmitByte>
 aa4:	cf 5f       	subi	r28, 0xFF	; 255
 aa6:	f8 01       	movw	r30, r16
 aa8:	ec 0f       	add	r30, r28
 aaa:	f1 1d       	adc	r31, r1
 aac:	80 81       	ld	r24, Z
 aae:	81 11       	cpse	r24, r1
 ab0:	f7 cf       	rjmp	.-18     	; 0xaa0 <printString+0x12>
 ab2:	cf 91       	pop	r28
 ab4:	1f 91       	pop	r17
 ab6:	0f 91       	pop	r16
 ab8:	08 95       	ret

00000aba <__fixunssfsi>:
 aba:	0e 94 d1 05 	call	0xba2	; 0xba2 <__fp_splitA>
 abe:	88 f0       	brcs	.+34     	; 0xae2 <__fixunssfsi+0x28>
 ac0:	9f 57       	subi	r25, 0x7F	; 127
 ac2:	98 f0       	brcs	.+38     	; 0xaea <__fixunssfsi+0x30>
 ac4:	b9 2f       	mov	r27, r25
 ac6:	99 27       	eor	r25, r25
 ac8:	b7 51       	subi	r27, 0x17	; 23
 aca:	b0 f0       	brcs	.+44     	; 0xaf8 <__fixunssfsi+0x3e>
 acc:	e1 f0       	breq	.+56     	; 0xb06 <__fixunssfsi+0x4c>
 ace:	66 0f       	add	r22, r22
 ad0:	77 1f       	adc	r23, r23
 ad2:	88 1f       	adc	r24, r24
 ad4:	99 1f       	adc	r25, r25
 ad6:	1a f0       	brmi	.+6      	; 0xade <__fixunssfsi+0x24>
 ad8:	ba 95       	dec	r27
 ada:	c9 f7       	brne	.-14     	; 0xace <__fixunssfsi+0x14>
 adc:	14 c0       	rjmp	.+40     	; 0xb06 <__fixunssfsi+0x4c>
 ade:	b1 30       	cpi	r27, 0x01	; 1
 ae0:	91 f0       	breq	.+36     	; 0xb06 <__fixunssfsi+0x4c>
 ae2:	0e 94 eb 05 	call	0xbd6	; 0xbd6 <__fp_zero>
 ae6:	b1 e0       	ldi	r27, 0x01	; 1
 ae8:	08 95       	ret
 aea:	0c 94 eb 05 	jmp	0xbd6	; 0xbd6 <__fp_zero>
 aee:	67 2f       	mov	r22, r23
 af0:	78 2f       	mov	r23, r24
 af2:	88 27       	eor	r24, r24
 af4:	b8 5f       	subi	r27, 0xF8	; 248
 af6:	39 f0       	breq	.+14     	; 0xb06 <__fixunssfsi+0x4c>
 af8:	b9 3f       	cpi	r27, 0xF9	; 249
 afa:	cc f3       	brlt	.-14     	; 0xaee <__fixunssfsi+0x34>
 afc:	86 95       	lsr	r24
 afe:	77 95       	ror	r23
 b00:	67 95       	ror	r22
 b02:	b3 95       	inc	r27
 b04:	d9 f7       	brne	.-10     	; 0xafc <__fixunssfsi+0x42>
 b06:	3e f4       	brtc	.+14     	; 0xb16 <__fixunssfsi+0x5c>
 b08:	90 95       	com	r25
 b0a:	80 95       	com	r24
 b0c:	70 95       	com	r23
 b0e:	61 95       	neg	r22
 b10:	7f 4f       	sbci	r23, 0xFF	; 255
 b12:	8f 4f       	sbci	r24, 0xFF	; 255
 b14:	9f 4f       	sbci	r25, 0xFF	; 255
 b16:	08 95       	ret

00000b18 <__floatunsisf>:
 b18:	e8 94       	clt
 b1a:	09 c0       	rjmp	.+18     	; 0xb2e <__floatsisf+0x12>

00000b1c <__floatsisf>:
 b1c:	97 fb       	bst	r25, 7
 b1e:	3e f4       	brtc	.+14     	; 0xb2e <__floatsisf+0x12>
 b20:	90 95       	com	r25
 b22:	80 95       	com	r24
 b24:	70 95       	com	r23
 b26:	61 95       	neg	r22
 b28:	7f 4f       	sbci	r23, 0xFF	; 255
 b2a:	8f 4f       	sbci	r24, 0xFF	; 255
 b2c:	9f 4f       	sbci	r25, 0xFF	; 255
 b2e:	99 23       	and	r25, r25
 b30:	a9 f0       	breq	.+42     	; 0xb5c <__floatsisf+0x40>
 b32:	f9 2f       	mov	r31, r25
 b34:	96 e9       	ldi	r25, 0x96	; 150
 b36:	bb 27       	eor	r27, r27
 b38:	93 95       	inc	r25
 b3a:	f6 95       	lsr	r31
 b3c:	87 95       	ror	r24
 b3e:	77 95       	ror	r23
 b40:	67 95       	ror	r22
 b42:	b7 95       	ror	r27
 b44:	f1 11       	cpse	r31, r1
 b46:	f8 cf       	rjmp	.-16     	; 0xb38 <__floatsisf+0x1c>
 b48:	fa f4       	brpl	.+62     	; 0xb88 <__floatsisf+0x6c>
 b4a:	bb 0f       	add	r27, r27
 b4c:	11 f4       	brne	.+4      	; 0xb52 <__floatsisf+0x36>
 b4e:	60 ff       	sbrs	r22, 0
 b50:	1b c0       	rjmp	.+54     	; 0xb88 <__floatsisf+0x6c>
 b52:	6f 5f       	subi	r22, 0xFF	; 255
 b54:	7f 4f       	sbci	r23, 0xFF	; 255
 b56:	8f 4f       	sbci	r24, 0xFF	; 255
 b58:	9f 4f       	sbci	r25, 0xFF	; 255
 b5a:	16 c0       	rjmp	.+44     	; 0xb88 <__floatsisf+0x6c>
 b5c:	88 23       	and	r24, r24
 b5e:	11 f0       	breq	.+4      	; 0xb64 <__floatsisf+0x48>
 b60:	96 e9       	ldi	r25, 0x96	; 150
 b62:	11 c0       	rjmp	.+34     	; 0xb86 <__floatsisf+0x6a>
 b64:	77 23       	and	r23, r23
 b66:	21 f0       	breq	.+8      	; 0xb70 <__floatsisf+0x54>
 b68:	9e e8       	ldi	r25, 0x8E	; 142
 b6a:	87 2f       	mov	r24, r23
 b6c:	76 2f       	mov	r23, r22
 b6e:	05 c0       	rjmp	.+10     	; 0xb7a <__floatsisf+0x5e>
 b70:	66 23       	and	r22, r22
 b72:	71 f0       	breq	.+28     	; 0xb90 <__floatsisf+0x74>
 b74:	96 e8       	ldi	r25, 0x86	; 134
 b76:	86 2f       	mov	r24, r22
 b78:	70 e0       	ldi	r23, 0x00	; 0
 b7a:	60 e0       	ldi	r22, 0x00	; 0
 b7c:	2a f0       	brmi	.+10     	; 0xb88 <__floatsisf+0x6c>
 b7e:	9a 95       	dec	r25
 b80:	66 0f       	add	r22, r22
 b82:	77 1f       	adc	r23, r23
 b84:	88 1f       	adc	r24, r24
 b86:	da f7       	brpl	.-10     	; 0xb7e <__floatsisf+0x62>
 b88:	88 0f       	add	r24, r24
 b8a:	96 95       	lsr	r25
 b8c:	87 95       	ror	r24
 b8e:	97 f9       	bld	r25, 7
 b90:	08 95       	ret

00000b92 <__fp_split3>:
 b92:	57 fd       	sbrc	r21, 7
 b94:	90 58       	subi	r25, 0x80	; 128
 b96:	44 0f       	add	r20, r20
 b98:	55 1f       	adc	r21, r21
 b9a:	59 f0       	breq	.+22     	; 0xbb2 <__fp_splitA+0x10>
 b9c:	5f 3f       	cpi	r21, 0xFF	; 255
 b9e:	71 f0       	breq	.+28     	; 0xbbc <__fp_splitA+0x1a>
 ba0:	47 95       	ror	r20

00000ba2 <__fp_splitA>:
 ba2:	88 0f       	add	r24, r24
 ba4:	97 fb       	bst	r25, 7
 ba6:	99 1f       	adc	r25, r25
 ba8:	61 f0       	breq	.+24     	; 0xbc2 <__fp_splitA+0x20>
 baa:	9f 3f       	cpi	r25, 0xFF	; 255
 bac:	79 f0       	breq	.+30     	; 0xbcc <__fp_splitA+0x2a>
 bae:	87 95       	ror	r24
 bb0:	08 95       	ret
 bb2:	12 16       	cp	r1, r18
 bb4:	13 06       	cpc	r1, r19
 bb6:	14 06       	cpc	r1, r20
 bb8:	55 1f       	adc	r21, r21
 bba:	f2 cf       	rjmp	.-28     	; 0xba0 <__fp_split3+0xe>
 bbc:	46 95       	lsr	r20
 bbe:	f1 df       	rcall	.-30     	; 0xba2 <__fp_splitA>
 bc0:	08 c0       	rjmp	.+16     	; 0xbd2 <__fp_splitA+0x30>
 bc2:	16 16       	cp	r1, r22
 bc4:	17 06       	cpc	r1, r23
 bc6:	18 06       	cpc	r1, r24
 bc8:	99 1f       	adc	r25, r25
 bca:	f1 cf       	rjmp	.-30     	; 0xbae <__fp_splitA+0xc>
 bcc:	86 95       	lsr	r24
 bce:	71 05       	cpc	r23, r1
 bd0:	61 05       	cpc	r22, r1
 bd2:	08 94       	sec
 bd4:	08 95       	ret

00000bd6 <__fp_zero>:
 bd6:	e8 94       	clt

00000bd8 <__fp_szero>:
 bd8:	bb 27       	eor	r27, r27
 bda:	66 27       	eor	r22, r22
 bdc:	77 27       	eor	r23, r23
 bde:	cb 01       	movw	r24, r22
 be0:	97 f9       	bld	r25, 7
 be2:	08 95       	ret

00000be4 <__mulsf3>:
 be4:	0e 94 05 06 	call	0xc0a	; 0xc0a <__mulsf3x>
 be8:	0c 94 76 06 	jmp	0xcec	; 0xcec <__fp_round>
 bec:	0e 94 68 06 	call	0xcd0	; 0xcd0 <__fp_pscA>
 bf0:	38 f0       	brcs	.+14     	; 0xc00 <__mulsf3+0x1c>
 bf2:	0e 94 6f 06 	call	0xcde	; 0xcde <__fp_pscB>
 bf6:	20 f0       	brcs	.+8      	; 0xc00 <__mulsf3+0x1c>
 bf8:	95 23       	and	r25, r21
 bfa:	11 f0       	breq	.+4      	; 0xc00 <__mulsf3+0x1c>
 bfc:	0c 94 5f 06 	jmp	0xcbe	; 0xcbe <__fp_inf>
 c00:	0c 94 65 06 	jmp	0xcca	; 0xcca <__fp_nan>
 c04:	11 24       	eor	r1, r1
 c06:	0c 94 ec 05 	jmp	0xbd8	; 0xbd8 <__fp_szero>

00000c0a <__mulsf3x>:
 c0a:	0e 94 c9 05 	call	0xb92	; 0xb92 <__fp_split3>
 c0e:	70 f3       	brcs	.-36     	; 0xbec <__mulsf3+0x8>

00000c10 <__mulsf3_pse>:
 c10:	95 9f       	mul	r25, r21
 c12:	c1 f3       	breq	.-16     	; 0xc04 <__mulsf3+0x20>
 c14:	95 0f       	add	r25, r21
 c16:	50 e0       	ldi	r21, 0x00	; 0
 c18:	55 1f       	adc	r21, r21
 c1a:	62 9f       	mul	r22, r18
 c1c:	f0 01       	movw	r30, r0
 c1e:	72 9f       	mul	r23, r18
 c20:	bb 27       	eor	r27, r27
 c22:	f0 0d       	add	r31, r0
 c24:	b1 1d       	adc	r27, r1
 c26:	63 9f       	mul	r22, r19
 c28:	aa 27       	eor	r26, r26
 c2a:	f0 0d       	add	r31, r0
 c2c:	b1 1d       	adc	r27, r1
 c2e:	aa 1f       	adc	r26, r26
 c30:	64 9f       	mul	r22, r20
 c32:	66 27       	eor	r22, r22
 c34:	b0 0d       	add	r27, r0
 c36:	a1 1d       	adc	r26, r1
 c38:	66 1f       	adc	r22, r22
 c3a:	82 9f       	mul	r24, r18
 c3c:	22 27       	eor	r18, r18
 c3e:	b0 0d       	add	r27, r0
 c40:	a1 1d       	adc	r26, r1
 c42:	62 1f       	adc	r22, r18
 c44:	73 9f       	mul	r23, r19
 c46:	b0 0d       	add	r27, r0
 c48:	a1 1d       	adc	r26, r1
 c4a:	62 1f       	adc	r22, r18
 c4c:	83 9f       	mul	r24, r19
 c4e:	a0 0d       	add	r26, r0
 c50:	61 1d       	adc	r22, r1
 c52:	22 1f       	adc	r18, r18
 c54:	74 9f       	mul	r23, r20
 c56:	33 27       	eor	r19, r19
 c58:	a0 0d       	add	r26, r0
 c5a:	61 1d       	adc	r22, r1
 c5c:	23 1f       	adc	r18, r19
 c5e:	84 9f       	mul	r24, r20
 c60:	60 0d       	add	r22, r0
 c62:	21 1d       	adc	r18, r1
 c64:	82 2f       	mov	r24, r18
 c66:	76 2f       	mov	r23, r22
 c68:	6a 2f       	mov	r22, r26
 c6a:	11 24       	eor	r1, r1
 c6c:	9f 57       	subi	r25, 0x7F	; 127
 c6e:	50 40       	sbci	r21, 0x00	; 0
 c70:	9a f0       	brmi	.+38     	; 0xc98 <__mulsf3_pse+0x88>
 c72:	f1 f0       	breq	.+60     	; 0xcb0 <__mulsf3_pse+0xa0>
 c74:	88 23       	and	r24, r24
 c76:	4a f0       	brmi	.+18     	; 0xc8a <__mulsf3_pse+0x7a>
 c78:	ee 0f       	add	r30, r30
 c7a:	ff 1f       	adc	r31, r31
 c7c:	bb 1f       	adc	r27, r27
 c7e:	66 1f       	adc	r22, r22
 c80:	77 1f       	adc	r23, r23
 c82:	88 1f       	adc	r24, r24
 c84:	91 50       	subi	r25, 0x01	; 1
 c86:	50 40       	sbci	r21, 0x00	; 0
 c88:	a9 f7       	brne	.-22     	; 0xc74 <__mulsf3_pse+0x64>
 c8a:	9e 3f       	cpi	r25, 0xFE	; 254
 c8c:	51 05       	cpc	r21, r1
 c8e:	80 f0       	brcs	.+32     	; 0xcb0 <__mulsf3_pse+0xa0>
 c90:	0c 94 5f 06 	jmp	0xcbe	; 0xcbe <__fp_inf>
 c94:	0c 94 ec 05 	jmp	0xbd8	; 0xbd8 <__fp_szero>
 c98:	5f 3f       	cpi	r21, 0xFF	; 255
 c9a:	e4 f3       	brlt	.-8      	; 0xc94 <__mulsf3_pse+0x84>
 c9c:	98 3e       	cpi	r25, 0xE8	; 232
 c9e:	d4 f3       	brlt	.-12     	; 0xc94 <__mulsf3_pse+0x84>
 ca0:	86 95       	lsr	r24
 ca2:	77 95       	ror	r23
 ca4:	67 95       	ror	r22
 ca6:	b7 95       	ror	r27
 ca8:	f7 95       	ror	r31
 caa:	e7 95       	ror	r30
 cac:	9f 5f       	subi	r25, 0xFF	; 255
 cae:	c1 f7       	brne	.-16     	; 0xca0 <__mulsf3_pse+0x90>
 cb0:	fe 2b       	or	r31, r30
 cb2:	88 0f       	add	r24, r24
 cb4:	91 1d       	adc	r25, r1
 cb6:	96 95       	lsr	r25
 cb8:	87 95       	ror	r24
 cba:	97 f9       	bld	r25, 7
 cbc:	08 95       	ret

00000cbe <__fp_inf>:
 cbe:	97 f9       	bld	r25, 7
 cc0:	9f 67       	ori	r25, 0x7F	; 127
 cc2:	80 e8       	ldi	r24, 0x80	; 128
 cc4:	70 e0       	ldi	r23, 0x00	; 0
 cc6:	60 e0       	ldi	r22, 0x00	; 0
 cc8:	08 95       	ret

00000cca <__fp_nan>:
 cca:	9f ef       	ldi	r25, 0xFF	; 255
 ccc:	80 ec       	ldi	r24, 0xC0	; 192
 cce:	08 95       	ret

00000cd0 <__fp_pscA>:
 cd0:	00 24       	eor	r0, r0
 cd2:	0a 94       	dec	r0
 cd4:	16 16       	cp	r1, r22
 cd6:	17 06       	cpc	r1, r23
 cd8:	18 06       	cpc	r1, r24
 cda:	09 06       	cpc	r0, r25
 cdc:	08 95       	ret

00000cde <__fp_pscB>:
 cde:	00 24       	eor	r0, r0
 ce0:	0a 94       	dec	r0
 ce2:	12 16       	cp	r1, r18
 ce4:	13 06       	cpc	r1, r19
 ce6:	14 06       	cpc	r1, r20
 ce8:	05 06       	cpc	r0, r21
 cea:	08 95       	ret

00000cec <__fp_round>:
 cec:	09 2e       	mov	r0, r25
 cee:	03 94       	inc	r0
 cf0:	00 0c       	add	r0, r0
 cf2:	11 f4       	brne	.+4      	; 0xcf8 <__fp_round+0xc>
 cf4:	88 23       	and	r24, r24
 cf6:	52 f0       	brmi	.+20     	; 0xd0c <__fp_round+0x20>
 cf8:	bb 0f       	add	r27, r27
 cfa:	40 f4       	brcc	.+16     	; 0xd0c <__fp_round+0x20>
 cfc:	bf 2b       	or	r27, r31
 cfe:	11 f4       	brne	.+4      	; 0xd04 <__fp_round+0x18>
 d00:	60 ff       	sbrs	r22, 0
 d02:	04 c0       	rjmp	.+8      	; 0xd0c <__fp_round+0x20>
 d04:	6f 5f       	subi	r22, 0xFF	; 255
 d06:	7f 4f       	sbci	r23, 0xFF	; 255
 d08:	8f 4f       	sbci	r24, 0xFF	; 255
 d0a:	9f 4f       	sbci	r25, 0xFF	; 255
 d0c:	08 95       	ret

00000d0e <__divmodsi4>:
 d0e:	05 2e       	mov	r0, r21
 d10:	97 fb       	bst	r25, 7
 d12:	1e f4       	brtc	.+6      	; 0xd1a <__divmodsi4+0xc>
 d14:	00 94       	com	r0
 d16:	0e 94 9e 06 	call	0xd3c	; 0xd3c <__negsi2>
 d1a:	57 fd       	sbrc	r21, 7
 d1c:	07 d0       	rcall	.+14     	; 0xd2c <__divmodsi4_neg2>
 d1e:	0e 94 bb 06 	call	0xd76	; 0xd76 <__udivmodsi4>
 d22:	07 fc       	sbrc	r0, 7
 d24:	03 d0       	rcall	.+6      	; 0xd2c <__divmodsi4_neg2>
 d26:	4e f4       	brtc	.+18     	; 0xd3a <__divmodsi4_exit>
 d28:	0c 94 9e 06 	jmp	0xd3c	; 0xd3c <__negsi2>

00000d2c <__divmodsi4_neg2>:
 d2c:	50 95       	com	r21
 d2e:	40 95       	com	r20
 d30:	30 95       	com	r19
 d32:	21 95       	neg	r18
 d34:	3f 4f       	sbci	r19, 0xFF	; 255
 d36:	4f 4f       	sbci	r20, 0xFF	; 255
 d38:	5f 4f       	sbci	r21, 0xFF	; 255

00000d3a <__divmodsi4_exit>:
 d3a:	08 95       	ret

00000d3c <__negsi2>:
 d3c:	90 95       	com	r25
 d3e:	80 95       	com	r24
 d40:	70 95       	com	r23
 d42:	61 95       	neg	r22
 d44:	7f 4f       	sbci	r23, 0xFF	; 255
 d46:	8f 4f       	sbci	r24, 0xFF	; 255
 d48:	9f 4f       	sbci	r25, 0xFF	; 255
 d4a:	08 95       	ret

00000d4c <__tablejump2__>:
 d4c:	ee 0f       	add	r30, r30
 d4e:	ff 1f       	adc	r31, r31
 d50:	05 90       	lpm	r0, Z+
 d52:	f4 91       	lpm	r31, Z
 d54:	e0 2d       	mov	r30, r0
 d56:	09 94       	ijmp

00000d58 <__umulhisi3>:
 d58:	a2 9f       	mul	r26, r18
 d5a:	b0 01       	movw	r22, r0
 d5c:	b3 9f       	mul	r27, r19
 d5e:	c0 01       	movw	r24, r0
 d60:	a3 9f       	mul	r26, r19
 d62:	70 0d       	add	r23, r0
 d64:	81 1d       	adc	r24, r1
 d66:	11 24       	eor	r1, r1
 d68:	91 1d       	adc	r25, r1
 d6a:	b2 9f       	mul	r27, r18
 d6c:	70 0d       	add	r23, r0
 d6e:	81 1d       	adc	r24, r1
 d70:	11 24       	eor	r1, r1
 d72:	91 1d       	adc	r25, r1
 d74:	08 95       	ret

00000d76 <__udivmodsi4>:
 d76:	a1 e2       	ldi	r26, 0x21	; 33
 d78:	1a 2e       	mov	r1, r26
 d7a:	aa 1b       	sub	r26, r26
 d7c:	bb 1b       	sub	r27, r27
 d7e:	fd 01       	movw	r30, r26
 d80:	0d c0       	rjmp	.+26     	; 0xd9c <__udivmodsi4_ep>

00000d82 <__udivmodsi4_loop>:
 d82:	aa 1f       	adc	r26, r26
 d84:	bb 1f       	adc	r27, r27
 d86:	ee 1f       	adc	r30, r30
 d88:	ff 1f       	adc	r31, r31
 d8a:	a2 17       	cp	r26, r18
 d8c:	b3 07       	cpc	r27, r19
 d8e:	e4 07       	cpc	r30, r20
 d90:	f5 07       	cpc	r31, r21
 d92:	20 f0       	brcs	.+8      	; 0xd9c <__udivmodsi4_ep>
 d94:	a2 1b       	sub	r26, r18
 d96:	b3 0b       	sbc	r27, r19
 d98:	e4 0b       	sbc	r30, r20
 d9a:	f5 0b       	sbc	r31, r21

00000d9c <__udivmodsi4_ep>:
 d9c:	66 1f       	adc	r22, r22
 d9e:	77 1f       	adc	r23, r23
 da0:	88 1f       	adc	r24, r24
 da2:	99 1f       	adc	r25, r25
 da4:	1a 94       	dec	r1
 da6:	69 f7       	brne	.-38     	; 0xd82 <__udivmodsi4_loop>
 da8:	60 95       	com	r22
 daa:	70 95       	com	r23
 dac:	80 95       	com	r24
 dae:	90 95       	com	r25
 db0:	9b 01       	movw	r18, r22
 db2:	ac 01       	movw	r20, r24
 db4:	bd 01       	movw	r22, r26
 db6:	cf 01       	movw	r24, r30
 db8:	08 95       	ret

00000dba <__itoa_ncheck>:
 dba:	bb 27       	eor	r27, r27
 dbc:	4a 30       	cpi	r20, 0x0A	; 10
 dbe:	31 f4       	brne	.+12     	; 0xdcc <__itoa_ncheck+0x12>
 dc0:	99 23       	and	r25, r25
 dc2:	22 f4       	brpl	.+8      	; 0xdcc <__itoa_ncheck+0x12>
 dc4:	bd e2       	ldi	r27, 0x2D	; 45
 dc6:	90 95       	com	r25
 dc8:	81 95       	neg	r24
 dca:	9f 4f       	sbci	r25, 0xFF	; 255
 dcc:	0c 94 e9 06 	jmp	0xdd2	; 0xdd2 <__utoa_common>

00000dd0 <__utoa_ncheck>:
 dd0:	bb 27       	eor	r27, r27

00000dd2 <__utoa_common>:
 dd2:	fb 01       	movw	r30, r22
 dd4:	55 27       	eor	r21, r21
 dd6:	aa 27       	eor	r26, r26
 dd8:	88 0f       	add	r24, r24
 dda:	99 1f       	adc	r25, r25
 ddc:	aa 1f       	adc	r26, r26
 dde:	a4 17       	cp	r26, r20
 de0:	10 f0       	brcs	.+4      	; 0xde6 <__utoa_common+0x14>
 de2:	a4 1b       	sub	r26, r20
 de4:	83 95       	inc	r24
 de6:	50 51       	subi	r21, 0x10	; 16
 de8:	b9 f7       	brne	.-18     	; 0xdd8 <__utoa_common+0x6>
 dea:	a0 5d       	subi	r26, 0xD0	; 208
 dec:	aa 33       	cpi	r26, 0x3A	; 58
 dee:	08 f0       	brcs	.+2      	; 0xdf2 <__utoa_common+0x20>
 df0:	a9 5d       	subi	r26, 0xD9	; 217
 df2:	a1 93       	st	Z+, r26
 df4:	00 97       	sbiw	r24, 0x00	; 0
 df6:	79 f7       	brne	.-34     	; 0xdd6 <__utoa_common+0x4>
 df8:	b1 11       	cpse	r27, r1
 dfa:	b1 93       	st	Z+, r27
 dfc:	11 92       	st	Z+, r1
 dfe:	cb 01       	movw	r24, r22
 e00:	0c 94 02 07 	jmp	0xe04	; 0xe04 <strrev>

00000e04 <strrev>:
 e04:	dc 01       	movw	r26, r24
 e06:	fc 01       	movw	r30, r24
 e08:	67 2f       	mov	r22, r23
 e0a:	71 91       	ld	r23, Z+
 e0c:	77 23       	and	r23, r23
 e0e:	e1 f7       	brne	.-8      	; 0xe08 <strrev+0x4>
 e10:	32 97       	sbiw	r30, 0x02	; 2
 e12:	04 c0       	rjmp	.+8      	; 0xe1c <strrev+0x18>
 e14:	7c 91       	ld	r23, X
 e16:	6d 93       	st	X+, r22
 e18:	70 83       	st	Z, r23
 e1a:	62 91       	ld	r22, -Z
 e1c:	ae 17       	cp	r26, r30
 e1e:	bf 07       	cpc	r27, r31
 e20:	c8 f3       	brcs	.-14     	; 0xe14 <strrev+0x10>
 e22:	08 95       	ret

00000e24 <_exit>:
 e24:	f8 94       	cli

00000e26 <__stop_program>:
 e26:	ff cf       	rjmp	.-2      	; 0xe26 <__stop_program>
