S01600005445413537363741544D656761382E7372656314
S113000012C02CC02BC02AC029C028C027C026C0BB
S113001025C024C023C022C021C020C01FC01EC0D0
S11300201DC01CC01BC011241FBECFE5D4E0DEBF21
S1130030CDBF11E0A0E6B0E0E4E1F1E102C005903B
S11300400D92AE3EB107D9F722E0AEEEB1E001C0A9
S11300501D92A230B207E1F71AD05AC8D1CF8FEF60
S113006087BB88BB90EE91BB82BB14BA85BB2FEFD4
S113007080E792E0215080409040E1F700C000000A
S113008011B88CE080B984E086BF63D30895CF9320
S1130090DF9300D000D01F92CDB7DEB7E0DF8AE651
S11300A090E09F938F93FDD380E790E00DD466D1C9
S11300B06CE579E881E090E06FD192D00F900F90D9
S11300C010E0D12C0F2EFDECAF2EF02DC12C0F2EF5
S11300D0FAE6EF2EF0E0FF2EF02D6894BB24B1F881
S11300E000B3D11027C002FD0EC08C2D9CD12FEF80
S11300F084E39CE0215080409040E1F700C0000080
S1130100DD24D3940EC003FD0CC081E08CD12FEF0D
S113011084E39CE0215080409040E1F700C000005F
S1130120DB2C0C700C3009F449C090B39C709C30EB
S1130130E1F744C01A9D912D112492959F70990F57
S1130140990F292F220F220F920F191337C0CE01B6
S1130150019615D28981882389F18A81882361F1E6
S113016021E0D21210C0FF92EF929BD386E890E078
S1130170ABD360EE75EA81E090E00ED18C2D53D1C3
S11301800F900F900FC0FF92EF928BD381E990E014
S11301909BD36CEC75E581E090E0FED081E043D127
S11301A00F900F908FEF94E32CE08150904020400B
S11301B0E1F700C0000002C07CD1DC2C8FE39CE995
S11301C00197F1F700C000001F5F183C09F088CFC9
S11301D088B38B2588BBCE010196D1D11C2D80CF4D
S11301E0CF9384EA86BF06B607FEFDCFC1B1C87FB0
S11301F0C830B1F0C031B1F08AE990E09F938F9399
S113020050D31F92CF9383EA90E09F938F9349D367
S11302100F900F900F900F900F900F9081E003C0FC
S113022080E001C080E090EC93B994E896BF06B6F4
S113023007FEFDCFC1B1C87FC831A9F0C03499F021
S11302408AE990E09F938F932CD31F92CF9385ECF0
S113025090E09F938F9325D30F900F900F900F9062
S11302600F900F9081E0E3EFF1E048EF51E024E8D4
S1130270919193B926BF06B607FEFDCFC1B1C87FE1
S1130280C832A1F08AE990E09F938F930AD31F921A
S1130290CF9386EE90E09F938F9303D30F900F90AC
S11302A00F900F900F900F9081E003C0E417F507B3
S11302B0F9F694E996BF06B604FCFDCF90E0CF9121
S11302C00895CF9384EA86BF06B607FEFDCFC1B179
S11302D0C87FC830B1F0C031B1F08AE990E09F9393
S11302E08F93DFD21F92CF9381E091E09F938F93FE
S11302F0D8D20F900F900F900F900F900F9081E035
S113030003C080E001C080E091EC93B994E896BF0B
S113031006B607FEFDCFC1B1C87FC831A9F0C0340D
S113032099F08AE990E09F938F93BBD21F92CF9369
S113033082E291E09F938F93B4D20F900F900F902D
S11303400F900F900F9081E0EEEEF1E090E044E822
S113035034EC943011F036BF01C046BF06B607FE38
S1130360FDCF23B121939F5F953099F794E996BF10
S113037006B604FCFDCF90E0CF910895E3EFF1E0E1
S11303808FE2808387E8818380EC828380E18383AA
S1130390148280E090E00895CF92DF92EF92FF9272
S11303A06B017C018AE990E09F938F937AD2C70115
S11303B0B60124E630E040E050E0D5D13F932F93DE
S11303C082E491E09F938F936CD2A0EABFE0A701EF
S11303D0960107D2DC01CB01805A9B4BAD40B10999
S11303E0072E7FE0B695A795979587957A95D1F7CF
S11303F0702DE3EFF1E02081207C292B2083818381
S1130400C0926600D0926700E0926800F0926900A2
S11304100F900F900F900F900F900F90FF90EF9010
S1130420DF90CF9008958823F9F08AE990E09F93B4
S11304308F9337D28CE491E047D2E3EFF1E08281ED
S1130440806882838091660090916700A091680023
S1130450B0916900BC01CD016A567F4F8F4F9F4F09
S11304609BDF0F900F901EC08AE990E09F938F93BB
S113047018D287E591E028D2E3EFF1E082818F770B
S113048082838091660090916700A0916800B0918A
S11304906900BC01CD0166597109810991097CDFAC
S11304A00F900F90E3EFF1E08081806C808398DE01
S11304B00895CF93DF93E3EFF1E0CEEED1E08881AE
S11304C08F738083898181838BDE88818F7390E031
S11304D0982F88272981820F911D092E000CAA0BC1
S11304E0BB0BAC01BD01032E3FE0440F551F661F3B
S11304F0771F3A95D1F7302DA0FF04C04D5F5F4FB1
S11305006F4F7F4F75956795579547957595679587
S113051057954795CB01BA01685171498C4F9F4F4C
S113052028EE33E040E050E040D120936600309361
S1130530670040936800509369008AE990E09F93B4
S11305408F93AFD1609166007091670080916800CD
S11305509091690024E630E040E050E004D13F93FC
S11305602F9384E691E09F938F939BD10F900F90EC
S11305700F900F900F900F90DF91CF910895CF922D
S1130580DF92EF92FF920F931F93CF93DF93EC01CF
S113059098DE8AE990E09F938F9383D10EEE11E069
S11305A0F80184811F928F9383811F928F9382819C
S11305B01F928F9381811F928F9380811F928F93BB
S11305C08EE791E09F938F936CD185E0FE011192A9
S11305D08A95E9F7F80140814F7350E0542F44277E
S11305E08181480F511D052E000C660B770B8DB7CA
S11305F09EB70E960FB6F8949EBF0FBE8DBFDB015B
S1130600CA01072E7FE0880F991FAA1FBB1F7A9586
S1130610D1F7702D60FF03C00396A11DB11DB595E0
S1130620A79597958795B595A79597958795BC01B7
S1130630CD01685171498C4F9F4F28EE33E040E063
S113064050E0B3D069017A018AE990E09F938F93D7
S113065028D1C701B60124E630E040E050E083D061
S11306603F932F9384EA91E09F938F931AD10F9035
S11306700F900F900F900F900F908091EE018823B0
S1130680FCF48AE990E09F938F930BD180EB91E087
S11306901BD181E088838091F0018F7790E0C5972A
S11306A00F900F90039760F48AE990E09F938F93E3
S11306B0F8D087EB91E008D181E08A830F900F9006
S11306C08091EE0186FF0CC08AE990E09F938F939E
S11306D0E8D08FEB91E0F8D081E089830F900F9000
S11306E08091F001882364F48AE990E09F938F93CA
S11306F0D8D08BEC91E0E8D081E08B830F900F9001
S11307008091F10182958F708C838AE990E09F93A8
S11307108F93C7D08C811F928F938DED91E09F931F
S11307208F93BFD00F900F900F900F900F900F905A
S113073080E090E0DF91CF911F910F91FF90EF90B7
S1130740DF90CF9008955D9BFECF8CB980E090E060
S1130750089588E08AB98CE089B960E070E083EAA2
S113076093E055D00895A1E21A2EAA1BBB1BFD01EC
S11307700DC0AA1FBB1FEE1FFF1FA217B307E4077C
S1130780F50720F0A21BB30BE40BF50B661F771FD4
S1130790881F991F1A9469F76095709580959095B4
S11307A09B01AC01BD01CF010895052E97FB16F402
S11307B000940FD057FD05D0D6DF07FC02D046F4D5
S11307C008C050954095309521953F4F4F4F5F4F4E
S11307D0089590958095709561957F4F8F4F9F4FA9
S11307E0089509D0A59F900DB49F900DA49F800DEE
S11307F0911D11240895A29FB001B39FC001A39F2E
S113080001D0B29F700D811D1124911D08950F9385
S11308101F93CF93DF93009731F46115710519F499
S113082080E090E039C08B01EC016EE070E081E083
S113083090E03DD2FC01892B99F380E88383011574
S1130840110571F01387028781E883838091F80191
S11308509091F901892B21F4F093F901E093F801C7
S11308602097C9F0D187C087838182608383809178
S1130870FA019091FB01892B71F4F093FB01E09351
S1130880FA018091FC019091FD01892B21F4F093F0
S1130890FD01E093FC01CF01DF91CF911F910F91F6
S11308A00895A0E0B0E0E6E5F4E00BC4AE014B5FD0
S11308B05F4FFA0161917191AF018091FA019091BA
S11308C0FB0132D0E2E019C40F931F93CF93DF935F
S11308D0E091FA01F091FB01238121FF1BC08C01FF
S11308E0D0E0C0E0F80181918F016091FA0170912C
S11308F0FB01DB011896ED91FC911997882331F0E7
S11309000995892B79F3DFEFCFEFECCF8AE00995D6
S1130910892B19F08FEF9FEF02C08D2F9C2FDF9151
S1130920CF911F910F910895ACE0B0E0E9E9F4E0B4
S1130930B8C37C016B018A01FC0117821682838192
S113094081FFB0C1CE0101964C01F7019381F601FC
S113095093FD859193FF81916F01882309F49EC1D2
S1130960853239F493FD859193FF81916F0185322E
S113097021F4B70190E0FFD2E8CF512C312C20E0D4
S11309802032A0F48B3269F030F4803259F0833293
S113099069F420612CC08D3239F0803339F4216040
S11309A026C02260246023C0286021C027FD27C000
S11309B030ED380F3A3078F426FF06C0FAE05F9E37
S11309C0300D1124532E13C08AE0389E300D1124AB
S11309D0332E20620CC08E3221F426FD5FC12064C8
S11309E006C08C3611F4206802C0883641F4F60142
S11309F093FD859193FF81916F018111C1CF982F50
S1130A009F7D9554933028F40C5F1F4FFFE3F983C7
S1130A100DC0833631F0833771F0833509F057C048
S1130A2021C0F801808189830E5F1F4F44244394C1
S1130A30512C540114C03801F2E06F0E711CF801FE
S1130A40A080B18026FF03C0652D70E002C06FEF67
S1130A507FEFC5012C8784D22C0183012C852F774D
S1130A60222E16C03801F2E06F0E711CF801A0802E
S1130A70B18026FF03C0652D70E002C06FEF7FEFE9
S1130A80C5012C875BD22C012C852068222E830182
S1130A9023FC19C0832D90E048165906A0F4B70131
S1130AA080E290E068D23A94F5CFF50127FC859175
S1130AB027FE81915F01B70190E05DD231103A9435
S1130AC0F1E04F1A51084114510479F7DEC084361D
S1130AD011F0893631F5F80127FF07C06081718173
S1130AE0828193810C5F1F4F08C060817181072E42
S1130AF0000C880B990B0E5F1F4F2F76722E97FFF9
S1130B0009C090958095709561957F4F8F4F9F4F49
S1130B102068722E2AE030E0A40165D2A82EA8181D
S1130B2043C0853729F42F7EB22E2AE030E025C059
S1130B30F22FF97FBF2E8F36C1F018F4883579F083
S1130B40ADC0803719F0883721F0A8C02F2F20615D
S1130B50B22EB4FE0DC08B2D8460B82E09C024FFC4
S1130B600AC09F2F9660B92E06C028E030E005C069
S1130B7020E130E002C020E132E0F801B7FE07C016
S1130B8060817181828193810C5F1F4F06C06081F7
S1130B90718180E090E00E5F1F4FA40124D2A82E43
S1130BA0A818FB2DFF777F2E76FE0BC0372D3E7FD6
S1130BB0A51450F474FE0AC072FC08C0372D3E7EA2
S1130BC005C0BA2C372D03C0BA2C01C0B52C34FF94
S1130BD00DC0FE01EA0DF11D8081803311F4397ED0
S1130BE009C032FF06C0B394B39404C0832F86783F
S1130BF009F0B39433FD12C030FF06C05A2CB3146D
S1130C0018F4530C5B18B32CB31460F4B70180E2EE
S1130C1090E03C87B0D1B3943C85F6CFB31410F484
S1130C203B1801C0312C34FF11C0B70180E390E0C0
S1130C303C87A1D13C8532FF16C031FD03C088E753
S1130C4090E002C088E590E0B7010CC0832F86785D
S1130C5051F031FF02C08BE201C080E237FD8DE22A
S1130C60B70190E088D1A51430F4B70180E390E097
S1130C7082D15A94F8CFAA94F401EA0DF11D80812F
S1130C80B70190E078D1A110F6CF332009F45DCEFE
S1130C90B70180E290E06FD13A94F7CFF7018681F3
S1130CA0978102C08FEF9FEF2C96E2E116C20F935B
S1130CB01F93CF93DF93869F8001879F100D969F8C
S1130CC0100D1124C8010DD0EC01009721F0A801EA
S1130CD060E070E03ED1CE01DF91CF911F910F9182
S1130CE00895CF93DF938230910510F482E090E071
S1130CF0E0910002F091010220E030E0C0E0D0E099
S1130D00309711F14081518148175907C0F04817B5
S1130D10590761F482819381209719F09B838A8318
S1130D202BC0909301028093000226C02115310547
S1130D3019F04217530718F49A01BE01DF01EF01BD
S1130D400280F381E02DDCCF2115310509F1281B48
S1130D50390B2430310590F412968D919C911397A0
S1130D606115710521F0FB019383828304C0909384
S1130D70010280930002FD01329644C0FD01E20F9E
S1130D80F31F81939193225031092D933C933AC0E0
S1130D902091FE013091FF01232B41F42091620048
S1130DA0309163003093FF012093FE012091600095
S1130DB0309161002115310541F42DB73EB74091C2
S1130DC0640050916500241B350BE091FE01F09105
S1130DD0FF01E217F307A0F42E1B3F0B2817390776
S1130DE078F0AC014E5F5F4F2417350748F04E0F83
S1130DF05F1F5093FF014093FE018193919302C0C2
S1130E00E0E0F0E0CF01DF91CF9108950F931F93BD
S1130E10CF93DF93009709F48CC0FC0132971382BF
S1130E20128200910002109101020115110581F452
S1130E3020813181820F931F2091FE013091FF01A7
S1130E402817390779F5F093FF01E093FE0171C08B
S1130E50D80140E050E0AE17BF0750F412962D9130
S1130E603C911397AD012115310509F1D901F3CF57
S1130E709D01DA013383228360817181860F971F7C
S1130E808217930769F4EC0128813981260F371FF3
S1130E902E5F3F4F318320838A819B81938382839A
S1130EA0452B29F4F0930102E093000242C013960B
S1130EB0FC93EE931297ED01499159919E01240FF1
S1130EC0351FE217F30771F480819181840F951F18
S1130ED0029611969C938E938281938113969C9390
S1130EE08E931297E0E0F0E0D80112968D919C91D8
S1130EF01397009719F0F8018C01F6CF8D919C910E
S1130F0098012E5F3F4F820F931F2091FE01309175
S1130F10FF012817390769F4309729F41092010268
S1130F201092000202C0138212821093FF010093F8
S1130F30FE01DF91CF911F910F910895FC0105905F
S1130F40615070400110D8F7809590958E0F9F1FC7
S1130F500895DC0101C06D9341505040E0F70895BD
S1130F60FC016150704001900110D8F78095909574
S1130F708E0F9F1F08950F931F93CF93DF93FB0151
S1130F80238121FD03C08FEF9FEF28C022FF16C0ED
S1130F9046815781248135814217530744F4A08147
S1130FA0B1819D012F5F3F4F318320838C93268134
S1130FB037812F5F3F4F3783268310C0EB01092F02
S1130FC0182F0084F185E02D0995892BE1F68E8197
S1130FD09F8101969F838E83812F902FDF91CF91E4
S1130FE01F910F910895FA01AA27283051F1203159
S1130FF081F1E8946F936E7F6E5F7F4F8F4F9F4FA9
S1131000AF4FB1E03ED0B4E03CD0670F781F891FEA
S11310109A1FA11D680F791F8A1F911DA11D6A0FB8
S1131020711D811D911DA11D20D009F468943F916B
S11310302AE0269F11243019305D3193DEF6CF016A
S11310400895462F4770405D4193B3E00FD0C9F730
S1131050F6CF462F4F70405D4A3318F0495D31FD9D
S11310604052419302D0A9F7EACFB4E0A6959795F0
S1131070879577956795BA95C9F7009761057105C6
S113108008959B01AC010A2E069457954795379510
S11310902795BA95C9F7620F731F841F951FA01D6A
S11310A008952F923F924F925F926F927F928F9208
S11310B09F92AF92BF92CF92DF92EF92FF920F93E3
S11310C01F93CF93DF93CDB7DEB7CA1BDB0B0FB6ED
S11310D0F894DEBF0FBECDBF09942A8839884888AA
S11310E05F846E847D848C849B84AA84B984C88440
S11310F0DF80EE80FD800C811B81AA81B981CE0F37
S1131100D11D0FB6F894DEBF0FBECDBFED0108951B
S1071110F894FFCF7D
S11311140000020220003C8601004D41494E20009B
S1131124464D20726164696F207374617274696ED0
S1131134672E2E2E0D00446F776E20777261700D2A
S113114400557020777261700D005445413537366F
S11311543720005772697465206572726F7220407B
S113116453544152542C2074777374203D202530F9
S113117432580D0A005772697465206572726F7271
S11311842040414444522C2074777374203D20251C
S11311943032580D0A005772697465206572726F93
S11311A4722C2074777374203D20253032580D0A34
S11311B40052656164206572726F72204053544119
S11311C452542C2074777374203D20253032580DEA
S11311D40A0052656164206572726F722040414452
S11311E444522C2074777374203D20253032580DDA
S11311F40A0054756E652025750D0A0053656172E5
S113120463682075700D0053656172636820646FB0
S1131214776E0D0045786974207365617263682C78
S11312242074756E6564203D2025750D0A00726571
S113123461645F62797465732025303258202530E7
S11312443258202530325820253032582025303267
S1131254580D0A0046726571203D2025750D0A005B
S113126452656164790D0054756E6564210D004204
S1131274616E64206C696D69740D005374657265E4
S11312846F20726563657074696F6E0D0072785FA8
S1111294706F776572203D2025640D0A0000FE
S9030000FC
