:100000000C9434000C9451000C9451000C94510049
:100010000C9474010C9451000C9451000C94D50074
:100020000C9451000C9451000C9451000C9451000C
:100030000C9451000C9451000C9451000C945100FC
:100040000C9451000C9451000C9451000C945100EC
:100050000C9451000C9451000C9451000C945100DC
:100060000C9451000C94510011241FBECFEFD8E026
:10007000DEBFCDBF14E0A0E0B1E0EEE4F8E002C0E6
:1000800005900D92A032B107D9F724E0A0E2B4E0C8
:1000900001C01D92A432B207E1F70E944B030C94F9
:1000A00025040C9400000F931F93CF938C01FC0147
:1000B0008081882351F0C0E00E94C303CF5FF80124
:1000C000EC0FF11D80818111F7CF88E193E00E9450
:1000D000CB03CF911F910F910895CF92DF92EF92B2
:1000E000FF921F93CF93DF9300D000D0CDB7DEB740
:1000F0007C016B01FC018081882351F010E00E949B
:10010000C3031F5FF701E10FF11D80818111F7CF5C
:100110004AE0BE016F5F7F4FC6010E94F003CE012F
:1001200001960E9453000F900F900F900F90DF9157
:10013000CF911F91FF90EF90DF90CF900895181608
:1001400019066CF420E030E0EFECF7E03197F1F7BE
:1001500000C000002F5F3F4F28173907A9F7089507
:10016000E8E6F0E0808182608083ECE6F0E0808168
:100170008E618083089584B5826084BD84B5806477
:1001800084BD85B5836085BD0895E0EBF0E0808196
:1001900082608083E0E7F0E080818260808389EF85
:1001A0008093B3001092B20008951F920F920FB681
:1001B0000F9211242F933F934F935F936F937F93ED
:1001C0008F939F93AF93BF93EF93FF9380912204FC
:1001D00090912304019690932304809322044091EC
:1001E0002204509123049A01369527953695279538
:1001F00036952795A5ECB0E20E94E1039295829591
:100200008F7089279F70892768EE73E0869F900121
:10021000879F300D969F300D11244217530789F4A4
:100220008091200490912104019690932104809361
:10023000200460912004709121048BE193E00E94DE
:100240006D00FF91EF91BF91AF919F918F917F9141
:100250006F915F914F913F912F910F900FBE0F9033
:100260001F90189585E293E00E94530039983A98C0
:100270003B983C9888B18E6188B9389A3D9A219A0A
:10028000529A08958FE293E00E9453001092230443
:1002900010922204E1EBF0E0808183608083089576
:1002A0000E94B2038BE493E00E9453000E94BB00C3
:1002B0000E94C5000E94B0000E94320178940E9402
:1002C000420186E493E00E945300089588E593E09C
:1002D0000E945300E1EBF0E080818C7F80830895E1
:1002E0005A9A08955A9808951F920F920FB60F9236
:1002F00011242F933F934F935F936F937F938F932B
:100300009F93AF93BF93CF93EF93FF9386B1C09129
:100310000101C82786B180930101C1FF24C08091EB
:10032000010181FF12C08FE99FE00197F1F700C042
:100330000000319B18C00E94720181E0809300018F
:100340008EE693E00E9453000EC08FE99FE0019774
:10035000F1F700C00000319906C00E9470018FE7DC
:1003600093E00E945300C2FF24C08091010182FFEC
:1003700012C08FE99FE00197F1F700C00000329BA7
:1003800018C00E94720182E0809300018EE893E021
:100390000E9453000EC08FE99FE00197F1F700C063
:1003A0000000329906C00E9470018FE993E00E941C
:1003B0005300C3FF24C08091010183FF12C08FE965
:1003C0009FE00197F1F700C00000339B18C00E9426
:1003D000720183E0809300018EEA93E00E94530053
:1003E0000EC08FE99FE00197F1F700C0000033993C
:1003F00006C00E9470018FEB93E00E945300C4FF7F
:1004000024C08091010184FF12C08FE99FE0019711
:10041000F1F700C00000349B18C00E94720184E014
:10042000809300018EEC93E00E9453000EC08FE990
:100430009FE00197F1F700C00000349906C00E94C8
:1004400070018FED93E00E945300FF91EF91CF91E7
:10045000BF91AF919F918F917F916F915F914F91DC
:100460003F912F910F900FBE0F901F90189516BCC3
:1004700087BD569A6115710549F08FEC97E0019799
:10048000F1F700C0000061507109B9F7569808955E
:100490006AEF70E085E190E00E94370208951F93B3
:1004A000CF93DF938EEE93E00E9453000E944802A8
:1004B000CAE7D0E01881188282E08093690081E069
:1004C0008DBB83B7817F846083BFF89483B78160DD
:1004D00083BF85B7982F90668F7D806495BF85BF59
:1004E00078948AEF93E00E945300889583B78E7FBB
:1004F00083BF86E094E00E9453001883DF91CF9180
:100500001F910895CF92DF92EF92FF920F931F9366
:10051000CF93DF9301301105F1F4121613060CF09E
:100520003FC06B01EC017A01220F331F8B01020FD8
:10053000131FF601619171916F01899199910E9448
:100540003702F701819191917F010E949F00C016AF
:10055000D10679F725C00230110511F57901F1E0D6
:10056000EF1AF108EAF0220F331F8B01020F131F5D
:100570006C01C20ED31EEA01C20FD31FF8017291A3
:1005800062918F01F601929182916F010E94370270
:100590009A918A910E949F00F1E0EF1AF10870F79A
:1005A000DF91CF911F910F91FF90EF90DF90CF904F
:1005B0000895CF92DF92EF92FF920F931F93CF9304
:1005C000DF930F2EF3E0EF2EF12CF02D0F2EF4EB36
:1005D000CF2EF1E0DF2EF02D02E011E011C063E03C
:1005E00070E09A918A910E94370280E090E00E9428
:1005F0009F00C017D10799F781E0E81AF10811F0C0
:10060000E601EDCFDF91CF911F910F91FF90EF9019
:10061000DF90CF900895CF92DF92EF92FF920F93E9
:100620001F93CF93DF930F2EF3E0CF2ED12CF02D1D
:100630000F2EF2E0EF2EF1E0FF2EF02D04EB11E093
:100640001FC065E070E0899199910E94370280E0B7
:1006500090E00E949F00C017D10799F7E80165E07C
:1006600070E09A918A910E94370280E090E00E94A7
:100670009F00CE15DF0599F781E0C81AD10811F067
:10068000E701DFCFDF91CF911F910F91FF90EF90A6
:10069000DF90CF9008950E9450018FEF809300016A
:1006A0000E944802CFEF80910001833041F128F48D
:1006B000813049F0823081F0F6CF843049F18F3FAC
:1006C00009F441C0F0CF0E9466010E940B030E9412
:1006D0004201C0930001E7CF0E94660101E010E0F3
:1006E00029E530E046E652E064EB71E082E091E01B
:1006F0000E9482020E944201C0930001D4CF0E9456
:1007000066010E94D9020E944201C0930001CBCF32
:10071000609122047091230480E194E00E946D00B6
:100720000E94660102E010E029E530E046E652E072
:1007300064EB71E082E091E00E9482020E9442013B
:10074000C0930001B0CF80912204909123048136A0
:100750009A4E08F4A8CF0E944F02109223041092E0
:100760002204A1CF1092C50083E38093C400E0EC83
:10077000F0E080818D7F808388E18093C10086E0F6
:100780008093C2000895E0ECF0E0908195FFFDCFEA
:100790008093C60008950F931F93CF93FC0180812F
:1007A000882359F08F01C0E00E94C303CF5FF80196
:1007B000EC0FF11D80818111F7CFCF911F910F9127
:1007C0000895A29FB001B39FC001A39F700D811D2A
:1007D0001124911DB29F700D811D1124911D08954A
:1007E000BB274A3031F4992322F4BDE290958195DC
:1007F0009F4F0C94FC03BB27FB015527AA27880FAA
:10080000991FAA1FA41710F0A41B83955051B9F784
:10081000A05DAA3308F0A95DA193009779F7B11103
:10082000B1931192CB010C941504DC01FC01672FEC
:1008300071917723E1F7329704C07C916D937083B7
:0E0840006291AE17BF07C8F30895F894FFCF7A
:10084E00FF1EFC00EC00DF00D300C800BE00B100AC
:10085E00A9009F0096008E0086007E007800710031
:10086E006B0064005F00590054004F004B004700BE
:10087E0042003F003B003800350032002F002C00B4
:10088E002A0027002500230021001F001D001C0048
:10089E001A0019001700160015001300120011009F
:1008AE0010000F000E000E000D000C000B000B00D0
:1008BE000A000900090008000800070007000700E9
:1008CE0006000600050005000500040004000400F3
:1008DE0004000300030003000300030002000200F3
:1008EE0002000200020002000200010001000100ED
:1008FE00010001000A000A000A000A000A000A00AC
:10090E000A000A000A000A000A000A000A000A0089
:10091E000A000A000A000A000A000A000A000A0079
:10092E000A000A000A000A000A000A000A000A0069
:10093E000A000A000A000A000A000A000A000A0059
:10094E000A000A000A000A000A000A000A000A0049
:10095E000A000A000A000A000A000A000A000A0039
:10096E000A000A000A000A000A000A000A000A0029
:10097E000A000A000A000A000A000A000A000A0019
:10098E000A000A000A000A000A000A000A000A0009
:10099E000A000A000A000A000A000A000A000A00F9
:1009AE000A000A000A00000000000000000000001B
:1009BE000000000000000000000000000000000029
:1009CE000000000000000000000000000000000019
:1009DE000000000000000000000000000000000009
:1009EE0000000000000000000000000000000000F9
:1009FE0000000000000000000000000000000000E9
:100A0E0000000000000000000000000000000000D8
:100A1E0000000000000000000000000000000000C8
:100A2E0000000000000000000000000000000000B8
:100A3E0000000000000000000000000000000000A8
:100A4E000000000000000000000000000000000098
:100A5E0000000000000000000D0A005365636F6E79
:100A6E0064733A2000496E69744156522829005326
:100A7E00746172744D696C6C697365636F6E6473C7
:100A8E0054696D657200446F6E6520496E697469B4
:100A9E00616C697A6528290053746F704D696C6CAE
:100AAE00697365636F6E647354696D657200627508
:100ABE0074746F6E20312072656C656173650062AF
:100ACE007574746F6E203120707265737300627569
:100ADE0074746F6E20322072656C6561736500628E
:100AEE007574746F6E203220707265737300627548
:100AFE0074746F6E20332072656C6561736500626D
:100B0E007574746F6E203320707265737300627526
:100B1E0074746F6E20342072656C6561736500624B
:100B2E007574746F6E203420707265737300476F26
:100B3E00546F536C656570282900536C6565706938
:100B4E006E672E2E2E0057616B696E672E2E2E004D
:100B5E004D696C6C697365636F6E64733A20000047
:00000001FF
