S01700004763634170706C69636174696F6E312E737265635B
S11300000EC01DC01CC01BC01AC018C118C017C028
S113001016C015C014C013C010C111C010C01124E3
S11300201FBECFE5D2E0DEBFCDBF20E0A0E6B0E04A
S113003001C01D92A136B207E1F71ED019C1E0CF6D
S11300409DEF98BB95B7906295BF889595B79F7DB6
S113005095BFBA98C2989FEF980F882349F085B747
S1130060806285BF889585B78F7D85BF9150B8F72D
S1130070BA9A86B38470089583E08ABD82E089BF0A
S113008081B5846481BD789480E894E00FB6F894D7
S113009086BD96BD0FBE9BE090BD88B986E087BB48
S11300A08BEF88BB85B7806185BF85B7806285BFCC
S11300B0889585B78F7D85BFC19881B58B7F81BDBC
S11300C0FF24F394C3E3D3E3772473946894EE2476
S11300D0E2F86894992491F80F2EF4EBAF2EF02DEA
S11300E0C12C07E010E00F2EFEE1DF2EF02DBC2C1A
S11300F02CC08C2C81B5806281BD2D2D95B790626A
S113010095BF889595B79F7D95BF2150B9F781B567
S11301108F7D81BD772059F08D2D92DF882311F0DA
S113012083940FC0882009F486C08A940AC084E0AE
S113013087DF811102C0839404C0882009F47BC046
S11301408A9484E08815B0F6739481E0871588F664
S113015081B58F7B81BD85B78F7E85BF8AB580626F
S11301608ABD93BE3A2D2C2D55C085B7806285BFBC
S1130170889595B79F7D95BF809160008111F5CFDB
S1130180CE01880F991F880F991F880F991F8C1B08
S11301909D0B880F991F880F991F880F991F8C0F2B
S11301A09D1FAC01440F551F440F551F440F551F8D
S11301B0840F951F880F991F880F991FC80FD91F87
S11301C0C75ED94C2F5F59F43150CE018827990F5F
S11301D0881F990F881F9927EE24E394E80EF19461
S11301E09D2F929596959770492F50E0B801641B06
S11301F0750B8F2D34D06E2D32D0885D880F88BD5D
S113020082E0890F692F2BD08C5F880F8093600068
S1130210332329F0809160008111A7CFB1CF8AB533
S11302208F7D8ABD13BE85B7806185BF81B580642B
S113023081BD7C2C8ACF8B2C5DCF18951F920F9299
S11302400FB60F9211248F93809160008150809398
S113025060008F910F900FBE0F901F90189500248F
S113026080FD060E660F11F08695D1F7802D089556
S1070270F894FFCF2C
S9030000FC
