
ClockPC.elf:     file format elf32-avr

Sections:
Idx Name          Size      VMA       LMA       File off  Algn
  0 .data         00000694  00800100  00004c1a  00004cae  2**0
                  CONTENTS, ALLOC, LOAD, DATA
  1 .text         00004c1a  00000000  00000000  00000094  2**1
                  CONTENTS, ALLOC, LOAD, READONLY, CODE
  2 .bss          00000049  00800794  00800794  00005342  2**0
                  ALLOC
  3 .comment      00000030  00000000  00000000  00005342  2**0
                  CONTENTS, READONLY
  4 .note.gnu.avr.deviceinfo 00000040  00000000  00000000  00005374  2**2
                  CONTENTS, READONLY
  5 .debug_aranges 000005c0  00000000  00000000  000053b4  2**0
                  CONTENTS, READONLY, DEBUGGING
  6 .debug_info   00007eed  00000000  00000000  00005974  2**0
                  CONTENTS, READONLY, DEBUGGING
  7 .debug_abbrev 00000c2c  00000000  00000000  0000d861  2**0
                  CONTENTS, READONLY, DEBUGGING
  8 .debug_line   00001c2b  00000000  00000000  0000e48d  2**0
                  CONTENTS, READONLY, DEBUGGING
  9 .debug_frame  000014a8  00000000  00000000  000100b8  2**2
                  CONTENTS, READONLY, DEBUGGING
 10 .debug_str    0000137a  00000000  00000000  00011560  2**0
                  CONTENTS, READONLY, DEBUGGING
 11 .debug_loc    00007314  00000000  00000000  000128da  2**0
                  CONTENTS, READONLY, DEBUGGING
 12 .debug_ranges 00000588  00000000  00000000  00019bee  2**0
                  CONTENTS, READONLY, DEBUGGING

Disassembly of section .text:

00000000 <__vectors>:
       0:	0c 94 34 00 	jmp	0x68	; 0x68 <__ctors_end>
       4:	0c 94 51 00 	jmp	0xa2	; 0xa2 <__bad_interrupt>
       8:	0c 94 51 00 	jmp	0xa2	; 0xa2 <__bad_interrupt>
       c:	0c 94 99 1c 	jmp	0x3932	; 0x3932 <__vector_3>
      10:	0c 94 51 00 	jmp	0xa2	; 0xa2 <__bad_interrupt>
      14:	0c 94 8d 1b 	jmp	0x371a	; 0x371a <__vector_5>
      18:	0c 94 51 00 	jmp	0xa2	; 0xa2 <__bad_interrupt>
      1c:	0c 94 51 00 	jmp	0xa2	; 0xa2 <__bad_interrupt>
      20:	0c 94 51 00 	jmp	0xa2	; 0xa2 <__bad_interrupt>
      24:	0c 94 2c 0d 	jmp	0x1a58	; 0x1a58 <__vector_9>
      28:	0c 94 51 00 	jmp	0xa2	; 0xa2 <__bad_interrupt>
      2c:	0c 94 11 1e 	jmp	0x3c22	; 0x3c22 <__vector_11>
      30:	0c 94 51 00 	jmp	0xa2	; 0xa2 <__bad_interrupt>
      34:	0c 94 51 00 	jmp	0xa2	; 0xa2 <__bad_interrupt>
      38:	0c 94 51 00 	jmp	0xa2	; 0xa2 <__bad_interrupt>
      3c:	0c 94 51 00 	jmp	0xa2	; 0xa2 <__bad_interrupt>
      40:	0c 94 a9 0c 	jmp	0x1952	; 0x1952 <__vector_16>
      44:	0c 94 51 00 	jmp	0xa2	; 0xa2 <__bad_interrupt>
      48:	0c 94 51 00 	jmp	0xa2	; 0xa2 <__bad_interrupt>
      4c:	0c 94 51 00 	jmp	0xa2	; 0xa2 <__bad_interrupt>
      50:	0c 94 51 00 	jmp	0xa2	; 0xa2 <__bad_interrupt>
      54:	0c 94 51 00 	jmp	0xa2	; 0xa2 <__bad_interrupt>
      58:	0c 94 51 00 	jmp	0xa2	; 0xa2 <__bad_interrupt>
      5c:	0c 94 51 00 	jmp	0xa2	; 0xa2 <__bad_interrupt>
      60:	0c 94 51 00 	jmp	0xa2	; 0xa2 <__bad_interrupt>
      64:	0c 94 51 00 	jmp	0xa2	; 0xa2 <__bad_interrupt>

00000068 <__ctors_end>:
      68:	11 24       	eor	r1, r1
      6a:	1f be       	out	0x3f, r1	; 63
      6c:	cf ef       	ldi	r28, 0xFF	; 255
      6e:	d8 e0       	ldi	r29, 0x08	; 8
      70:	de bf       	out	0x3e, r29	; 62
      72:	cd bf       	out	0x3d, r28	; 61

00000074 <__do_copy_data>:
      74:	17 e0       	ldi	r17, 0x07	; 7
      76:	a0 e0       	ldi	r26, 0x00	; 0
      78:	b1 e0       	ldi	r27, 0x01	; 1
      7a:	ea e1       	ldi	r30, 0x1A	; 26
      7c:	fc e4       	ldi	r31, 0x4C	; 76
      7e:	02 c0       	rjmp	.+4      	; 0x84 <__do_copy_data+0x10>
      80:	05 90       	lpm	r0, Z+
      82:	0d 92       	st	X+, r0
      84:	a4 39       	cpi	r26, 0x94	; 148
      86:	b1 07       	cpc	r27, r17
      88:	d9 f7       	brne	.-10     	; 0x80 <__do_copy_data+0xc>

0000008a <__do_clear_bss>:
      8a:	27 e0       	ldi	r18, 0x07	; 7
      8c:	a4 e9       	ldi	r26, 0x94	; 148
      8e:	b7 e0       	ldi	r27, 0x07	; 7
      90:	01 c0       	rjmp	.+2      	; 0x94 <.do_clear_bss_start>

00000092 <.do_clear_bss_loop>:
      92:	1d 92       	st	X+, r1

00000094 <.do_clear_bss_start>:
      94:	ad 3d       	cpi	r26, 0xDD	; 221
      96:	b2 07       	cpc	r27, r18
      98:	e1 f7       	brne	.-8      	; 0x92 <.do_clear_bss_loop>
      9a:	0e 94 3c 1f 	call	0x3e78	; 0x3e78 <main>
      9e:	0c 94 0b 26 	jmp	0x4c16	; 0x4c16 <_exit>

000000a2 <__bad_interrupt>:
      a2:	0c 94 00 00 	jmp	0	; 0x0 <__vectors>

000000a6 <debug>:
	write_bytes[1] = read_bytes[1];
	write_bytes[0] &= ~(TEA5767_SEARCH | TEA5767_MUTE);
	TEA5767_write();
	g_state.tune = ((((read_bytes[0]&0x3F)<<8)+read_bytes[1])*32768/4 + 225000)/1000;
	debugMetric("Exit search, tuned", (unsigned int)(g_state.tune/100));
}
      a6:	0f 93       	push	r16
      a8:	1f 93       	push	r17
      aa:	cf 93       	push	r28
#include "Clock.h"

/************************************************************************/
/* Debug Routines                                                       */
/************************************************************************/
void debug(const char myString[]) {
      ac:	8c 01       	movw	r16, r24
    if (DEBUG) {
        byte i = 0;
        while (myString[i]) {
      ae:	fc 01       	movw	r30, r24
      b0:	80 81       	ld	r24, Z
      b2:	88 23       	and	r24, r24
      b4:	51 f0       	breq	.+20     	; 0xca <debug+0x24>
      b6:	c0 e0       	ldi	r28, 0x00	; 0
            transmitByte(myString[i]);
      b8:	0e 94 d9 21 	call	0x43b2	; 0x43b2 <transmitByte>
            i++;
      bc:	cf 5f       	subi	r28, 0xFF	; 255
/* Debug Routines                                                       */
/************************************************************************/
void debug(const char myString[]) {
    if (DEBUG) {
        byte i = 0;
        while (myString[i]) {
      be:	f8 01       	movw	r30, r16
      c0:	ec 0f       	add	r30, r28
      c2:	f1 1d       	adc	r31, r1
      c4:	80 81       	ld	r24, Z
      c6:	81 11       	cpse	r24, r1
      c8:	f7 cf       	rjmp	.-18     	; 0xb8 <debug+0x12>
            transmitByte(myString[i]);
            i++;
        }
        printString("\r\n");
      ca:	8e e2       	ldi	r24, 0x2E	; 46
      cc:	97 e0       	ldi	r25, 0x07	; 7
      ce:	0e 94 e1 21 	call	0x43c2	; 0x43c2 <printString>
    }
}
      d2:	cf 91       	pop	r28
      d4:	1f 91       	pop	r17
      d6:	0f 91       	pop	r16
      d8:	08 95       	ret

000000da <debugNoLF>:

void debugNoLF(const char myString[]) {
      da:	0f 93       	push	r16
      dc:	1f 93       	push	r17
      de:	cf 93       	push	r28
      e0:	fc 01       	movw	r30, r24
    if (DEBUG) {
        byte i = 0;
        while (myString[i]) {
      e2:	80 81       	ld	r24, Z
      e4:	88 23       	and	r24, r24
      e6:	59 f0       	breq	.+22     	; 0xfe <debugNoLF+0x24>
      e8:	8f 01       	movw	r16, r30
      ea:	c0 e0       	ldi	r28, 0x00	; 0
            transmitByte(myString[i]);
      ec:	0e 94 d9 21 	call	0x43b2	; 0x43b2 <transmitByte>
            i++;
      f0:	cf 5f       	subi	r28, 0xFF	; 255
}

void debugNoLF(const char myString[]) {
    if (DEBUG) {
        byte i = 0;
        while (myString[i]) {
      f2:	f8 01       	movw	r30, r16
      f4:	ec 0f       	add	r30, r28
      f6:	f1 1d       	adc	r31, r1
      f8:	80 81       	ld	r24, Z
      fa:	81 11       	cpse	r24, r1
      fc:	f7 cf       	rjmp	.-18     	; 0xec <debugNoLF+0x12>
            transmitByte(myString[i]);
            i++;
        }
    }
}
      fe:	cf 91       	pop	r28
     100:	1f 91       	pop	r17
     102:	0f 91       	pop	r16
     104:	08 95       	ret

00000106 <debugInt>:

void debugInt(signed int anInt) {
     106:	cf 93       	push	r28
     108:	df 93       	push	r29
     10a:	00 d0       	rcall	.+0      	; 0x10c <debugInt+0x6>
     10c:	00 d0       	rcall	.+0      	; 0x10e <debugInt+0x8>
     10e:	cd b7       	in	r28, 0x3d	; 61
     110:	de b7       	in	r29, 0x3e	; 62
    } else if (__radix < 2 || __radix > 36) {
	*__s = 0;
	return __s;
    } else {
	extern char *__itoa_ncheck (int, char *, unsigned char);
	return __itoa_ncheck (__val, __s, __radix);
     112:	4a e0       	ldi	r20, 0x0A	; 10
     114:	be 01       	movw	r22, r28
     116:	6f 5f       	subi	r22, 0xFF	; 255
     118:	7f 4f       	sbci	r23, 0xFF	; 255
     11a:	0e 94 9a 25 	call	0x4b34	; 0x4b34 <__itoa_ncheck>
    if (DEBUG) {
        char myInt[4];
        itoa(anInt,myInt,10);
        debug(myInt);
     11e:	ce 01       	movw	r24, r28
     120:	01 96       	adiw	r24, 0x01	; 1
     122:	0e 94 53 00 	call	0xa6	; 0xa6 <debug>
    }
}
     126:	0f 90       	pop	r0
     128:	0f 90       	pop	r0
     12a:	0f 90       	pop	r0
     12c:	0f 90       	pop	r0
     12e:	df 91       	pop	r29
     130:	cf 91       	pop	r28
     132:	08 95       	ret

00000134 <debugMetric>:

void debugMetric(const char myString[], signed int anInt) {
     134:	cf 93       	push	r28
     136:	df 93       	push	r29
     138:	eb 01       	movw	r28, r22
	debugNoLF(myString);debugNoLF(": ");
     13a:	0e 94 6d 00 	call	0xda	; 0xda <debugNoLF>
     13e:	81 ec       	ldi	r24, 0xC1	; 193
     140:	91 e0       	ldi	r25, 0x01	; 1
     142:	0e 94 6d 00 	call	0xda	; 0xda <debugNoLF>
	debugInt(anInt);
     146:	ce 01       	movw	r24, r28
     148:	0e 94 83 00 	call	0x106	; 0x106 <debugInt>
    printString("\r\n");
     14c:	8e e2       	ldi	r24, 0x2E	; 46
     14e:	97 e0       	ldi	r25, 0x07	; 7
     150:	0e 94 e1 21 	call	0x43c2	; 0x43c2 <printString>
}
     154:	df 91       	pop	r29
     156:	cf 91       	pop	r28
     158:	08 95       	ret

0000015a <debugTime>:
	itoa(g_state.alarmMinutes,myMinutes,10);
	debugNoLF("ALARM MINUTES: ");
	debug(myMinutes);
}

void debugTime() {
     15a:	cf 93       	push	r28
     15c:	df 93       	push	r29
	debugMetric("Hours", g_state.hours);
     15e:	c2 e0       	ldi	r28, 0x02	; 2
     160:	d1 e0       	ldi	r29, 0x01	; 1
     162:	69 85       	ldd	r22, Y+9	; 0x09
     164:	70 e0       	ldi	r23, 0x00	; 0
     166:	82 e9       	ldi	r24, 0x92	; 146
     168:	91 e0       	ldi	r25, 0x01	; 1
     16a:	0e 94 9a 00 	call	0x134	; 0x134 <debugMetric>
	debugMetric("Minutes", g_state.minutes);
     16e:	6a 85       	ldd	r22, Y+10	; 0x0a
     170:	70 e0       	ldi	r23, 0x00	; 0
     172:	88 e9       	ldi	r24, 0x98	; 152
     174:	91 e0       	ldi	r25, 0x01	; 1
     176:	0e 94 9a 00 	call	0x134	; 0x134 <debugMetric>
	debugMetric("Seconds", g_state.seconds);
     17a:	6b 85       	ldd	r22, Y+11	; 0x0b
     17c:	70 e0       	ldi	r23, 0x00	; 0
     17e:	80 ea       	ldi	r24, 0xA0	; 160
     180:	91 e0       	ldi	r25, 0x01	; 1
     182:	0e 94 9a 00 	call	0x134	; 0x134 <debugMetric>
}
     186:	df 91       	pop	r29
     188:	cf 91       	pop	r28
     18a:	08 95       	ret

0000018c <I2C_Init>:
void I2C_Init()															// Calculate TWBR setting for I2C bit rate
{																		// at 16 , the SCL frequency  will be 16/(16+2(TWBR)), assuming 
																		// prescalar of 0. So for 100KHz SCL, 
																		// TWBR = ((F_CPU/F_SCL)-16)/2 = ((16/0.1)-16)/2 = 144/2 
																		// = 72.
    debug("I2C_INIT()");
     18c:	88 ea       	ldi	r24, 0xA8	; 168
     18e:	91 e0       	ldi	r25, 0x01	; 1
     190:	0e 94 53 00 	call	0xa6	; 0xa6 <debug>
    TWSR = 0;															// set prescalar to zero
     194:	10 92 b9 00 	sts	0x00B9, r1
    TWBR = ((F_CPU/F_SCL)-16)/2;										// set SCL frequency in TWI bit register
     198:	80 e2       	ldi	r24, 0x20	; 32
     19a:	80 93 b8 00 	sts	0x00B8, r24
     19e:	08 95       	ret

000001a0 <I2C_Detect>:
}

byte I2C_Detect(byte addr)												// look for a device at the specified address
{																		// return 1=found, 0=not found
    TWCR = TW_START_OTHER_I2C;													// send start condition
     1a0:	94 ea       	ldi	r25, 0xA4	; 164
     1a2:	90 93 bc 00 	sts	0x00BC, r25
    int i = 0;
    while ((!TW_READY) && (i++ < 101)) {
     1a6:	26 e6       	ldi	r18, 0x66	; 102
     1a8:	30 e0       	ldi	r19, 0x00	; 0
     1aa:	ec eb       	ldi	r30, 0xBC	; 188
     1ac:	f0 e0       	ldi	r31, 0x00	; 0
     1ae:	90 81       	ld	r25, Z
     1b0:	99 23       	and	r25, r25
     1b2:	1c f0       	brlt	.+6      	; 0x1ba <I2C_Detect+0x1a>
     1b4:	21 50       	subi	r18, 0x01	; 1
     1b6:	31 09       	sbc	r19, r1
     1b8:	d1 f7       	brne	.-12     	; 0x1ae <I2C_Detect+0xe>
    }																	// wait
    TWDR = addr;														// load device's bus address
     1ba:	80 93 bb 00 	sts	0x00BB, r24
    TWCR = TW_SEND;														// and send it
     1be:	84 e8       	ldi	r24, 0x84	; 132
     1c0:	80 93 bc 00 	sts	0x00BC, r24
    i = 0;
    while ((!TW_READY) && (i++ < 101)) {}								// wait
     1c4:	86 e6       	ldi	r24, 0x66	; 102
     1c6:	90 e0       	ldi	r25, 0x00	; 0
     1c8:	ec eb       	ldi	r30, 0xBC	; 188
     1ca:	f0 e0       	ldi	r31, 0x00	; 0
     1cc:	20 81       	ld	r18, Z
     1ce:	22 23       	and	r18, r18
     1d0:	14 f0       	brlt	.+4      	; 0x1d6 <I2C_Detect+0x36>
     1d2:	01 97       	sbiw	r24, 0x01	; 1
     1d4:	d9 f7       	brne	.-10     	; 0x1cc <I2C_Detect+0x2c>
    if (TW_STATUS_OTHER_I2C!=0x18) {									// ??
     1d6:	e9 eb       	ldi	r30, 0xB9	; 185
     1d8:	f0 e0       	ldi	r31, 0x00	; 0
     1da:	80 81       	ld	r24, Z
    }
    return (TW_STATUS_OTHER_I2C==0x18);									// return 1 if found; 0 otherwise
     1dc:	90 81       	ld	r25, Z
     1de:	98 7f       	andi	r25, 0xF8	; 248
     1e0:	81 e0       	ldi	r24, 0x01	; 1
     1e2:	98 31       	cpi	r25, 0x18	; 24
     1e4:	09 f0       	breq	.+2      	; 0x1e8 <I2C_Detect+0x48>
     1e6:	80 e0       	ldi	r24, 0x00	; 0
}
     1e8:	08 95       	ret

000001ea <I2C_FindDevice>:

byte I2C_FindDevice(byte start)											// returns the count of I2C devices found
{   byte foundCount;
     1ea:	cf 93       	push	r28
     1ec:	df 93       	push	r29
     1ee:	c8 2f       	mov	r28, r24
    foundCount = 0;
    for (byte addr=start;addr<0xFF;addr++)								// search all 256 addresses
     1f0:	8f 3f       	cpi	r24, 0xFF	; 255
     1f2:	99 f0       	breq	.+38     	; 0x21a <I2C_FindDevice+0x30>
     1f4:	d0 e0       	ldi	r29, 0x00	; 0
    {
        if (I2C_Detect(addr)) {											// I2C detected?
     1f6:	8c 2f       	mov	r24, r28
     1f8:	0e 94 d0 00 	call	0x1a0	; 0x1a0 <I2C_Detect>
     1fc:	88 23       	and	r24, r24
     1fe:	49 f0       	breq	.+18     	; 0x212 <I2C_FindDevice+0x28>
            foundCount++;
     200:	df 5f       	subi	r29, 0xFF	; 255
            debugNoLF("I2C ADDR FOUND: ");
     202:	83 eb       	ldi	r24, 0xB3	; 179
     204:	91 e0       	ldi	r25, 0x01	; 1
     206:	0e 94 6d 00 	call	0xda	; 0xda <debugNoLF>
            debugInt(addr);       
     20a:	8c 2f       	mov	r24, r28
     20c:	90 e0       	ldi	r25, 0x00	; 0
     20e:	0e 94 83 00 	call	0x106	; 0x106 <debugInt>
}

byte I2C_FindDevice(byte start)											// returns the count of I2C devices found
{   byte foundCount;
    foundCount = 0;
    for (byte addr=start;addr<0xFF;addr++)								// search all 256 addresses
     212:	cf 5f       	subi	r28, 0xFF	; 255
     214:	cf 3f       	cpi	r28, 0xFF	; 255
     216:	79 f7       	brne	.-34     	; 0x1f6 <I2C_FindDevice+0xc>
     218:	01 c0       	rjmp	.+2      	; 0x21c <I2C_FindDevice+0x32>
    return (TW_STATUS_OTHER_I2C==0x18);									// return 1 if found; 0 otherwise
}

byte I2C_FindDevice(byte start)											// returns the count of I2C devices found
{   byte foundCount;
    foundCount = 0;
     21a:	d0 e0       	ldi	r29, 0x00	; 0
            debugNoLF("I2C ADDR FOUND: ");
            debugInt(addr);       
        }
    }
    return foundCount;													// none detected, so return 0.
}
     21c:	8d 2f       	mov	r24, r29
     21e:	df 91       	pop	r29
     220:	cf 91       	pop	r28
     222:	08 95       	ret

00000224 <I2C_Write>:
void I2C_Start (byte slaveAddr)											// Look for a device at the specified address.  Same as I2C_Detect.
{   I2C_Detect(slaveAddr);
}

byte I2C_Write (byte data)												// sends a data byte to slave
{   TWDR = data;														// load data to be sent
     224:	80 93 bb 00 	sts	0x00BB, r24
    TWCR = TW_SEND;														// and send it
     228:	84 e8       	ldi	r24, 0x84	; 132
     22a:	80 93 bc 00 	sts	0x00BC, r24
    int i = 0;
    while ((!TW_READY) && (i++ < 101)) {
     22e:	86 e6       	ldi	r24, 0x66	; 102
     230:	90 e0       	ldi	r25, 0x00	; 0
     232:	ec eb       	ldi	r30, 0xBC	; 188
     234:	f0 e0       	ldi	r31, 0x00	; 0
     236:	20 81       	ld	r18, Z
     238:	22 23       	and	r18, r18
     23a:	14 f0       	brlt	.+4      	; 0x240 <I2C_Write+0x1c>
     23c:	01 97       	sbiw	r24, 0x01	; 1
     23e:	d9 f7       	brne	.-10     	; 0x236 <I2C_Write+0x12>
    }
    return (TW_STATUS_OTHER_I2C!=0x28);
     240:	90 91 b9 00 	lds	r25, 0x00B9
     244:	98 7f       	andi	r25, 0xF8	; 248
     246:	81 e0       	ldi	r24, 0x01	; 1
     248:	98 32       	cpi	r25, 0x28	; 40
     24a:	09 f4       	brne	.+2      	; 0x24e <I2C_Write+0x2a>
     24c:	80 e0       	ldi	r24, 0x00	; 0
}
     24e:	08 95       	ret

00000250 <I2C_ReadNACK>:
    }																	// wait
    return TWDR;
}

byte I2C_ReadNACK () 													// reads a data byte from slave
{   TWCR = TW_NACK;														// nack = not reading more data
     250:	0f 93       	push	r16
     252:	1f 93       	push	r17
     254:	cf 93       	push	r28
     256:	df 93       	push	r29
     258:	ec eb       	ldi	r30, 0xBC	; 188
     25a:	f0 e0       	ldi	r31, 0x00	; 0
     25c:	84 e8       	ldi	r24, 0x84	; 132
     25e:	80 83       	st	Z, r24
    int i = 0;
    while ((!TW_READY) && (i++ < 101)) {
     260:	80 81       	ld	r24, Z
     262:	88 23       	and	r24, r24
     264:	74 f0       	brlt	.+28     	; 0x282 <I2C_ReadNACK+0x32>
     266:	c5 e6       	ldi	r28, 0x65	; 101
     268:	d0 e0       	ldi	r29, 0x00	; 0
     26a:	0c eb       	ldi	r16, 0xBC	; 188
     26c:	10 e0       	ldi	r17, 0x00	; 0
        printString(".");
     26e:	8f e4       	ldi	r24, 0x4F	; 79
     270:	95 e0       	ldi	r25, 0x05	; 5
     272:	0e 94 e1 21 	call	0x43c2	; 0x43c2 <printString>
}

byte I2C_ReadNACK () 													// reads a data byte from slave
{   TWCR = TW_NACK;														// nack = not reading more data
    int i = 0;
    while ((!TW_READY) && (i++ < 101)) {
     276:	f8 01       	movw	r30, r16
     278:	80 81       	ld	r24, Z
     27a:	88 23       	and	r24, r24
     27c:	14 f0       	brlt	.+4      	; 0x282 <I2C_ReadNACK+0x32>
     27e:	21 97       	sbiw	r28, 0x01	; 1
     280:	b1 f7       	brne	.-20     	; 0x26e <I2C_ReadNACK+0x1e>
        printString(".");
    }																	// wait
    printString("\r\n");
     282:	8e e2       	ldi	r24, 0x2E	; 46
     284:	97 e0       	ldi	r25, 0x07	; 7
     286:	0e 94 e1 21 	call	0x43c2	; 0x43c2 <printString>
    return TWDR;
     28a:	80 91 bb 00 	lds	r24, 0x00BB
}
     28e:	df 91       	pop	r29
     290:	cf 91       	pop	r28
     292:	1f 91       	pop	r17
     294:	0f 91       	pop	r16
     296:	08 95       	ret

00000298 <I2C_WriteRegister>:
    I2C_Write(data);													// then send the data byte
    I2C_Stop();
}

void I2C_WriteRegister(byte busAddr, byte deviceRegister, byte data)	// Writes a byte of data to the device register
{   I2C_Start(busAddr);													// send bus address
     298:	cf 93       	push	r28
     29a:	df 93       	push	r29
     29c:	d6 2f       	mov	r29, r22
     29e:	c4 2f       	mov	r28, r20
    }
    return foundCount;													// none detected, so return 0.
}

void I2C_Start (byte slaveAddr)											// Look for a device at the specified address.  Same as I2C_Detect.
{   I2C_Detect(slaveAddr);
     2a0:	0e 94 d0 00 	call	0x1a0	; 0x1a0 <I2C_Detect>
    I2C_Stop();
}

void I2C_WriteRegister(byte busAddr, byte deviceRegister, byte data)	// Writes a byte of data to the device register
{   I2C_Start(busAddr);													// send bus address
    I2C_Write(deviceRegister);											// first byte = device register address
     2a4:	8d 2f       	mov	r24, r29
     2a6:	0e 94 12 01 	call	0x224	; 0x224 <I2C_Write>
    I2C_Write(data);													// second byte = data for device register
     2aa:	8c 2f       	mov	r24, r28
     2ac:	0e 94 12 01 	call	0x224	; 0x224 <I2C_Write>
    I2C_Stop();
     2b0:	84 e9       	ldi	r24, 0x94	; 148
     2b2:	80 93 bc 00 	sts	0x00BC, r24
}
     2b6:	df 91       	pop	r29
     2b8:	cf 91       	pop	r28
     2ba:	08 95       	ret

000002bc <I2C_ReadRegister>:

byte I2C_ReadRegister(byte busAddr, byte deviceRegister)				// Reads a byte of data from the device register	
{   byte data = 0;
     2bc:	cf 93       	push	r28
     2be:	df 93       	push	r29
     2c0:	c8 2f       	mov	r28, r24
     2c2:	d6 2f       	mov	r29, r22
    }
    return foundCount;													// none detected, so return 0.
}

void I2C_Start (byte slaveAddr)											// Look for a device at the specified address.  Same as I2C_Detect.
{   I2C_Detect(slaveAddr);
     2c4:	0e 94 d0 00 	call	0x1a0	; 0x1a0 <I2C_Detect>
}

byte I2C_ReadRegister(byte busAddr, byte deviceRegister)				// Reads a byte of data from the device register	
{   byte data = 0;
    I2C_Start(busAddr);													// send device address
    I2C_Write(deviceRegister);											// set register pointer
     2c8:	8d 2f       	mov	r24, r29
     2ca:	0e 94 12 01 	call	0x224	; 0x224 <I2C_Write>
    }
    return foundCount;													// none detected, so return 0.
}

void I2C_Start (byte slaveAddr)											// Look for a device at the specified address.  Same as I2C_Detect.
{   I2C_Detect(slaveAddr);
     2ce:	81 e0       	ldi	r24, 0x01	; 1
     2d0:	8c 0f       	add	r24, r28
     2d2:	0e 94 d0 00 	call	0x1a0	; 0x1a0 <I2C_Detect>
byte I2C_ReadRegister(byte busAddr, byte deviceRegister)				// Reads a byte of data from the device register	
{   byte data = 0;
    I2C_Start(busAddr);													// send device address
    I2C_Write(deviceRegister);											// set register pointer
    I2C_Start(busAddr+READ);											// restart as a read operation
    data = I2C_ReadNACK();												// read the register data
     2d6:	0e 94 28 01 	call	0x250	; 0x250 <I2C_ReadNACK>
    I2C_Stop();															// stop
     2da:	94 e9       	ldi	r25, 0x94	; 148
     2dc:	90 93 bc 00 	sts	0x00BC, r25
    return data;
}
     2e0:	df 91       	pop	r29
     2e2:	cf 91       	pop	r28
     2e4:	08 95       	ret

000002e6 <SS_SetDisplayInstruction>:
    I2C_Stop();
}

byte SS_SetDisplayInstruction()											// set the SS display I2C instruction byte for decimal and military time
{   byte instruction = 0;
    if (g_state.colonOn) {
     2e6:	80 91 1a 01 	lds	r24, 0x011A
     2ea:	88 23       	and	r24, r24
     2ec:	11 f0       	breq	.+4      	; 0x2f2 <SS_SetDisplayInstruction+0xc>
        SetBitNo(instruction, DECIMAL_ON);
     2ee:	82 e0       	ldi	r24, 0x02	; 2
     2f0:	01 c0       	rjmp	.+2      	; 0x2f4 <SS_SetDisplayInstruction+0xe>
    I2C_Write(ssCharMap[charFour]);										// minute ones pos
    I2C_Stop();
}

byte SS_SetDisplayInstruction()											// set the SS display I2C instruction byte for decimal and military time
{   byte instruction = 0;
     2f2:	80 e0       	ldi	r24, 0x00	; 0
    if (g_state.colonOn) {
        SetBitNo(instruction, DECIMAL_ON);
	}
    
    if (g_state.decimalBlink) {
     2f4:	90 91 1c 01 	lds	r25, 0x011C
     2f8:	91 11       	cpse	r25, r1
        SetBitNo(instruction, DECIMAL_BLINK);
     2fa:	84 60       	ori	r24, 0x04	; 4
	}
    return instruction;     
}
     2fc:	08 95       	ret

000002fe <SS_DisplayChars>:

/************************************************************************/
/* Custom Seven Segment Display Routines                                */
/************************************************************************/
void SS_DisplayChars(byte charOne, byte charTwo, byte charThree, byte charFour) // Write 4 chars to the SS display
{   I2C_Start(CUST_SS_LED_ADDR);										// send bus address
     2fe:	0f 93       	push	r16
     300:	1f 93       	push	r17
     302:	cf 93       	push	r28
     304:	df 93       	push	r29
     306:	08 2f       	mov	r16, r24
     308:	16 2f       	mov	r17, r22
     30a:	d4 2f       	mov	r29, r20
     30c:	c2 2f       	mov	r28, r18
    }
    return foundCount;													// none detected, so return 0.
}

void I2C_Start (byte slaveAddr)											// Look for a device at the specified address.  Same as I2C_Detect.
{   I2C_Detect(slaveAddr);
     30e:	80 e2       	ldi	r24, 0x20	; 32
     310:	0e 94 d0 00 	call	0x1a0	; 0x1a0 <I2C_Detect>
/************************************************************************/
/* Custom Seven Segment Display Routines                                */
/************************************************************************/
void SS_DisplayChars(byte charOne, byte charTwo, byte charThree, byte charFour) // Write 4 chars to the SS display
{   I2C_Start(CUST_SS_LED_ADDR);										// send bus address
    byte instruction = SS_SetDisplayInstruction();
     314:	0e 94 73 01 	call	0x2e6	; 0x2e6 <SS_SetDisplayInstruction>
    I2C_Write(instruction);												// first byte = device register address
     318:	0e 94 12 01 	call	0x224	; 0x224 <I2C_Write>
    I2C_Write(ssCharMap[charOne]);										// hours tens pos
     31c:	e0 2f       	mov	r30, r16
     31e:	f0 e0       	ldi	r31, 0x00	; 0
     320:	e3 59       	subi	r30, 0x93	; 147
     322:	f8 4f       	sbci	r31, 0xF8	; 248
     324:	80 81       	ld	r24, Z
     326:	0e 94 12 01 	call	0x224	; 0x224 <I2C_Write>
    I2C_Write(ssCharMap[charTwo]);										// hours ones pos
     32a:	e1 2f       	mov	r30, r17
     32c:	f0 e0       	ldi	r31, 0x00	; 0
     32e:	e3 59       	subi	r30, 0x93	; 147
     330:	f8 4f       	sbci	r31, 0xF8	; 248
     332:	80 81       	ld	r24, Z
     334:	0e 94 12 01 	call	0x224	; 0x224 <I2C_Write>
    I2C_Write(ssCharMap[charThree]);									// minute tens pos
     338:	ed 2f       	mov	r30, r29
     33a:	f0 e0       	ldi	r31, 0x00	; 0
     33c:	e3 59       	subi	r30, 0x93	; 147
     33e:	f8 4f       	sbci	r31, 0xF8	; 248
     340:	80 81       	ld	r24, Z
     342:	0e 94 12 01 	call	0x224	; 0x224 <I2C_Write>
    I2C_Write(ssCharMap[charFour]);										// minute ones pos
     346:	ec 2f       	mov	r30, r28
     348:	f0 e0       	ldi	r31, 0x00	; 0
     34a:	e3 59       	subi	r30, 0x93	; 147
     34c:	f8 4f       	sbci	r31, 0xF8	; 248
     34e:	80 81       	ld	r24, Z
     350:	0e 94 12 01 	call	0x224	; 0x224 <I2C_Write>
    I2C_Stop();
     354:	84 e9       	ldi	r24, 0x94	; 148
     356:	80 93 bc 00 	sts	0x00BC, r24
}
     35a:	df 91       	pop	r29
     35c:	cf 91       	pop	r28
     35e:	1f 91       	pop	r17
     360:	0f 91       	pop	r16
     362:	08 95       	ret

00000364 <SS_DisplayTime>:
	}
    return instruction;     
}

void SS_DisplayTime(byte hours, byte minutes)							// Write hours and minutes to the SS display
{	//debug("SS_DisplayTime()");
     364:	cf 92       	push	r12
     366:	df 92       	push	r13
     368:	ef 92       	push	r14
     36a:	ff 92       	push	r15
     36c:	0f 93       	push	r16
     36e:	1f 93       	push	r17
     370:	cf 93       	push	r28
     372:	df 93       	push	r29
	
	if (!g_state.militaryTime) {										// if we're not showing military time, 
     374:	90 91 1b 01 	lds	r25, 0x011B
     378:	91 11       	cpse	r25, r1
     37a:	03 c0       	rjmp	.+6      	; 0x382 <SS_DisplayTime+0x1e>
		if (hours > 12) hours -= 12;									// subtract 12 from hours
     37c:	8d 30       	cpi	r24, 0x0D	; 13
     37e:	08 f0       	brcs	.+2      	; 0x382 <SS_DisplayTime+0x1e>
     380:	8c 50       	subi	r24, 0x0C	; 12
	}
	
    int tensHours = hours / 10;
     382:	0d ec       	ldi	r16, 0xCD	; 205
     384:	80 9f       	mul	r24, r16
     386:	c1 2d       	mov	r28, r1
     388:	11 24       	eor	r1, r1
     38a:	c6 95       	lsr	r28
     38c:	c6 95       	lsr	r28
     38e:	c6 95       	lsr	r28
     390:	d0 e0       	ldi	r29, 0x00	; 0
    int onesHours = hours - (hours / 10) * 10;
     392:	26 ef       	ldi	r18, 0xF6	; 246
     394:	ae 01       	movw	r20, r28
     396:	24 03       	mulsu	r18, r20
     398:	70 01       	movw	r14, r0
     39a:	25 9f       	mul	r18, r21
     39c:	f0 0c       	add	r15, r0
     39e:	11 24       	eor	r1, r1
     3a0:	e8 0e       	add	r14, r24
     3a2:	f1 1c       	adc	r15, r1
    int tensMinutes = minutes / 10;
     3a4:	60 9f       	mul	r22, r16
     3a6:	01 2d       	mov	r16, r1
     3a8:	11 24       	eor	r1, r1
     3aa:	06 95       	lsr	r16
     3ac:	06 95       	lsr	r16
     3ae:	06 95       	lsr	r16
     3b0:	10 e0       	ldi	r17, 0x00	; 0
    int onesMinutes = minutes - (minutes / 10) * 10;
     3b2:	20 03       	mulsu	r18, r16
     3b4:	60 01       	movw	r12, r0
     3b6:	21 9f       	mul	r18, r17
     3b8:	d0 0c       	add	r13, r0
     3ba:	11 24       	eor	r1, r1
     3bc:	c6 0e       	add	r12, r22
     3be:	d1 1c       	adc	r13, r1
    }
    return foundCount;													// none detected, so return 0.
}

void I2C_Start (byte slaveAddr)											// Look for a device at the specified address.  Same as I2C_Detect.
{   I2C_Detect(slaveAddr);
     3c0:	80 e2       	ldi	r24, 0x20	; 32
     3c2:	0e 94 d0 00 	call	0x1a0	; 0x1a0 <I2C_Detect>
    int tensMinutes = minutes / 10;
    int onesMinutes = minutes - (minutes / 10) * 10;
    
    I2C_Start(CUST_SS_LED_ADDR);										// send bus address
    
    byte instruction = SS_SetDisplayInstruction();
     3c6:	0e 94 73 01 	call	0x2e6	; 0x2e6 <SS_SetDisplayInstruction>
        
    I2C_Write(instruction);												// first byte = instruction settings
     3ca:	0e 94 12 01 	call	0x224	; 0x224 <I2C_Write>
    if (tensHours) {
     3ce:	20 97       	sbiw	r28, 0x00	; 0
     3d0:	31 f0       	breq	.+12     	; 0x3de <SS_DisplayTime+0x7a>
        I2C_Write(ssCharMap[tensHours]);								// hours tens pos
     3d2:	c3 59       	subi	r28, 0x93	; 147
     3d4:	d8 4f       	sbci	r29, 0xF8	; 248
     3d6:	88 81       	ld	r24, Y
     3d8:	0e 94 12 01 	call	0x224	; 0x224 <I2C_Write>
     3dc:	03 c0       	rjmp	.+6      	; 0x3e4 <SS_DisplayTime+0x80>
    } else {
        I2C_Write(ssCharMap[CHAR_SPACE]);								// hours tens pos
     3de:	80 e0       	ldi	r24, 0x00	; 0
     3e0:	0e 94 12 01 	call	0x224	; 0x224 <I2C_Write>
    }
    I2C_Write(ssCharMap[onesHours]);									// hours ones pos
     3e4:	f7 01       	movw	r30, r14
     3e6:	e3 59       	subi	r30, 0x93	; 147
     3e8:	f8 4f       	sbci	r31, 0xF8	; 248
     3ea:	80 81       	ld	r24, Z
     3ec:	0e 94 12 01 	call	0x224	; 0x224 <I2C_Write>
    I2C_Write(ssCharMap[tensMinutes]);									// minute tens pos
     3f0:	f8 01       	movw	r30, r16
     3f2:	e3 59       	subi	r30, 0x93	; 147
     3f4:	f8 4f       	sbci	r31, 0xF8	; 248
     3f6:	80 81       	ld	r24, Z
     3f8:	0e 94 12 01 	call	0x224	; 0x224 <I2C_Write>
    I2C_Write(ssCharMap[onesMinutes]);									// minute ones pos
     3fc:	f6 01       	movw	r30, r12
     3fe:	e3 59       	subi	r30, 0x93	; 147
     400:	f8 4f       	sbci	r31, 0xF8	; 248
     402:	80 81       	ld	r24, Z
     404:	0e 94 12 01 	call	0x224	; 0x224 <I2C_Write>
    I2C_Stop();
     408:	84 e9       	ldi	r24, 0x94	; 148
     40a:	80 93 bc 00 	sts	0x00BC, r24
}
     40e:	df 91       	pop	r29
     410:	cf 91       	pop	r28
     412:	1f 91       	pop	r17
     414:	0f 91       	pop	r16
     416:	ff 90       	pop	r15
     418:	ef 90       	pop	r14
     41a:	df 90       	pop	r13
     41c:	cf 90       	pop	r12
     41e:	08 95       	ret

00000420 <SS_DisplayTimeAlarmSetHours>:

void SS_DisplayTimeAlarmSetHours(byte hours)							// Display 'set alarm hours' to SS display
{   int tensHours = hours / 10;
     420:	0f 93       	push	r16
     422:	1f 93       	push	r17
     424:	cf 93       	push	r28
     426:	df 93       	push	r29
     428:	cd ec       	ldi	r28, 0xCD	; 205
     42a:	8c 9f       	mul	r24, r28
     42c:	c1 2d       	mov	r28, r1
     42e:	11 24       	eor	r1, r1
     430:	2c 2f       	mov	r18, r28
     432:	26 95       	lsr	r18
     434:	26 95       	lsr	r18
     436:	26 95       	lsr	r18
    int onesHours = hours - (hours / 10) * 10;
     438:	02 2f       	mov	r16, r18
     43a:	10 e0       	ldi	r17, 0x00	; 0
     43c:	36 ef       	ldi	r19, 0xF6	; 246
     43e:	32 03       	mulsu	r19, r18
     440:	e0 01       	movw	r28, r0
     442:	11 24       	eor	r1, r1
     444:	c8 0f       	add	r28, r24
     446:	d1 1d       	adc	r29, r1
    }
    return foundCount;													// none detected, so return 0.
}

void I2C_Start (byte slaveAddr)											// Look for a device at the specified address.  Same as I2C_Detect.
{   I2C_Detect(slaveAddr);
     448:	80 e2       	ldi	r24, 0x20	; 32
     44a:	0e 94 d0 00 	call	0x1a0	; 0x1a0 <I2C_Detect>
void SS_DisplayTimeAlarmSetHours(byte hours)							// Display 'set alarm hours' to SS display
{   int tensHours = hours / 10;
    int onesHours = hours - (hours / 10) * 10;

    I2C_Start(CUST_SS_LED_ADDR);										// send bus address
    I2C_Write(0);														// colon off during set time
     44e:	80 e0       	ldi	r24, 0x00	; 0
     450:	0e 94 12 01 	call	0x224	; 0x224 <I2C_Write>
    I2C_Write(ssCharMap[tensHours]);									// hours tens pos
     454:	f8 01       	movw	r30, r16
     456:	e3 59       	subi	r30, 0x93	; 147
     458:	f8 4f       	sbci	r31, 0xF8	; 248
     45a:	80 81       	ld	r24, Z
     45c:	0e 94 12 01 	call	0x224	; 0x224 <I2C_Write>
    I2C_Write(ssCharMap[onesHours]);									// hours ones pos
     460:	c3 59       	subi	r28, 0x93	; 147
     462:	d8 4f       	sbci	r29, 0xF8	; 248
     464:	88 81       	ld	r24, Y
     466:	0e 94 12 01 	call	0x224	; 0x224 <I2C_Write>
    I2C_Write(ssCharMap[CHAR_A]);      
     46a:	8a ef       	ldi	r24, 0xFA	; 250
     46c:	0e 94 12 01 	call	0x224	; 0x224 <I2C_Write>
    I2C_Write(ssCharMap[CHAR_H]);      
     470:	8a eb       	ldi	r24, 0xBA	; 186
     472:	0e 94 12 01 	call	0x224	; 0x224 <I2C_Write>
    I2C_Stop();
     476:	84 e9       	ldi	r24, 0x94	; 148
     478:	80 93 bc 00 	sts	0x00BC, r24
}
     47c:	df 91       	pop	r29
     47e:	cf 91       	pop	r28
     480:	1f 91       	pop	r17
     482:	0f 91       	pop	r16
     484:	08 95       	ret

00000486 <SS_DisplayTimeAlarmSetMinutes>:

void SS_DisplayTimeAlarmSetMinutes(byte minutes)						// Display 'set alarm minutes' to SS display 
{   int tensMinutes = minutes / 10;
     486:	0f 93       	push	r16
     488:	1f 93       	push	r17
     48a:	cf 93       	push	r28
     48c:	df 93       	push	r29
     48e:	cd ec       	ldi	r28, 0xCD	; 205
     490:	8c 9f       	mul	r24, r28
     492:	c1 2d       	mov	r28, r1
     494:	11 24       	eor	r1, r1
     496:	2c 2f       	mov	r18, r28
     498:	26 95       	lsr	r18
     49a:	26 95       	lsr	r18
     49c:	26 95       	lsr	r18
    int onesMinutes = minutes - (minutes / 10) * 10;
     49e:	02 2f       	mov	r16, r18
     4a0:	10 e0       	ldi	r17, 0x00	; 0
     4a2:	36 ef       	ldi	r19, 0xF6	; 246
     4a4:	32 03       	mulsu	r19, r18
     4a6:	e0 01       	movw	r28, r0
     4a8:	11 24       	eor	r1, r1
     4aa:	c8 0f       	add	r28, r24
     4ac:	d1 1d       	adc	r29, r1
    }
    return foundCount;													// none detected, so return 0.
}

void I2C_Start (byte slaveAddr)											// Look for a device at the specified address.  Same as I2C_Detect.
{   I2C_Detect(slaveAddr);
     4ae:	80 e2       	ldi	r24, 0x20	; 32
     4b0:	0e 94 d0 00 	call	0x1a0	; 0x1a0 <I2C_Detect>
void SS_DisplayTimeAlarmSetMinutes(byte minutes)						// Display 'set alarm minutes' to SS display 
{   int tensMinutes = minutes / 10;
    int onesMinutes = minutes - (minutes / 10) * 10;

    I2C_Start(CUST_SS_LED_ADDR);										// send bus address
    I2C_Write(0);														// colon off during set time
     4b4:	80 e0       	ldi	r24, 0x00	; 0
     4b6:	0e 94 12 01 	call	0x224	; 0x224 <I2C_Write>
    I2C_Write(ssCharMap[CHAR_A]);      
     4ba:	8a ef       	ldi	r24, 0xFA	; 250
     4bc:	0e 94 12 01 	call	0x224	; 0x224 <I2C_Write>
    I2C_Write(ssCharMap[CHAR_SPACE]);      
     4c0:	80 e0       	ldi	r24, 0x00	; 0
     4c2:	0e 94 12 01 	call	0x224	; 0x224 <I2C_Write>
    I2C_Write(ssCharMap[tensMinutes]);									// minutes tens pos
     4c6:	f8 01       	movw	r30, r16
     4c8:	e3 59       	subi	r30, 0x93	; 147
     4ca:	f8 4f       	sbci	r31, 0xF8	; 248
     4cc:	80 81       	ld	r24, Z
     4ce:	0e 94 12 01 	call	0x224	; 0x224 <I2C_Write>
    I2C_Write(ssCharMap[onesMinutes]);									// minutes ones pos
     4d2:	c3 59       	subi	r28, 0x93	; 147
     4d4:	d8 4f       	sbci	r29, 0xF8	; 248
     4d6:	88 81       	ld	r24, Y
     4d8:	0e 94 12 01 	call	0x224	; 0x224 <I2C_Write>
    I2C_Stop();
     4dc:	84 e9       	ldi	r24, 0x94	; 148
     4de:	80 93 bc 00 	sts	0x00BC, r24
}
     4e2:	df 91       	pop	r29
     4e4:	cf 91       	pop	r28
     4e6:	1f 91       	pop	r17
     4e8:	0f 91       	pop	r16
     4ea:	08 95       	ret

000004ec <SS_DisplayTimeSetDays>:

void SS_DisplayTimeSetDays(byte days)									// Display 'set day of month' to SS display
{	int tensDays = days / 10;
     4ec:	0f 93       	push	r16
     4ee:	1f 93       	push	r17
     4f0:	cf 93       	push	r28
     4f2:	df 93       	push	r29
     4f4:	cd ec       	ldi	r28, 0xCD	; 205
     4f6:	8c 9f       	mul	r24, r28
     4f8:	c1 2d       	mov	r28, r1
     4fa:	11 24       	eor	r1, r1
     4fc:	2c 2f       	mov	r18, r28
     4fe:	26 95       	lsr	r18
     500:	26 95       	lsr	r18
     502:	26 95       	lsr	r18
	int onesDays = days - (days / 10) * 10;
     504:	02 2f       	mov	r16, r18
     506:	10 e0       	ldi	r17, 0x00	; 0
     508:	36 ef       	ldi	r19, 0xF6	; 246
     50a:	32 03       	mulsu	r19, r18
     50c:	e0 01       	movw	r28, r0
     50e:	11 24       	eor	r1, r1
     510:	c8 0f       	add	r28, r24
     512:	d1 1d       	adc	r29, r1
    }
    return foundCount;													// none detected, so return 0.
}

void I2C_Start (byte slaveAddr)											// Look for a device at the specified address.  Same as I2C_Detect.
{   I2C_Detect(slaveAddr);
     514:	80 e2       	ldi	r24, 0x20	; 32
     516:	0e 94 d0 00 	call	0x1a0	; 0x1a0 <I2C_Detect>
void SS_DisplayTimeSetDays(byte days)									// Display 'set day of month' to SS display
{	int tensDays = days / 10;
	int onesDays = days - (days / 10) * 10;

	I2C_Start(CUST_SS_LED_ADDR);										// send bus address
	I2C_Write(0);
     51a:	80 e0       	ldi	r24, 0x00	; 0
     51c:	0e 94 12 01 	call	0x224	; 0x224 <I2C_Write>
	I2C_Write(ssCharMap[CHAR_D]);
     520:	8e ee       	ldi	r24, 0xEE	; 238
     522:	0e 94 12 01 	call	0x224	; 0x224 <I2C_Write>
	I2C_Write(ssCharMap[CHAR_A]);
     526:	8a ef       	ldi	r24, 0xFA	; 250
     528:	0e 94 12 01 	call	0x224	; 0x224 <I2C_Write>
	I2C_Write(ssCharMap[tensDays]);										// days tens pos
     52c:	f8 01       	movw	r30, r16
     52e:	e3 59       	subi	r30, 0x93	; 147
     530:	f8 4f       	sbci	r31, 0xF8	; 248
     532:	80 81       	ld	r24, Z
     534:	0e 94 12 01 	call	0x224	; 0x224 <I2C_Write>
	I2C_Write(ssCharMap[onesDays]);										// days ones pos
     538:	c3 59       	subi	r28, 0x93	; 147
     53a:	d8 4f       	sbci	r29, 0xF8	; 248
     53c:	88 81       	ld	r24, Y
     53e:	0e 94 12 01 	call	0x224	; 0x224 <I2C_Write>
	I2C_Stop();
     542:	84 e9       	ldi	r24, 0x94	; 148
     544:	80 93 bc 00 	sts	0x00BC, r24
}
     548:	df 91       	pop	r29
     54a:	cf 91       	pop	r28
     54c:	1f 91       	pop	r17
     54e:	0f 91       	pop	r16
     550:	08 95       	ret

00000552 <SS_DisplayTimeSetDayOfWeek>:

void SS_DisplayTimeSetDayOfWeek(byte dayOfWeek)							// Display 'set day of week' to SS display
{	int tensDayOfWeek = dayOfWeek / 10;
     552:	0f 93       	push	r16
     554:	1f 93       	push	r17
     556:	cf 93       	push	r28
     558:	df 93       	push	r29
     55a:	cd ec       	ldi	r28, 0xCD	; 205
     55c:	8c 9f       	mul	r24, r28
     55e:	c1 2d       	mov	r28, r1
     560:	11 24       	eor	r1, r1
     562:	2c 2f       	mov	r18, r28
     564:	26 95       	lsr	r18
     566:	26 95       	lsr	r18
     568:	26 95       	lsr	r18
	int onesDayOfWeek = dayOfWeek - (dayOfWeek / 10) * 10;
     56a:	02 2f       	mov	r16, r18
     56c:	10 e0       	ldi	r17, 0x00	; 0
     56e:	36 ef       	ldi	r19, 0xF6	; 246
     570:	32 03       	mulsu	r19, r18
     572:	e0 01       	movw	r28, r0
     574:	11 24       	eor	r1, r1
     576:	c8 0f       	add	r28, r24
     578:	d1 1d       	adc	r29, r1
    }
    return foundCount;													// none detected, so return 0.
}

void I2C_Start (byte slaveAddr)											// Look for a device at the specified address.  Same as I2C_Detect.
{   I2C_Detect(slaveAddr);
     57a:	80 e2       	ldi	r24, 0x20	; 32
     57c:	0e 94 d0 00 	call	0x1a0	; 0x1a0 <I2C_Detect>
void SS_DisplayTimeSetDayOfWeek(byte dayOfWeek)							// Display 'set day of week' to SS display
{	int tensDayOfWeek = dayOfWeek / 10;
	int onesDayOfWeek = dayOfWeek - (dayOfWeek / 10) * 10;

	I2C_Start(CUST_SS_LED_ADDR);										// send bus address
	I2C_Write(0);
     580:	80 e0       	ldi	r24, 0x00	; 0
     582:	0e 94 12 01 	call	0x224	; 0x224 <I2C_Write>
	I2C_Write(ssCharMap[CHAR_D]);
     586:	8e ee       	ldi	r24, 0xEE	; 238
     588:	0e 94 12 01 	call	0x224	; 0x224 <I2C_Write>
	I2C_Write(ssCharMap[CHAR_W]);
     58c:	8e e0       	ldi	r24, 0x0E	; 14
     58e:	0e 94 12 01 	call	0x224	; 0x224 <I2C_Write>
	I2C_Write(ssCharMap[tensDayOfWeek]);								// day of week tens pos
     592:	f8 01       	movw	r30, r16
     594:	e3 59       	subi	r30, 0x93	; 147
     596:	f8 4f       	sbci	r31, 0xF8	; 248
     598:	80 81       	ld	r24, Z
     59a:	0e 94 12 01 	call	0x224	; 0x224 <I2C_Write>
	I2C_Write(ssCharMap[onesDayOfWeek]);								// day of week ones pos
     59e:	c3 59       	subi	r28, 0x93	; 147
     5a0:	d8 4f       	sbci	r29, 0xF8	; 248
     5a2:	88 81       	ld	r24, Y
     5a4:	0e 94 12 01 	call	0x224	; 0x224 <I2C_Write>
	I2C_Stop();
     5a8:	84 e9       	ldi	r24, 0x94	; 148
     5aa:	80 93 bc 00 	sts	0x00BC, r24
}
     5ae:	df 91       	pop	r29
     5b0:	cf 91       	pop	r28
     5b2:	1f 91       	pop	r17
     5b4:	0f 91       	pop	r16
     5b6:	08 95       	ret

000005b8 <SS_DisplayTimeSetMonths>:

void SS_DisplayTimeSetMonths(byte months)								// Display 'set month of year' to SS display
{	int tensMonths = months / 10;
     5b8:	0f 93       	push	r16
     5ba:	1f 93       	push	r17
     5bc:	cf 93       	push	r28
     5be:	df 93       	push	r29
     5c0:	cd ec       	ldi	r28, 0xCD	; 205
     5c2:	8c 9f       	mul	r24, r28
     5c4:	c1 2d       	mov	r28, r1
     5c6:	11 24       	eor	r1, r1
     5c8:	2c 2f       	mov	r18, r28
     5ca:	26 95       	lsr	r18
     5cc:	26 95       	lsr	r18
     5ce:	26 95       	lsr	r18
	int onesMonths = months - (months / 10) * 10;
     5d0:	02 2f       	mov	r16, r18
     5d2:	10 e0       	ldi	r17, 0x00	; 0
     5d4:	36 ef       	ldi	r19, 0xF6	; 246
     5d6:	32 03       	mulsu	r19, r18
     5d8:	e0 01       	movw	r28, r0
     5da:	11 24       	eor	r1, r1
     5dc:	c8 0f       	add	r28, r24
     5de:	d1 1d       	adc	r29, r1
    }
    return foundCount;													// none detected, so return 0.
}

void I2C_Start (byte slaveAddr)											// Look for a device at the specified address.  Same as I2C_Detect.
{   I2C_Detect(slaveAddr);
     5e0:	80 e2       	ldi	r24, 0x20	; 32
     5e2:	0e 94 d0 00 	call	0x1a0	; 0x1a0 <I2C_Detect>
void SS_DisplayTimeSetMonths(byte months)								// Display 'set month of year' to SS display
{	int tensMonths = months / 10;
	int onesMonths = months - (months / 10) * 10;

	I2C_Start(CUST_SS_LED_ADDR);										// send bus address
	I2C_Write(0);
     5e6:	80 e0       	ldi	r24, 0x00	; 0
     5e8:	0e 94 12 01 	call	0x224	; 0x224 <I2C_Write>
	I2C_Write(ssCharMap[CHAR_M]);
     5ec:	8a e1       	ldi	r24, 0x1A	; 26
     5ee:	0e 94 12 01 	call	0x224	; 0x224 <I2C_Write>
	I2C_Write(ssCharMap[CHAR_O]);
     5f2:	8e ee       	ldi	r24, 0xEE	; 238
     5f4:	0e 94 12 01 	call	0x224	; 0x224 <I2C_Write>
	I2C_Write(ssCharMap[tensMonths]);									// months tens pos
     5f8:	f8 01       	movw	r30, r16
     5fa:	e3 59       	subi	r30, 0x93	; 147
     5fc:	f8 4f       	sbci	r31, 0xF8	; 248
     5fe:	80 81       	ld	r24, Z
     600:	0e 94 12 01 	call	0x224	; 0x224 <I2C_Write>
	I2C_Write(ssCharMap[onesMonths]);									// months ones pos
     604:	c3 59       	subi	r28, 0x93	; 147
     606:	d8 4f       	sbci	r29, 0xF8	; 248
     608:	88 81       	ld	r24, Y
     60a:	0e 94 12 01 	call	0x224	; 0x224 <I2C_Write>
	I2C_Stop();
     60e:	84 e9       	ldi	r24, 0x94	; 148
     610:	80 93 bc 00 	sts	0x00BC, r24
}
     614:	df 91       	pop	r29
     616:	cf 91       	pop	r28
     618:	1f 91       	pop	r17
     61a:	0f 91       	pop	r16
     61c:	08 95       	ret

0000061e <SS_DisplayTimeSetYears>:

void SS_DisplayTimeSetYears(byte years)									// Display 'set year' to SS display
{	years -= 2000;
     61e:	0f 93       	push	r16
     620:	1f 93       	push	r17
     622:	cf 93       	push	r28
     624:	df 93       	push	r29
     626:	80 5d       	subi	r24, 0xD0	; 208
	int tensYears = years / 10;
     628:	cd ec       	ldi	r28, 0xCD	; 205
     62a:	8c 9f       	mul	r24, r28
     62c:	c1 2d       	mov	r28, r1
     62e:	11 24       	eor	r1, r1
     630:	2c 2f       	mov	r18, r28
     632:	26 95       	lsr	r18
     634:	26 95       	lsr	r18
     636:	26 95       	lsr	r18
	int onesYears = years - (years / 10) * 10;
     638:	02 2f       	mov	r16, r18
     63a:	10 e0       	ldi	r17, 0x00	; 0
     63c:	36 ef       	ldi	r19, 0xF6	; 246
     63e:	32 03       	mulsu	r19, r18
     640:	e0 01       	movw	r28, r0
     642:	11 24       	eor	r1, r1
     644:	c8 0f       	add	r28, r24
     646:	d1 1d       	adc	r29, r1
    }
    return foundCount;													// none detected, so return 0.
}

void I2C_Start (byte slaveAddr)											// Look for a device at the specified address.  Same as I2C_Detect.
{   I2C_Detect(slaveAddr);
     648:	80 e2       	ldi	r24, 0x20	; 32
     64a:	0e 94 d0 00 	call	0x1a0	; 0x1a0 <I2C_Detect>
{	years -= 2000;
	int tensYears = years / 10;
	int onesYears = years - (years / 10) * 10;

	I2C_Start(CUST_SS_LED_ADDR);										// send bus address
	I2C_Write(0);
     64e:	80 e0       	ldi	r24, 0x00	; 0
     650:	0e 94 12 01 	call	0x224	; 0x224 <I2C_Write>
	I2C_Write(ssCharMap[CHAR_Y]);
     654:	82 eb       	ldi	r24, 0xB2	; 178
     656:	0e 94 12 01 	call	0x224	; 0x224 <I2C_Write>
	I2C_Write(ssCharMap[CHAR_R]);
     65a:	8a ef       	ldi	r24, 0xFA	; 250
     65c:	0e 94 12 01 	call	0x224	; 0x224 <I2C_Write>
	I2C_Write(ssCharMap[tensYears]);									// years tens pos
     660:	f8 01       	movw	r30, r16
     662:	e3 59       	subi	r30, 0x93	; 147
     664:	f8 4f       	sbci	r31, 0xF8	; 248
     666:	80 81       	ld	r24, Z
     668:	0e 94 12 01 	call	0x224	; 0x224 <I2C_Write>
	I2C_Write(ssCharMap[onesYears]);									// years ones pos
     66c:	c3 59       	subi	r28, 0x93	; 147
     66e:	d8 4f       	sbci	r29, 0xF8	; 248
     670:	88 81       	ld	r24, Y
     672:	0e 94 12 01 	call	0x224	; 0x224 <I2C_Write>
	I2C_Stop();
     676:	84 e9       	ldi	r24, 0x94	; 148
     678:	80 93 bc 00 	sts	0x00BC, r24
}
     67c:	df 91       	pop	r29
     67e:	cf 91       	pop	r28
     680:	1f 91       	pop	r17
     682:	0f 91       	pop	r16
     684:	08 95       	ret

00000686 <SS_DisplayTimeSetHours>:

void SS_DisplayTimeSetHours(byte hours)									// Display 'set time hours' to SS display
{	int tensHours = hours / 10;
     686:	0f 93       	push	r16
     688:	1f 93       	push	r17
     68a:	cf 93       	push	r28
     68c:	df 93       	push	r29
     68e:	cd ec       	ldi	r28, 0xCD	; 205
     690:	8c 9f       	mul	r24, r28
     692:	c1 2d       	mov	r28, r1
     694:	11 24       	eor	r1, r1
     696:	2c 2f       	mov	r18, r28
     698:	26 95       	lsr	r18
     69a:	26 95       	lsr	r18
     69c:	26 95       	lsr	r18
	int onesHours = hours - (hours / 10) * 10;
     69e:	02 2f       	mov	r16, r18
     6a0:	10 e0       	ldi	r17, 0x00	; 0
     6a2:	36 ef       	ldi	r19, 0xF6	; 246
     6a4:	32 03       	mulsu	r19, r18
     6a6:	e0 01       	movw	r28, r0
     6a8:	11 24       	eor	r1, r1
     6aa:	c8 0f       	add	r28, r24
     6ac:	d1 1d       	adc	r29, r1
    }
    return foundCount;													// none detected, so return 0.
}

void I2C_Start (byte slaveAddr)											// Look for a device at the specified address.  Same as I2C_Detect.
{   I2C_Detect(slaveAddr);
     6ae:	80 e2       	ldi	r24, 0x20	; 32
     6b0:	0e 94 d0 00 	call	0x1a0	; 0x1a0 <I2C_Detect>
void SS_DisplayTimeSetHours(byte hours)									// Display 'set time hours' to SS display
{	int tensHours = hours / 10;
	int onesHours = hours - (hours / 10) * 10;

	I2C_Start(CUST_SS_LED_ADDR);										// send bus address
	I2C_Write(0);
     6b4:	80 e0       	ldi	r24, 0x00	; 0
     6b6:	0e 94 12 01 	call	0x224	; 0x224 <I2C_Write>
	I2C_Write(ssCharMap[tensHours]);									// hours tens pos
     6ba:	f8 01       	movw	r30, r16
     6bc:	e3 59       	subi	r30, 0x93	; 147
     6be:	f8 4f       	sbci	r31, 0xF8	; 248
     6c0:	80 81       	ld	r24, Z
     6c2:	0e 94 12 01 	call	0x224	; 0x224 <I2C_Write>
	I2C_Write(ssCharMap[onesHours]);									// hours ones pos
     6c6:	c3 59       	subi	r28, 0x93	; 147
     6c8:	d8 4f       	sbci	r29, 0xF8	; 248
     6ca:	88 81       	ld	r24, Y
     6cc:	0e 94 12 01 	call	0x224	; 0x224 <I2C_Write>
	I2C_Write(ssCharMap[CHAR_S]);
     6d0:	86 e7       	ldi	r24, 0x76	; 118
     6d2:	0e 94 12 01 	call	0x224	; 0x224 <I2C_Write>
	I2C_Write(ssCharMap[CHAR_H]);
     6d6:	8a eb       	ldi	r24, 0xBA	; 186
     6d8:	0e 94 12 01 	call	0x224	; 0x224 <I2C_Write>
	I2C_Stop();
     6dc:	84 e9       	ldi	r24, 0x94	; 148
     6de:	80 93 bc 00 	sts	0x00BC, r24
}
     6e2:	df 91       	pop	r29
     6e4:	cf 91       	pop	r28
     6e6:	1f 91       	pop	r17
     6e8:	0f 91       	pop	r16
     6ea:	08 95       	ret

000006ec <SS_DisplayTimeSetMinutes>:

void SS_DisplayTimeSetMinutes(byte minutes)								// Display 'set time minutes' to SS display
{	int tensMinutes = minutes / 10;
     6ec:	0f 93       	push	r16
     6ee:	1f 93       	push	r17
     6f0:	cf 93       	push	r28
     6f2:	df 93       	push	r29
     6f4:	cd ec       	ldi	r28, 0xCD	; 205
     6f6:	8c 9f       	mul	r24, r28
     6f8:	c1 2d       	mov	r28, r1
     6fa:	11 24       	eor	r1, r1
     6fc:	2c 2f       	mov	r18, r28
     6fe:	26 95       	lsr	r18
     700:	26 95       	lsr	r18
     702:	26 95       	lsr	r18
	int onesMinutes = minutes - (minutes / 10) * 10;
     704:	02 2f       	mov	r16, r18
     706:	10 e0       	ldi	r17, 0x00	; 0
     708:	36 ef       	ldi	r19, 0xF6	; 246
     70a:	32 03       	mulsu	r19, r18
     70c:	e0 01       	movw	r28, r0
     70e:	11 24       	eor	r1, r1
     710:	c8 0f       	add	r28, r24
     712:	d1 1d       	adc	r29, r1
    }
    return foundCount;													// none detected, so return 0.
}

void I2C_Start (byte slaveAddr)											// Look for a device at the specified address.  Same as I2C_Detect.
{   I2C_Detect(slaveAddr);
     714:	80 e2       	ldi	r24, 0x20	; 32
     716:	0e 94 d0 00 	call	0x1a0	; 0x1a0 <I2C_Detect>
void SS_DisplayTimeSetMinutes(byte minutes)								// Display 'set time minutes' to SS display
{	int tensMinutes = minutes / 10;
	int onesMinutes = minutes - (minutes / 10) * 10;

	I2C_Start(CUST_SS_LED_ADDR);										// send bus address
	I2C_Write(0);														// colon off during set time
     71a:	80 e0       	ldi	r24, 0x00	; 0
     71c:	0e 94 12 01 	call	0x224	; 0x224 <I2C_Write>
	I2C_Write(ssCharMap[CHAR_S]);
     720:	86 e7       	ldi	r24, 0x76	; 118
     722:	0e 94 12 01 	call	0x224	; 0x224 <I2C_Write>
	I2C_Write(ssCharMap[CHAR_SPACE]);
     726:	80 e0       	ldi	r24, 0x00	; 0
     728:	0e 94 12 01 	call	0x224	; 0x224 <I2C_Write>
	I2C_Write(ssCharMap[tensMinutes]);									// minutes tens pos
     72c:	f8 01       	movw	r30, r16
     72e:	e3 59       	subi	r30, 0x93	; 147
     730:	f8 4f       	sbci	r31, 0xF8	; 248
     732:	80 81       	ld	r24, Z
     734:	0e 94 12 01 	call	0x224	; 0x224 <I2C_Write>
	I2C_Write(ssCharMap[onesMinutes]);									// minutes ones pos
     738:	c3 59       	subi	r28, 0x93	; 147
     73a:	d8 4f       	sbci	r29, 0xF8	; 248
     73c:	88 81       	ld	r24, Y
     73e:	0e 94 12 01 	call	0x224	; 0x224 <I2C_Write>
	I2C_Stop();
     742:	84 e9       	ldi	r24, 0x94	; 148
     744:	80 93 bc 00 	sts	0x00BC, r24
}
     748:	df 91       	pop	r29
     74a:	cf 91       	pop	r28
     74c:	1f 91       	pop	r17
     74e:	0f 91       	pop	r16
     750:	08 95       	ret

00000752 <SS_DisplayTimeSetSeconds>:

void SS_DisplayTimeSetSeconds(byte seconds)								// Display 'set time seconds' to SS display
{	int tensSeconds = seconds / 10;
     752:	0f 93       	push	r16
     754:	1f 93       	push	r17
     756:	cf 93       	push	r28
     758:	df 93       	push	r29
     75a:	cd ec       	ldi	r28, 0xCD	; 205
     75c:	8c 9f       	mul	r24, r28
     75e:	c1 2d       	mov	r28, r1
     760:	11 24       	eor	r1, r1
     762:	2c 2f       	mov	r18, r28
     764:	26 95       	lsr	r18
     766:	26 95       	lsr	r18
     768:	26 95       	lsr	r18
	int onesSeconds = seconds - (seconds / 10) * 10;
     76a:	02 2f       	mov	r16, r18
     76c:	10 e0       	ldi	r17, 0x00	; 0
     76e:	36 ef       	ldi	r19, 0xF6	; 246
     770:	32 03       	mulsu	r19, r18
     772:	e0 01       	movw	r28, r0
     774:	11 24       	eor	r1, r1
     776:	c8 0f       	add	r28, r24
     778:	d1 1d       	adc	r29, r1
    }
    return foundCount;													// none detected, so return 0.
}

void I2C_Start (byte slaveAddr)											// Look for a device at the specified address.  Same as I2C_Detect.
{   I2C_Detect(slaveAddr);
     77a:	80 e2       	ldi	r24, 0x20	; 32
     77c:	0e 94 d0 00 	call	0x1a0	; 0x1a0 <I2C_Detect>
void SS_DisplayTimeSetSeconds(byte seconds)								// Display 'set time seconds' to SS display
{	int tensSeconds = seconds / 10;
	int onesSeconds = seconds - (seconds / 10) * 10;

	I2C_Start(CUST_SS_LED_ADDR);										// send bus address
	I2C_Write(0);														// colon off during set time
     780:	80 e0       	ldi	r24, 0x00	; 0
     782:	0e 94 12 01 	call	0x224	; 0x224 <I2C_Write>
	I2C_Write(ssCharMap[CHAR_S]);
     786:	86 e7       	ldi	r24, 0x76	; 118
     788:	0e 94 12 01 	call	0x224	; 0x224 <I2C_Write>
	I2C_Write(ssCharMap[CHAR_E]);
     78c:	8c e7       	ldi	r24, 0x7C	; 124
     78e:	0e 94 12 01 	call	0x224	; 0x224 <I2C_Write>
	I2C_Write(ssCharMap[tensSeconds]);									// seconds tens pos
     792:	f8 01       	movw	r30, r16
     794:	e3 59       	subi	r30, 0x93	; 147
     796:	f8 4f       	sbci	r31, 0xF8	; 248
     798:	80 81       	ld	r24, Z
     79a:	0e 94 12 01 	call	0x224	; 0x224 <I2C_Write>
	I2C_Write(ssCharMap[onesSeconds]);									// seconds ones pos
     79e:	c3 59       	subi	r28, 0x93	; 147
     7a0:	d8 4f       	sbci	r29, 0xF8	; 248
     7a2:	88 81       	ld	r24, Y
     7a4:	0e 94 12 01 	call	0x224	; 0x224 <I2C_Write>
	I2C_Stop();
     7a8:	84 e9       	ldi	r24, 0x94	; 148
     7aa:	80 93 bc 00 	sts	0x00BC, r24
}
     7ae:	df 91       	pop	r29
     7b0:	cf 91       	pop	r28
     7b2:	1f 91       	pop	r17
     7b4:	0f 91       	pop	r16
     7b6:	08 95       	ret

000007b8 <SS_DisplayTimeSetMilitaryTime>:

void SS_DisplayTimeSetMilitaryTime(byte milTimeSwitch)					// Display 'set military time' to SS display
{	I2C_Start(CUST_SS_LED_ADDR);										// send bus address
     7b8:	cf 93       	push	r28
     7ba:	c8 2f       	mov	r28, r24
    }
    return foundCount;													// none detected, so return 0.
}

void I2C_Start (byte slaveAddr)											// Look for a device at the specified address.  Same as I2C_Detect.
{   I2C_Detect(slaveAddr);
     7bc:	80 e2       	ldi	r24, 0x20	; 32
     7be:	0e 94 d0 00 	call	0x1a0	; 0x1a0 <I2C_Detect>
	I2C_Stop();
}

void SS_DisplayTimeSetMilitaryTime(byte milTimeSwitch)					// Display 'set military time' to SS display
{	I2C_Start(CUST_SS_LED_ADDR);										// send bus address
	I2C_Write(0);														// colon off during set time
     7c2:	80 e0       	ldi	r24, 0x00	; 0
     7c4:	0e 94 12 01 	call	0x224	; 0x224 <I2C_Write>
	I2C_Write(ssCharMap[2]);
     7c8:	8c ed       	ldi	r24, 0xDC	; 220
     7ca:	0e 94 12 01 	call	0x224	; 0x224 <I2C_Write>
	I2C_Write(ssCharMap[4]);
     7ce:	82 eb       	ldi	r24, 0xB2	; 178
     7d0:	0e 94 12 01 	call	0x224	; 0x224 <I2C_Write>
	I2C_Write(ssCharMap[CHAR_SPACE]);									// minutes tens pos
     7d4:	80 e0       	ldi	r24, 0x00	; 0
     7d6:	0e 94 12 01 	call	0x224	; 0x224 <I2C_Write>
	I2C_Write(ssCharMap[milTimeSwitch]);								// minutes ones pos
     7da:	ec 2f       	mov	r30, r28
     7dc:	f0 e0       	ldi	r31, 0x00	; 0
     7de:	e3 59       	subi	r30, 0x93	; 147
     7e0:	f8 4f       	sbci	r31, 0xF8	; 248
     7e2:	80 81       	ld	r24, Z
     7e4:	0e 94 12 01 	call	0x224	; 0x224 <I2C_Write>
	I2C_Stop();
     7e8:	84 e9       	ldi	r24, 0x94	; 148
     7ea:	80 93 bc 00 	sts	0x00BC, r24
}
     7ee:	cf 91       	pop	r28
     7f0:	08 95       	ret

000007f2 <SS_DisplayTimeSetWakeToRadio>:

void SS_DisplayTimeSetWakeToRadio(byte wakeToRadio)						// Display 'set wake to radio' to SS display
{	I2C_Start(CUST_SS_LED_ADDR);										// send bus address
     7f2:	cf 93       	push	r28
     7f4:	c8 2f       	mov	r28, r24
    }
    return foundCount;													// none detected, so return 0.
}

void I2C_Start (byte slaveAddr)											// Look for a device at the specified address.  Same as I2C_Detect.
{   I2C_Detect(slaveAddr);
     7f6:	80 e2       	ldi	r24, 0x20	; 32
     7f8:	0e 94 d0 00 	call	0x1a0	; 0x1a0 <I2C_Detect>
	I2C_Stop();
}

void SS_DisplayTimeSetWakeToRadio(byte wakeToRadio)						// Display 'set wake to radio' to SS display
{	I2C_Start(CUST_SS_LED_ADDR);										// send bus address
	I2C_Write(0);														// colon off during set time
     7fc:	80 e0       	ldi	r24, 0x00	; 0
     7fe:	0e 94 12 01 	call	0x224	; 0x224 <I2C_Write>
	I2C_Write(CHAR_W);													// wake
     802:	80 e2       	ldi	r24, 0x20	; 32
     804:	0e 94 12 01 	call	0x224	; 0x224 <I2C_Write>
	I2C_Write(CHAR_R);													// radio
     808:	8b e1       	ldi	r24, 0x1B	; 27
     80a:	0e 94 12 01 	call	0x224	; 0x224 <I2C_Write>
	I2C_Write(ssCharMap[CHAR_SPACE]);									// minutes tens pos
     80e:	80 e0       	ldi	r24, 0x00	; 0
     810:	0e 94 12 01 	call	0x224	; 0x224 <I2C_Write>
	I2C_Write(ssCharMap[wakeToRadio]);									// minutes ones pos
     814:	ec 2f       	mov	r30, r28
     816:	f0 e0       	ldi	r31, 0x00	; 0
     818:	e3 59       	subi	r30, 0x93	; 147
     81a:	f8 4f       	sbci	r31, 0xF8	; 248
     81c:	80 81       	ld	r24, Z
     81e:	0e 94 12 01 	call	0x224	; 0x224 <I2C_Write>
	I2C_Stop();
     822:	84 e9       	ldi	r24, 0x94	; 148
     824:	80 93 bc 00 	sts	0x00BC, r24
}
     828:	cf 91       	pop	r28
     82a:	08 95       	ret

0000082c <SS_BlankDisplay>:

void SS_BlankDisplay()													// Blank out the SS display
{	SS_DisplayChars(CHAR_SPACE,CHAR_SPACE,CHAR_SPACE,CHAR_SPACE);
     82c:	25 e2       	ldi	r18, 0x25	; 37
     82e:	45 e2       	ldi	r20, 0x25	; 37
     830:	65 e2       	ldi	r22, 0x25	; 37
     832:	85 e2       	ldi	r24, 0x25	; 37
     834:	0e 94 7f 01 	call	0x2fe	; 0x2fe <SS_DisplayChars>
     838:	08 95       	ret

0000083a <ToggleColon>:
}

void ToggleColon(uint32_t mode)											// Toggle the SS display colon
{	
	if (mode & WAKE) {
     83a:	74 ff       	sbrs	r23, 4
     83c:	0a c0       	rjmp	.+20     	; 0x852 <ToggleColon+0x18>
		if (g_state.colonOn) {
     83e:	80 91 1a 01 	lds	r24, 0x011A
     842:	88 23       	and	r24, r24
     844:	19 f0       	breq	.+6      	; 0x84c <ToggleColon+0x12>
void ColonOn()															// Set the SS display colon on
{	g_state.colonOn = TRUE;
}

void ColonOff()															// Set the SS display colon off
{	g_state.colonOn = FALSE;
     846:	10 92 1a 01 	sts	0x011A, r1
     84a:	08 95       	ret
		}
	}
}

void ColonOn()															// Set the SS display colon on
{	g_state.colonOn = TRUE;
     84c:	81 e0       	ldi	r24, 0x01	; 1
     84e:	80 93 1a 01 	sts	0x011A, r24
     852:	08 95       	ret

00000854 <LCD_Reset>:

/************************************************************************/
/* Custom Liquid Crystal Display Routines                               */
/************************************************************************/
void LCD_Reset()														// Clear out the LCD display
{	lcd_led(0);
     854:	80 e0       	ldi	r24, 0x00	; 0
     856:	0e 94 63 20 	call	0x40c6	; 0x40c6 <lcd_led>
	lcd_home();
     85a:	0e 94 76 20 	call	0x40ec	; 0x40ec <lcd_home>
	lcd_clrscr();
     85e:	0e 94 5f 20 	call	0x40be	; 0x40be <lcd_clrscr>
	lcd_gotoxy(0,0);
     862:	60 e0       	ldi	r22, 0x00	; 0
     864:	80 e0       	ldi	r24, 0x00	; 0
     866:	0e 94 55 20 	call	0x40aa	; 0x40aa <lcd_gotoxy>
     86a:	08 95       	ret

0000086c <LCD_DisplayTune>:
	lcd_putc(':');
	LCD_DisplaySeconds(seconds);
	LCD_DisplayTemp(tempF);
}

void LCD_DisplayTune(uint32_t tune) {
     86c:	6f 92       	push	r6
     86e:	7f 92       	push	r7
     870:	8f 92       	push	r8
     872:	9f 92       	push	r9
     874:	af 92       	push	r10
     876:	bf 92       	push	r11
     878:	cf 92       	push	r12
     87a:	df 92       	push	r13
     87c:	ef 92       	push	r14
     87e:	ff 92       	push	r15
     880:	0f 93       	push	r16
     882:	1f 93       	push	r17
     884:	cf 93       	push	r28
     886:	df 93       	push	r29
     888:	cd b7       	in	r28, 0x3d	; 61
     88a:	de b7       	in	r29, 0x3e	; 62
     88c:	2a 97       	sbiw	r28, 0x0a	; 10
     88e:	0f b6       	in	r0, 0x3f	; 63
     890:	f8 94       	cli
     892:	de bf       	out	0x3e, r29	; 62
     894:	0f be       	out	0x3f, r0	; 63
     896:	cd bf       	out	0x3d, r28	; 61
	char buf[10];

	tune = tune / 100;
     898:	0f 2e       	mov	r0, r31
     89a:	f4 e6       	ldi	r31, 0x64	; 100
     89c:	8f 2e       	mov	r8, r31
     89e:	91 2c       	mov	r9, r1
     8a0:	a1 2c       	mov	r10, r1
     8a2:	b1 2c       	mov	r11, r1
     8a4:	f0 2d       	mov	r31, r0
     8a6:	a5 01       	movw	r20, r10
     8a8:	94 01       	movw	r18, r8
     8aa:	0e 94 42 24 	call	0x4884	; 0x4884 <__udivmodsi4>
     8ae:	69 01       	movw	r12, r18
     8b0:	7a 01       	movw	r14, r20
	byte hundredsTune = tune / 1000;
     8b2:	ca 01       	movw	r24, r20
     8b4:	b9 01       	movw	r22, r18
     8b6:	28 ee       	ldi	r18, 0xE8	; 232
     8b8:	33 e0       	ldi	r19, 0x03	; 3
     8ba:	40 e0       	ldi	r20, 0x00	; 0
     8bc:	50 e0       	ldi	r21, 0x00	; 0
     8be:	0e 94 42 24 	call	0x4884	; 0x4884 <__udivmodsi4>
     8c2:	12 2f       	mov	r17, r18
	byte tensTune = (tune - (tune / 1000 * 1000)) / 100;
     8c4:	a5 01       	movw	r20, r10
     8c6:	94 01       	movw	r18, r8
     8c8:	0e 94 42 24 	call	0x4884	; 0x4884 <__udivmodsi4>
     8cc:	02 2f       	mov	r16, r18
	byte onesTune = (tune - (tune / 100 * 100)) /10;
     8ce:	c7 01       	movw	r24, r14
     8d0:	b6 01       	movw	r22, r12
     8d2:	a5 01       	movw	r20, r10
     8d4:	94 01       	movw	r18, r8
     8d6:	0e 94 42 24 	call	0x4884	; 0x4884 <__udivmodsi4>
     8da:	0f 2e       	mov	r0, r31
     8dc:	fa e0       	ldi	r31, 0x0A	; 10
     8de:	8f 2e       	mov	r8, r31
     8e0:	91 2c       	mov	r9, r1
     8e2:	a1 2c       	mov	r10, r1
     8e4:	b1 2c       	mov	r11, r1
     8e6:	f0 2d       	mov	r31, r0
     8e8:	a5 01       	movw	r20, r10
     8ea:	94 01       	movw	r18, r8
     8ec:	0e 94 42 24 	call	0x4884	; 0x4884 <__udivmodsi4>
     8f0:	62 2e       	mov	r6, r18
	byte tenthsTunes = tune - ((tune / 10) * 10);
     8f2:	c7 01       	movw	r24, r14
     8f4:	b6 01       	movw	r22, r12
     8f6:	a5 01       	movw	r20, r10
     8f8:	94 01       	movw	r18, r8
     8fa:	0e 94 42 24 	call	0x4884	; 0x4884 <__udivmodsi4>
     8fe:	f6 2e       	mov	r15, r22

	LCD_Reset();
     900:	0e 94 2a 04 	call	0x854	; 0x854 <LCD_Reset>
	lcd_gotoxy(TUNE_X,TUNE_Y);
     904:	60 e0       	ldi	r22, 0x00	; 0
     906:	80 e0       	ldi	r24, 0x00	; 0
     908:	0e 94 55 20 	call	0x40aa	; 0x40aa <lcd_gotoxy>
	if (hundredsTune != 0 ) {
     90c:	11 23       	and	r17, r17
     90e:	61 f0       	breq	.+24     	; 0x928 <__stack+0x29>
     910:	4a e0       	ldi	r20, 0x0A	; 10
     912:	be 01       	movw	r22, r28
     914:	6f 5f       	subi	r22, 0xFF	; 255
     916:	7f 4f       	sbci	r23, 0xFF	; 255
     918:	81 2f       	mov	r24, r17
     91a:	90 e0       	ldi	r25, 0x00	; 0
     91c:	0e 94 9a 25 	call	0x4b34	; 0x4b34 <__itoa_ncheck>
		itoa(hundredsTune, buf, 10);
		lcd_putc(*buf);
     920:	89 81       	ldd	r24, Y+1	; 0x01
     922:	0e 94 7a 20 	call	0x40f4	; 0x40f4 <lcd_putc>
     926:	03 c0       	rjmp	.+6      	; 0x92e <__stack+0x2f>
	} else {
		lcd_putc(' ');
     928:	80 e2       	ldi	r24, 0x20	; 32
     92a:	0e 94 7a 20 	call	0x40f4	; 0x40f4 <lcd_putc>
     92e:	4a e0       	ldi	r20, 0x0A	; 10
     930:	be 01       	movw	r22, r28
     932:	6f 5f       	subi	r22, 0xFF	; 255
     934:	7f 4f       	sbci	r23, 0xFF	; 255
     936:	80 2f       	mov	r24, r16
     938:	90 e0       	ldi	r25, 0x00	; 0
     93a:	0e 94 9a 25 	call	0x4b34	; 0x4b34 <__itoa_ncheck>
	}
	itoa(tensTune, buf, 10);
	lcd_putc(*buf);
     93e:	89 81       	ldd	r24, Y+1	; 0x01
     940:	0e 94 7a 20 	call	0x40f4	; 0x40f4 <lcd_putc>
     944:	4a e0       	ldi	r20, 0x0A	; 10
     946:	be 01       	movw	r22, r28
     948:	6f 5f       	subi	r22, 0xFF	; 255
     94a:	7f 4f       	sbci	r23, 0xFF	; 255
     94c:	86 2d       	mov	r24, r6
     94e:	90 e0       	ldi	r25, 0x00	; 0
     950:	0e 94 9a 25 	call	0x4b34	; 0x4b34 <__itoa_ncheck>
	itoa(onesTune, buf, 10);
	lcd_putc(*buf);
     954:	89 81       	ldd	r24, Y+1	; 0x01
     956:	0e 94 7a 20 	call	0x40f4	; 0x40f4 <lcd_putc>
	lcd_putc('.');
     95a:	8e e2       	ldi	r24, 0x2E	; 46
     95c:	0e 94 7a 20 	call	0x40f4	; 0x40f4 <lcd_putc>
     960:	4a e0       	ldi	r20, 0x0A	; 10
     962:	be 01       	movw	r22, r28
     964:	6f 5f       	subi	r22, 0xFF	; 255
     966:	7f 4f       	sbci	r23, 0xFF	; 255
     968:	8f 2d       	mov	r24, r15
     96a:	90 e0       	ldi	r25, 0x00	; 0
     96c:	0e 94 9a 25 	call	0x4b34	; 0x4b34 <__itoa_ncheck>
	itoa(tenthsTunes, buf, 10);
	lcd_putc(*buf);
     970:	89 81       	ldd	r24, Y+1	; 0x01
     972:	0e 94 7a 20 	call	0x40f4	; 0x40f4 <lcd_putc>
}
     976:	2a 96       	adiw	r28, 0x0a	; 10
     978:	0f b6       	in	r0, 0x3f	; 63
     97a:	f8 94       	cli
     97c:	de bf       	out	0x3e, r29	; 62
     97e:	0f be       	out	0x3f, r0	; 63
     980:	cd bf       	out	0x3d, r28	; 61
     982:	df 91       	pop	r29
     984:	cf 91       	pop	r28
     986:	1f 91       	pop	r17
     988:	0f 91       	pop	r16
     98a:	ff 90       	pop	r15
     98c:	ef 90       	pop	r14
     98e:	df 90       	pop	r13
     990:	cf 90       	pop	r12
     992:	bf 90       	pop	r11
     994:	af 90       	pop	r10
     996:	9f 90       	pop	r9
     998:	8f 90       	pop	r8
     99a:	7f 90       	pop	r7
     99c:	6f 90       	pop	r6
     99e:	08 95       	ret

000009a0 <LCD_DisplayTemp>:

void LCD_DisplayTemp(byte tempF)										// Display current temperature in Fahrenheit on LCD
{	//debug("LCD_DisplayTemp()");
     9a0:	0f 93       	push	r16
     9a2:	1f 93       	push	r17
     9a4:	cf 93       	push	r28
     9a6:	df 93       	push	r29
     9a8:	cd b7       	in	r28, 0x3d	; 61
     9aa:	de b7       	in	r29, 0x3e	; 62
     9ac:	2a 97       	sbiw	r28, 0x0a	; 10
     9ae:	0f b6       	in	r0, 0x3f	; 63
     9b0:	f8 94       	cli
     9b2:	de bf       	out	0x3e, r29	; 62
     9b4:	0f be       	out	0x3f, r0	; 63
     9b6:	cd bf       	out	0x3d, r28	; 61
     9b8:	08 2f       	mov	r16, r24
	char buf[10];
	byte ones = 0, tens = 0, hundreds = 0;
	lcd_gotoxy(TEMP_X,TEMP_Y);
     9ba:	61 e0       	ldi	r22, 0x01	; 1
     9bc:	8c e0       	ldi	r24, 0x0C	; 12
     9be:	0e 94 55 20 	call	0x40aa	; 0x40aa <lcd_gotoxy>
    if (tempF > MAX_TEMP || MIN_TEMP < 0) {
     9c2:	09 37       	cpi	r16, 0x79	; 121
     9c4:	a0 f0       	brcs	.+40     	; 0x9ee <LCD_DisplayTemp+0x4e>
		lcd_putc('E');
     9c6:	85 e4       	ldi	r24, 0x45	; 69
     9c8:	0e 94 7a 20 	call	0x40f4	; 0x40f4 <lcd_putc>
		lcd_gotoxy(TEMP_X + 1,TEMP_Y);
     9cc:	61 e0       	ldi	r22, 0x01	; 1
     9ce:	8d e0       	ldi	r24, 0x0D	; 13
     9d0:	0e 94 55 20 	call	0x40aa	; 0x40aa <lcd_gotoxy>
		lcd_putc('R');
     9d4:	82 e5       	ldi	r24, 0x52	; 82
     9d6:	0e 94 7a 20 	call	0x40f4	; 0x40f4 <lcd_putc>
		lcd_gotoxy(TEMP_X + 2,TEMP_Y);
     9da:	61 e0       	ldi	r22, 0x01	; 1
     9dc:	8e e0       	ldi	r24, 0x0E	; 14
     9de:	0e 94 55 20 	call	0x40aa	; 0x40aa <lcd_gotoxy>
		lcd_putc('R');
     9e2:	82 e5       	ldi	r24, 0x52	; 82
     9e4:	0e 94 7a 20 	call	0x40f4	; 0x40f4 <lcd_putc>
}

void LCD_DisplayTemp(byte tempF)										// Display current temperature in Fahrenheit on LCD
{	//debug("LCD_DisplayTemp()");
	char buf[10];
	byte ones = 0, tens = 0, hundreds = 0;
     9e8:	10 e0       	ldi	r17, 0x00	; 0
     9ea:	00 e0       	ldi	r16, 0x00	; 0
     9ec:	1b c0       	rjmp	.+54     	; 0xa24 <LCD_DisplayTemp+0x84>
		lcd_gotoxy(TEMP_X + 1,TEMP_Y);
		lcd_putc('R');
		lcd_gotoxy(TEMP_X + 2,TEMP_Y);
		lcd_putc('R');
	} else {
		tens = tempF / 10;
     9ee:	1d ec       	ldi	r17, 0xCD	; 205
     9f0:	01 9f       	mul	r16, r17
     9f2:	11 2d       	mov	r17, r1
     9f4:	11 24       	eor	r1, r1
     9f6:	16 95       	lsr	r17
     9f8:	16 95       	lsr	r17
     9fa:	16 95       	lsr	r17
		hundreds = tempF / 100;
     9fc:	89 e2       	ldi	r24, 0x29	; 41
     9fe:	08 9f       	mul	r16, r24
     a00:	81 2d       	mov	r24, r1
     a02:	11 24       	eor	r1, r1
     a04:	82 95       	swap	r24
     a06:	8f 70       	andi	r24, 0x0F	; 15
		ones = (tempF - (hundreds * 100)) - (tens * 10);				// subtract out the hundreds and tens portion of the temp
     a08:	21 2f       	mov	r18, r17
     a0a:	22 0f       	add	r18, r18
     a0c:	92 2f       	mov	r25, r18
     a0e:	99 0f       	add	r25, r25
     a10:	99 0f       	add	r25, r25
     a12:	92 0f       	add	r25, r18
     a14:	91 95       	neg	r25
     a16:	24 e6       	ldi	r18, 0x64	; 100
     a18:	82 9f       	mul	r24, r18
     a1a:	90 19       	sub	r25, r0
     a1c:	11 24       	eor	r1, r1
     a1e:	09 0f       	add	r16, r25
	}
	if (!(hundreds > 0)) {
     a20:	81 11       	cpse	r24, r1
     a22:	04 c0       	rjmp	.+8      	; 0xa2c <LCD_DisplayTemp+0x8c>
		lcd_putc(' ');
     a24:	80 e2       	ldi	r24, 0x20	; 32
     a26:	0e 94 7a 20 	call	0x40f4	; 0x40f4 <lcd_putc>
     a2a:	0a c0       	rjmp	.+20     	; 0xa40 <LCD_DisplayTemp+0xa0>
     a2c:	4a e0       	ldi	r20, 0x0A	; 10
     a2e:	be 01       	movw	r22, r28
     a30:	6f 5f       	subi	r22, 0xFF	; 255
     a32:	7f 4f       	sbci	r23, 0xFF	; 255
     a34:	90 e0       	ldi	r25, 0x00	; 0
     a36:	0e 94 9a 25 	call	0x4b34	; 0x4b34 <__itoa_ncheck>
	} else {
		itoa(hundreds, buf, 10);
		lcd_putc(*buf);
     a3a:	89 81       	ldd	r24, Y+1	; 0x01
     a3c:	0e 94 7a 20 	call	0x40f4	; 0x40f4 <lcd_putc>
	}
	lcd_gotoxy(TEMP_X + 1,TEMP_Y);
     a40:	61 e0       	ldi	r22, 0x01	; 1
     a42:	8d e0       	ldi	r24, 0x0D	; 13
     a44:	0e 94 55 20 	call	0x40aa	; 0x40aa <lcd_gotoxy>
	if (!(tens > 0)) {
     a48:	11 11       	cpse	r17, r1
     a4a:	04 c0       	rjmp	.+8      	; 0xa54 <LCD_DisplayTemp+0xb4>
		lcd_putc(' ');
     a4c:	80 e2       	ldi	r24, 0x20	; 32
     a4e:	0e 94 7a 20 	call	0x40f4	; 0x40f4 <lcd_putc>
     a52:	0b c0       	rjmp	.+22     	; 0xa6a <LCD_DisplayTemp+0xca>
     a54:	4a e0       	ldi	r20, 0x0A	; 10
     a56:	be 01       	movw	r22, r28
     a58:	6f 5f       	subi	r22, 0xFF	; 255
     a5a:	7f 4f       	sbci	r23, 0xFF	; 255
     a5c:	81 2f       	mov	r24, r17
     a5e:	90 e0       	ldi	r25, 0x00	; 0
     a60:	0e 94 9a 25 	call	0x4b34	; 0x4b34 <__itoa_ncheck>
	} else {
		itoa(tens, buf, 10);
		lcd_putc(*buf);
     a64:	89 81       	ldd	r24, Y+1	; 0x01
     a66:	0e 94 7a 20 	call	0x40f4	; 0x40f4 <lcd_putc>
	}
	lcd_gotoxy(TEMP_X + 2,TEMP_Y);
     a6a:	61 e0       	ldi	r22, 0x01	; 1
     a6c:	8e e0       	ldi	r24, 0x0E	; 14
     a6e:	0e 94 55 20 	call	0x40aa	; 0x40aa <lcd_gotoxy>
     a72:	4a e0       	ldi	r20, 0x0A	; 10
     a74:	be 01       	movw	r22, r28
     a76:	6f 5f       	subi	r22, 0xFF	; 255
     a78:	7f 4f       	sbci	r23, 0xFF	; 255
     a7a:	80 2f       	mov	r24, r16
     a7c:	90 e0       	ldi	r25, 0x00	; 0
     a7e:	0e 94 9a 25 	call	0x4b34	; 0x4b34 <__itoa_ncheck>
	itoa(ones, buf, 10);
	lcd_putc(*buf);
     a82:	89 81       	ldd	r24, Y+1	; 0x01
     a84:	0e 94 7a 20 	call	0x40f4	; 0x40f4 <lcd_putc>
	lcd_gotoxy(TEMP_X + 3,TEMP_Y);
     a88:	61 e0       	ldi	r22, 0x01	; 1
     a8a:	8f e0       	ldi	r24, 0x0F	; 15
     a8c:	0e 94 55 20 	call	0x40aa	; 0x40aa <lcd_gotoxy>
	lcd_putc('F');
     a90:	86 e4       	ldi	r24, 0x46	; 70
     a92:	0e 94 7a 20 	call	0x40f4	; 0x40f4 <lcd_putc>
}
     a96:	2a 96       	adiw	r28, 0x0a	; 10
     a98:	0f b6       	in	r0, 0x3f	; 63
     a9a:	f8 94       	cli
     a9c:	de bf       	out	0x3e, r29	; 62
     a9e:	0f be       	out	0x3f, r0	; 63
     aa0:	cd bf       	out	0x3d, r28	; 61
     aa2:	df 91       	pop	r29
     aa4:	cf 91       	pop	r28
     aa6:	1f 91       	pop	r17
     aa8:	0f 91       	pop	r16
     aaa:	08 95       	ret

00000aac <LCD_DisplayCO>:

void LCD_DisplayCO(doubleByte COreading) 								// Display the CO reading on the LCD
{	//debug("LCD_DisplayCO()");
     aac:	cf 92       	push	r12
     aae:	df 92       	push	r13
     ab0:	ef 92       	push	r14
     ab2:	ff 92       	push	r15
     ab4:	0f 93       	push	r16
     ab6:	1f 93       	push	r17
     ab8:	cf 93       	push	r28
     aba:	df 93       	push	r29
     abc:	cd b7       	in	r28, 0x3d	; 61
     abe:	de b7       	in	r29, 0x3e	; 62
     ac0:	2a 97       	sbiw	r28, 0x0a	; 10
     ac2:	0f b6       	in	r0, 0x3f	; 63
     ac4:	f8 94       	cli
     ac6:	de bf       	out	0x3e, r29	; 62
     ac8:	0f be       	out	0x3f, r0	; 63
     aca:	cd bf       	out	0x3d, r28	; 61
     acc:	8c 01       	movw	r16, r24
	char buf[10];
	byte ones = 0, tens = 0, hundreds = 0, thousands = 0;
	lcd_gotoxy(CO_X,CO_Y);
     ace:	61 e0       	ldi	r22, 0x01	; 1
     ad0:	8a e0       	ldi	r24, 0x0A	; 10
     ad2:	0e 94 55 20 	call	0x40aa	; 0x40aa <lcd_gotoxy>
	if (COreading > MAX_CO || MIN_CO < 0) {
     ad6:	01 15       	cp	r16, r1
     ad8:	84 e0       	ldi	r24, 0x04	; 4
     ada:	18 07       	cpc	r17, r24
     adc:	08 f4       	brcc	.+2      	; 0xae0 <LCD_DisplayCO+0x34>
     ade:	47 c0       	rjmp	.+142    	; 0xb6e <LCD_DisplayCO+0xc2>
		lcd_gotoxy(CO_X,CO_Y);
     ae0:	61 e0       	ldi	r22, 0x01	; 1
     ae2:	8a e0       	ldi	r24, 0x0A	; 10
     ae4:	0e 94 55 20 	call	0x40aa	; 0x40aa <lcd_gotoxy>
		lcd_putc('C');
     ae8:	83 e4       	ldi	r24, 0x43	; 67
     aea:	0e 94 7a 20 	call	0x40f4	; 0x40f4 <lcd_putc>
		lcd_gotoxy(CO_X + 1,CO_Y);
     aee:	61 e0       	ldi	r22, 0x01	; 1
     af0:	8b e0       	ldi	r24, 0x0B	; 11
     af2:	0e 94 55 20 	call	0x40aa	; 0x40aa <lcd_gotoxy>
		lcd_putc('O');
     af6:	8f e4       	ldi	r24, 0x4F	; 79
     af8:	0e 94 7a 20 	call	0x40f4	; 0x40f4 <lcd_putc>
		lcd_gotoxy(CO_X + 2,CO_Y);
     afc:	61 e0       	ldi	r22, 0x01	; 1
     afe:	8c e0       	ldi	r24, 0x0C	; 12
     b00:	0e 94 55 20 	call	0x40aa	; 0x40aa <lcd_gotoxy>
		lcd_putc(' ');
     b04:	80 e2       	ldi	r24, 0x20	; 32
     b06:	0e 94 7a 20 	call	0x40f4	; 0x40f4 <lcd_putc>
		lcd_gotoxy(CO_X + 3,CO_Y);
     b0a:	61 e0       	ldi	r22, 0x01	; 1
     b0c:	8d e0       	ldi	r24, 0x0D	; 13
     b0e:	0e 94 55 20 	call	0x40aa	; 0x40aa <lcd_gotoxy>
		lcd_putc('E');
     b12:	85 e4       	ldi	r24, 0x45	; 69
     b14:	0e 94 7a 20 	call	0x40f4	; 0x40f4 <lcd_putc>
		lcd_gotoxy(CO_X + 4,CO_Y);
     b18:	61 e0       	ldi	r22, 0x01	; 1
     b1a:	8e e0       	ldi	r24, 0x0E	; 14
     b1c:	0e 94 55 20 	call	0x40aa	; 0x40aa <lcd_gotoxy>
		lcd_putc('R');
     b20:	82 e5       	ldi	r24, 0x52	; 82
     b22:	0e 94 7a 20 	call	0x40f4	; 0x40f4 <lcd_putc>
		lcd_gotoxy(CO_X + 5,CO_Y);
     b26:	61 e0       	ldi	r22, 0x01	; 1
     b28:	8f e0       	ldi	r24, 0x0F	; 15
     b2a:	0e 94 55 20 	call	0x40aa	; 0x40aa <lcd_gotoxy>
		lcd_putc('R');
     b2e:	82 e5       	ldi	r24, 0x52	; 82
     b30:	0e 94 7a 20 	call	0x40f4	; 0x40f4 <lcd_putc>
		tens = COreading / 10;
		hundreds = COreading / 100;
		thousands = COreading / 1000;
		ones = (COreading - (thousands * 1000) - (COreading - (hundreds * 100))) - (tens * 10);
	}
	lcd_gotoxy(CO_X,CO_Y);
     b34:	61 e0       	ldi	r22, 0x01	; 1
     b36:	8a e0       	ldi	r24, 0x0A	; 10
     b38:	0e 94 55 20 	call	0x40aa	; 0x40aa <lcd_gotoxy>
	lcd_putc('C');
     b3c:	83 e4       	ldi	r24, 0x43	; 67
     b3e:	0e 94 7a 20 	call	0x40f4	; 0x40f4 <lcd_putc>
	lcd_gotoxy(CO_X + 1,CO_Y);
     b42:	61 e0       	ldi	r22, 0x01	; 1
     b44:	8b e0       	ldi	r24, 0x0B	; 11
     b46:	0e 94 55 20 	call	0x40aa	; 0x40aa <lcd_gotoxy>
	lcd_putc('O');
     b4a:	8f e4       	ldi	r24, 0x4F	; 79
     b4c:	0e 94 7a 20 	call	0x40f4	; 0x40f4 <lcd_putc>
	lcd_gotoxy(CO_X + 2,CO_Y);
     b50:	61 e0       	ldi	r22, 0x01	; 1
     b52:	8c e0       	ldi	r24, 0x0C	; 12
     b54:	0e 94 55 20 	call	0x40aa	; 0x40aa <lcd_gotoxy>
	lcd_putc('=');
     b58:	8d e3       	ldi	r24, 0x3D	; 61
     b5a:	0e 94 7a 20 	call	0x40f4	; 0x40f4 <lcd_putc>
	lcd_gotoxy(CO_X + 3,CO_Y);
     b5e:	61 e0       	ldi	r22, 0x01	; 1
     b60:	8d e0       	ldi	r24, 0x0D	; 13
     b62:	0e 94 55 20 	call	0x40aa	; 0x40aa <lcd_gotoxy>
}

void LCD_DisplayCO(doubleByte COreading) 								// Display the CO reading on the LCD
{	//debug("LCD_DisplayCO()");
	char buf[10];
	byte ones = 0, tens = 0, hundreds = 0, thousands = 0;
     b66:	c1 2c       	mov	r12, r1
     b68:	d1 2c       	mov	r13, r1
     b6a:	10 e0       	ldi	r17, 0x00	; 0
     b6c:	56 c0       	rjmp	.+172    	; 0xc1a <LCD_DisplayCO+0x16e>
		lcd_gotoxy(CO_X + 4,CO_Y);
		lcd_putc('R');
		lcd_gotoxy(CO_X + 5,CO_Y);
		lcd_putc('R');
		} else {
		tens = COreading / 10;
     b6e:	98 01       	movw	r18, r16
     b70:	ad ec       	ldi	r26, 0xCD	; 205
     b72:	bc ec       	ldi	r27, 0xCC	; 204
     b74:	0e 94 83 24 	call	0x4906	; 0x4906 <__umulhisi3>
     b78:	ac 01       	movw	r20, r24
     b7a:	56 95       	lsr	r21
     b7c:	47 95       	ror	r20
     b7e:	56 95       	lsr	r21
     b80:	47 95       	ror	r20
     b82:	56 95       	lsr	r21
     b84:	47 95       	ror	r20
     b86:	d4 2e       	mov	r13, r20
		hundreds = COreading / 100;
     b88:	36 95       	lsr	r19
     b8a:	27 95       	ror	r18
     b8c:	36 95       	lsr	r19
     b8e:	27 95       	ror	r18
     b90:	ab e7       	ldi	r26, 0x7B	; 123
     b92:	b4 e1       	ldi	r27, 0x14	; 20
     b94:	0e 94 83 24 	call	0x4906	; 0x4906 <__umulhisi3>
     b98:	fc 01       	movw	r30, r24
     b9a:	f6 95       	lsr	r31
     b9c:	e7 95       	ror	r30
     b9e:	ce 2e       	mov	r12, r30
		thousands = COreading / 1000;
     ba0:	98 01       	movw	r18, r16
     ba2:	36 95       	lsr	r19
     ba4:	27 95       	ror	r18
     ba6:	36 95       	lsr	r19
     ba8:	27 95       	ror	r18
     baa:	36 95       	lsr	r19
     bac:	27 95       	ror	r18
     bae:	a5 ec       	ldi	r26, 0xC5	; 197
     bb0:	b0 e2       	ldi	r27, 0x20	; 32
     bb2:	0e 94 83 24 	call	0x4906	; 0x4906 <__umulhisi3>
     bb6:	7c 01       	movw	r14, r24
     bb8:	f6 94       	lsr	r15
     bba:	e7 94       	ror	r14
     bbc:	f6 94       	lsr	r15
     bbe:	e7 94       	ror	r14
     bc0:	f6 94       	lsr	r15
     bc2:	e7 94       	ror	r14
     bc4:	f6 94       	lsr	r15
     bc6:	e7 94       	ror	r14
		ones = (COreading - (thousands * 1000) - (COreading - (hundreds * 100))) - (tens * 10);
     bc8:	44 0f       	add	r20, r20
     bca:	94 2f       	mov	r25, r20
     bcc:	99 0f       	add	r25, r25
     bce:	99 0f       	add	r25, r25
     bd0:	49 0f       	add	r20, r25
     bd2:	18 e1       	ldi	r17, 0x18	; 24
     bd4:	1e 9d       	mul	r17, r14
     bd6:	10 2d       	mov	r17, r0
     bd8:	11 24       	eor	r1, r1
     bda:	14 1b       	sub	r17, r20
     bdc:	84 e6       	ldi	r24, 0x64	; 100
     bde:	e8 9f       	mul	r30, r24
     be0:	10 0d       	add	r17, r0
     be2:	11 24       	eor	r1, r1
	}
	lcd_gotoxy(CO_X,CO_Y);
     be4:	61 e0       	ldi	r22, 0x01	; 1
     be6:	8a e0       	ldi	r24, 0x0A	; 10
     be8:	0e 94 55 20 	call	0x40aa	; 0x40aa <lcd_gotoxy>
	lcd_putc('C');
     bec:	83 e4       	ldi	r24, 0x43	; 67
     bee:	0e 94 7a 20 	call	0x40f4	; 0x40f4 <lcd_putc>
	lcd_gotoxy(CO_X + 1,CO_Y);
     bf2:	61 e0       	ldi	r22, 0x01	; 1
     bf4:	8b e0       	ldi	r24, 0x0B	; 11
     bf6:	0e 94 55 20 	call	0x40aa	; 0x40aa <lcd_gotoxy>
	lcd_putc('O');
     bfa:	8f e4       	ldi	r24, 0x4F	; 79
     bfc:	0e 94 7a 20 	call	0x40f4	; 0x40f4 <lcd_putc>
	lcd_gotoxy(CO_X + 2,CO_Y);
     c00:	61 e0       	ldi	r22, 0x01	; 1
     c02:	8c e0       	ldi	r24, 0x0C	; 12
     c04:	0e 94 55 20 	call	0x40aa	; 0x40aa <lcd_gotoxy>
	lcd_putc('=');
     c08:	8d e3       	ldi	r24, 0x3D	; 61
     c0a:	0e 94 7a 20 	call	0x40f4	; 0x40f4 <lcd_putc>
	lcd_gotoxy(CO_X + 3,CO_Y);
     c0e:	61 e0       	ldi	r22, 0x01	; 1
     c10:	8d e0       	ldi	r24, 0x0D	; 13
     c12:	0e 94 55 20 	call	0x40aa	; 0x40aa <lcd_gotoxy>
	if (!(thousands > 0)) {
     c16:	e1 10       	cpse	r14, r1
     c18:	04 c0       	rjmp	.+8      	; 0xc22 <LCD_DisplayCO+0x176>
		lcd_putc(' ');
     c1a:	80 e2       	ldi	r24, 0x20	; 32
     c1c:	0e 94 7a 20 	call	0x40f4	; 0x40f4 <lcd_putc>
     c20:	0b c0       	rjmp	.+22     	; 0xc38 <LCD_DisplayCO+0x18c>
     c22:	4a e0       	ldi	r20, 0x0A	; 10
     c24:	be 01       	movw	r22, r28
     c26:	6f 5f       	subi	r22, 0xFF	; 255
     c28:	7f 4f       	sbci	r23, 0xFF	; 255
     c2a:	8e 2d       	mov	r24, r14
     c2c:	90 e0       	ldi	r25, 0x00	; 0
     c2e:	0e 94 9a 25 	call	0x4b34	; 0x4b34 <__itoa_ncheck>
		} else {
		itoa(thousands, buf, 10);
		lcd_putc(*buf);
     c32:	89 81       	ldd	r24, Y+1	; 0x01
     c34:	0e 94 7a 20 	call	0x40f4	; 0x40f4 <lcd_putc>
	}
	lcd_gotoxy(CO_X + 4,CO_Y);
     c38:	61 e0       	ldi	r22, 0x01	; 1
     c3a:	8e e0       	ldi	r24, 0x0E	; 14
     c3c:	0e 94 55 20 	call	0x40aa	; 0x40aa <lcd_gotoxy>
	if (!(hundreds > 0)) {
     c40:	c1 10       	cpse	r12, r1
     c42:	04 c0       	rjmp	.+8      	; 0xc4c <LCD_DisplayCO+0x1a0>
		lcd_putc(' ');
     c44:	80 e2       	ldi	r24, 0x20	; 32
     c46:	0e 94 7a 20 	call	0x40f4	; 0x40f4 <lcd_putc>
     c4a:	0b c0       	rjmp	.+22     	; 0xc62 <LCD_DisplayCO+0x1b6>
     c4c:	4a e0       	ldi	r20, 0x0A	; 10
     c4e:	be 01       	movw	r22, r28
     c50:	6f 5f       	subi	r22, 0xFF	; 255
     c52:	7f 4f       	sbci	r23, 0xFF	; 255
     c54:	8c 2d       	mov	r24, r12
     c56:	90 e0       	ldi	r25, 0x00	; 0
     c58:	0e 94 9a 25 	call	0x4b34	; 0x4b34 <__itoa_ncheck>
		} else {
		itoa(hundreds, buf, 10);
		lcd_putc(*buf);
     c5c:	89 81       	ldd	r24, Y+1	; 0x01
     c5e:	0e 94 7a 20 	call	0x40f4	; 0x40f4 <lcd_putc>
	}
	lcd_gotoxy(CO_X + 6,CO_Y);
     c62:	61 e0       	ldi	r22, 0x01	; 1
     c64:	80 e1       	ldi	r24, 0x10	; 16
     c66:	0e 94 55 20 	call	0x40aa	; 0x40aa <lcd_gotoxy>
	if (!(tens > 0)) {
     c6a:	d1 10       	cpse	r13, r1
     c6c:	04 c0       	rjmp	.+8      	; 0xc76 <LCD_DisplayCO+0x1ca>
		lcd_putc(' ');
     c6e:	80 e2       	ldi	r24, 0x20	; 32
     c70:	0e 94 7a 20 	call	0x40f4	; 0x40f4 <lcd_putc>
     c74:	0b c0       	rjmp	.+22     	; 0xc8c <LCD_DisplayCO+0x1e0>
     c76:	4a e0       	ldi	r20, 0x0A	; 10
     c78:	be 01       	movw	r22, r28
     c7a:	6f 5f       	subi	r22, 0xFF	; 255
     c7c:	7f 4f       	sbci	r23, 0xFF	; 255
     c7e:	8d 2d       	mov	r24, r13
     c80:	90 e0       	ldi	r25, 0x00	; 0
     c82:	0e 94 9a 25 	call	0x4b34	; 0x4b34 <__itoa_ncheck>
		} else {
		itoa(tens, buf, 10);
		lcd_putc(*buf);
     c86:	89 81       	ldd	r24, Y+1	; 0x01
     c88:	0e 94 7a 20 	call	0x40f4	; 0x40f4 <lcd_putc>
	}
	lcd_gotoxy(CO_X + 6,CO_Y);
     c8c:	61 e0       	ldi	r22, 0x01	; 1
     c8e:	80 e1       	ldi	r24, 0x10	; 16
     c90:	0e 94 55 20 	call	0x40aa	; 0x40aa <lcd_gotoxy>
	if (!(ones > 0)) {
     c94:	11 11       	cpse	r17, r1
     c96:	04 c0       	rjmp	.+8      	; 0xca0 <LCD_DisplayCO+0x1f4>
		lcd_putc(' ');
     c98:	80 e2       	ldi	r24, 0x20	; 32
     c9a:	0e 94 7a 20 	call	0x40f4	; 0x40f4 <lcd_putc>
     c9e:	0b c0       	rjmp	.+22     	; 0xcb6 <LCD_DisplayCO+0x20a>
     ca0:	4a e0       	ldi	r20, 0x0A	; 10
     ca2:	be 01       	movw	r22, r28
     ca4:	6f 5f       	subi	r22, 0xFF	; 255
     ca6:	7f 4f       	sbci	r23, 0xFF	; 255
     ca8:	81 2f       	mov	r24, r17
     caa:	90 e0       	ldi	r25, 0x00	; 0
     cac:	0e 94 9a 25 	call	0x4b34	; 0x4b34 <__itoa_ncheck>
		} else {
		itoa(ones, buf, 10);
		lcd_putc(*buf);
     cb0:	89 81       	ldd	r24, Y+1	; 0x01
     cb2:	0e 94 7a 20 	call	0x40f4	; 0x40f4 <lcd_putc>
	}
}
     cb6:	2a 96       	adiw	r28, 0x0a	; 10
     cb8:	0f b6       	in	r0, 0x3f	; 63
     cba:	f8 94       	cli
     cbc:	de bf       	out	0x3e, r29	; 62
     cbe:	0f be       	out	0x3f, r0	; 63
     cc0:	cd bf       	out	0x3d, r28	; 61
     cc2:	df 91       	pop	r29
     cc4:	cf 91       	pop	r28
     cc6:	1f 91       	pop	r17
     cc8:	0f 91       	pop	r16
     cca:	ff 90       	pop	r15
     ccc:	ef 90       	pop	r14
     cce:	df 90       	pop	r13
     cd0:	cf 90       	pop	r12
     cd2:	08 95       	ret

00000cd4 <LCD_DisplayHours>:

void LCD_DisplayHours(byte hours)										// Display hours portion of the time
{	char buf[10];
     cd4:	0f 93       	push	r16
     cd6:	1f 93       	push	r17
     cd8:	cf 93       	push	r28
     cda:	df 93       	push	r29
     cdc:	cd b7       	in	r28, 0x3d	; 61
     cde:	de b7       	in	r29, 0x3e	; 62
     ce0:	2a 97       	sbiw	r28, 0x0a	; 10
     ce2:	0f b6       	in	r0, 0x3f	; 63
     ce4:	f8 94       	cli
     ce6:	de bf       	out	0x3e, r29	; 62
     ce8:	0f be       	out	0x3f, r0	; 63
     cea:	cd bf       	out	0x3d, r28	; 61

	int tensHours = hours / 10;
     cec:	2d ec       	ldi	r18, 0xCD	; 205
     cee:	82 9f       	mul	r24, r18
     cf0:	21 2d       	mov	r18, r1
     cf2:	11 24       	eor	r1, r1
     cf4:	26 95       	lsr	r18
     cf6:	26 95       	lsr	r18
     cf8:	26 95       	lsr	r18
	int onesHours = hours - (hours / 10) * 10;
     cfa:	36 ef       	ldi	r19, 0xF6	; 246
     cfc:	32 03       	mulsu	r19, r18
     cfe:	80 01       	movw	r16, r0
     d00:	11 24       	eor	r1, r1
     d02:	08 0f       	add	r16, r24
     d04:	11 1d       	adc	r17, r1
     d06:	4a e0       	ldi	r20, 0x0A	; 10
     d08:	be 01       	movw	r22, r28
     d0a:	6f 5f       	subi	r22, 0xFF	; 255
     d0c:	7f 4f       	sbci	r23, 0xFF	; 255
     d0e:	82 2f       	mov	r24, r18
     d10:	90 e0       	ldi	r25, 0x00	; 0
     d12:	0e 94 9a 25 	call	0x4b34	; 0x4b34 <__itoa_ncheck>

	itoa(tensHours, buf, 10);
	lcd_gotoxy(HOUR_TENS_X,HOUR_TENS_Y);
     d16:	61 e0       	ldi	r22, 0x01	; 1
     d18:	80 e0       	ldi	r24, 0x00	; 0
     d1a:	0e 94 55 20 	call	0x40aa	; 0x40aa <lcd_gotoxy>
	lcd_putc(*buf);
     d1e:	89 81       	ldd	r24, Y+1	; 0x01
     d20:	0e 94 7a 20 	call	0x40f4	; 0x40f4 <lcd_putc>
     d24:	4a e0       	ldi	r20, 0x0A	; 10
     d26:	be 01       	movw	r22, r28
     d28:	6f 5f       	subi	r22, 0xFF	; 255
     d2a:	7f 4f       	sbci	r23, 0xFF	; 255
     d2c:	c8 01       	movw	r24, r16
     d2e:	0e 94 9a 25 	call	0x4b34	; 0x4b34 <__itoa_ncheck>

	itoa(onesHours, buf, 10);
	lcd_gotoxy(HOUR_ONES_X,HOUR_ONES_Y);
     d32:	61 e0       	ldi	r22, 0x01	; 1
     d34:	81 e0       	ldi	r24, 0x01	; 1
     d36:	0e 94 55 20 	call	0x40aa	; 0x40aa <lcd_gotoxy>
	lcd_putc(*buf);
     d3a:	89 81       	ldd	r24, Y+1	; 0x01
     d3c:	0e 94 7a 20 	call	0x40f4	; 0x40f4 <lcd_putc>
}
     d40:	2a 96       	adiw	r28, 0x0a	; 10
     d42:	0f b6       	in	r0, 0x3f	; 63
     d44:	f8 94       	cli
     d46:	de bf       	out	0x3e, r29	; 62
     d48:	0f be       	out	0x3f, r0	; 63
     d4a:	cd bf       	out	0x3d, r28	; 61
     d4c:	df 91       	pop	r29
     d4e:	cf 91       	pop	r28
     d50:	1f 91       	pop	r17
     d52:	0f 91       	pop	r16
     d54:	08 95       	ret

00000d56 <LCD_DisplayMinutes>:

void LCD_DisplayMinutes(byte minutes)									// Display the minutes portion of the time
{	char buf[10];
     d56:	0f 93       	push	r16
     d58:	1f 93       	push	r17
     d5a:	cf 93       	push	r28
     d5c:	df 93       	push	r29
     d5e:	cd b7       	in	r28, 0x3d	; 61
     d60:	de b7       	in	r29, 0x3e	; 62
     d62:	2a 97       	sbiw	r28, 0x0a	; 10
     d64:	0f b6       	in	r0, 0x3f	; 63
     d66:	f8 94       	cli
     d68:	de bf       	out	0x3e, r29	; 62
     d6a:	0f be       	out	0x3f, r0	; 63
     d6c:	cd bf       	out	0x3d, r28	; 61

	int tensMinutes = minutes / 10;
     d6e:	2d ec       	ldi	r18, 0xCD	; 205
     d70:	82 9f       	mul	r24, r18
     d72:	21 2d       	mov	r18, r1
     d74:	11 24       	eor	r1, r1
     d76:	26 95       	lsr	r18
     d78:	26 95       	lsr	r18
     d7a:	26 95       	lsr	r18
	int onesMinutes = minutes - (minutes / 10) * 10;
     d7c:	36 ef       	ldi	r19, 0xF6	; 246
     d7e:	32 03       	mulsu	r19, r18
     d80:	80 01       	movw	r16, r0
     d82:	11 24       	eor	r1, r1
     d84:	08 0f       	add	r16, r24
     d86:	11 1d       	adc	r17, r1
     d88:	4a e0       	ldi	r20, 0x0A	; 10
     d8a:	be 01       	movw	r22, r28
     d8c:	6f 5f       	subi	r22, 0xFF	; 255
     d8e:	7f 4f       	sbci	r23, 0xFF	; 255
     d90:	82 2f       	mov	r24, r18
     d92:	90 e0       	ldi	r25, 0x00	; 0
     d94:	0e 94 9a 25 	call	0x4b34	; 0x4b34 <__itoa_ncheck>
	
	itoa(tensMinutes, buf, 10);
	lcd_gotoxy(MINUTE_TENS_X,MINUTE_TENS_Y);
     d98:	61 e0       	ldi	r22, 0x01	; 1
     d9a:	83 e0       	ldi	r24, 0x03	; 3
     d9c:	0e 94 55 20 	call	0x40aa	; 0x40aa <lcd_gotoxy>
	lcd_putc(*buf);
     da0:	89 81       	ldd	r24, Y+1	; 0x01
     da2:	0e 94 7a 20 	call	0x40f4	; 0x40f4 <lcd_putc>
     da6:	4a e0       	ldi	r20, 0x0A	; 10
     da8:	be 01       	movw	r22, r28
     daa:	6f 5f       	subi	r22, 0xFF	; 255
     dac:	7f 4f       	sbci	r23, 0xFF	; 255
     dae:	c8 01       	movw	r24, r16
     db0:	0e 94 9a 25 	call	0x4b34	; 0x4b34 <__itoa_ncheck>

	itoa(onesMinutes, buf, 10);
	lcd_gotoxy(MINUTE_ONES_X,MINUTE_ONES_Y);
     db4:	61 e0       	ldi	r22, 0x01	; 1
     db6:	84 e0       	ldi	r24, 0x04	; 4
     db8:	0e 94 55 20 	call	0x40aa	; 0x40aa <lcd_gotoxy>
	lcd_putc(*buf);	
     dbc:	89 81       	ldd	r24, Y+1	; 0x01
     dbe:	0e 94 7a 20 	call	0x40f4	; 0x40f4 <lcd_putc>
}
     dc2:	2a 96       	adiw	r28, 0x0a	; 10
     dc4:	0f b6       	in	r0, 0x3f	; 63
     dc6:	f8 94       	cli
     dc8:	de bf       	out	0x3e, r29	; 62
     dca:	0f be       	out	0x3f, r0	; 63
     dcc:	cd bf       	out	0x3d, r28	; 61
     dce:	df 91       	pop	r29
     dd0:	cf 91       	pop	r28
     dd2:	1f 91       	pop	r17
     dd4:	0f 91       	pop	r16
     dd6:	08 95       	ret

00000dd8 <LCD_DisplaySeconds>:

void LCD_DisplaySeconds(byte seconds)									// Display the seconds portion of the time
{	char buf[10];
     dd8:	0f 93       	push	r16
     dda:	1f 93       	push	r17
     ddc:	cf 93       	push	r28
     dde:	df 93       	push	r29
     de0:	cd b7       	in	r28, 0x3d	; 61
     de2:	de b7       	in	r29, 0x3e	; 62
     de4:	2a 97       	sbiw	r28, 0x0a	; 10
     de6:	0f b6       	in	r0, 0x3f	; 63
     de8:	f8 94       	cli
     dea:	de bf       	out	0x3e, r29	; 62
     dec:	0f be       	out	0x3f, r0	; 63
     dee:	cd bf       	out	0x3d, r28	; 61

	int tensSeconds = seconds / 10;
     df0:	2d ec       	ldi	r18, 0xCD	; 205
     df2:	82 9f       	mul	r24, r18
     df4:	21 2d       	mov	r18, r1
     df6:	11 24       	eor	r1, r1
     df8:	26 95       	lsr	r18
     dfa:	26 95       	lsr	r18
     dfc:	26 95       	lsr	r18
	int onesSeconds = seconds - (seconds / 10) * 10;
     dfe:	36 ef       	ldi	r19, 0xF6	; 246
     e00:	32 03       	mulsu	r19, r18
     e02:	80 01       	movw	r16, r0
     e04:	11 24       	eor	r1, r1
     e06:	08 0f       	add	r16, r24
     e08:	11 1d       	adc	r17, r1
     e0a:	4a e0       	ldi	r20, 0x0A	; 10
     e0c:	be 01       	movw	r22, r28
     e0e:	6f 5f       	subi	r22, 0xFF	; 255
     e10:	7f 4f       	sbci	r23, 0xFF	; 255
     e12:	82 2f       	mov	r24, r18
     e14:	90 e0       	ldi	r25, 0x00	; 0
     e16:	0e 94 9a 25 	call	0x4b34	; 0x4b34 <__itoa_ncheck>

	itoa(tensSeconds, buf, 10);
	lcd_gotoxy(SECOND_TENS_X,SECOND_TENS_Y);
     e1a:	61 e0       	ldi	r22, 0x01	; 1
     e1c:	86 e0       	ldi	r24, 0x06	; 6
     e1e:	0e 94 55 20 	call	0x40aa	; 0x40aa <lcd_gotoxy>
	lcd_putc(*buf);
     e22:	89 81       	ldd	r24, Y+1	; 0x01
     e24:	0e 94 7a 20 	call	0x40f4	; 0x40f4 <lcd_putc>
     e28:	4a e0       	ldi	r20, 0x0A	; 10
     e2a:	be 01       	movw	r22, r28
     e2c:	6f 5f       	subi	r22, 0xFF	; 255
     e2e:	7f 4f       	sbci	r23, 0xFF	; 255
     e30:	c8 01       	movw	r24, r16
     e32:	0e 94 9a 25 	call	0x4b34	; 0x4b34 <__itoa_ncheck>

	itoa(onesSeconds, buf, 10);
	lcd_gotoxy(SECOND_ONES_X,SECOND_ONES_Y);
     e36:	61 e0       	ldi	r22, 0x01	; 1
     e38:	87 e0       	ldi	r24, 0x07	; 7
     e3a:	0e 94 55 20 	call	0x40aa	; 0x40aa <lcd_gotoxy>
	lcd_putc(*buf);
     e3e:	89 81       	ldd	r24, Y+1	; 0x01
     e40:	0e 94 7a 20 	call	0x40f4	; 0x40f4 <lcd_putc>
}
     e44:	2a 96       	adiw	r28, 0x0a	; 10
     e46:	0f b6       	in	r0, 0x3f	; 63
     e48:	f8 94       	cli
     e4a:	de bf       	out	0x3e, r29	; 62
     e4c:	0f be       	out	0x3f, r0	; 63
     e4e:	cd bf       	out	0x3d, r28	; 61
     e50:	df 91       	pop	r29
     e52:	cf 91       	pop	r28
     e54:	1f 91       	pop	r17
     e56:	0f 91       	pop	r16
     e58:	08 95       	ret

00000e5a <LCD_DisplayTimeAndTemp>:
	LCD_DisplaySeconds(seconds);
	LCD_DisplayTemp(tempF);
}

void LCD_DisplayTimeAndTemp(byte hours, byte minutes, byte seconds, byte tempF)
{
     e5a:	1f 93       	push	r17
     e5c:	cf 93       	push	r28
     e5e:	df 93       	push	r29
     e60:	16 2f       	mov	r17, r22
     e62:	d4 2f       	mov	r29, r20
     e64:	c2 2f       	mov	r28, r18
	LCD_DisplayHours(hours);
     e66:	0e 94 6a 06 	call	0xcd4	; 0xcd4 <LCD_DisplayHours>
	lcd_gotoxy(COLON_1_X,COLON_1_Y);
     e6a:	61 e0       	ldi	r22, 0x01	; 1
     e6c:	82 e0       	ldi	r24, 0x02	; 2
     e6e:	0e 94 55 20 	call	0x40aa	; 0x40aa <lcd_gotoxy>
	lcd_putc(':');
     e72:	8a e3       	ldi	r24, 0x3A	; 58
     e74:	0e 94 7a 20 	call	0x40f4	; 0x40f4 <lcd_putc>
	LCD_DisplayMinutes(minutes);
     e78:	81 2f       	mov	r24, r17
     e7a:	0e 94 ab 06 	call	0xd56	; 0xd56 <LCD_DisplayMinutes>
	lcd_gotoxy(COLON_2_X,COLON_2_Y);
     e7e:	61 e0       	ldi	r22, 0x01	; 1
     e80:	85 e0       	ldi	r24, 0x05	; 5
     e82:	0e 94 55 20 	call	0x40aa	; 0x40aa <lcd_gotoxy>
	lcd_putc(':');
     e86:	8a e3       	ldi	r24, 0x3A	; 58
     e88:	0e 94 7a 20 	call	0x40f4	; 0x40f4 <lcd_putc>
	LCD_DisplaySeconds(seconds);
     e8c:	8d 2f       	mov	r24, r29
     e8e:	0e 94 ec 06 	call	0xdd8	; 0xdd8 <LCD_DisplaySeconds>
	LCD_DisplayTemp(tempF);
     e92:	8c 2f       	mov	r24, r28
     e94:	0e 94 d0 04 	call	0x9a0	; 0x9a0 <LCD_DisplayTemp>
}
     e98:	df 91       	pop	r29
     e9a:	cf 91       	pop	r28
     e9c:	1f 91       	pop	r17
     e9e:	08 95       	ret

00000ea0 <LCD_DisplayTimeAlarmSetHours>:
		lcd_gotoxy(++x,DAY_OF_WEEK_Y);		
	}
}

void LCD_DisplayTimeAlarmSetHours(byte hours, byte showPrompt)			// Display hours portion of the time for setting
{	char buf[10];
     ea0:	ff 92       	push	r15
     ea2:	0f 93       	push	r16
     ea4:	1f 93       	push	r17
     ea6:	cf 93       	push	r28
     ea8:	df 93       	push	r29
     eaa:	cd b7       	in	r28, 0x3d	; 61
     eac:	de b7       	in	r29, 0x3e	; 62
     eae:	2a 97       	sbiw	r28, 0x0a	; 10
     eb0:	0f b6       	in	r0, 0x3f	; 63
     eb2:	f8 94       	cli
     eb4:	de bf       	out	0x3e, r29	; 62
     eb6:	0f be       	out	0x3f, r0	; 63
     eb8:	cd bf       	out	0x3d, r28	; 61
     eba:	f8 2e       	mov	r15, r24
	if (showPrompt) {
     ebc:	66 23       	and	r22, r22
     ebe:	51 f0       	breq	.+20     	; 0xed4 <LCD_DisplayTimeAlarmSetHours+0x34>
		LCD_Reset();
     ec0:	0e 94 2a 04 	call	0x854	; 0x854 <LCD_Reset>
		lcd_gotoxy(0,0);
     ec4:	60 e0       	ldi	r22, 0x00	; 0
     ec6:	80 e0       	ldi	r24, 0x00	; 0
     ec8:	0e 94 55 20 	call	0x40aa	; 0x40aa <lcd_gotoxy>
		lcd_puts("Wake Hour: ");
     ecc:	86 ec       	ldi	r24, 0xC6	; 198
     ece:	91 e0       	ldi	r25, 0x01	; 1
     ed0:	0e 94 9e 20 	call	0x413c	; 0x413c <lcd_puts>
	}
	lcd_gotoxy(11,0);
     ed4:	60 e0       	ldi	r22, 0x00	; 0
     ed6:	8b e0       	ldi	r24, 0x0B	; 11
     ed8:	0e 94 55 20 	call	0x40aa	; 0x40aa <lcd_gotoxy>
	
	int tensHours = hours / 10;
     edc:	2d ec       	ldi	r18, 0xCD	; 205
     ede:	f2 9e       	mul	r15, r18
     ee0:	21 2d       	mov	r18, r1
     ee2:	11 24       	eor	r1, r1
     ee4:	26 95       	lsr	r18
     ee6:	26 95       	lsr	r18
     ee8:	26 95       	lsr	r18
	int onesHours = hours - (hours / 10) * 10;
     eea:	36 ef       	ldi	r19, 0xF6	; 246
     eec:	32 03       	mulsu	r19, r18
     eee:	80 01       	movw	r16, r0
     ef0:	11 24       	eor	r1, r1
     ef2:	0f 0d       	add	r16, r15
     ef4:	11 1d       	adc	r17, r1
     ef6:	4a e0       	ldi	r20, 0x0A	; 10
     ef8:	be 01       	movw	r22, r28
     efa:	6f 5f       	subi	r22, 0xFF	; 255
     efc:	7f 4f       	sbci	r23, 0xFF	; 255
     efe:	82 2f       	mov	r24, r18
     f00:	90 e0       	ldi	r25, 0x00	; 0
     f02:	0e 94 9a 25 	call	0x4b34	; 0x4b34 <__itoa_ncheck>

	itoa(tensHours, buf, 10);
	lcd_putc(*buf);
     f06:	89 81       	ldd	r24, Y+1	; 0x01
     f08:	0e 94 7a 20 	call	0x40f4	; 0x40f4 <lcd_putc>
     f0c:	4a e0       	ldi	r20, 0x0A	; 10
     f0e:	be 01       	movw	r22, r28
     f10:	6f 5f       	subi	r22, 0xFF	; 255
     f12:	7f 4f       	sbci	r23, 0xFF	; 255
     f14:	c8 01       	movw	r24, r16
     f16:	0e 94 9a 25 	call	0x4b34	; 0x4b34 <__itoa_ncheck>

	itoa(onesHours, buf, 10);
	lcd_putc(*buf);
     f1a:	89 81       	ldd	r24, Y+1	; 0x01
     f1c:	0e 94 7a 20 	call	0x40f4	; 0x40f4 <lcd_putc>
}
     f20:	2a 96       	adiw	r28, 0x0a	; 10
     f22:	0f b6       	in	r0, 0x3f	; 63
     f24:	f8 94       	cli
     f26:	de bf       	out	0x3e, r29	; 62
     f28:	0f be       	out	0x3f, r0	; 63
     f2a:	cd bf       	out	0x3d, r28	; 61
     f2c:	df 91       	pop	r29
     f2e:	cf 91       	pop	r28
     f30:	1f 91       	pop	r17
     f32:	0f 91       	pop	r16
     f34:	ff 90       	pop	r15
     f36:	08 95       	ret

00000f38 <LCD_DisplayTimeAlarmSetMinutes>:

void LCD_DisplayTimeAlarmSetMinutes(byte minutes, byte showPrompt)		// Display hours portion of the time for setting
{	char buf[10];
     f38:	ff 92       	push	r15
     f3a:	0f 93       	push	r16
     f3c:	1f 93       	push	r17
     f3e:	cf 93       	push	r28
     f40:	df 93       	push	r29
     f42:	cd b7       	in	r28, 0x3d	; 61
     f44:	de b7       	in	r29, 0x3e	; 62
     f46:	2a 97       	sbiw	r28, 0x0a	; 10
     f48:	0f b6       	in	r0, 0x3f	; 63
     f4a:	f8 94       	cli
     f4c:	de bf       	out	0x3e, r29	; 62
     f4e:	0f be       	out	0x3f, r0	; 63
     f50:	cd bf       	out	0x3d, r28	; 61
     f52:	f8 2e       	mov	r15, r24
	if (showPrompt) {
     f54:	66 23       	and	r22, r22
     f56:	51 f0       	breq	.+20     	; 0xf6c <LCD_DisplayTimeAlarmSetMinutes+0x34>
		LCD_Reset();
     f58:	0e 94 2a 04 	call	0x854	; 0x854 <LCD_Reset>
		lcd_gotoxy(0,0);
     f5c:	60 e0       	ldi	r22, 0x00	; 0
     f5e:	80 e0       	ldi	r24, 0x00	; 0
     f60:	0e 94 55 20 	call	0x40aa	; 0x40aa <lcd_gotoxy>
		lcd_puts("Wake Minute: ");
     f64:	82 ed       	ldi	r24, 0xD2	; 210
     f66:	91 e0       	ldi	r25, 0x01	; 1
     f68:	0e 94 9e 20 	call	0x413c	; 0x413c <lcd_puts>
	}
	lcd_gotoxy(13,0);
     f6c:	60 e0       	ldi	r22, 0x00	; 0
     f6e:	8d e0       	ldi	r24, 0x0D	; 13
     f70:	0e 94 55 20 	call	0x40aa	; 0x40aa <lcd_gotoxy>
	
	int tensMinutes = minutes / 10;
     f74:	2d ec       	ldi	r18, 0xCD	; 205
     f76:	f2 9e       	mul	r15, r18
     f78:	21 2d       	mov	r18, r1
     f7a:	11 24       	eor	r1, r1
     f7c:	26 95       	lsr	r18
     f7e:	26 95       	lsr	r18
     f80:	26 95       	lsr	r18
	int onesMinutes = minutes - (minutes / 10) * 10;
     f82:	36 ef       	ldi	r19, 0xF6	; 246
     f84:	32 03       	mulsu	r19, r18
     f86:	80 01       	movw	r16, r0
     f88:	11 24       	eor	r1, r1
     f8a:	0f 0d       	add	r16, r15
     f8c:	11 1d       	adc	r17, r1
     f8e:	4a e0       	ldi	r20, 0x0A	; 10
     f90:	be 01       	movw	r22, r28
     f92:	6f 5f       	subi	r22, 0xFF	; 255
     f94:	7f 4f       	sbci	r23, 0xFF	; 255
     f96:	82 2f       	mov	r24, r18
     f98:	90 e0       	ldi	r25, 0x00	; 0
     f9a:	0e 94 9a 25 	call	0x4b34	; 0x4b34 <__itoa_ncheck>

	itoa(tensMinutes, buf, 10);
	lcd_putc(*buf);
     f9e:	89 81       	ldd	r24, Y+1	; 0x01
     fa0:	0e 94 7a 20 	call	0x40f4	; 0x40f4 <lcd_putc>
     fa4:	4a e0       	ldi	r20, 0x0A	; 10
     fa6:	be 01       	movw	r22, r28
     fa8:	6f 5f       	subi	r22, 0xFF	; 255
     faa:	7f 4f       	sbci	r23, 0xFF	; 255
     fac:	c8 01       	movw	r24, r16
     fae:	0e 94 9a 25 	call	0x4b34	; 0x4b34 <__itoa_ncheck>

	itoa(onesMinutes, buf, 10);
	lcd_putc(*buf);
     fb2:	89 81       	ldd	r24, Y+1	; 0x01
     fb4:	0e 94 7a 20 	call	0x40f4	; 0x40f4 <lcd_putc>
}
     fb8:	2a 96       	adiw	r28, 0x0a	; 10
     fba:	0f b6       	in	r0, 0x3f	; 63
     fbc:	f8 94       	cli
     fbe:	de bf       	out	0x3e, r29	; 62
     fc0:	0f be       	out	0x3f, r0	; 63
     fc2:	cd bf       	out	0x3d, r28	; 61
     fc4:	df 91       	pop	r29
     fc6:	cf 91       	pop	r28
     fc8:	1f 91       	pop	r17
     fca:	0f 91       	pop	r16
     fcc:	ff 90       	pop	r15
     fce:	08 95       	ret

00000fd0 <LCD_DisplayTimeSetYears>:

void LCD_DisplayTimeSetYears(byte year, byte showPrompt)				// Display years portion of the time for setting
{	char buf[10];
     fd0:	ff 92       	push	r15
     fd2:	0f 93       	push	r16
     fd4:	1f 93       	push	r17
     fd6:	cf 93       	push	r28
     fd8:	df 93       	push	r29
     fda:	cd b7       	in	r28, 0x3d	; 61
     fdc:	de b7       	in	r29, 0x3e	; 62
     fde:	2a 97       	sbiw	r28, 0x0a	; 10
     fe0:	0f b6       	in	r0, 0x3f	; 63
     fe2:	f8 94       	cli
     fe4:	de bf       	out	0x3e, r29	; 62
     fe6:	0f be       	out	0x3f, r0	; 63
     fe8:	cd bf       	out	0x3d, r28	; 61
	year -= 2000;
     fea:	0f 2e       	mov	r0, r31
     fec:	f0 e3       	ldi	r31, 0x30	; 48
     fee:	ff 2e       	mov	r15, r31
     ff0:	f0 2d       	mov	r31, r0
     ff2:	f8 0e       	add	r15, r24
	if (showPrompt) {
     ff4:	66 23       	and	r22, r22
     ff6:	51 f0       	breq	.+20     	; 0x100c <LCD_DisplayTimeSetYears+0x3c>
		LCD_Reset();
     ff8:	0e 94 2a 04 	call	0x854	; 0x854 <LCD_Reset>
		lcd_gotoxy(0,0);
     ffc:	60 e0       	ldi	r22, 0x00	; 0
     ffe:	80 e0       	ldi	r24, 0x00	; 0
    1000:	0e 94 55 20 	call	0x40aa	; 0x40aa <lcd_gotoxy>
		lcd_puts("Year: ");
    1004:	80 ee       	ldi	r24, 0xE0	; 224
    1006:	91 e0       	ldi	r25, 0x01	; 1
    1008:	0e 94 9e 20 	call	0x413c	; 0x413c <lcd_puts>
	}
	lcd_gotoxy(6,0);
    100c:	60 e0       	ldi	r22, 0x00	; 0
    100e:	86 e0       	ldi	r24, 0x06	; 6
    1010:	0e 94 55 20 	call	0x40aa	; 0x40aa <lcd_gotoxy>
	
	int tensYear = year / 10;
    1014:	2d ec       	ldi	r18, 0xCD	; 205
    1016:	f2 9e       	mul	r15, r18
    1018:	21 2d       	mov	r18, r1
    101a:	11 24       	eor	r1, r1
    101c:	26 95       	lsr	r18
    101e:	26 95       	lsr	r18
    1020:	26 95       	lsr	r18
	int onesYear = year - (year / 10) * 10;
    1022:	36 ef       	ldi	r19, 0xF6	; 246
    1024:	32 03       	mulsu	r19, r18
    1026:	80 01       	movw	r16, r0
    1028:	11 24       	eor	r1, r1
    102a:	0f 0d       	add	r16, r15
    102c:	11 1d       	adc	r17, r1
    102e:	4a e0       	ldi	r20, 0x0A	; 10
    1030:	be 01       	movw	r22, r28
    1032:	6f 5f       	subi	r22, 0xFF	; 255
    1034:	7f 4f       	sbci	r23, 0xFF	; 255
    1036:	82 2f       	mov	r24, r18
    1038:	90 e0       	ldi	r25, 0x00	; 0
    103a:	0e 94 9a 25 	call	0x4b34	; 0x4b34 <__itoa_ncheck>

	itoa(tensYear, buf, 10);
	lcd_putc(*buf);
    103e:	89 81       	ldd	r24, Y+1	; 0x01
    1040:	0e 94 7a 20 	call	0x40f4	; 0x40f4 <lcd_putc>
    1044:	4a e0       	ldi	r20, 0x0A	; 10
    1046:	be 01       	movw	r22, r28
    1048:	6f 5f       	subi	r22, 0xFF	; 255
    104a:	7f 4f       	sbci	r23, 0xFF	; 255
    104c:	c8 01       	movw	r24, r16
    104e:	0e 94 9a 25 	call	0x4b34	; 0x4b34 <__itoa_ncheck>

	itoa(onesYear, buf, 10);
	lcd_putc(*buf);
    1052:	89 81       	ldd	r24, Y+1	; 0x01
    1054:	0e 94 7a 20 	call	0x40f4	; 0x40f4 <lcd_putc>
}
    1058:	2a 96       	adiw	r28, 0x0a	; 10
    105a:	0f b6       	in	r0, 0x3f	; 63
    105c:	f8 94       	cli
    105e:	de bf       	out	0x3e, r29	; 62
    1060:	0f be       	out	0x3f, r0	; 63
    1062:	cd bf       	out	0x3d, r28	; 61
    1064:	df 91       	pop	r29
    1066:	cf 91       	pop	r28
    1068:	1f 91       	pop	r17
    106a:	0f 91       	pop	r16
    106c:	ff 90       	pop	r15
    106e:	08 95       	ret

00001070 <LCD_DisplayTimeSetMonths>:

void LCD_DisplayTimeSetMonths(byte month, byte showPrompt)
{	char buf[10];
    1070:	ff 92       	push	r15
    1072:	0f 93       	push	r16
    1074:	1f 93       	push	r17
    1076:	cf 93       	push	r28
    1078:	df 93       	push	r29
    107a:	cd b7       	in	r28, 0x3d	; 61
    107c:	de b7       	in	r29, 0x3e	; 62
    107e:	2a 97       	sbiw	r28, 0x0a	; 10
    1080:	0f b6       	in	r0, 0x3f	; 63
    1082:	f8 94       	cli
    1084:	de bf       	out	0x3e, r29	; 62
    1086:	0f be       	out	0x3f, r0	; 63
    1088:	cd bf       	out	0x3d, r28	; 61
    108a:	f8 2e       	mov	r15, r24
	if (showPrompt) {
    108c:	66 23       	and	r22, r22
    108e:	51 f0       	breq	.+20     	; 0x10a4 <LCD_DisplayTimeSetMonths+0x34>
		LCD_Reset();
    1090:	0e 94 2a 04 	call	0x854	; 0x854 <LCD_Reset>
		lcd_gotoxy(0,0);
    1094:	60 e0       	ldi	r22, 0x00	; 0
    1096:	80 e0       	ldi	r24, 0x00	; 0
    1098:	0e 94 55 20 	call	0x40aa	; 0x40aa <lcd_gotoxy>
		lcd_puts("Month: ");
    109c:	87 ee       	ldi	r24, 0xE7	; 231
    109e:	91 e0       	ldi	r25, 0x01	; 1
    10a0:	0e 94 9e 20 	call	0x413c	; 0x413c <lcd_puts>
	}
	lcd_gotoxy(7,0);
    10a4:	60 e0       	ldi	r22, 0x00	; 0
    10a6:	87 e0       	ldi	r24, 0x07	; 7
    10a8:	0e 94 55 20 	call	0x40aa	; 0x40aa <lcd_gotoxy>
	
	int tensMonth = month / 10;
    10ac:	2d ec       	ldi	r18, 0xCD	; 205
    10ae:	f2 9e       	mul	r15, r18
    10b0:	21 2d       	mov	r18, r1
    10b2:	11 24       	eor	r1, r1
    10b4:	26 95       	lsr	r18
    10b6:	26 95       	lsr	r18
    10b8:	26 95       	lsr	r18
	int onesMonth = month - (month / 10) * 10;
    10ba:	36 ef       	ldi	r19, 0xF6	; 246
    10bc:	32 03       	mulsu	r19, r18
    10be:	80 01       	movw	r16, r0
    10c0:	11 24       	eor	r1, r1
    10c2:	0f 0d       	add	r16, r15
    10c4:	11 1d       	adc	r17, r1
    10c6:	4a e0       	ldi	r20, 0x0A	; 10
    10c8:	be 01       	movw	r22, r28
    10ca:	6f 5f       	subi	r22, 0xFF	; 255
    10cc:	7f 4f       	sbci	r23, 0xFF	; 255
    10ce:	82 2f       	mov	r24, r18
    10d0:	90 e0       	ldi	r25, 0x00	; 0
    10d2:	0e 94 9a 25 	call	0x4b34	; 0x4b34 <__itoa_ncheck>

	itoa(tensMonth, buf, 10);
	lcd_putc(*buf);
    10d6:	89 81       	ldd	r24, Y+1	; 0x01
    10d8:	0e 94 7a 20 	call	0x40f4	; 0x40f4 <lcd_putc>
    10dc:	4a e0       	ldi	r20, 0x0A	; 10
    10de:	be 01       	movw	r22, r28
    10e0:	6f 5f       	subi	r22, 0xFF	; 255
    10e2:	7f 4f       	sbci	r23, 0xFF	; 255
    10e4:	c8 01       	movw	r24, r16
    10e6:	0e 94 9a 25 	call	0x4b34	; 0x4b34 <__itoa_ncheck>

	itoa(onesMonth, buf, 10);
	lcd_putc(*buf);
    10ea:	89 81       	ldd	r24, Y+1	; 0x01
    10ec:	0e 94 7a 20 	call	0x40f4	; 0x40f4 <lcd_putc>
}
    10f0:	2a 96       	adiw	r28, 0x0a	; 10
    10f2:	0f b6       	in	r0, 0x3f	; 63
    10f4:	f8 94       	cli
    10f6:	de bf       	out	0x3e, r29	; 62
    10f8:	0f be       	out	0x3f, r0	; 63
    10fa:	cd bf       	out	0x3d, r28	; 61
    10fc:	df 91       	pop	r29
    10fe:	cf 91       	pop	r28
    1100:	1f 91       	pop	r17
    1102:	0f 91       	pop	r16
    1104:	ff 90       	pop	r15
    1106:	08 95       	ret

00001108 <LCD_DisplayTimeSetDays>:

void LCD_DisplayTimeSetDays(byte day, byte showPrompt)
{	char buf[10];
    1108:	ff 92       	push	r15
    110a:	0f 93       	push	r16
    110c:	1f 93       	push	r17
    110e:	cf 93       	push	r28
    1110:	df 93       	push	r29
    1112:	cd b7       	in	r28, 0x3d	; 61
    1114:	de b7       	in	r29, 0x3e	; 62
    1116:	2a 97       	sbiw	r28, 0x0a	; 10
    1118:	0f b6       	in	r0, 0x3f	; 63
    111a:	f8 94       	cli
    111c:	de bf       	out	0x3e, r29	; 62
    111e:	0f be       	out	0x3f, r0	; 63
    1120:	cd bf       	out	0x3d, r28	; 61
    1122:	f8 2e       	mov	r15, r24
	if (showPrompt) {
    1124:	66 23       	and	r22, r22
    1126:	51 f0       	breq	.+20     	; 0x113c <LCD_DisplayTimeSetDays+0x34>
		LCD_Reset();
    1128:	0e 94 2a 04 	call	0x854	; 0x854 <LCD_Reset>
		lcd_gotoxy(0,0);
    112c:	60 e0       	ldi	r22, 0x00	; 0
    112e:	80 e0       	ldi	r24, 0x00	; 0
    1130:	0e 94 55 20 	call	0x40aa	; 0x40aa <lcd_gotoxy>
		lcd_puts("Day: ");
    1134:	8f ee       	ldi	r24, 0xEF	; 239
    1136:	91 e0       	ldi	r25, 0x01	; 1
    1138:	0e 94 9e 20 	call	0x413c	; 0x413c <lcd_puts>
	}
	lcd_gotoxy(5,0);
    113c:	60 e0       	ldi	r22, 0x00	; 0
    113e:	85 e0       	ldi	r24, 0x05	; 5
    1140:	0e 94 55 20 	call	0x40aa	; 0x40aa <lcd_gotoxy>
	
	int tensDay = day / 10;
    1144:	2d ec       	ldi	r18, 0xCD	; 205
    1146:	f2 9e       	mul	r15, r18
    1148:	21 2d       	mov	r18, r1
    114a:	11 24       	eor	r1, r1
    114c:	26 95       	lsr	r18
    114e:	26 95       	lsr	r18
    1150:	26 95       	lsr	r18
	int onesDay = day - (day / 10) * 10;
    1152:	36 ef       	ldi	r19, 0xF6	; 246
    1154:	32 03       	mulsu	r19, r18
    1156:	80 01       	movw	r16, r0
    1158:	11 24       	eor	r1, r1
    115a:	0f 0d       	add	r16, r15
    115c:	11 1d       	adc	r17, r1
    115e:	4a e0       	ldi	r20, 0x0A	; 10
    1160:	be 01       	movw	r22, r28
    1162:	6f 5f       	subi	r22, 0xFF	; 255
    1164:	7f 4f       	sbci	r23, 0xFF	; 255
    1166:	82 2f       	mov	r24, r18
    1168:	90 e0       	ldi	r25, 0x00	; 0
    116a:	0e 94 9a 25 	call	0x4b34	; 0x4b34 <__itoa_ncheck>

	itoa(tensDay, buf, 10);
	lcd_putc(*buf);
    116e:	89 81       	ldd	r24, Y+1	; 0x01
    1170:	0e 94 7a 20 	call	0x40f4	; 0x40f4 <lcd_putc>
    1174:	4a e0       	ldi	r20, 0x0A	; 10
    1176:	be 01       	movw	r22, r28
    1178:	6f 5f       	subi	r22, 0xFF	; 255
    117a:	7f 4f       	sbci	r23, 0xFF	; 255
    117c:	c8 01       	movw	r24, r16
    117e:	0e 94 9a 25 	call	0x4b34	; 0x4b34 <__itoa_ncheck>

	itoa(onesDay, buf, 10);
	lcd_putc(*buf);
    1182:	89 81       	ldd	r24, Y+1	; 0x01
    1184:	0e 94 7a 20 	call	0x40f4	; 0x40f4 <lcd_putc>
}
    1188:	2a 96       	adiw	r28, 0x0a	; 10
    118a:	0f b6       	in	r0, 0x3f	; 63
    118c:	f8 94       	cli
    118e:	de bf       	out	0x3e, r29	; 62
    1190:	0f be       	out	0x3f, r0	; 63
    1192:	cd bf       	out	0x3d, r28	; 61
    1194:	df 91       	pop	r29
    1196:	cf 91       	pop	r28
    1198:	1f 91       	pop	r17
    119a:	0f 91       	pop	r16
    119c:	ff 90       	pop	r15
    119e:	08 95       	ret

000011a0 <LCD_DisplayTimeSetHours>:
	}
	
}

void LCD_DisplayTimeSetHours(byte hour, byte showPrompt)
{	char buf[10];
    11a0:	ff 92       	push	r15
    11a2:	0f 93       	push	r16
    11a4:	1f 93       	push	r17
    11a6:	cf 93       	push	r28
    11a8:	df 93       	push	r29
    11aa:	cd b7       	in	r28, 0x3d	; 61
    11ac:	de b7       	in	r29, 0x3e	; 62
    11ae:	2a 97       	sbiw	r28, 0x0a	; 10
    11b0:	0f b6       	in	r0, 0x3f	; 63
    11b2:	f8 94       	cli
    11b4:	de bf       	out	0x3e, r29	; 62
    11b6:	0f be       	out	0x3f, r0	; 63
    11b8:	cd bf       	out	0x3d, r28	; 61
    11ba:	f8 2e       	mov	r15, r24
	if (showPrompt) {
    11bc:	66 23       	and	r22, r22
    11be:	51 f0       	breq	.+20     	; 0x11d4 <LCD_DisplayTimeSetHours+0x34>
		LCD_Reset();
    11c0:	0e 94 2a 04 	call	0x854	; 0x854 <LCD_Reset>
		lcd_gotoxy(0,0);
    11c4:	60 e0       	ldi	r22, 0x00	; 0
    11c6:	80 e0       	ldi	r24, 0x00	; 0
    11c8:	0e 94 55 20 	call	0x40aa	; 0x40aa <lcd_gotoxy>
		lcd_puts("Hour: ");
    11cc:	8b ec       	ldi	r24, 0xCB	; 203
    11ce:	91 e0       	ldi	r25, 0x01	; 1
    11d0:	0e 94 9e 20 	call	0x413c	; 0x413c <lcd_puts>
	}
	lcd_gotoxy(6,0);
    11d4:	60 e0       	ldi	r22, 0x00	; 0
    11d6:	86 e0       	ldi	r24, 0x06	; 6
    11d8:	0e 94 55 20 	call	0x40aa	; 0x40aa <lcd_gotoxy>
	
	int tensHour = hour / 10;
    11dc:	2d ec       	ldi	r18, 0xCD	; 205
    11de:	f2 9e       	mul	r15, r18
    11e0:	21 2d       	mov	r18, r1
    11e2:	11 24       	eor	r1, r1
    11e4:	26 95       	lsr	r18
    11e6:	26 95       	lsr	r18
    11e8:	26 95       	lsr	r18
	int onesHour = hour - (hour / 10) * 10;
    11ea:	36 ef       	ldi	r19, 0xF6	; 246
    11ec:	32 03       	mulsu	r19, r18
    11ee:	80 01       	movw	r16, r0
    11f0:	11 24       	eor	r1, r1
    11f2:	0f 0d       	add	r16, r15
    11f4:	11 1d       	adc	r17, r1
    11f6:	4a e0       	ldi	r20, 0x0A	; 10
    11f8:	be 01       	movw	r22, r28
    11fa:	6f 5f       	subi	r22, 0xFF	; 255
    11fc:	7f 4f       	sbci	r23, 0xFF	; 255
    11fe:	82 2f       	mov	r24, r18
    1200:	90 e0       	ldi	r25, 0x00	; 0
    1202:	0e 94 9a 25 	call	0x4b34	; 0x4b34 <__itoa_ncheck>

	itoa(tensHour, buf, 10);
	lcd_putc(*buf);
    1206:	89 81       	ldd	r24, Y+1	; 0x01
    1208:	0e 94 7a 20 	call	0x40f4	; 0x40f4 <lcd_putc>
    120c:	4a e0       	ldi	r20, 0x0A	; 10
    120e:	be 01       	movw	r22, r28
    1210:	6f 5f       	subi	r22, 0xFF	; 255
    1212:	7f 4f       	sbci	r23, 0xFF	; 255
    1214:	c8 01       	movw	r24, r16
    1216:	0e 94 9a 25 	call	0x4b34	; 0x4b34 <__itoa_ncheck>

	itoa(onesHour, buf, 10);
	lcd_putc(*buf);
    121a:	89 81       	ldd	r24, Y+1	; 0x01
    121c:	0e 94 7a 20 	call	0x40f4	; 0x40f4 <lcd_putc>
}
    1220:	2a 96       	adiw	r28, 0x0a	; 10
    1222:	0f b6       	in	r0, 0x3f	; 63
    1224:	f8 94       	cli
    1226:	de bf       	out	0x3e, r29	; 62
    1228:	0f be       	out	0x3f, r0	; 63
    122a:	cd bf       	out	0x3d, r28	; 61
    122c:	df 91       	pop	r29
    122e:	cf 91       	pop	r28
    1230:	1f 91       	pop	r17
    1232:	0f 91       	pop	r16
    1234:	ff 90       	pop	r15
    1236:	08 95       	ret

00001238 <LCD_DisplayTimeSetMinutes>:

void LCD_DisplayTimeSetMinutes(byte minute, byte showPrompt)
{	char buf[10];
    1238:	ff 92       	push	r15
    123a:	0f 93       	push	r16
    123c:	1f 93       	push	r17
    123e:	cf 93       	push	r28
    1240:	df 93       	push	r29
    1242:	cd b7       	in	r28, 0x3d	; 61
    1244:	de b7       	in	r29, 0x3e	; 62
    1246:	2a 97       	sbiw	r28, 0x0a	; 10
    1248:	0f b6       	in	r0, 0x3f	; 63
    124a:	f8 94       	cli
    124c:	de bf       	out	0x3e, r29	; 62
    124e:	0f be       	out	0x3f, r0	; 63
    1250:	cd bf       	out	0x3d, r28	; 61
    1252:	f8 2e       	mov	r15, r24
	if (showPrompt) {
    1254:	66 23       	and	r22, r22
    1256:	51 f0       	breq	.+20     	; 0x126c <LCD_DisplayTimeSetMinutes+0x34>
		LCD_Reset();
    1258:	0e 94 2a 04 	call	0x854	; 0x854 <LCD_Reset>
		lcd_gotoxy(0,0);
    125c:	60 e0       	ldi	r22, 0x00	; 0
    125e:	80 e0       	ldi	r24, 0x00	; 0
    1260:	0e 94 55 20 	call	0x40aa	; 0x40aa <lcd_gotoxy>
		lcd_puts("Minute: ");
    1264:	87 ed       	ldi	r24, 0xD7	; 215
    1266:	91 e0       	ldi	r25, 0x01	; 1
    1268:	0e 94 9e 20 	call	0x413c	; 0x413c <lcd_puts>
	}
	lcd_gotoxy(8,0);
    126c:	60 e0       	ldi	r22, 0x00	; 0
    126e:	88 e0       	ldi	r24, 0x08	; 8
    1270:	0e 94 55 20 	call	0x40aa	; 0x40aa <lcd_gotoxy>
	
	int tensMinute = minute / 10;
    1274:	2d ec       	ldi	r18, 0xCD	; 205
    1276:	f2 9e       	mul	r15, r18
    1278:	21 2d       	mov	r18, r1
    127a:	11 24       	eor	r1, r1
    127c:	26 95       	lsr	r18
    127e:	26 95       	lsr	r18
    1280:	26 95       	lsr	r18
	int onesMinute = minute - (minute / 10) * 10;
    1282:	36 ef       	ldi	r19, 0xF6	; 246
    1284:	32 03       	mulsu	r19, r18
    1286:	80 01       	movw	r16, r0
    1288:	11 24       	eor	r1, r1
    128a:	0f 0d       	add	r16, r15
    128c:	11 1d       	adc	r17, r1
    128e:	4a e0       	ldi	r20, 0x0A	; 10
    1290:	be 01       	movw	r22, r28
    1292:	6f 5f       	subi	r22, 0xFF	; 255
    1294:	7f 4f       	sbci	r23, 0xFF	; 255
    1296:	82 2f       	mov	r24, r18
    1298:	90 e0       	ldi	r25, 0x00	; 0
    129a:	0e 94 9a 25 	call	0x4b34	; 0x4b34 <__itoa_ncheck>

	itoa(tensMinute, buf, 10);
	lcd_putc(*buf);
    129e:	89 81       	ldd	r24, Y+1	; 0x01
    12a0:	0e 94 7a 20 	call	0x40f4	; 0x40f4 <lcd_putc>
    12a4:	4a e0       	ldi	r20, 0x0A	; 10
    12a6:	be 01       	movw	r22, r28
    12a8:	6f 5f       	subi	r22, 0xFF	; 255
    12aa:	7f 4f       	sbci	r23, 0xFF	; 255
    12ac:	c8 01       	movw	r24, r16
    12ae:	0e 94 9a 25 	call	0x4b34	; 0x4b34 <__itoa_ncheck>

	itoa(onesMinute, buf, 10);
	lcd_putc(*buf);
    12b2:	89 81       	ldd	r24, Y+1	; 0x01
    12b4:	0e 94 7a 20 	call	0x40f4	; 0x40f4 <lcd_putc>
}
    12b8:	2a 96       	adiw	r28, 0x0a	; 10
    12ba:	0f b6       	in	r0, 0x3f	; 63
    12bc:	f8 94       	cli
    12be:	de bf       	out	0x3e, r29	; 62
    12c0:	0f be       	out	0x3f, r0	; 63
    12c2:	cd bf       	out	0x3d, r28	; 61
    12c4:	df 91       	pop	r29
    12c6:	cf 91       	pop	r28
    12c8:	1f 91       	pop	r17
    12ca:	0f 91       	pop	r16
    12cc:	ff 90       	pop	r15
    12ce:	08 95       	ret

000012d0 <LCD_DisplayTimeSetSeconds>:

void LCD_DisplayTimeSetSeconds(byte second, byte showPrompt)
{	char buf[10];
    12d0:	ff 92       	push	r15
    12d2:	0f 93       	push	r16
    12d4:	1f 93       	push	r17
    12d6:	cf 93       	push	r28
    12d8:	df 93       	push	r29
    12da:	cd b7       	in	r28, 0x3d	; 61
    12dc:	de b7       	in	r29, 0x3e	; 62
    12de:	2a 97       	sbiw	r28, 0x0a	; 10
    12e0:	0f b6       	in	r0, 0x3f	; 63
    12e2:	f8 94       	cli
    12e4:	de bf       	out	0x3e, r29	; 62
    12e6:	0f be       	out	0x3f, r0	; 63
    12e8:	cd bf       	out	0x3d, r28	; 61
    12ea:	f8 2e       	mov	r15, r24
	if (showPrompt) {
    12ec:	66 23       	and	r22, r22
    12ee:	51 f0       	breq	.+20     	; 0x1304 <LCD_DisplayTimeSetSeconds+0x34>
		LCD_Reset();
    12f0:	0e 94 2a 04 	call	0x854	; 0x854 <LCD_Reset>
		lcd_gotoxy(0,0);
    12f4:	60 e0       	ldi	r22, 0x00	; 0
    12f6:	80 e0       	ldi	r24, 0x00	; 0
    12f8:	0e 94 55 20 	call	0x40aa	; 0x40aa <lcd_gotoxy>
		lcd_puts("Second: ");
    12fc:	85 ef       	ldi	r24, 0xF5	; 245
    12fe:	91 e0       	ldi	r25, 0x01	; 1
    1300:	0e 94 9e 20 	call	0x413c	; 0x413c <lcd_puts>
	}
	lcd_gotoxy(8,0);
    1304:	60 e0       	ldi	r22, 0x00	; 0
    1306:	88 e0       	ldi	r24, 0x08	; 8
    1308:	0e 94 55 20 	call	0x40aa	; 0x40aa <lcd_gotoxy>
	
	int tensSecond = second / 10;
    130c:	2d ec       	ldi	r18, 0xCD	; 205
    130e:	f2 9e       	mul	r15, r18
    1310:	21 2d       	mov	r18, r1
    1312:	11 24       	eor	r1, r1
    1314:	26 95       	lsr	r18
    1316:	26 95       	lsr	r18
    1318:	26 95       	lsr	r18
	int onesSecond = second - (second / 10) * 10;
    131a:	36 ef       	ldi	r19, 0xF6	; 246
    131c:	32 03       	mulsu	r19, r18
    131e:	80 01       	movw	r16, r0
    1320:	11 24       	eor	r1, r1
    1322:	0f 0d       	add	r16, r15
    1324:	11 1d       	adc	r17, r1
    1326:	4a e0       	ldi	r20, 0x0A	; 10
    1328:	be 01       	movw	r22, r28
    132a:	6f 5f       	subi	r22, 0xFF	; 255
    132c:	7f 4f       	sbci	r23, 0xFF	; 255
    132e:	82 2f       	mov	r24, r18
    1330:	90 e0       	ldi	r25, 0x00	; 0
    1332:	0e 94 9a 25 	call	0x4b34	; 0x4b34 <__itoa_ncheck>

	itoa(tensSecond, buf, 10);
	lcd_putc(*buf);
    1336:	89 81       	ldd	r24, Y+1	; 0x01
    1338:	0e 94 7a 20 	call	0x40f4	; 0x40f4 <lcd_putc>
    133c:	4a e0       	ldi	r20, 0x0A	; 10
    133e:	be 01       	movw	r22, r28
    1340:	6f 5f       	subi	r22, 0xFF	; 255
    1342:	7f 4f       	sbci	r23, 0xFF	; 255
    1344:	c8 01       	movw	r24, r16
    1346:	0e 94 9a 25 	call	0x4b34	; 0x4b34 <__itoa_ncheck>

	itoa(onesSecond, buf, 10);
	lcd_putc(*buf);
    134a:	89 81       	ldd	r24, Y+1	; 0x01
    134c:	0e 94 7a 20 	call	0x40f4	; 0x40f4 <lcd_putc>
}
    1350:	2a 96       	adiw	r28, 0x0a	; 10
    1352:	0f b6       	in	r0, 0x3f	; 63
    1354:	f8 94       	cli
    1356:	de bf       	out	0x3e, r29	; 62
    1358:	0f be       	out	0x3f, r0	; 63
    135a:	cd bf       	out	0x3d, r28	; 61
    135c:	df 91       	pop	r29
    135e:	cf 91       	pop	r28
    1360:	1f 91       	pop	r17
    1362:	0f 91       	pop	r16
    1364:	ff 90       	pop	r15
    1366:	08 95       	ret

00001368 <LCD_DisplayTimeSetMilitary>:

void LCD_DisplayTimeSetMilitary(byte milTimeOn, byte showPrompt)
{	
    1368:	cf 93       	push	r28
    136a:	c8 2f       	mov	r28, r24
	if (showPrompt) {
    136c:	66 23       	and	r22, r22
    136e:	51 f0       	breq	.+20     	; 0x1384 <LCD_DisplayTimeSetMilitary+0x1c>
		LCD_Reset();
    1370:	0e 94 2a 04 	call	0x854	; 0x854 <LCD_Reset>
		lcd_gotoxy(0,0);
    1374:	60 e0       	ldi	r22, 0x00	; 0
    1376:	80 e0       	ldi	r24, 0x00	; 0
    1378:	0e 94 55 20 	call	0x40aa	; 0x40aa <lcd_gotoxy>
		lcd_puts("Mil Time: ");
    137c:	8e ef       	ldi	r24, 0xFE	; 254
    137e:	91 e0       	ldi	r25, 0x01	; 1
    1380:	0e 94 9e 20 	call	0x413c	; 0x413c <lcd_puts>
	}
	lcd_gotoxy(10,0);
    1384:	60 e0       	ldi	r22, 0x00	; 0
    1386:	8a e0       	ldi	r24, 0x0A	; 10
    1388:	0e 94 55 20 	call	0x40aa	; 0x40aa <lcd_gotoxy>

	
	if (milTimeOn) lcd_puts("On");
    138c:	cc 23       	and	r28, r28
    138e:	29 f0       	breq	.+10     	; 0x139a <LCD_DisplayTimeSetMilitary+0x32>
    1390:	89 e0       	ldi	r24, 0x09	; 9
    1392:	92 e0       	ldi	r25, 0x02	; 2
    1394:	0e 94 9e 20 	call	0x413c	; 0x413c <lcd_puts>
    1398:	04 c0       	rjmp	.+8      	; 0x13a2 <LCD_DisplayTimeSetMilitary+0x3a>
	if (!milTimeOn) lcd_puts("Off");
    139a:	8c e0       	ldi	r24, 0x0C	; 12
    139c:	92 e0       	ldi	r25, 0x02	; 2
    139e:	0e 94 9e 20 	call	0x413c	; 0x413c <lcd_puts>
}
    13a2:	cf 91       	pop	r28
    13a4:	08 95       	ret

000013a6 <LCD_DisplayTimeWakeToRadio>:

void LCD_DisplayTimeWakeToRadio(byte wakeToRadio, byte showPrompt)
{
    13a6:	cf 93       	push	r28
    13a8:	c8 2f       	mov	r28, r24
	if (showPrompt) {
    13aa:	66 23       	and	r22, r22
    13ac:	51 f0       	breq	.+20     	; 0x13c2 <LCD_DisplayTimeWakeToRadio+0x1c>
		LCD_Reset();
    13ae:	0e 94 2a 04 	call	0x854	; 0x854 <LCD_Reset>
		lcd_gotoxy(0,0);
    13b2:	60 e0       	ldi	r22, 0x00	; 0
    13b4:	80 e0       	ldi	r24, 0x00	; 0
    13b6:	0e 94 55 20 	call	0x40aa	; 0x40aa <lcd_gotoxy>
		lcd_puts("Radio Wake: ");
    13ba:	80 e1       	ldi	r24, 0x10	; 16
    13bc:	92 e0       	ldi	r25, 0x02	; 2
    13be:	0e 94 9e 20 	call	0x413c	; 0x413c <lcd_puts>
	}
	lcd_gotoxy(12,0);
    13c2:	60 e0       	ldi	r22, 0x00	; 0
    13c4:	8c e0       	ldi	r24, 0x0C	; 12
    13c6:	0e 94 55 20 	call	0x40aa	; 0x40aa <lcd_gotoxy>

	
	if (wakeToRadio) lcd_puts("Yes");
    13ca:	cc 23       	and	r28, r28
    13cc:	29 f0       	breq	.+10     	; 0x13d8 <LCD_DisplayTimeWakeToRadio+0x32>
    13ce:	8d e1       	ldi	r24, 0x1D	; 29
    13d0:	92 e0       	ldi	r25, 0x02	; 2
    13d2:	0e 94 9e 20 	call	0x413c	; 0x413c <lcd_puts>
    13d6:	04 c0       	rjmp	.+8      	; 0x13e0 <LCD_DisplayTimeWakeToRadio+0x3a>
	if (!wakeToRadio) lcd_puts("No ");
    13d8:	81 e2       	ldi	r24, 0x21	; 33
    13da:	92 e0       	ldi	r25, 0x02	; 2
    13dc:	0e 94 9e 20 	call	0x413c	; 0x413c <lcd_puts>
}
    13e0:	cf 91       	pop	r28
    13e2:	08 95       	ret

000013e4 <DS1307_ReadTime>:

/************************************************************************/
/* DS1307 Real Time Clock Interface                                     */
/************************************************************************/
void DS1307_ReadTime(byte *hours, byte *minutes, byte *seconds)			// returns hours, minutes, and seconds in BCD format
{   //debug("DS1307_ReadTime()");
    13e4:	ef 92       	push	r14
    13e6:	ff 92       	push	r15
    13e8:	0f 93       	push	r16
    13ea:	1f 93       	push	r17
    13ec:	cf 93       	push	r28
    13ee:	df 93       	push	r29
    13f0:	8c 01       	movw	r16, r24
    13f2:	7b 01       	movw	r14, r22
    13f4:	ea 01       	movw	r28, r20
    *hours = I2C_ReadRegister(DS1307_ADDRESS,HOURS_REGISTER);
    13f6:	62 e0       	ldi	r22, 0x02	; 2
    13f8:	80 ed       	ldi	r24, 0xD0	; 208
    13fa:	0e 94 5e 01 	call	0x2bc	; 0x2bc <I2C_ReadRegister>
    13fe:	f8 01       	movw	r30, r16
    1400:	80 83       	st	Z, r24
    *minutes = I2C_ReadRegister(DS1307_ADDRESS,MINUTES_REGISTER);
    1402:	61 e0       	ldi	r22, 0x01	; 1
    1404:	80 ed       	ldi	r24, 0xD0	; 208
    1406:	0e 94 5e 01 	call	0x2bc	; 0x2bc <I2C_ReadRegister>
    140a:	f7 01       	movw	r30, r14
    140c:	80 83       	st	Z, r24
    *seconds = I2C_ReadRegister(DS1307_ADDRESS,SECONDS_REGISTER);
    140e:	60 e0       	ldi	r22, 0x00	; 0
    1410:	80 ed       	ldi	r24, 0xD0	; 208
    1412:	0e 94 5e 01 	call	0x2bc	; 0x2bc <I2C_ReadRegister>
    1416:	88 83       	st	Y, r24
	debugMetric("Read Seconds 1",*seconds);
    1418:	68 2f       	mov	r22, r24
    141a:	70 e0       	ldi	r23, 0x00	; 0
    141c:	85 e2       	ldi	r24, 0x25	; 37
    141e:	92 e0       	ldi	r25, 0x02	; 2
    1420:	0e 94 9a 00 	call	0x134	; 0x134 <debugMetric>
    if (*hours & 0x40)	{												// 12hr mode: 0b01000000
    1424:	f8 01       	movw	r30, r16
    1426:	90 81       	ld	r25, Z
    1428:	96 ff       	sbrs	r25, 6
    142a:	03 c0       	rjmp	.+6      	; 0x1432 <DS1307_ReadTime+0x4e>
        *hours &= 0x1F;													// use bottom 5 bits (pm bit = temp & 0x20) 0b00011111
    142c:	9f 71       	andi	r25, 0x1F	; 31
    142e:	90 83       	st	Z, r25
    1430:	03 c0       	rjmp	.+6      	; 0x1438 <DS1307_ReadTime+0x54>
    } else {
		*hours &= 0x3F;													// 24hr mode: use bottom 6 bits 0b00111111
    1432:	9f 73       	andi	r25, 0x3F	; 63
    1434:	f8 01       	movw	r30, r16
    1436:	90 83       	st	Z, r25
	}
	*seconds &= 0b01111111;												// bit 7 is the clock halt bit so just use the bottom 7 bits for seconds
    1438:	68 81       	ld	r22, Y
    143a:	6f 77       	andi	r22, 0x7F	; 127
    143c:	68 83       	st	Y, r22
	debugMetric("Read Seconds 2",*seconds);
    143e:	70 e0       	ldi	r23, 0x00	; 0
    1440:	84 e3       	ldi	r24, 0x34	; 52
    1442:	92 e0       	ldi	r25, 0x02	; 2
    1444:	0e 94 9a 00 	call	0x134	; 0x134 <debugMetric>
}
    1448:	df 91       	pop	r29
    144a:	cf 91       	pop	r28
    144c:	1f 91       	pop	r17
    144e:	0f 91       	pop	r16
    1450:	ff 90       	pop	r15
    1452:	ef 90       	pop	r14
    1454:	08 95       	ret

00001456 <DS1307_ReadDate>:
																		// returns months, days, and years in BCD format
void DS1307_ReadDate(byte *years, byte *months, byte *days, byte *dayOfWeek) 
{	//debug("DS1307_ReadDate");
    1456:	cf 92       	push	r12
    1458:	df 92       	push	r13
    145a:	ef 92       	push	r14
    145c:	ff 92       	push	r15
    145e:	0f 93       	push	r16
    1460:	1f 93       	push	r17
    1462:	cf 93       	push	r28
    1464:	df 93       	push	r29
    1466:	6c 01       	movw	r12, r24
    1468:	7b 01       	movw	r14, r22
    146a:	8a 01       	movw	r16, r20
    146c:	e9 01       	movw	r28, r18
	*years	=		I2C_ReadRegister(DS1307_ADDRESS,YEARS_REGISTER	);
    146e:	66 e0       	ldi	r22, 0x06	; 6
    1470:	80 ed       	ldi	r24, 0xD0	; 208
    1472:	0e 94 5e 01 	call	0x2bc	; 0x2bc <I2C_ReadRegister>
    1476:	f6 01       	movw	r30, r12
    1478:	80 83       	st	Z, r24
	*months =		I2C_ReadRegister(DS1307_ADDRESS,MONTHS_REGISTER	);
    147a:	65 e0       	ldi	r22, 0x05	; 5
    147c:	80 ed       	ldi	r24, 0xD0	; 208
    147e:	0e 94 5e 01 	call	0x2bc	; 0x2bc <I2C_ReadRegister>
    1482:	f7 01       	movw	r30, r14
    1484:	80 83       	st	Z, r24
    *days	=		I2C_ReadRegister(DS1307_ADDRESS,DAYS_REGISTER	);
    1486:	64 e0       	ldi	r22, 0x04	; 4
    1488:	80 ed       	ldi	r24, 0xD0	; 208
    148a:	0e 94 5e 01 	call	0x2bc	; 0x2bc <I2C_ReadRegister>
    148e:	f8 01       	movw	r30, r16
    1490:	80 83       	st	Z, r24
	*dayOfWeek =	I2C_ReadRegister(DS1307_ADDRESS,DAYOFWK_REGISTER);
    1492:	63 e0       	ldi	r22, 0x03	; 3
    1494:	80 ed       	ldi	r24, 0xD0	; 208
    1496:	0e 94 5e 01 	call	0x2bc	; 0x2bc <I2C_ReadRegister>
    149a:	88 83       	st	Y, r24
	//debugMetric("dayOfWeek", *dayOfWeek);
}
    149c:	df 91       	pop	r29
    149e:	cf 91       	pop	r28
    14a0:	1f 91       	pop	r17
    14a2:	0f 91       	pop	r16
    14a4:	ff 90       	pop	r15
    14a6:	ef 90       	pop	r14
    14a8:	df 90       	pop	r13
    14aa:	cf 90       	pop	r12
    14ac:	08 95       	ret

000014ae <TEA5767_write>:

/************************************************************************/
/* TEA5767                                                              */
/************************************************************************/
int TEA5767_write(void)
{
    14ae:	ef 92       	push	r14
    14b0:	ff 92       	push	r15
    14b2:	0f 93       	push	r16
    14b4:	1f 93       	push	r17
    14b6:	cf 93       	push	r28
    14b8:	df 93       	push	r29
	uint8_t ret = FALSE;
	TWCR = (1<<TWINT)|(1<<TWSTA)|(1<<TWEN);								// I2C start
    14ba:	84 ea       	ldi	r24, 0xA4	; 164
    14bc:	80 93 bc 00 	sts	0x00BC, r24
	while (!(TWCR & (1<<TWINT)));           							// I2C wait
    14c0:	ec eb       	ldi	r30, 0xBC	; 188
    14c2:	f0 e0       	ldi	r31, 0x00	; 0
    14c4:	80 81       	ld	r24, Z
    14c6:	88 23       	and	r24, r24
    14c8:	ec f7       	brge	.-6      	; 0x14c4 <TEA5767_write+0x16>
	
																		// check value of TWI Status Register. Mask prescaler bits.
	uint8_t twst = TW_STATUS & 0xF8;
    14ca:	60 91 b9 00 	lds	r22, 0x00B9
    14ce:	68 7f       	andi	r22, 0xF8	; 248
	if ( (twst != TW_START) && (twst != TW_REP_START))
    14d0:	68 30       	cpi	r22, 0x08	; 8
    14d2:	49 f0       	breq	.+18     	; 0x14e6 <TEA5767_write+0x38>
    14d4:	60 31       	cpi	r22, 0x10	; 16
    14d6:	49 f0       	breq	.+18     	; 0x14ea <TEA5767_write+0x3c>
	{
		debugMetric("Write error @START, twst", twst);
    14d8:	70 e0       	ldi	r23, 0x00	; 0
    14da:	83 e4       	ldi	r24, 0x43	; 67
    14dc:	92 e0       	ldi	r25, 0x02	; 2
    14de:	0e 94 9a 00 	call	0x134	; 0x134 <debugMetric>
		ret = TRUE;
    14e2:	81 e0       	ldi	r24, 0x01	; 1
    14e4:	03 c0       	rjmp	.+6      	; 0x14ec <TEA5767_write+0x3e>
/************************************************************************/
/* TEA5767                                                              */
/************************************************************************/
int TEA5767_write(void)
{
	uint8_t ret = FALSE;
    14e6:	80 e0       	ldi	r24, 0x00	; 0
    14e8:	01 c0       	rjmp	.+2      	; 0x14ec <TEA5767_write+0x3e>
    14ea:	80 e0       	ldi	r24, 0x00	; 0
	{
		debugMetric("Write error @START, twst", twst);
		ret = TRUE;
	}
	
	TWDR = SLA_W;                            							// send address
    14ec:	90 ec       	ldi	r25, 0xC0	; 192
    14ee:	90 93 bb 00 	sts	0x00BB, r25
	TWCR = (1<<TWINT) | (1<<TWEN);
    14f2:	94 e8       	ldi	r25, 0x84	; 132
    14f4:	90 93 bc 00 	sts	0x00BC, r25
	while (!(TWCR & (1<<TWINT)));
    14f8:	ec eb       	ldi	r30, 0xBC	; 188
    14fa:	f0 e0       	ldi	r31, 0x00	; 0
    14fc:	90 81       	ld	r25, Z
    14fe:	99 23       	and	r25, r25
    1500:	ec f7       	brge	.-6      	; 0x14fc <TEA5767_write+0x4e>
	
	twst = TW_STATUS & 0xF8;
    1502:	60 91 b9 00 	lds	r22, 0x00B9
    1506:	68 7f       	andi	r22, 0xF8	; 248
	if ( (twst != TW_MT_SLA_ACK) && (twst != TW_MR_SLA_ACK) )
    1508:	68 31       	cpi	r22, 0x18	; 24
    150a:	41 f0       	breq	.+16     	; 0x151c <TEA5767_write+0x6e>
    150c:	60 34       	cpi	r22, 0x40	; 64
    150e:	31 f0       	breq	.+12     	; 0x151c <TEA5767_write+0x6e>
	{
		debugMetric("Write error @ADDR, twst", twst);
    1510:	70 e0       	ldi	r23, 0x00	; 0
    1512:	8c e5       	ldi	r24, 0x5C	; 92
    1514:	92 e0       	ldi	r25, 0x02	; 2
    1516:	0e 94 9a 00 	call	0x134	; 0x134 <debugMetric>
		ret = TRUE;
    151a:	81 e0       	ldi	r24, 0x01	; 1
    151c:	a9 e9       	ldi	r26, 0x99	; 153
    151e:	b7 e0       	ldi	r27, 0x07	; 7
    1520:	0e e9       	ldi	r16, 0x9E	; 158
    1522:	17 e0       	ldi	r17, 0x07	; 7
	}
	
	for (uint8_t i = 0; i < 5; i++)										// send registers
	{
		TWDR = write_bytes[i];
    1524:	4b eb       	ldi	r20, 0xBB	; 187
    1526:	50 e0       	ldi	r21, 0x00	; 0
		TWCR = (1<<TWINT) | (1<<TWEN);
    1528:	ec eb       	ldi	r30, 0xBC	; 188
    152a:	f0 e0       	ldi	r31, 0x00	; 0
    152c:	24 e8       	ldi	r18, 0x84	; 132
		while (!(TWCR & (1<<TWINT)));
																		// check value of TWI Status Register. Mask prescaler bits
		twst = TW_STATUS & 0xF8;
    152e:	0f 2e       	mov	r0, r31
    1530:	f9 eb       	ldi	r31, 0xB9	; 185
    1532:	ef 2e       	mov	r14, r31
    1534:	f1 2c       	mov	r15, r1
    1536:	f0 2d       	mov	r31, r0
		ret = TRUE;
	}
	
	for (uint8_t i = 0; i < 5; i++)										// send registers
	{
		TWDR = write_bytes[i];
    1538:	9d 91       	ld	r25, X+
    153a:	ea 01       	movw	r28, r20
    153c:	98 83       	st	Y, r25
		TWCR = (1<<TWINT) | (1<<TWEN);
    153e:	20 83       	st	Z, r18
		while (!(TWCR & (1<<TWINT)));
    1540:	90 81       	ld	r25, Z
    1542:	99 23       	and	r25, r25
    1544:	ec f7       	brge	.-6      	; 0x1540 <TEA5767_write+0x92>
																		// check value of TWI Status Register. Mask prescaler bits
		twst = TW_STATUS & 0xF8;
    1546:	e7 01       	movw	r28, r14
    1548:	68 81       	ld	r22, Y
    154a:	68 7f       	andi	r22, 0xF8	; 248
		if( twst != TW_MT_DATA_ACK)
    154c:	68 32       	cpi	r22, 0x28	; 40
    154e:	39 f0       	breq	.+14     	; 0x155e <TEA5767_write+0xb0>
		{
			debugMetric("Write error, twst", twst);
    1550:	70 e0       	ldi	r23, 0x00	; 0
    1552:	84 e7       	ldi	r24, 0x74	; 116
    1554:	92 e0       	ldi	r25, 0x02	; 2
    1556:	0e 94 9a 00 	call	0x134	; 0x134 <debugMetric>
			ret = TRUE;
    155a:	81 e0       	ldi	r24, 0x01	; 1
			break;
    155c:	03 c0       	rjmp	.+6      	; 0x1564 <TEA5767_write+0xb6>
	{
		debugMetric("Write error @ADDR, twst", twst);
		ret = TRUE;
	}
	
	for (uint8_t i = 0; i < 5; i++)										// send registers
    155e:	a0 17       	cp	r26, r16
    1560:	b1 07       	cpc	r27, r17
    1562:	51 f7       	brne	.-44     	; 0x1538 <TEA5767_write+0x8a>
			ret = TRUE;
			break;
		}
	}
	
	TWCR = (1<<TWINT)|(1<<TWEN)|(1<<TWSTO);								// I2C stop
    1564:	94 e9       	ldi	r25, 0x94	; 148
    1566:	90 93 bc 00 	sts	0x00BC, r25
																		// wait until stop condition is executed and bus released
	while(TWCR & (1<<TWSTO));
    156a:	ec eb       	ldi	r30, 0xBC	; 188
    156c:	f0 e0       	ldi	r31, 0x00	; 0
    156e:	90 81       	ld	r25, Z
    1570:	94 fd       	sbrc	r25, 4
    1572:	fd cf       	rjmp	.-6      	; 0x156e <TEA5767_write+0xc0>
	return ret;
}
    1574:	90 e0       	ldi	r25, 0x00	; 0
    1576:	df 91       	pop	r29
    1578:	cf 91       	pop	r28
    157a:	1f 91       	pop	r17
    157c:	0f 91       	pop	r16
    157e:	ff 90       	pop	r15
    1580:	ef 90       	pop	r14
    1582:	08 95       	ret

00001584 <TEA5767_read>:

int TEA5767_read(void)													// Read data from TEA5767, put results in global variable static unsigned char read_bytes[5]
{
    1584:	cf 93       	push	r28
    1586:	df 93       	push	r29
	uint8_t ret = FALSE;
	TWCR = (1<<TWINT)|(1<<TWSTA)|(1<<TWEN);								// I2C start
    1588:	84 ea       	ldi	r24, 0xA4	; 164
    158a:	80 93 bc 00 	sts	0x00BC, r24
	while (!(TWCR & (1<<TWINT)));
    158e:	ec eb       	ldi	r30, 0xBC	; 188
    1590:	f0 e0       	ldi	r31, 0x00	; 0
    1592:	80 81       	ld	r24, Z
    1594:	88 23       	and	r24, r24
    1596:	ec f7       	brge	.-6      	; 0x1592 <TEA5767_read+0xe>
	
	uint8_t twst = TW_STATUS & 0xF8;									// check value of TWI Status Register. Mask prescaler bits.
    1598:	60 91 b9 00 	lds	r22, 0x00B9
    159c:	68 7f       	andi	r22, 0xF8	; 248
	if ( (twst != TW_START) && (twst != TW_REP_START))
    159e:	68 30       	cpi	r22, 0x08	; 8
    15a0:	49 f0       	breq	.+18     	; 0x15b4 <TEA5767_read+0x30>
    15a2:	60 31       	cpi	r22, 0x10	; 16
    15a4:	49 f0       	breq	.+18     	; 0x15b8 <TEA5767_read+0x34>
	{
		debugMetric("Read error @START, twst", twst);
    15a6:	70 e0       	ldi	r23, 0x00	; 0
    15a8:	86 e8       	ldi	r24, 0x86	; 134
    15aa:	92 e0       	ldi	r25, 0x02	; 2
    15ac:	0e 94 9a 00 	call	0x134	; 0x134 <debugMetric>
		ret = TRUE;
    15b0:	81 e0       	ldi	r24, 0x01	; 1
    15b2:	03 c0       	rjmp	.+6      	; 0x15ba <TEA5767_read+0x36>
	return ret;
}

int TEA5767_read(void)													// Read data from TEA5767, put results in global variable static unsigned char read_bytes[5]
{
	uint8_t ret = FALSE;
    15b4:	80 e0       	ldi	r24, 0x00	; 0
    15b6:	01 c0       	rjmp	.+2      	; 0x15ba <TEA5767_read+0x36>
    15b8:	80 e0       	ldi	r24, 0x00	; 0
	{
		debugMetric("Read error @START, twst", twst);
		ret = TRUE;
	}
	
	TWDR = SLA_R;                           							// send address
    15ba:	91 ec       	ldi	r25, 0xC1	; 193
    15bc:	90 93 bb 00 	sts	0x00BB, r25
	TWCR = (1<<TWINT) | (1<<TWEN);
    15c0:	94 e8       	ldi	r25, 0x84	; 132
    15c2:	90 93 bc 00 	sts	0x00BC, r25
	while (!(TWCR & (1<<TWINT)));
    15c6:	ec eb       	ldi	r30, 0xBC	; 188
    15c8:	f0 e0       	ldi	r31, 0x00	; 0
    15ca:	90 81       	ld	r25, Z
    15cc:	99 23       	and	r25, r25
    15ce:	ec f7       	brge	.-6      	; 0x15ca <TEA5767_read+0x46>
		
	twst = TW_STATUS & 0xF8;											// check value of TWI Status Register. Mask prescaler bits.
    15d0:	60 91 b9 00 	lds	r22, 0x00B9
    15d4:	68 7f       	andi	r22, 0xF8	; 248
	if ( (twst != TW_MT_SLA_ACK) && (twst != TW_MR_SLA_ACK) )
    15d6:	68 31       	cpi	r22, 0x18	; 24
    15d8:	41 f0       	breq	.+16     	; 0x15ea <TEA5767_read+0x66>
    15da:	60 34       	cpi	r22, 0x40	; 64
    15dc:	31 f0       	breq	.+12     	; 0x15ea <TEA5767_read+0x66>
	{
		debugMetric("Read error @ADDR, twst", twst);
    15de:	70 e0       	ldi	r23, 0x00	; 0
    15e0:	8e e9       	ldi	r24, 0x9E	; 158
    15e2:	92 e0       	ldi	r25, 0x02	; 2
    15e4:	0e 94 9a 00 	call	0x134	; 0x134 <debugMetric>
		ret = TRUE;
    15e8:	81 e0       	ldi	r24, 0x01	; 1
    15ea:	a4 e9       	ldi	r26, 0x94	; 148
    15ec:	b7 e0       	ldi	r27, 0x07	; 7
	}
	
	for (uint8_t i = 0; i < 5; i++)
    15ee:	20 e0       	ldi	r18, 0x00	; 0
	{
		if (i != 4)
			TWACK;
		else
			TWNACK;
    15f0:	ec eb       	ldi	r30, 0xBC	; 188
    15f2:	f0 e0       	ldi	r31, 0x00	; 0
    15f4:	44 e8       	ldi	r20, 0x84	; 132
	}
	
	for (uint8_t i = 0; i < 5; i++)
	{
		if (i != 4)
			TWACK;
    15f6:	34 ec       	ldi	r19, 0xC4	; 196
		else
			TWNACK;
		while (!(TWCR & (1<<TWINT)));
		read_bytes[i] = TWDR;											// read into global variable read_bytes
    15f8:	cb eb       	ldi	r28, 0xBB	; 187
    15fa:	d0 e0       	ldi	r29, 0x00	; 0
		ret = TRUE;
	}
	
	for (uint8_t i = 0; i < 5; i++)
	{
		if (i != 4)
    15fc:	24 30       	cpi	r18, 0x04	; 4
    15fe:	11 f0       	breq	.+4      	; 0x1604 <TEA5767_read+0x80>
			TWACK;
    1600:	30 83       	st	Z, r19
    1602:	01 c0       	rjmp	.+2      	; 0x1606 <TEA5767_read+0x82>
		else
			TWNACK;
    1604:	40 83       	st	Z, r20
		while (!(TWCR & (1<<TWINT)));
    1606:	90 81       	ld	r25, Z
    1608:	99 23       	and	r25, r25
    160a:	ec f7       	brge	.-6      	; 0x1606 <TEA5767_read+0x82>
		read_bytes[i] = TWDR;											// read into global variable read_bytes
    160c:	98 81       	ld	r25, Y
    160e:	9d 93       	st	X+, r25
	{
		debugMetric("Read error @ADDR, twst", twst);
		ret = TRUE;
	}
	
	for (uint8_t i = 0; i < 5; i++)
    1610:	2f 5f       	subi	r18, 0xFF	; 255
    1612:	25 30       	cpi	r18, 0x05	; 5
    1614:	99 f7       	brne	.-26     	; 0x15fc <TEA5767_read+0x78>
			TWNACK;
		while (!(TWCR & (1<<TWINT)));
		read_bytes[i] = TWDR;											// read into global variable read_bytes
	}
	
	TWCR = (1<<TWINT)|(1<<TWEN)|(1<<TWSTO);								// I2C stop
    1616:	94 e9       	ldi	r25, 0x94	; 148
    1618:	90 93 bc 00 	sts	0x00BC, r25
																		
	while(TWCR & (1<<TWSTO));											// wait until stop condition is executed and bus released
    161c:	ec eb       	ldi	r30, 0xBC	; 188
    161e:	f0 e0       	ldi	r31, 0x00	; 0
    1620:	90 81       	ld	r25, Z
    1622:	94 fd       	sbrc	r25, 4
    1624:	fd cf       	rjmp	.-6      	; 0x1620 <TEA5767_read+0x9c>
	return ret;
}
    1626:	90 e0       	ldi	r25, 0x00	; 0
    1628:	df 91       	pop	r29
    162a:	cf 91       	pop	r28
    162c:	08 95       	ret

0000162e <TEA5767_mute>:
}

void TEA5767_mute()
{
	//debug("Mute");
	write_bytes[0] |= TEA5767_MUTE;
    162e:	e9 e9       	ldi	r30, 0x99	; 153
    1630:	f7 e0       	ldi	r31, 0x07	; 7
    1632:	80 81       	ld	r24, Z
    1634:	80 68       	ori	r24, 0x80	; 128
    1636:	80 83       	st	Z, r24
	TEA5767_write();
    1638:	0e 94 57 0a 	call	0x14ae	; 0x14ae <TEA5767_write>
    163c:	08 95       	ret

0000163e <TEA5767_unmute>:
}

void TEA5767_unmute()
{
	//debug("un-mute");
	write_bytes[0] &= ~TEA5767_MUTE;
    163e:	e9 e9       	ldi	r30, 0x99	; 153
    1640:	f7 e0       	ldi	r31, 0x07	; 7
    1642:	80 81       	ld	r24, Z
    1644:	8f 77       	andi	r24, 0x7F	; 127
    1646:	80 83       	st	Z, r24
	TEA5767_write();
    1648:	0e 94 57 0a 	call	0x14ae	; 0x14ae <TEA5767_write>
    164c:	08 95       	ret

0000164e <TEA5767_tune>:
}

void TEA5767_tune(uint32_t value)
{
    164e:	cf 92       	push	r12
    1650:	df 92       	push	r13
    1652:	ef 92       	push	r14
    1654:	ff 92       	push	r15
    1656:	6b 01       	movw	r12, r22
    1658:	7c 01       	movw	r14, r24
	debugMetric("Tune", (unsigned int)(value/100));						// reference frequency = 32768 Hz
    165a:	24 e6       	ldi	r18, 0x64	; 100
    165c:	30 e0       	ldi	r19, 0x00	; 0
    165e:	40 e0       	ldi	r20, 0x00	; 0
    1660:	50 e0       	ldi	r21, 0x00	; 0
    1662:	0e 94 42 24 	call	0x4884	; 0x4884 <__udivmodsi4>
    1666:	b9 01       	movw	r22, r18
    1668:	85 eb       	ldi	r24, 0xB5	; 181
    166a:	92 e0       	ldi	r25, 0x02	; 2
    166c:	0e 94 9a 00 	call	0x134	; 0x134 <debugMetric>
	uint16_t n = (uint32_t)4*(value*1000 - 225000) >> 15;				// low side injection formula
    1670:	a0 ea       	ldi	r26, 0xA0	; 160
    1672:	bf e0       	ldi	r27, 0x0F	; 15
    1674:	a7 01       	movw	r20, r14
    1676:	96 01       	movw	r18, r12
    1678:	0e 94 92 24 	call	0x4924	; 0x4924 <__muluhisi3>
    167c:	dc 01       	movw	r26, r24
    167e:	cb 01       	movw	r24, r22
    1680:	80 5a       	subi	r24, 0xA0	; 160
    1682:	9b 4b       	sbci	r25, 0xBB	; 187
    1684:	ad 40       	sbci	r26, 0x0D	; 13
    1686:	b1 09       	sbc	r27, r1
    1688:	07 2e       	mov	r0, r23
    168a:	7f e0       	ldi	r23, 0x0F	; 15
    168c:	b6 95       	lsr	r27
    168e:	a7 95       	ror	r26
    1690:	97 95       	ror	r25
    1692:	87 95       	ror	r24
    1694:	7a 95       	dec	r23
    1696:	d1 f7       	brne	.-12     	; 0x168c <TEA5767_tune+0x3e>
    1698:	70 2d       	mov	r23, r0
	write_bytes[0] = (write_bytes[0] & 0xC0) | (n >> 8);
    169a:	e9 e9       	ldi	r30, 0x99	; 153
    169c:	f7 e0       	ldi	r31, 0x07	; 7
    169e:	20 81       	ld	r18, Z
    16a0:	20 7c       	andi	r18, 0xC0	; 192
    16a2:	29 2b       	or	r18, r25
    16a4:	20 83       	st	Z, r18
	write_bytes[1] = n & 0xFF;
    16a6:	81 83       	std	Z+1, r24	; 0x01
	g_state.tune = value;
    16a8:	c0 92 2e 01 	sts	0x012E, r12
    16ac:	d0 92 2f 01 	sts	0x012F, r13
    16b0:	e0 92 30 01 	sts	0x0130, r14
    16b4:	f0 92 31 01 	sts	0x0131, r15
}
    16b8:	ff 90       	pop	r15
    16ba:	ef 90       	pop	r14
    16bc:	df 90       	pop	r13
    16be:	cf 90       	pop	r12
    16c0:	08 95       	ret

000016c2 <TEA5767_get_status>:
	g_state.tune = ((((read_bytes[0]&0x3F)<<8)+read_bytes[1])*32768/4 + 225000)/1000;
	debugMetric("Exit search, tuned", (unsigned int)(g_state.tune/100));
}

int TEA5767_get_status(struct TEA5767_status *status)
{
    16c2:	0f 93       	push	r16
    16c4:	1f 93       	push	r17
    16c6:	cf 93       	push	r28
    16c8:	df 93       	push	r29
    16ca:	ec 01       	movw	r28, r24
	TEA5767_read();
    16cc:	0e 94 c2 0a 	call	0x1584	; 0x1584 <TEA5767_read>
	debugMetric("read_bytes[0]",read_bytes[0]);
    16d0:	04 e9       	ldi	r16, 0x94	; 148
    16d2:	17 e0       	ldi	r17, 0x07	; 7
    16d4:	f8 01       	movw	r30, r16
    16d6:	60 81       	ld	r22, Z
    16d8:	70 e0       	ldi	r23, 0x00	; 0
    16da:	83 ee       	ldi	r24, 0xE3	; 227
    16dc:	92 e0       	ldi	r25, 0x02	; 2
    16de:	0e 94 9a 00 	call	0x134	; 0x134 <debugMetric>
	debugMetric("read_bytes[1]",read_bytes[1]);
    16e2:	f8 01       	movw	r30, r16
    16e4:	61 81       	ldd	r22, Z+1	; 0x01
    16e6:	70 e0       	ldi	r23, 0x00	; 0
    16e8:	81 ef       	ldi	r24, 0xF1	; 241
    16ea:	92 e0       	ldi	r25, 0x02	; 2
    16ec:	0e 94 9a 00 	call	0x134	; 0x134 <debugMetric>
	debugMetric("read_bytes[2]",read_bytes[2]);
    16f0:	f8 01       	movw	r30, r16
    16f2:	62 81       	ldd	r22, Z+2	; 0x02
    16f4:	70 e0       	ldi	r23, 0x00	; 0
    16f6:	8f ef       	ldi	r24, 0xFF	; 255
    16f8:	92 e0       	ldi	r25, 0x02	; 2
    16fa:	0e 94 9a 00 	call	0x134	; 0x134 <debugMetric>
	debugMetric("read_bytes[3]",read_bytes[3]);
    16fe:	f8 01       	movw	r30, r16
    1700:	63 81       	ldd	r22, Z+3	; 0x03
    1702:	70 e0       	ldi	r23, 0x00	; 0
    1704:	8d e0       	ldi	r24, 0x0D	; 13
    1706:	93 e0       	ldi	r25, 0x03	; 3
    1708:	0e 94 9a 00 	call	0x134	; 0x134 <debugMetric>
	debugMetric("read_bytes[4]",read_bytes[4]);
    170c:	f8 01       	movw	r30, r16
    170e:	64 81       	ldd	r22, Z+4	; 0x04
    1710:	70 e0       	ldi	r23, 0x00	; 0
    1712:	8b e1       	ldi	r24, 0x1B	; 27
    1714:	93 e0       	ldi	r25, 0x03	; 3
    1716:	0e 94 9a 00 	call	0x134	; 0x134 <debugMetric>
	memset(status, 0, sizeof(*status));
    171a:	85 e0       	ldi	r24, 0x05	; 5
    171c:	fe 01       	movw	r30, r28
    171e:	11 92       	st	Z+, r1
    1720:	8a 95       	dec	r24
    1722:	e9 f7       	brne	.-6      	; 0x171e <TEA5767_get_status+0x5c>
	
	uint32_t freq = ((((read_bytes[0] & 0b00111111) << 8) + read_bytes[1]) * 32768/4 + 225000)/1000; // 0x3F 1st data byte: MUTE SM PLL13 PLL12 PLL11 PLL10 PLL9 PLL8
    1724:	f8 01       	movw	r30, r16
    1726:	40 81       	ld	r20, Z
    1728:	4f 73       	andi	r20, 0x3F	; 63
    172a:	50 e0       	ldi	r21, 0x00	; 0
    172c:	54 2f       	mov	r21, r20
    172e:	44 27       	eor	r20, r20
    1730:	81 81       	ldd	r24, Z+1	; 0x01
    1732:	48 0f       	add	r20, r24
    1734:	51 1d       	adc	r21, r1
    1736:	05 2e       	mov	r0, r21
    1738:	00 0c       	add	r0, r0
    173a:	66 0b       	sbc	r22, r22
    173c:	77 0b       	sbc	r23, r23
    173e:	db 01       	movw	r26, r22
    1740:	ca 01       	movw	r24, r20
    1742:	07 2e       	mov	r0, r23
    1744:	7f e0       	ldi	r23, 0x0F	; 15
    1746:	88 0f       	add	r24, r24
    1748:	99 1f       	adc	r25, r25
    174a:	aa 1f       	adc	r26, r26
    174c:	bb 1f       	adc	r27, r27
    174e:	7a 95       	dec	r23
    1750:	d1 f7       	brne	.-12     	; 0x1746 <TEA5767_get_status+0x84>
    1752:	70 2d       	mov	r23, r0
    1754:	60 ff       	sbrs	r22, 0
    1756:	03 c0       	rjmp	.+6      	; 0x175e <TEA5767_get_status+0x9c>
    1758:	03 96       	adiw	r24, 0x03	; 3
    175a:	a1 1d       	adc	r26, r1
    175c:	b1 1d       	adc	r27, r1
    175e:	b5 95       	asr	r27
    1760:	a7 95       	ror	r26
    1762:	97 95       	ror	r25
    1764:	87 95       	ror	r24
    1766:	b5 95       	asr	r27
    1768:	a7 95       	ror	r26
    176a:	97 95       	ror	r25
    176c:	87 95       	ror	r24
    176e:	bc 01       	movw	r22, r24
    1770:	cd 01       	movw	r24, r26
    1772:	68 51       	subi	r22, 0x18	; 24
    1774:	71 49       	sbci	r23, 0x91	; 145
    1776:	8c 4f       	sbci	r24, 0xFC	; 252
    1778:	9f 4f       	sbci	r25, 0xFF	; 255
    177a:	28 ee       	ldi	r18, 0xE8	; 232
    177c:	33 e0       	ldi	r19, 0x03	; 3
    177e:	40 e0       	ldi	r20, 0x00	; 0
    1780:	50 e0       	ldi	r21, 0x00	; 0
    1782:	0e 94 64 24 	call	0x48c8	; 0x48c8 <__divmodsi4>
	debugMetric("Freq", (unsigned int)(freq/100));
    1786:	ca 01       	movw	r24, r20
    1788:	b9 01       	movw	r22, r18
    178a:	24 e6       	ldi	r18, 0x64	; 100
    178c:	30 e0       	ldi	r19, 0x00	; 0
    178e:	40 e0       	ldi	r20, 0x00	; 0
    1790:	50 e0       	ldi	r21, 0x00	; 0
    1792:	0e 94 42 24 	call	0x4884	; 0x4884 <__udivmodsi4>
    1796:	b9 01       	movw	r22, r18
    1798:	89 e2       	ldi	r24, 0x29	; 41
    179a:	93 e0       	ldi	r25, 0x03	; 3
    179c:	0e 94 9a 00 	call	0x134	; 0x134 <debugMetric>
	
	if (read_bytes[0] & TEA5767_READY_FLAG)	{							// if ready flag is set; TEA5767_READY_FLAG = 0b10000000 Ready Flag: if RF = 1 then a station has been found or the band limit
    17a0:	80 91 94 07 	lds	r24, 0x0794
    17a4:	88 23       	and	r24, r24
    17a6:	dc f4       	brge	.+54     	; 0x17de <TEA5767_get_status+0x11c>
																		// has been reached; if RF = 0 then no station has been found
		debug("station has been found or the band limit has been reached");
    17a8:	8e e2       	ldi	r24, 0x2E	; 46
    17aa:	93 e0       	ldi	r25, 0x03	; 3
    17ac:	0e 94 53 00 	call	0xa6	; 0xa6 <debug>
		status->ready = 1;
    17b0:	81 e0       	ldi	r24, 0x01	; 1
    17b2:	88 83       	st	Y, r24
		uint8_t val = read_bytes[2] & 0b01111111;						// IF counter 0x7F
    17b4:	00 91 96 07 	lds	r16, 0x0796
    17b8:	0f 77       	andi	r16, 0x7F	; 127
		debugMetric("IF counter", val);
    17ba:	10 e0       	ldi	r17, 0x00	; 0
    17bc:	b8 01       	movw	r22, r16
    17be:	88 e6       	ldi	r24, 0x68	; 104
    17c0:	93 e0       	ldi	r25, 0x03	; 3
    17c2:	0e 94 9a 00 	call	0x134	; 0x134 <debugMetric>
		if (abs(val - 0b00110110 ) < 2) 								// close match 0x36  [if 127 - 54 > 2?]
    17c6:	05 53       	subi	r16, 0x35	; 53
    17c8:	11 09       	sbc	r17, r1
    17ca:	03 30       	cpi	r16, 0x03	; 3
    17cc:	11 05       	cpc	r17, r1
    17ce:	58 f4       	brcc	.+22     	; 0x17e6 <TEA5767_get_status+0x124>
		{
			debug("Tuned!");
    17d0:	83 e7       	ldi	r24, 0x73	; 115
    17d2:	93 e0       	ldi	r25, 0x03	; 3
    17d4:	0e 94 53 00 	call	0xa6	; 0xa6 <debug>
			status->tuned = 1;
    17d8:	81 e0       	ldi	r24, 0x01	; 1
    17da:	8a 83       	std	Y+2, r24	; 0x02
    17dc:	04 c0       	rjmp	.+8      	; 0x17e6 <TEA5767_get_status+0x124>
		}
	} else {
		debug("no station has been found");
    17de:	8a e7       	ldi	r24, 0x7A	; 122
    17e0:	93 e0       	ldi	r25, 0x03	; 3
    17e2:	0e 94 53 00 	call	0xa6	; 0xa6 <debug>
	}
	if (read_bytes[0] & TEA5767_BAND_LIMIT_FLAG)
    17e6:	80 91 94 07 	lds	r24, 0x0794
    17ea:	86 ff       	sbrs	r24, 6
    17ec:	07 c0       	rjmp	.+14     	; 0x17fc <TEA5767_get_status+0x13a>
	{
		debug("Band limit reached");
    17ee:	84 e9       	ldi	r24, 0x94	; 148
    17f0:	93 e0       	ldi	r25, 0x03	; 3
    17f2:	0e 94 53 00 	call	0xa6	; 0xa6 <debug>
		status->band_limit = 1;
    17f6:	81 e0       	ldi	r24, 0x01	; 1
    17f8:	89 83       	std	Y+1, r24	; 0x01
    17fa:	04 c0       	rjmp	.+8      	; 0x1804 <TEA5767_get_status+0x142>
	} else {
		debug("band limit not reached");
    17fc:	87 ea       	ldi	r24, 0xA7	; 167
    17fe:	93 e0       	ldi	r25, 0x03	; 3
    1800:	0e 94 53 00 	call	0xa6	; 0xa6 <debug>
	}
	if (read_bytes[2] & TEA5767_STEREO)
    1804:	80 91 96 07 	lds	r24, 0x0796
    1808:	88 23       	and	r24, r24
    180a:	3c f4       	brge	.+14     	; 0x181a <TEA5767_get_status+0x158>
	{
		debug("Stereo reception");
    180c:	8e eb       	ldi	r24, 0xBE	; 190
    180e:	93 e0       	ldi	r25, 0x03	; 3
    1810:	0e 94 53 00 	call	0xa6	; 0xa6 <debug>
		status->stereo = 1;
    1814:	81 e0       	ldi	r24, 0x01	; 1
    1816:	8b 83       	std	Y+3, r24	; 0x03
    1818:	05 c0       	rjmp	.+10     	; 0x1824 <TEA5767_get_status+0x162>
	} else {
		debug("mono reception");
    181a:	8f ec       	ldi	r24, 0xCF	; 207
    181c:	93 e0       	ldi	r25, 0x03	; 3
    181e:	0e 94 53 00 	call	0xa6	; 0xa6 <debug>
		status->stereo = 0;
    1822:	1b 82       	std	Y+3, r1	; 0x03
	}
	status->rx_power = read_bytes[3] >> 4;
    1824:	60 91 97 07 	lds	r22, 0x0797
    1828:	62 95       	swap	r22
    182a:	6f 70       	andi	r22, 0x0F	; 15
    182c:	6c 83       	std	Y+4, r22	; 0x04
	debugMetric("rx_power", status->rx_power);
    182e:	70 e0       	ldi	r23, 0x00	; 0
    1830:	8e ed       	ldi	r24, 0xDE	; 222
    1832:	93 e0       	ldi	r25, 0x03	; 3
    1834:	0e 94 9a 00 	call	0x134	; 0x134 <debugMetric>
	return 0;
}
    1838:	80 e0       	ldi	r24, 0x00	; 0
    183a:	90 e0       	ldi	r25, 0x00	; 0
    183c:	df 91       	pop	r29
    183e:	cf 91       	pop	r28
    1840:	1f 91       	pop	r17
    1842:	0f 91       	pop	r16
    1844:	08 95       	ret

00001846 <initTimer0>:
/************************************************************************/
/* Initialize Timers                                                    */
/************************************************************************/

void initTimer0(void) 													// Night Light - Initialize the timer, this timer is for the photo resistive sensor
{   OCR0A = 0;															// set this for PWM duty cycle    
    1846:	17 bc       	out	0x27, r1	; 39
    TCCR0A |= (1 << COM0A1);											// set none-inverting mode        
    1848:	84 b5       	in	r24, 0x24	; 36
    184a:	80 68       	ori	r24, 0x80	; 128
    184c:	84 bd       	out	0x24, r24	; 36
    TCCR0A |= (1 << WGM01) | (1 << WGM00);								// set fast PWM Mode              
    184e:	84 b5       	in	r24, 0x24	; 36
    1850:	83 60       	ori	r24, 0x03	; 3
    1852:	84 bd       	out	0x24, r24	; 36
    TCCR0B |= (1 << CS01);												// set prescaler to 8, starts PWM 
    1854:	85 b5       	in	r24, 0x25	; 37
    1856:	82 60       	ori	r24, 0x02	; 2
    1858:	85 bd       	out	0x25, r24	; 37
    TIMSK0 |= (1 << TOIE0);												// overflow interrupt enable      
    185a:	ee e6       	ldi	r30, 0x6E	; 110
    185c:	f0 e0       	ldi	r31, 0x00	; 0
    185e:	80 81       	ld	r24, Z
    1860:	81 60       	ori	r24, 0x01	; 1
    1862:	80 83       	st	Z, r24
    1864:	08 95       	ret

00001866 <initTimer1>:
}

void initTimer1(void) 													// Real Time Clock
{   OCR1A = 31249;														// 31249 - when we hit this # 1 sec has elapsed @ 8mhz w/ prescaler @ 256
    1866:	81 e1       	ldi	r24, 0x11	; 17
    1868:	9a e7       	ldi	r25, 0x7A	; 122
    186a:	90 93 89 00 	sts	0x0089, r25
    186e:	80 93 88 00 	sts	0x0088, r24
    TCCR1B |= (1 << WGM12);												// Mode 4, CTC on OCR1A
    1872:	e1 e8       	ldi	r30, 0x81	; 129
    1874:	f0 e0       	ldi	r31, 0x00	; 0
    1876:	80 81       	ld	r24, Z
    1878:	88 60       	ori	r24, 0x08	; 8
    187a:	80 83       	st	Z, r24
    TIMSK1 |= (1 << OCIE1A);											// Set interrupt on compare match
    187c:	af e6       	ldi	r26, 0x6F	; 111
    187e:	b0 e0       	ldi	r27, 0x00	; 0
    1880:	8c 91       	ld	r24, X
    1882:	82 60       	ori	r24, 0x02	; 2
    1884:	8c 93       	st	X, r24
    TCCR1B |= (1 << CS12);												// set prescaler to 1024 and start the timer
    1886:	80 81       	ld	r24, Z
    1888:	84 60       	ori	r24, 0x04	; 4
    188a:	80 83       	st	Z, r24
    188c:	08 95       	ret

0000188e <initTimer2>:
}												

void initTimer2(void) 													// CO sensor - this is for the two different voltages needed for the CO sensor, 1.4v & 5v
{	CO_DDR |= (1 << CO_POWER_PIN);										// output pin for timer2 is OC2A which is PB3
    188e:	23 9a       	sbi	0x04, 3	; 4
	OCR2A = 0;															// set PWM for 5v
    1890:	10 92 b3 00 	sts	0x00B3, r1
	TCCR2A |= (1 << COM2A1) | (1 << COM2A0);							// Set OC2A on Compare Match, clear OC2A at BOTTOM (inverting mode)
    1894:	e0 eb       	ldi	r30, 0xB0	; 176
    1896:	f0 e0       	ldi	r31, 0x00	; 0
    1898:	80 81       	ld	r24, Z
    189a:	80 6c       	ori	r24, 0xC0	; 192
    189c:	80 83       	st	Z, r24
	TCCR2A |= (1 << WGM21) | (1 << WGM20);								// set fast PWM Mode
    189e:	80 81       	ld	r24, Z
    18a0:	83 60       	ori	r24, 0x03	; 3
    18a2:	80 83       	st	Z, r24
	TCCR2B |= (1 << CS21);												// set prescaler to 8 and starts PWM
    18a4:	e1 eb       	ldi	r30, 0xB1	; 177
    18a6:	f0 e0       	ldi	r31, 0x00	; 0
    18a8:	80 81       	ld	r24, Z
    18aa:	82 60       	ori	r24, 0x02	; 2
    18ac:	80 83       	st	Z, r24
	TIMSK2 |= (1 << TOIE2);												// overflow interrupt enable
    18ae:	e0 e7       	ldi	r30, 0x70	; 112
    18b0:	f0 e0       	ldi	r31, 0x00	; 0
    18b2:	80 81       	ld	r24, Z
    18b4:	81 60       	ori	r24, 0x01	; 1
    18b6:	80 83       	st	Z, r24
    18b8:	08 95       	ret

000018ba <offTimer2>:
}

void offTimer2(void)													// Turn off PMW for the CO sensor
{	TCCR2B &= ~((1 << CS20)|(1 << CS21)|(1 << CS22));					// No clock source (Timer/Counter stopped).
    18ba:	e1 eb       	ldi	r30, 0xB1	; 177
    18bc:	f0 e0       	ldi	r31, 0x00	; 0
    18be:	80 81       	ld	r24, Z
    18c0:	88 7f       	andi	r24, 0xF8	; 248
    18c2:	80 83       	st	Z, r24
	TIMSK2 &= ~(1<<TOIE2);												// Disable the timer overflow interrupt
    18c4:	e0 e7       	ldi	r30, 0x70	; 112
    18c6:	f0 e0       	ldi	r31, 0x00	; 0
    18c8:	80 81       	ld	r24, Z
    18ca:	8e 7f       	andi	r24, 0xFE	; 254
    18cc:	80 83       	st	Z, r24
	SWITCH_DDR &= ~(1 << CO_POWER_PIN);									// CO_POWER_PIN no longer for output
    18ce:	23 98       	cbi	0x04, 3	; 4
    18d0:	08 95       	ret

000018d2 <InitInturrupts>:

/************************************************************************/
/* Interrupts                                                           */
/************************************************************************/
void InitInturrupts()													// Initialize interrupts for buttons and switches
{	PCICR |= (1 << PCIE_SWITCH);										// Pin Change Interrupt Control Register, set PCIE0 to enable PCMSK0 scan
    18d2:	e8 e6       	ldi	r30, 0x68	; 104
    18d4:	f0 e0       	ldi	r31, 0x00	; 0
    18d6:	80 81       	ld	r24, Z
    18d8:	81 60       	ori	r24, 0x01	; 1
    18da:	80 83       	st	Z, r24
																		// Pin Change Mask Register 0 for port B
	PCMSK_SWITCH |= (1 << BUTTON_STATE_INT) | (1 << BUTTON_ACTION_INT) | (1 << ALARM_SWITCH_INT) | (1 << CO_PIN_INT);
    18dc:	ab e6       	ldi	r26, 0x6B	; 107
    18de:	b0 e0       	ldi	r27, 0x00	; 0
    18e0:	8c 91       	ld	r24, X
    18e2:	87 62       	ori	r24, 0x27	; 39
    18e4:	8c 93       	st	X, r24
																		// Set PCINT0 to trigger an interrupt on state change
	PCICR |= (1 << PCIE_RADIO);											// Pin Change Interrupt Control Register, set PCIE2 to enable PCMSK2 scan
    18e6:	80 81       	ld	r24, Z
    18e8:	84 60       	ori	r24, 0x04	; 4
    18ea:	80 83       	st	Z, r24
																		// Pin Change Mask Register 2 for port D
	PCMSK_RADIO |= (1 << BUTTON_SEARCH_UP_INT) | (1 << BUTTON_SEARCH_DOWN_INT) | (1 << BUTTON_RADIO_ONOFF_INT);
    18ec:	ed e6       	ldi	r30, 0x6D	; 109
    18ee:	f0 e0       	ldi	r31, 0x00	; 0
    18f0:	80 81       	ld	r24, Z
    18f2:	8c 61       	ori	r24, 0x1C	; 28
    18f4:	80 83       	st	Z, r24
    18f6:	08 95       	ret

000018f8 <InitADC0>:

/************************************************************************/
/* Analog to digital conversion                                         */
/************************************************************************/
void InitADC0()															// Initialize ADC
{	ADMUX |= (1 << REFS0);												// reference voltage on AVCC
    18f8:	ec e7       	ldi	r30, 0x7C	; 124
    18fa:	f0 e0       	ldi	r31, 0x00	; 0
    18fc:	80 81       	ld	r24, Z
    18fe:	80 64       	ori	r24, 0x40	; 64
    1900:	80 83       	st	Z, r24
	ADCSRA |= (1 << ADPS1) | (1 << ADPS0);								// ADC clock prescaler  / 8
    1902:	ea e7       	ldi	r30, 0x7A	; 122
    1904:	f0 e0       	ldi	r31, 0x00	; 0
    1906:	80 81       	ld	r24, Z
    1908:	83 60       	ori	r24, 0x03	; 3
    190a:	80 83       	st	Z, r24
	ADCSRA |= (1 << ADEN);												// enable ADC
    190c:	80 81       	ld	r24, Z
    190e:	80 68       	ori	r24, 0x80	; 128
    1910:	80 83       	st	Z, r24
    1912:	08 95       	ret

00001914 <ReadADC>:
}

uint16_t ReadADC(int channel)											// Read analog to digital converter
{	//debug("ReadADC()");
	ADMUX &= 0xF0;														// Clear the older channel that was read
    1914:	ec e7       	ldi	r30, 0x7C	; 124
    1916:	f0 e0       	ldi	r31, 0x00	; 0
    1918:	90 81       	ld	r25, Z
    191a:	90 7f       	andi	r25, 0xF0	; 240
    191c:	90 83       	st	Z, r25
	ADMUX |= channel;													// Defines the new ADC channel to be read
    191e:	90 81       	ld	r25, Z
    1920:	89 2b       	or	r24, r25
    1922:	80 83       	st	Z, r24
																		// first sample after you've changed the
																		// multiplexer will still be from the old
																		// analog source, you need to wait at
																		// least one complete ADC cycle before
																		// getting a value from the new channel
	ADCSRA |= (1 << ADSC);												// start ADC conversion
    1924:	ea e7       	ldi	r30, 0x7A	; 122
    1926:	f0 e0       	ldi	r31, 0x00	; 0
    1928:	80 81       	ld	r24, Z
    192a:	80 64       	ori	r24, 0x40	; 64
    192c:	80 83       	st	Z, r24
	loop_until_bit_is_clear(ADCSRA, ADSC);								// wait until done
    192e:	80 81       	ld	r24, Z
    1930:	86 fd       	sbrc	r24, 6
    1932:	fd cf       	rjmp	.-6      	; 0x192e <ReadADC+0x1a>
	ADCSRA |= (1 << ADSC);												// start ADC conversion
    1934:	ea e7       	ldi	r30, 0x7A	; 122
    1936:	f0 e0       	ldi	r31, 0x00	; 0
    1938:	80 81       	ld	r24, Z
    193a:	80 64       	ori	r24, 0x40	; 64
    193c:	80 83       	st	Z, r24
	loop_until_bit_is_clear(ADCSRA, ADSC);								// wait until done
    193e:	80 81       	ld	r24, Z
    1940:	86 fd       	sbrc	r24, 6
    1942:	fd cf       	rjmp	.-6      	; 0x193e <ReadADC+0x2a>
	uint8_t theLowADC = ADCL;
    1944:	80 91 78 00 	lds	r24, 0x0078
	uint16_t theTenBitResults = ADCH<<8 | theLowADC;
    1948:	20 91 79 00 	lds	r18, 0x0079
    194c:	90 e0       	ldi	r25, 0x00	; 0
	return(theTenBitResults);
}
    194e:	92 2b       	or	r25, r18
    1950:	08 95       	ret

00001952 <__vector_16>:
		}
	}
}

ISR(TIMER0_OVF_vect) 													// Timer0 overflow interrupt, this is for the night light
{	count++;
    1952:	1f 92       	push	r1
    1954:	0f 92       	push	r0
    1956:	0f b6       	in	r0, 0x3f	; 63
    1958:	0f 92       	push	r0
    195a:	11 24       	eor	r1, r1
    195c:	cf 92       	push	r12
    195e:	df 92       	push	r13
    1960:	ef 92       	push	r14
    1962:	ff 92       	push	r15
    1964:	2f 93       	push	r18
    1966:	3f 93       	push	r19
    1968:	4f 93       	push	r20
    196a:	5f 93       	push	r21
    196c:	6f 93       	push	r22
    196e:	7f 93       	push	r23
    1970:	8f 93       	push	r24
    1972:	9f 93       	push	r25
    1974:	af 93       	push	r26
    1976:	bf 93       	push	r27
    1978:	ef 93       	push	r30
    197a:	ff 93       	push	r31
    197c:	80 91 9f 07 	lds	r24, 0x079F
    1980:	8f 5f       	subi	r24, 0xFF	; 255
    1982:	80 93 9f 07 	sts	0x079F, r24
	if (count == 255) {
    1986:	80 91 9f 07 	lds	r24, 0x079F
    198a:	8f 3f       	cpi	r24, 0xFF	; 255
    198c:	09 f0       	breq	.+2      	; 0x1990 <__vector_16+0x3e>
    198e:	4f c0       	rjmp	.+158    	; 0x1a2e <__vector_16+0xdc>
		float photoVolts =  255 - (float) ReadADC(PHOTO_PIN)/4;			// bright = 24, dark = 239, range of 215
    1990:	81 e0       	ldi	r24, 0x01	; 1
    1992:	90 e0       	ldi	r25, 0x00	; 0
    1994:	0e 94 8a 0c 	call	0x1914	; 0x1914 <ReadADC>
    1998:	bc 01       	movw	r22, r24
    199a:	80 e0       	ldi	r24, 0x00	; 0
    199c:	90 e0       	ldi	r25, 0x00	; 0
    199e:	0e 94 0a 23 	call	0x4614	; 0x4614 <__floatunsisf>
    19a2:	20 e0       	ldi	r18, 0x00	; 0
    19a4:	30 e0       	ldi	r19, 0x00	; 0
    19a6:	40 e8       	ldi	r20, 0x80	; 128
    19a8:	5e e3       	ldi	r21, 0x3E	; 62
    19aa:	0e 94 c1 23 	call	0x4782	; 0x4782 <__mulsf3>
    19ae:	9b 01       	movw	r18, r22
    19b0:	ac 01       	movw	r20, r24
    19b2:	60 e0       	ldi	r22, 0x00	; 0
    19b4:	70 e0       	ldi	r23, 0x00	; 0
    19b6:	8f e7       	ldi	r24, 0x7F	; 127
    19b8:	93 e4       	ldi	r25, 0x43	; 67
    19ba:	0e 94 f7 21 	call	0x43ee	; 0x43ee <__subsf3>
    19be:	6b 01       	movw	r12, r22
    19c0:	7c 01       	movw	r14, r24
		if (photoVolts > 239) {
    19c2:	20 e0       	ldi	r18, 0x00	; 0
    19c4:	30 e0       	ldi	r19, 0x00	; 0
    19c6:	4f e6       	ldi	r20, 0x6F	; 111
    19c8:	53 e4       	ldi	r21, 0x43	; 67
    19ca:	0e 94 bc 23 	call	0x4778	; 0x4778 <__gesf2>
    19ce:	18 16       	cp	r1, r24
    19d0:	9c f0       	brlt	.+38     	; 0x19f8 <__vector_16+0xa6>
			photoVolts = 239;
		}
		if (photoVolts < 24) {
    19d2:	20 e0       	ldi	r18, 0x00	; 0
    19d4:	30 e0       	ldi	r19, 0x00	; 0
    19d6:	40 ec       	ldi	r20, 0xC0	; 192
    19d8:	51 e4       	ldi	r21, 0x41	; 65
    19da:	c7 01       	movw	r24, r14
    19dc:	b6 01       	movw	r22, r12
    19de:	0e 94 64 22 	call	0x44c8	; 0x44c8 <__cmpsf2>
    19e2:	88 23       	and	r24, r24
    19e4:	8c f4       	brge	.+34     	; 0x1a08 <__vector_16+0xb6>
			photoVolts = 24;
    19e6:	0f 2e       	mov	r0, r31
    19e8:	c1 2c       	mov	r12, r1
    19ea:	d1 2c       	mov	r13, r1
    19ec:	f0 ec       	ldi	r31, 0xC0	; 192
    19ee:	ef 2e       	mov	r14, r31
    19f0:	f1 e4       	ldi	r31, 0x41	; 65
    19f2:	ff 2e       	mov	r15, r31
    19f4:	f0 2d       	mov	r31, r0
    19f6:	08 c0       	rjmp	.+16     	; 0x1a08 <__vector_16+0xb6>
ISR(TIMER0_OVF_vect) 													// Timer0 overflow interrupt, this is for the night light
{	count++;
	if (count == 255) {
		float photoVolts =  255 - (float) ReadADC(PHOTO_PIN)/4;			// bright = 24, dark = 239, range of 215
		if (photoVolts > 239) {
			photoVolts = 239;
    19f8:	0f 2e       	mov	r0, r31
    19fa:	c1 2c       	mov	r12, r1
    19fc:	d1 2c       	mov	r13, r1
    19fe:	ff e6       	ldi	r31, 0x6F	; 111
    1a00:	ef 2e       	mov	r14, r31
    1a02:	f3 e4       	ldi	r31, 0x43	; 67
    1a04:	ff 2e       	mov	r15, r31
    1a06:	f0 2d       	mov	r31, r0
		}
		if (photoVolts < 24) {
			photoVolts = 24;
		}
		photoVolts = (photoVolts - 24) * 1.186;
    1a08:	20 e0       	ldi	r18, 0x00	; 0
    1a0a:	30 e0       	ldi	r19, 0x00	; 0
    1a0c:	40 ec       	ldi	r20, 0xC0	; 192
    1a0e:	51 e4       	ldi	r21, 0x41	; 65
    1a10:	c7 01       	movw	r24, r14
    1a12:	b6 01       	movw	r22, r12
    1a14:	0e 94 f7 21 	call	0x43ee	; 0x43ee <__subsf3>
    1a18:	29 ed       	ldi	r18, 0xD9	; 217
    1a1a:	3e ec       	ldi	r19, 0xCE	; 206
    1a1c:	47 e9       	ldi	r20, 0x97	; 151
    1a1e:	5f e3       	ldi	r21, 0x3F	; 63
    1a20:	0e 94 c1 23 	call	0x4782	; 0x4782 <__mulsf3>
		//debug("photoVolts"); debugInt(photoVolts);
		OCR0A = photoVolts;
    1a24:	0e 94 db 22 	call	0x45b6	; 0x45b6 <__fixunssfsi>
    1a28:	67 bd       	out	0x27, r22	; 39
		count=0;
    1a2a:	10 92 9f 07 	sts	0x079F, r1
	}
}
    1a2e:	ff 91       	pop	r31
    1a30:	ef 91       	pop	r30
    1a32:	bf 91       	pop	r27
    1a34:	af 91       	pop	r26
    1a36:	9f 91       	pop	r25
    1a38:	8f 91       	pop	r24
    1a3a:	7f 91       	pop	r23
    1a3c:	6f 91       	pop	r22
    1a3e:	5f 91       	pop	r21
    1a40:	4f 91       	pop	r20
    1a42:	3f 91       	pop	r19
    1a44:	2f 91       	pop	r18
    1a46:	ff 90       	pop	r15
    1a48:	ef 90       	pop	r14
    1a4a:	df 90       	pop	r13
    1a4c:	cf 90       	pop	r12
    1a4e:	0f 90       	pop	r0
    1a50:	0f be       	out	0x3f, r0	; 63
    1a52:	0f 90       	pop	r0
    1a54:	1f 90       	pop	r1
    1a56:	18 95       	reti

00001a58 <__vector_9>:
	ProcessEvent(g_state.event);
	
}

ISR (TIMER2_OVF_vect)													// Timer2 overflow interrupt, PMW for the CO sensor
{	//debug("TIMER2_OVF_vect");
    1a58:	1f 92       	push	r1
    1a5a:	0f 92       	push	r0
    1a5c:	0f b6       	in	r0, 0x3f	; 63
    1a5e:	0f 92       	push	r0
    1a60:	11 24       	eor	r1, r1
    1a62:	2f 92       	push	r2
    1a64:	3f 92       	push	r3
    1a66:	4f 92       	push	r4
    1a68:	5f 92       	push	r5
    1a6a:	6f 92       	push	r6
    1a6c:	7f 92       	push	r7
    1a6e:	8f 92       	push	r8
    1a70:	9f 92       	push	r9
    1a72:	af 92       	push	r10
    1a74:	bf 92       	push	r11
    1a76:	cf 92       	push	r12
    1a78:	df 92       	push	r13
    1a7a:	ef 92       	push	r14
    1a7c:	ff 92       	push	r15
    1a7e:	0f 93       	push	r16
    1a80:	1f 93       	push	r17
    1a82:	2f 93       	push	r18
    1a84:	3f 93       	push	r19
    1a86:	4f 93       	push	r20
    1a88:	5f 93       	push	r21
    1a8a:	6f 93       	push	r22
    1a8c:	7f 93       	push	r23
    1a8e:	8f 93       	push	r24
    1a90:	9f 93       	push	r25
    1a92:	af 93       	push	r26
    1a94:	bf 93       	push	r27
    1a96:	cf 93       	push	r28
    1a98:	df 93       	push	r29
    1a9a:	ef 93       	push	r30
    1a9c:	ff 93       	push	r31
	if((g_state.timer1ElapsedSecs >= 90) && (OCR2A == 183)) {
    1a9e:	80 91 14 01 	lds	r24, 0x0114
    1aa2:	90 91 15 01 	lds	r25, 0x0115
    1aa6:	8a 35       	cpi	r24, 0x5A	; 90
    1aa8:	91 05       	cpc	r25, r1
    1aaa:	0c f4       	brge	.+2      	; 0x1aae <__vector_9+0x56>
    1aac:	80 c0       	rjmp	.+256    	; 0x1bae <__vector_9+0x156>
    1aae:	80 91 b3 00 	lds	r24, 0x00B3
    1ab2:	87 3b       	cpi	r24, 0xB7	; 183
    1ab4:	09 f0       	breq	.+2      	; 0x1ab8 <__vector_9+0x60>
    1ab6:	7b c0       	rjmp	.+246    	; 0x1bae <__vector_9+0x156>
		g_state.sensorStable += 1;
    1ab8:	c2 e0       	ldi	r28, 0x02	; 2
    1aba:	d1 e0       	ldi	r29, 0x01	; 1
    1abc:	88 a9       	ldd	r24, Y+48	; 0x30
    1abe:	8f 5f       	subi	r24, 0xFF	; 255
    1ac0:	88 ab       	std	Y+48, r24	; 0x30
		g_state.timer1ElapsedSecs = 0;
    1ac2:	1b 8a       	std	Y+19, r1	; 0x13
    1ac4:	1a 8a       	std	Y+18, r1	; 0x12
		debugMetric("g_state.COReadsSum", g_state.COReadsSum);
    1ac6:	9d 8d       	ldd	r25, Y+29	; 0x1d
    1ac8:	8e 8d       	ldd	r24, Y+30	; 0x1e
    1aca:	2f 8d       	ldd	r18, Y+31	; 0x1f
    1acc:	28 a1       	ldd	r18, Y+32	; 0x20
    1ace:	29 a1       	ldd	r18, Y+33	; 0x21
    1ad0:	2a a1       	ldd	r18, Y+34	; 0x22
    1ad2:	2b a1       	ldd	r18, Y+35	; 0x23
    1ad4:	2c a1       	ldd	r18, Y+36	; 0x24
    1ad6:	69 2f       	mov	r22, r25
    1ad8:	78 2f       	mov	r23, r24
    1ada:	87 ee       	ldi	r24, 0xE7	; 231
    1adc:	93 e0       	ldi	r25, 0x03	; 3
    1ade:	0e 94 9a 00 	call	0x134	; 0x134 <debugMetric>
		debugMetric("g_state.COReadsMax", g_state.COReadsMax);
    1ae2:	6f a1       	ldd	r22, Y+39	; 0x27
    1ae4:	78 a5       	ldd	r23, Y+40	; 0x28
    1ae6:	8a ef       	ldi	r24, 0xFA	; 250
    1ae8:	93 e0       	ldi	r25, 0x03	; 3
    1aea:	0e 94 9a 00 	call	0x134	; 0x134 <debugMetric>
		debugMetric("g_state.COReadsMin", g_state.COReadsMin);
    1aee:	6d a1       	ldd	r22, Y+37	; 0x25
    1af0:	7e a1       	ldd	r23, Y+38	; 0x26
    1af2:	8d e0       	ldi	r24, 0x0D	; 13
    1af4:	94 e0       	ldi	r25, 0x04	; 4
    1af6:	0e 94 9a 00 	call	0x134	; 0x134 <debugMetric>
		debugMetric("g_state.COReadsCount", g_state.COReadsCount);
    1afa:	6b 8d       	ldd	r22, Y+27	; 0x1b
    1afc:	7c 8d       	ldd	r23, Y+28	; 0x1c
    1afe:	80 e2       	ldi	r24, 0x20	; 32
    1b00:	94 e0       	ldi	r25, 0x04	; 4
    1b02:	0e 94 9a 00 	call	0x134	; 0x134 <debugMetric>
		g_state.COreading = (g_state.COReadsSum - g_state.COReadsMax - g_state.COReadsMin) / (g_state.COReadsCount - 2);
    1b06:	2d 8d       	ldd	r18, Y+29	; 0x1d
    1b08:	3e 8d       	ldd	r19, Y+30	; 0x1e
    1b0a:	4f 8d       	ldd	r20, Y+31	; 0x1f
    1b0c:	58 a1       	ldd	r21, Y+32	; 0x20
    1b0e:	69 a1       	ldd	r22, Y+33	; 0x21
    1b10:	7a a1       	ldd	r23, Y+34	; 0x22
    1b12:	8b a1       	ldd	r24, Y+35	; 0x23
    1b14:	9c a1       	ldd	r25, Y+36	; 0x24
    1b16:	8f a0       	ldd	r8, Y+39	; 0x27
    1b18:	98 a4       	ldd	r9, Y+40	; 0x28
    1b1a:	ad a1       	ldd	r26, Y+37	; 0x25
    1b1c:	be a1       	ldd	r27, Y+38	; 0x26
    1b1e:	eb 8d       	ldd	r30, Y+27	; 0x1b
    1b20:	fc 8d       	ldd	r31, Y+28	; 0x1c
    1b22:	19 2d       	mov	r17, r9
    1b24:	11 0f       	add	r17, r17
    1b26:	11 0b       	sbc	r17, r17
    1b28:	a8 2c       	mov	r10, r8
    1b2a:	b9 2c       	mov	r11, r9
    1b2c:	c1 2e       	mov	r12, r17
    1b2e:	d1 2e       	mov	r13, r17
    1b30:	e1 2e       	mov	r14, r17
    1b32:	f1 2e       	mov	r15, r17
    1b34:	01 2f       	mov	r16, r17
    1b36:	0e 94 7d 25 	call	0x4afa	; 0x4afa <__subdi3>
    1b3a:	1b 2f       	mov	r17, r27
    1b3c:	11 0f       	add	r17, r17
    1b3e:	11 0b       	sbc	r17, r17
    1b40:	aa 2e       	mov	r10, r26
    1b42:	bb 2e       	mov	r11, r27
    1b44:	c1 2e       	mov	r12, r17
    1b46:	d1 2e       	mov	r13, r17
    1b48:	e1 2e       	mov	r14, r17
    1b4a:	f1 2e       	mov	r15, r17
    1b4c:	01 2f       	mov	r16, r17
    1b4e:	0e 94 7d 25 	call	0x4afa	; 0x4afa <__subdi3>
    1b52:	32 97       	sbiw	r30, 0x02	; 2
    1b54:	1f 2f       	mov	r17, r31
    1b56:	11 0f       	add	r17, r17
    1b58:	11 0b       	sbc	r17, r17
    1b5a:	ae 2e       	mov	r10, r30
    1b5c:	bf 2e       	mov	r11, r31
    1b5e:	c1 2e       	mov	r12, r17
    1b60:	d1 2e       	mov	r13, r17
    1b62:	e1 2e       	mov	r14, r17
    1b64:	f1 2e       	mov	r15, r17
    1b66:	01 2f       	mov	r16, r17
    1b68:	0e 94 9f 24 	call	0x493e	; 0x493e <__divdi3>
    1b6c:	82 2f       	mov	r24, r18
    1b6e:	93 2f       	mov	r25, r19
    1b70:	9d 8b       	std	Y+21, r25	; 0x15
    1b72:	8c 8b       	std	Y+20, r24	; 0x14
		debugMetric("g_state.COreading",g_state.COreading);				// CO reading from 1.4V run
    1b74:	6c 89       	ldd	r22, Y+20	; 0x14
    1b76:	7d 89       	ldd	r23, Y+21	; 0x15
    1b78:	85 e3       	ldi	r24, 0x35	; 53
    1b7a:	94 e0       	ldi	r25, 0x04	; 4
    1b7c:	0e 94 9a 00 	call	0x134	; 0x134 <debugMetric>
		g_state.COReadsCount = 0;
    1b80:	1c 8e       	std	Y+28, r1	; 0x1c
    1b82:	1b 8e       	std	Y+27, r1	; 0x1b
		g_state.COReadsSum = 0;
    1b84:	1d 8e       	std	Y+29, r1	; 0x1d
    1b86:	1e 8e       	std	Y+30, r1	; 0x1e
    1b88:	1f 8e       	std	Y+31, r1	; 0x1f
    1b8a:	18 a2       	std	Y+32, r1	; 0x20
    1b8c:	19 a2       	std	Y+33, r1	; 0x21
    1b8e:	1a a2       	std	Y+34, r1	; 0x22
    1b90:	1b a2       	std	Y+35, r1	; 0x23
    1b92:	1c a2       	std	Y+36, r1	; 0x24
		g_state.COReadsMin = 1024;										// maximum analog reading + 1
    1b94:	80 e0       	ldi	r24, 0x00	; 0
    1b96:	94 e0       	ldi	r25, 0x04	; 4
    1b98:	9e a3       	std	Y+38, r25	; 0x26
    1b9a:	8d a3       	std	Y+37, r24	; 0x25
		g_state.COReadsMax = 0;											// minimum analog reading
    1b9c:	18 a6       	std	Y+40, r1	; 0x28
    1b9e:	1f a2       	std	Y+39, r1	; 0x27
		debug("Changed OCR2A TO 0, entering 60 second 5.0V reading/heating phase.");
    1ba0:	87 e4       	ldi	r24, 0x47	; 71
    1ba2:	94 e0       	ldi	r25, 0x04	; 4
    1ba4:	0e 94 53 00 	call	0xa6	; 0xa6 <debug>
		OCR2A = 0;														// voltage = ~5.0
    1ba8:	10 92 b3 00 	sts	0x00B3, r1
    1bac:	15 c0       	rjmp	.+42     	; 0x1bd8 <__vector_9+0x180>
	} else if ((g_state.timer1ElapsedSecs >= 60) && (OCR2A == 0)) {
    1bae:	80 91 14 01 	lds	r24, 0x0114
    1bb2:	90 91 15 01 	lds	r25, 0x0115
    1bb6:	cc 97       	sbiw	r24, 0x3c	; 60
    1bb8:	7c f0       	brlt	.+30     	; 0x1bd8 <__vector_9+0x180>
    1bba:	80 91 b3 00 	lds	r24, 0x00B3
    1bbe:	81 11       	cpse	r24, r1
    1bc0:	0b c0       	rjmp	.+22     	; 0x1bd8 <__vector_9+0x180>
		g_state.timer1ElapsedSecs = 0;
    1bc2:	10 92 15 01 	sts	0x0115, r1
    1bc6:	10 92 14 01 	sts	0x0114, r1
		debug("Changed OCR2A TO 183, entering 90 second 1.4V phase.");
    1bca:	8a e8       	ldi	r24, 0x8A	; 138
    1bcc:	94 e0       	ldi	r25, 0x04	; 4
    1bce:	0e 94 53 00 	call	0xa6	; 0xa6 <debug>
		OCR2A = 183;													// voltage = ~1.4
    1bd2:	87 eb       	ldi	r24, 0xB7	; 183
    1bd4:	80 93 b3 00 	sts	0x00B3, r24
	}
	if(	(g_state.timer1ElapsedSecs > 60) &&								// read for the last 30 seconds of the reading phase, 30 times
    1bd8:	80 91 14 01 	lds	r24, 0x0114
    1bdc:	90 91 15 01 	lds	r25, 0x0115
    1be0:	cd 97       	sbiw	r24, 0x3d	; 61
    1be2:	0c f4       	brge	.+2      	; 0x1be6 <__vector_9+0x18e>
    1be4:	86 c0       	rjmp	.+268    	; 0x1cf2 <__vector_9+0x29a>
		(g_state.timer1ElapsedSecs < 90) &&
    1be6:	80 91 14 01 	lds	r24, 0x0114
    1bea:	90 91 15 01 	lds	r25, 0x0115
	} else if ((g_state.timer1ElapsedSecs >= 60) && (OCR2A == 0)) {
		g_state.timer1ElapsedSecs = 0;
		debug("Changed OCR2A TO 183, entering 90 second 1.4V phase.");
		OCR2A = 183;													// voltage = ~1.4
	}
	if(	(g_state.timer1ElapsedSecs > 60) &&								// read for the last 30 seconds of the reading phase, 30 times
    1bee:	8a 35       	cpi	r24, 0x5A	; 90
    1bf0:	91 05       	cpc	r25, r1
    1bf2:	0c f0       	brlt	.+2      	; 0x1bf6 <__vector_9+0x19e>
    1bf4:	7e c0       	rjmp	.+252    	; 0x1cf2 <__vector_9+0x29a>
		(g_state.timer1ElapsedSecs < 90) &&
		(OCR2A == 183) &&
    1bf6:	80 91 b3 00 	lds	r24, 0x00B3
		g_state.timer1ElapsedSecs = 0;
		debug("Changed OCR2A TO 183, entering 90 second 1.4V phase.");
		OCR2A = 183;													// voltage = ~1.4
	}
	if(	(g_state.timer1ElapsedSecs > 60) &&								// read for the last 30 seconds of the reading phase, 30 times
		(g_state.timer1ElapsedSecs < 90) &&
    1bfa:	87 3b       	cpi	r24, 0xB7	; 183
    1bfc:	09 f0       	breq	.+2      	; 0x1c00 <__vector_9+0x1a8>
    1bfe:	79 c0       	rjmp	.+242    	; 0x1cf2 <__vector_9+0x29a>
		(OCR2A == 183) &&
		(g_state.timer1LastSecSampled != g_state.timer1ElapsedSecs)) {
    1c00:	e2 e0       	ldi	r30, 0x02	; 2
    1c02:	f1 e0       	ldi	r31, 0x01	; 1
    1c04:	21 a5       	ldd	r18, Z+41	; 0x29
    1c06:	32 a5       	ldd	r19, Z+42	; 0x2a
    1c08:	82 89       	ldd	r24, Z+18	; 0x12
    1c0a:	93 89       	ldd	r25, Z+19	; 0x13
		debug("Changed OCR2A TO 183, entering 90 second 1.4V phase.");
		OCR2A = 183;													// voltage = ~1.4
	}
	if(	(g_state.timer1ElapsedSecs > 60) &&								// read for the last 30 seconds of the reading phase, 30 times
		(g_state.timer1ElapsedSecs < 90) &&
		(OCR2A == 183) &&
    1c0c:	28 17       	cp	r18, r24
    1c0e:	39 07       	cpc	r19, r25
    1c10:	09 f4       	brne	.+2      	; 0x1c14 <__vector_9+0x1bc>
    1c12:	6f c0       	rjmp	.+222    	; 0x1cf2 <__vector_9+0x29a>
		(g_state.timer1LastSecSampled != g_state.timer1ElapsedSecs)) {
		g_state.timer1LastSecSampled = g_state.timer1ElapsedSecs;
    1c14:	ef 01       	movw	r28, r30
    1c16:	82 89       	ldd	r24, Z+18	; 0x12
    1c18:	93 89       	ldd	r25, Z+19	; 0x13
    1c1a:	92 a7       	std	Z+42, r25	; 0x2a
    1c1c:	81 a7       	std	Z+41, r24	; 0x29
		g_state.COSampleReading = ReadADC(CO_READ_PIN);					// read the CO sensor
    1c1e:	82 e0       	ldi	r24, 0x02	; 2
    1c20:	90 e0       	ldi	r25, 0x00	; 0
    1c22:	0e 94 8a 0c 	call	0x1914	; 0x1914 <ReadADC>
    1c26:	9f 8b       	std	Y+23, r25	; 0x17
    1c28:	8e 8b       	std	Y+22, r24	; 0x16
		int tries = 1;
		while (MAX_ANALOG_READ_VALUE == g_state.COSampleReading && tries <= BAD_CO_READ_ATTEMPTS) {		
    1c2a:	8e 89       	ldd	r24, Y+22	; 0x16
    1c2c:	9f 89       	ldd	r25, Y+23	; 0x17
    1c2e:	8f 3f       	cpi	r24, 0xFF	; 255
    1c30:	93 40       	sbci	r25, 0x03	; 3
    1c32:	91 f4       	brne	.+36     	; 0x1c58 <__vector_9+0x200>
    1c34:	ca e0       	ldi	r28, 0x0A	; 10
    1c36:	d0 e0       	ldi	r29, 0x00	; 0
			tries++;													// if the reading is bad, retry BAD_CO_READ_ATTEMPTS times
			g_state.COSampleReading = ReadADC(CO_READ_PIN);				// read the CO sensor
    1c38:	02 e0       	ldi	r16, 0x02	; 2
    1c3a:	11 e0       	ldi	r17, 0x01	; 1
    1c3c:	82 e0       	ldi	r24, 0x02	; 2
    1c3e:	90 e0       	ldi	r25, 0x00	; 0
    1c40:	0e 94 8a 0c 	call	0x1914	; 0x1914 <ReadADC>
    1c44:	f8 01       	movw	r30, r16
    1c46:	97 8b       	std	Z+23, r25	; 0x17
    1c48:	86 8b       	std	Z+22, r24	; 0x16
		(OCR2A == 183) &&
		(g_state.timer1LastSecSampled != g_state.timer1ElapsedSecs)) {
		g_state.timer1LastSecSampled = g_state.timer1ElapsedSecs;
		g_state.COSampleReading = ReadADC(CO_READ_PIN);					// read the CO sensor
		int tries = 1;
		while (MAX_ANALOG_READ_VALUE == g_state.COSampleReading && tries <= BAD_CO_READ_ATTEMPTS) {		
    1c4a:	86 89       	ldd	r24, Z+22	; 0x16
    1c4c:	97 89       	ldd	r25, Z+23	; 0x17
    1c4e:	8f 3f       	cpi	r24, 0xFF	; 255
    1c50:	93 40       	sbci	r25, 0x03	; 3
    1c52:	11 f4       	brne	.+4      	; 0x1c58 <__vector_9+0x200>
    1c54:	21 97       	sbiw	r28, 0x01	; 1
    1c56:	91 f7       	brne	.-28     	; 0x1c3c <__vector_9+0x1e4>
			tries++;													// if the reading is bad, retry BAD_CO_READ_ATTEMPTS times
			g_state.COSampleReading = ReadADC(CO_READ_PIN);				// read the CO sensor
		}
		debugMetric("COReading", g_state.COSampleReading);
    1c58:	c2 e0       	ldi	r28, 0x02	; 2
    1c5a:	d1 e0       	ldi	r29, 0x01	; 1
    1c5c:	6e 89       	ldd	r22, Y+22	; 0x16
    1c5e:	7f 89       	ldd	r23, Y+23	; 0x17
    1c60:	8f eb       	ldi	r24, 0xBF	; 191
    1c62:	94 e0       	ldi	r25, 0x04	; 4
    1c64:	0e 94 9a 00 	call	0x134	; 0x134 <debugMetric>
		if(g_state.COSampleReading != MAX_ANALOG_READ_VALUE) {
    1c68:	8e 89       	ldd	r24, Y+22	; 0x16
    1c6a:	9f 89       	ldd	r25, Y+23	; 0x17
    1c6c:	8f 3f       	cpi	r24, 0xFF	; 255
    1c6e:	93 40       	sbci	r25, 0x03	; 3
    1c70:	09 f4       	brne	.+2      	; 0x1c74 <__vector_9+0x21c>
    1c72:	3f c0       	rjmp	.+126    	; 0x1cf2 <__vector_9+0x29a>
			g_state.COReadsSum += g_state.COSampleReading;
    1c74:	2e 88       	ldd	r2, Y+22	; 0x16
    1c76:	3f 88       	ldd	r3, Y+23	; 0x17
    1c78:	2d 8d       	ldd	r18, Y+29	; 0x1d
    1c7a:	3e 8d       	ldd	r19, Y+30	; 0x1e
    1c7c:	4f 8d       	ldd	r20, Y+31	; 0x1f
    1c7e:	58 a1       	ldd	r21, Y+32	; 0x20
    1c80:	69 a1       	ldd	r22, Y+33	; 0x21
    1c82:	7a a1       	ldd	r23, Y+34	; 0x22
    1c84:	8b a1       	ldd	r24, Y+35	; 0x23
    1c86:	9c a1       	ldd	r25, Y+36	; 0x24
    1c88:	a2 2c       	mov	r10, r2
    1c8a:	b3 2c       	mov	r11, r3
    1c8c:	c1 2c       	mov	r12, r1
    1c8e:	d1 2c       	mov	r13, r1
    1c90:	e1 2c       	mov	r14, r1
    1c92:	f1 2c       	mov	r15, r1
    1c94:	00 e0       	ldi	r16, 0x00	; 0
    1c96:	10 e0       	ldi	r17, 0x00	; 0
    1c98:	0e 94 74 25 	call	0x4ae8	; 0x4ae8 <__adddi3>
    1c9c:	2d 8f       	std	Y+29, r18	; 0x1d
    1c9e:	3e 8f       	std	Y+30, r19	; 0x1e
    1ca0:	4f 8f       	std	Y+31, r20	; 0x1f
    1ca2:	58 a3       	std	Y+32, r21	; 0x20
    1ca4:	69 a3       	std	Y+33, r22	; 0x21
    1ca6:	7a a3       	std	Y+34, r23	; 0x22
    1ca8:	8b a3       	std	Y+35, r24	; 0x23
    1caa:	9c a3       	std	Y+36, r25	; 0x24
			g_state.COReadsCount += 1;
    1cac:	8b 8d       	ldd	r24, Y+27	; 0x1b
    1cae:	9c 8d       	ldd	r25, Y+28	; 0x1c
    1cb0:	01 96       	adiw	r24, 0x01	; 1
    1cb2:	9c 8f       	std	Y+28, r25	; 0x1c
    1cb4:	8b 8f       	std	Y+27, r24	; 0x1b
			if(g_state.COSampleReading > g_state.COReadsMax) {			// check to see if this is the max reading so we can throw it out later
    1cb6:	2e 89       	ldd	r18, Y+22	; 0x16
    1cb8:	3f 89       	ldd	r19, Y+23	; 0x17
    1cba:	8f a1       	ldd	r24, Y+39	; 0x27
    1cbc:	98 a5       	ldd	r25, Y+40	; 0x28
    1cbe:	82 17       	cp	r24, r18
    1cc0:	93 07       	cpc	r25, r19
    1cc2:	20 f4       	brcc	.+8      	; 0x1ccc <__vector_9+0x274>
				g_state.COReadsMax = g_state.COSampleReading;
    1cc4:	8e 89       	ldd	r24, Y+22	; 0x16
    1cc6:	9f 89       	ldd	r25, Y+23	; 0x17
    1cc8:	98 a7       	std	Y+40, r25	; 0x28
    1cca:	8f a3       	std	Y+39, r24	; 0x27
			}
			if(g_state.COSampleReading < g_state.COReadsMin) {			// check to see if this is the min reading so we can throw it out later
    1ccc:	e2 e0       	ldi	r30, 0x02	; 2
    1cce:	f1 e0       	ldi	r31, 0x01	; 1
    1cd0:	26 89       	ldd	r18, Z+22	; 0x16
    1cd2:	37 89       	ldd	r19, Z+23	; 0x17
    1cd4:	85 a1       	ldd	r24, Z+37	; 0x25
    1cd6:	96 a1       	ldd	r25, Z+38	; 0x26
    1cd8:	28 17       	cp	r18, r24
    1cda:	39 07       	cpc	r19, r25
    1cdc:	20 f4       	brcc	.+8      	; 0x1ce6 <__vector_9+0x28e>
				g_state.COReadsMin = g_state.COSampleReading;
    1cde:	86 89       	ldd	r24, Z+22	; 0x16
    1ce0:	97 89       	ldd	r25, Z+23	; 0x17
    1ce2:	96 a3       	std	Z+38, r25	; 0x26
    1ce4:	85 a3       	std	Z+37, r24	; 0x25
			}
			g_state.timer1LastSecSampled = g_state.timer1ElapsedSecs;
    1ce6:	e2 e0       	ldi	r30, 0x02	; 2
    1ce8:	f1 e0       	ldi	r31, 0x01	; 1
    1cea:	82 89       	ldd	r24, Z+18	; 0x12
    1cec:	93 89       	ldd	r25, Z+19	; 0x13
    1cee:	92 a7       	std	Z+42, r25	; 0x2a
    1cf0:	81 a7       	std	Z+41, r24	; 0x29
		}
	}
}
    1cf2:	ff 91       	pop	r31
    1cf4:	ef 91       	pop	r30
    1cf6:	df 91       	pop	r29
    1cf8:	cf 91       	pop	r28
    1cfa:	bf 91       	pop	r27
    1cfc:	af 91       	pop	r26
    1cfe:	9f 91       	pop	r25
    1d00:	8f 91       	pop	r24
    1d02:	7f 91       	pop	r23
    1d04:	6f 91       	pop	r22
    1d06:	5f 91       	pop	r21
    1d08:	4f 91       	pop	r20
    1d0a:	3f 91       	pop	r19
    1d0c:	2f 91       	pop	r18
    1d0e:	1f 91       	pop	r17
    1d10:	0f 91       	pop	r16
    1d12:	ff 90       	pop	r15
    1d14:	ef 90       	pop	r14
    1d16:	df 90       	pop	r13
    1d18:	cf 90       	pop	r12
    1d1a:	bf 90       	pop	r11
    1d1c:	af 90       	pop	r10
    1d1e:	9f 90       	pop	r9
    1d20:	8f 90       	pop	r8
    1d22:	7f 90       	pop	r7
    1d24:	6f 90       	pop	r6
    1d26:	5f 90       	pop	r5
    1d28:	4f 90       	pop	r4
    1d2a:	3f 90       	pop	r3
    1d2c:	2f 90       	pop	r2
    1d2e:	0f 90       	pop	r0
    1d30:	0f be       	out	0x3f, r0	; 63
    1d32:	0f 90       	pop	r0
    1d34:	1f 90       	pop	r1
    1d36:	18 95       	reti

00001d38 <ShowTime>:
}
*/

void ShowTime(byte hours, byte minutes)									// Update SS display with the time; hours and minutes
{	//debug("ShowTime()");
	SS_DisplayTime(hours, minutes);
    1d38:	0e 94 b2 01 	call	0x364	; 0x364 <SS_DisplayTime>
		}
	}
}

void ColonOn()															// Set the SS display colon on
{	g_state.colonOn = TRUE;
    1d3c:	81 e0       	ldi	r24, 0x01	; 1
    1d3e:	80 93 1a 01 	sts	0x011A, r24
    1d42:	08 95       	ret

00001d44 <SoundAlarm>:

}

void SoundAlarm() 														// Turn on the CO alarm. TODO: make this stop after a minute (configurable time)
{	//debug("SoundAlarm()");
	SetBitNo(BUZZER_PIN_PORT,BUZZER_PIN);
    1d44:	40 9a       	sbi	0x08, 0	; 8
    1d46:	08 95       	ret

00001d48 <WasWakeAlarmTriggered>:
    }
}

int WasWakeAlarmTriggered() 											// TODO: pass in the structure by value
{	//debug("WasWakeAlarmTriggered()");
	if (bit_is_set(PIN_SWITCH, ALARM_SWITCH_PIN)) {						// alarm switch LEFT, ON, HIGH
    1d48:	1a 9b       	sbis	0x03, 2	; 3
    1d4a:	1c c0       	rjmp	.+56     	; 0x1d84 <WasWakeAlarmTriggered+0x3c>
		if (!((g_state.mode & BUZZING) == BUZZING)) {					// if the alarm isn't already going off
    1d4c:	80 91 02 01 	lds	r24, 0x0102
    1d50:	90 91 03 01 	lds	r25, 0x0103
    1d54:	a0 91 04 01 	lds	r26, 0x0104
    1d58:	b0 91 05 01 	lds	r27, 0x0105
    1d5c:	80 fd       	sbrc	r24, 0
    1d5e:	15 c0       	rjmp	.+42     	; 0x1d8a <WasWakeAlarmTriggered+0x42>
			if ((g_state.hours == g_state.alarmHours) &&
    1d60:	e2 e0       	ldi	r30, 0x02	; 2
    1d62:	f1 e0       	ldi	r31, 0x01	; 1
    1d64:	91 85       	ldd	r25, Z+9	; 0x09
    1d66:	84 85       	ldd	r24, Z+12	; 0x0c
    1d68:	98 13       	cpse	r25, r24
    1d6a:	12 c0       	rjmp	.+36     	; 0x1d90 <WasWakeAlarmTriggered+0x48>
			(g_state.minutes == g_state.alarmMinutes) &&
    1d6c:	92 85       	ldd	r25, Z+10	; 0x0a
    1d6e:	85 85       	ldd	r24, Z+13	; 0x0d

int WasWakeAlarmTriggered() 											// TODO: pass in the structure by value
{	//debug("WasWakeAlarmTriggered()");
	if (bit_is_set(PIN_SWITCH, ALARM_SWITCH_PIN)) {						// alarm switch LEFT, ON, HIGH
		if (!((g_state.mode & BUZZING) == BUZZING)) {					// if the alarm isn't already going off
			if ((g_state.hours == g_state.alarmHours) &&
    1d70:	98 13       	cpse	r25, r24
    1d72:	11 c0       	rjmp	.+34     	; 0x1d96 <WasWakeAlarmTriggered+0x4e>
			(g_state.minutes == g_state.alarmMinutes) &&
			(g_state.seconds == 0)) {									// so that we only trigger the alarm once
    1d74:	20 91 0d 01 	lds	r18, 0x010D
int WasWakeAlarmTriggered() 											// TODO: pass in the structure by value
{	//debug("WasWakeAlarmTriggered()");
	if (bit_is_set(PIN_SWITCH, ALARM_SWITCH_PIN)) {						// alarm switch LEFT, ON, HIGH
		if (!((g_state.mode & BUZZING) == BUZZING)) {					// if the alarm isn't already going off
			if ((g_state.hours == g_state.alarmHours) &&
			(g_state.minutes == g_state.alarmMinutes) &&
    1d78:	81 e0       	ldi	r24, 0x01	; 1
    1d7a:	90 e0       	ldi	r25, 0x00	; 0
    1d7c:	22 23       	and	r18, r18
    1d7e:	69 f0       	breq	.+26     	; 0x1d9a <WasWakeAlarmTriggered+0x52>
    1d80:	80 e0       	ldi	r24, 0x00	; 0
    1d82:	08 95       	ret
				//debug("WAKE ALARM TRIGGERED");
				return 1;
			}
		}
	}
	return 0;
    1d84:	80 e0       	ldi	r24, 0x00	; 0
    1d86:	90 e0       	ldi	r25, 0x00	; 0
    1d88:	08 95       	ret
    1d8a:	80 e0       	ldi	r24, 0x00	; 0
    1d8c:	90 e0       	ldi	r25, 0x00	; 0
    1d8e:	08 95       	ret
    1d90:	80 e0       	ldi	r24, 0x00	; 0
    1d92:	90 e0       	ldi	r25, 0x00	; 0
    1d94:	08 95       	ret
    1d96:	80 e0       	ldi	r24, 0x00	; 0
    1d98:	90 e0       	ldi	r25, 0x00	; 0
}
    1d9a:	08 95       	ret

00001d9c <EEPROM_WriteRadioStation>:

/************************************************************************/
/* eeprom                                                               */
/************************************************************************/
void EEPROM_WriteRadioStation(uint32_t station)							// Write the wake alarm time to eeprom
{	//debug("EEPROM_WriteRadioStation");
    1d9c:	ab 01       	movw	r20, r22
    1d9e:	bc 01       	movw	r22, r24
	eeprom_update_dword((uint32_t *) STATION_ADDRESS, station);
    1da0:	84 e0       	ldi	r24, 0x04	; 4
    1da2:	90 e0       	ldi	r25, 0x00	; 0
    1da4:	0e 94 ef 25 	call	0x4bde	; 0x4bde <eeprom_update_dword>
    1da8:	08 95       	ret

00001daa <EEPROM_ReadRadioStation>:
}

void EEPROM_ReadRadioStation(volatile uint32_t *station)				// Read the radio station from eeprom
{   //debug("EEPROM_ReadRadioStation()");
    1daa:	cf 93       	push	r28
    1dac:	df 93       	push	r29
    1dae:	ec 01       	movw	r28, r24
	*station = eeprom_read_dword((uint32_t *) STATION_ADDRESS);
    1db0:	84 e0       	ldi	r24, 0x04	; 4
    1db2:	90 e0       	ldi	r25, 0x00	; 0
    1db4:	0e 94 d7 25 	call	0x4bae	; 0x4bae <eeprom_read_dword>
    1db8:	68 83       	st	Y, r22
    1dba:	79 83       	std	Y+1, r23	; 0x01
    1dbc:	8a 83       	std	Y+2, r24	; 0x02
    1dbe:	9b 83       	std	Y+3, r25	; 0x03
	if (*station > TOP_OF_DIAL || *station < BOTTOM_OF_DIAL) {
    1dc0:	88 81       	ld	r24, Y
    1dc2:	99 81       	ldd	r25, Y+1	; 0x01
    1dc4:	aa 81       	ldd	r26, Y+2	; 0x02
    1dc6:	bb 81       	ldd	r27, Y+3	; 0x03
    1dc8:	81 3e       	cpi	r24, 0xE1	; 225
    1dca:	95 4a       	sbci	r25, 0xA5	; 165
    1dcc:	a1 40       	sbci	r26, 0x01	; 1
    1dce:	b1 05       	cpc	r27, r1
    1dd0:	48 f4       	brcc	.+18     	; 0x1de4 <EEPROM_ReadRadioStation+0x3a>
    1dd2:	88 81       	ld	r24, Y
    1dd4:	99 81       	ldd	r25, Y+1	; 0x01
    1dd6:	aa 81       	ldd	r26, Y+2	; 0x02
    1dd8:	bb 81       	ldd	r27, Y+3	; 0x03
    1dda:	8c 3c       	cpi	r24, 0xCC	; 204
    1ddc:	95 45       	sbci	r25, 0x55	; 85
    1dde:	a1 40       	sbci	r26, 0x01	; 1
    1de0:	b1 05       	cpc	r27, r1
    1de2:	70 f4       	brcc	.+28     	; 0x1e00 <EEPROM_ReadRadioStation+0x56>
		*station = STRONG_LOCAL_STATION;
    1de4:	84 ed       	ldi	r24, 0xD4	; 212
    1de6:	95 e7       	ldi	r25, 0x75	; 117
    1de8:	a1 e0       	ldi	r26, 0x01	; 1
    1dea:	b0 e0       	ldi	r27, 0x00	; 0
    1dec:	88 83       	st	Y, r24
    1dee:	99 83       	std	Y+1, r25	; 0x01
    1df0:	aa 83       	std	Y+2, r26	; 0x02
    1df2:	bb 83       	std	Y+3, r27	; 0x03
		EEPROM_WriteRadioStation(*station);
    1df4:	68 81       	ld	r22, Y
    1df6:	79 81       	ldd	r23, Y+1	; 0x01
    1df8:	8a 81       	ldd	r24, Y+2	; 0x02
    1dfa:	9b 81       	ldd	r25, Y+3	; 0x03
    1dfc:	0e 94 ce 0e 	call	0x1d9c	; 0x1d9c <EEPROM_WriteRadioStation>
	}
	g_state.tune = *station;	
    1e00:	88 81       	ld	r24, Y
    1e02:	99 81       	ldd	r25, Y+1	; 0x01
    1e04:	aa 81       	ldd	r26, Y+2	; 0x02
    1e06:	bb 81       	ldd	r27, Y+3	; 0x03
    1e08:	80 93 2e 01 	sts	0x012E, r24
    1e0c:	90 93 2f 01 	sts	0x012F, r25
    1e10:	a0 93 30 01 	sts	0x0130, r26
    1e14:	b0 93 31 01 	sts	0x0131, r27
	//debugMetric("Radio Station", (int) *station / 100);
}
    1e18:	df 91       	pop	r29
    1e1a:	cf 91       	pop	r28
    1e1c:	08 95       	ret

00001e1e <TEA5767_init>:
	return ret;
}

int TEA5767_init(void)
{
	write_bytes[0] = 0b00101111;										// default: 99.9 MHz
    1e1e:	e9 e9       	ldi	r30, 0x99	; 153
    1e20:	f7 e0       	ldi	r31, 0x07	; 7
    1e22:	8f e2       	ldi	r24, 0x2F	; 47
    1e24:	80 83       	st	Z, r24
	write_bytes[1] = 0x87;
    1e26:	87 e8       	ldi	r24, 0x87	; 135
    1e28:	81 83       	std	Z+1, r24	; 0x01
	write_bytes[2] = TEA5767_SUD | TEA5767_SRCH_MID_LVL;
    1e2a:	80 ec       	ldi	r24, 0xC0	; 192
    1e2c:	82 83       	std	Z+2, r24	; 0x02
	//write_bytes[2] |= TEA5767_MONO;
	write_bytes[3] = TEA5767_XTAL;
    1e2e:	80 e1       	ldi	r24, 0x10	; 16
    1e30:	83 83       	std	Z+3, r24	; 0x03
	write_bytes[4] = 0b00000000;
    1e32:	14 82       	std	Z+4, r1	; 0x04
	/** \todo chip detection/identification */
	EEPROM_ReadRadioStation(&g_state.tune);								// read the radio station from eeprom
    1e34:	8e e2       	ldi	r24, 0x2E	; 46
    1e36:	91 e0       	ldi	r25, 0x01	; 1
    1e38:	0e 94 d5 0e 	call	0x1daa	; 0x1daa <EEPROM_ReadRadioStation>
	TEA5767_tune(g_state.tune);
    1e3c:	60 91 2e 01 	lds	r22, 0x012E
    1e40:	70 91 2f 01 	lds	r23, 0x012F
    1e44:	80 91 30 01 	lds	r24, 0x0130
    1e48:	90 91 31 01 	lds	r25, 0x0131
    1e4c:	0e 94 27 0b 	call	0x164e	; 0x164e <TEA5767_tune>
	TEA5767_write();
    1e50:	0e 94 57 0a 	call	0x14ae	; 0x14ae <TEA5767_write>
	return 0;
}
    1e54:	80 e0       	ldi	r24, 0x00	; 0
    1e56:	90 e0       	ldi	r25, 0x00	; 0
    1e58:	08 95       	ret

00001e5a <EEPROM_WriteAlarmTime>:
	g_state.tune = *station;	
	//debugMetric("Radio Station", (int) *station / 100);
}

void EEPROM_WriteAlarmTime(byte hours, byte minutes)					// Write the wake alarm time to eeprom
{	//debug("EEPROM_WriteAlarmTime()");
    1e5a:	cf 93       	push	r28
    1e5c:	c8 2f       	mov	r28, r24
	uint8_t *address_minutes = (uint8_t *) ALARM_ADDRESS;
	eeprom_update_byte(address_minutes, minutes);
    1e5e:	80 e0       	ldi	r24, 0x00	; 0
    1e60:	90 e0       	ldi	r25, 0x00	; 0
    1e62:	0e 94 dd 25 	call	0x4bba	; 0x4bba <eeprom_update_byte>
	uint8_t *address_hours = (uint8_t *) ALARM_ADDRESS + 1;
	eeprom_update_byte(address_hours, hours);
    1e66:	6c 2f       	mov	r22, r28
    1e68:	81 e0       	ldi	r24, 0x01	; 1
    1e6a:	90 e0       	ldi	r25, 0x00	; 0
    1e6c:	0e 94 dd 25 	call	0x4bba	; 0x4bba <eeprom_update_byte>
	//debugAlarmTime();
}
    1e70:	cf 91       	pop	r28
    1e72:	08 95       	ret

00001e74 <EEPROM_ReadAlarmTime>:

void EEPROM_ReadAlarmTime(volatile byte *hours, volatile byte *minutes)	// Read the wake alarm time from eeprom
{   //debug("EEPROM_ReadAlarmTime()");
    1e74:	0f 93       	push	r16
    1e76:	1f 93       	push	r17
    1e78:	cf 93       	push	r28
    1e7a:	df 93       	push	r29
    1e7c:	8c 01       	movw	r16, r24
    1e7e:	eb 01       	movw	r28, r22
	uint8_t *address_minutes = (uint8_t *) ALARM_ADDRESS;
	*minutes = eeprom_read_byte(address_minutes);
    1e80:	80 e0       	ldi	r24, 0x00	; 0
    1e82:	90 e0       	ldi	r25, 0x00	; 0
    1e84:	0e 94 cf 25 	call	0x4b9e	; 0x4b9e <eeprom_read_byte>
    1e88:	88 83       	st	Y, r24
	uint8_t *address_hours = (uint8_t *) ALARM_ADDRESS + 1;
	*hours = eeprom_read_byte(address_hours);
    1e8a:	81 e0       	ldi	r24, 0x01	; 1
    1e8c:	90 e0       	ldi	r25, 0x00	; 0
    1e8e:	0e 94 cf 25 	call	0x4b9e	; 0x4b9e <eeprom_read_byte>
    1e92:	f8 01       	movw	r30, r16
    1e94:	80 83       	st	Z, r24

	if ((*hours < 0) || (*hours > 23)) {								// Wake hours and minutes are corrupt the first time they are read from memory, clean that up
    1e96:	80 81       	ld	r24, Z
    1e98:	80 81       	ld	r24, Z
    1e9a:	88 31       	cpi	r24, 0x18	; 24
    1e9c:	08 f0       	brcs	.+2      	; 0x1ea0 <EEPROM_ReadAlarmTime+0x2c>
		*hours = 0;
    1e9e:	10 82       	st	Z, r1
	}
	if ((*minutes < 0) || (*minutes > 59)) {
    1ea0:	88 81       	ld	r24, Y
    1ea2:	88 81       	ld	r24, Y
    1ea4:	8c 33       	cpi	r24, 0x3C	; 60
    1ea6:	08 f0       	brcs	.+2      	; 0x1eaa <EEPROM_ReadAlarmTime+0x36>
		*minutes = 0;
    1ea8:	18 82       	st	Y, r1
	}
	//debugAlarmTime();
}
    1eaa:	df 91       	pop	r29
    1eac:	cf 91       	pop	r28
    1eae:	1f 91       	pop	r17
    1eb0:	0f 91       	pop	r16
    1eb2:	08 95       	ret

00001eb4 <EEPROM_WriteMilitaryTimeSwitch>:

void EEPROM_WriteMilitaryTimeSwitch(byte wakeToRadio)			// Write the military time switch setting to eeprom
{
		eeprom_update_byte((uint8_t *) WAKE_TO_RADIO_ADDRESS, wakeToRadio);
    1eb4:	68 2f       	mov	r22, r24
    1eb6:	88 e0       	ldi	r24, 0x08	; 8
    1eb8:	90 e0       	ldi	r25, 0x00	; 0
    1eba:	0e 94 dd 25 	call	0x4bba	; 0x4bba <eeprom_update_byte>
    1ebe:	08 95       	ret

00001ec0 <EEPROM_ReadMilitaryTimeSwitch>:
}

void EEPROM_ReadMilitaryTimeSwitch(volatile byte *military_time_switch)	// Read the military time switch setting from eeprom
{    //debug("EEPROM_ReadMilitaryTimeSwitch()");
    1ec0:	cf 93       	push	r28
    1ec2:	df 93       	push	r29
    1ec4:	ec 01       	movw	r28, r24
	*military_time_switch = eeprom_read_byte((uint8_t *) MILITARY_TIME_ADDRESS);
    1ec6:	83 e0       	ldi	r24, 0x03	; 3
    1ec8:	90 e0       	ldi	r25, 0x00	; 0
    1eca:	0e 94 cf 25 	call	0x4b9e	; 0x4b9e <eeprom_read_byte>
    1ece:	88 83       	st	Y, r24

	if ((*military_time_switch < 0) || (*military_time_switch > 1)) {	
    1ed0:	88 81       	ld	r24, Y
    1ed2:	88 81       	ld	r24, Y
    1ed4:	82 30       	cpi	r24, 0x02	; 2
    1ed6:	10 f0       	brcs	.+4      	; 0x1edc <EEPROM_ReadMilitaryTimeSwitch+0x1c>
		*military_time_switch = TRUE;
    1ed8:	81 e0       	ldi	r24, 0x01	; 1
    1eda:	88 83       	st	Y, r24
		//debug("mil time corrupt");
	}
	//debugMetric("Military Time Read from EEPROM", *military_time_switch);
	
	if (*military_time_switch) {										// set show military time state
    1edc:	88 81       	ld	r24, Y
    1ede:	88 23       	and	r24, r24
    1ee0:	21 f0       	breq	.+8      	; 0x1eea <EEPROM_ReadMilitaryTimeSwitch+0x2a>
		g_state.militaryTime = TRUE;
    1ee2:	81 e0       	ldi	r24, 0x01	; 1
    1ee4:	80 93 1b 01 	sts	0x011B, r24
    1ee8:	02 c0       	rjmp	.+4      	; 0x1eee <EEPROM_ReadMilitaryTimeSwitch+0x2e>
	} else {
		g_state.militaryTime = FALSE;
    1eea:	10 92 1b 01 	sts	0x011B, r1
	}

}
    1eee:	df 91       	pop	r29
    1ef0:	cf 91       	pop	r28
    1ef2:	08 95       	ret

00001ef4 <EEPROM_WriteWakeToRadioSwitch>:

void EEPROM_WriteWakeToRadioSwitch(byte military_time_switch)			// Write the military time switch setting to eeprom
{	//debug("EEPROM_WriteMilitaryTimeSwitch()");
	eeprom_update_byte((uint8_t *) MILITARY_TIME_ADDRESS, military_time_switch);
    1ef4:	68 2f       	mov	r22, r24
    1ef6:	83 e0       	ldi	r24, 0x03	; 3
    1ef8:	90 e0       	ldi	r25, 0x00	; 0
    1efa:	0e 94 dd 25 	call	0x4bba	; 0x4bba <eeprom_update_byte>
    1efe:	08 95       	ret

00001f00 <EEPROM_ReadWakeToRadioSwitch>:
}

void EEPROM_ReadWakeToRadioSwitch(volatile byte *wakeToRadio)	// Read the wake to radio switch setting from eeprom
{    //debug("EEPROM_ReadWakeToRadioSwitch()");
    1f00:	cf 93       	push	r28
    1f02:	df 93       	push	r29
    1f04:	ec 01       	movw	r28, r24
	*wakeToRadio = eeprom_read_byte((uint8_t *) WAKE_TO_RADIO_ADDRESS);
    1f06:	88 e0       	ldi	r24, 0x08	; 8
    1f08:	90 e0       	ldi	r25, 0x00	; 0
    1f0a:	0e 94 cf 25 	call	0x4b9e	; 0x4b9e <eeprom_read_byte>
    1f0e:	88 83       	st	Y, r24

	if ((*wakeToRadio < 0) || (*wakeToRadio > 1)) {
    1f10:	88 81       	ld	r24, Y
    1f12:	88 81       	ld	r24, Y
    1f14:	82 30       	cpi	r24, 0x02	; 2
    1f16:	30 f0       	brcs	.+12     	; 0x1f24 <EEPROM_ReadWakeToRadioSwitch+0x24>
		*wakeToRadio = TRUE;
    1f18:	81 e0       	ldi	r24, 0x01	; 1
    1f1a:	88 83       	st	Y, r24
		debug("wake to radio corrupt");
    1f1c:	89 ec       	ldi	r24, 0xC9	; 201
    1f1e:	94 e0       	ldi	r25, 0x04	; 4
    1f20:	0e 94 53 00 	call	0xa6	; 0xa6 <debug>
	}
	//debugMetric("Wake to Radio Read from EEPROM", *military_time_switch);
	
	if (*wakeToRadio) {										// set wake to radio state
    1f24:	88 81       	ld	r24, Y
    1f26:	88 23       	and	r24, r24
    1f28:	21 f0       	breq	.+8      	; 0x1f32 <EEPROM_ReadWakeToRadioSwitch+0x32>
		g_state.wakeToRadio = TRUE;
    1f2a:	81 e0       	ldi	r24, 0x01	; 1
    1f2c:	80 93 36 01 	sts	0x0136, r24
    1f30:	02 c0       	rjmp	.+4      	; 0x1f36 <EEPROM_ReadWakeToRadioSwitch+0x36>
	} else {
		g_state.wakeToRadio = FALSE;
    1f32:	10 92 36 01 	sts	0x0136, r1
	}

}
    1f36:	df 91       	pop	r29
