
EightByEightMatrix.elf:     file format elf32-avr

Sections:
Idx Name          Size      VMA       LMA       File off  Algn
  0 .text         00000696  00000000  00000000  00000094  2**1
                  CONTENTS, ALLOC, LOAD, READONLY, CODE
  1 .data         00000090  00800060  00000696  0000072a  2**0
                  CONTENTS, ALLOC, LOAD, DATA
  2 .bss          00000001  008000f0  008000f0  000007ba  2**0
                  ALLOC
  3 .comment      00000030  00000000  00000000  000007ba  2**0
                  CONTENTS, READONLY
  4 .note.gnu.avr.deviceinfo 0000003c  00000000  00000000  000007ec  2**2
                  CONTENTS, READONLY
  5 .debug_aranges 00000198  00000000  00000000  00000828  2**0
                  CONTENTS, READONLY, DEBUGGING
  6 .debug_info   00001c6a  00000000  00000000  000009c0  2**0
                  CONTENTS, READONLY, DEBUGGING
  7 .debug_abbrev 0000088b  00000000  00000000  0000262a  2**0
                  CONTENTS, READONLY, DEBUGGING
  8 .debug_line   00000921  00000000  00000000  00002eb5  2**0
                  CONTENTS, READONLY, DEBUGGING
  9 .debug_frame  00000460  00000000  00000000  000037d8  2**2
                  CONTENTS, READONLY, DEBUGGING
 10 .debug_str    000005eb  00000000  00000000  00003c38  2**0
                  CONTENTS, READONLY, DEBUGGING
 11 .debug_loc    000014b7  00000000  00000000  00004223  2**0
                  CONTENTS, READONLY, DEBUGGING
 12 .debug_ranges 00000178  00000000  00000000  000056da  2**0
                  CONTENTS, READONLY, DEBUGGING

Disassembly of section .text:

00000000 <__vectors>:
   0:	0e c0       	rjmp	.+28     	; 0x1e <__ctors_end>
   2:	28 c0       	rjmp	.+80     	; 0x54 <__bad_interrupt>
   4:	27 c0       	rjmp	.+78     	; 0x54 <__bad_interrupt>
   6:	26 c0       	rjmp	.+76     	; 0x54 <__bad_interrupt>
   8:	25 c0       	rjmp	.+74     	; 0x54 <__bad_interrupt>
   a:	24 c0       	rjmp	.+72     	; 0x54 <__bad_interrupt>
   c:	23 c0       	rjmp	.+70     	; 0x54 <__bad_interrupt>
   e:	22 c0       	rjmp	.+68     	; 0x54 <__bad_interrupt>
  10:	21 c0       	rjmp	.+66     	; 0x54 <__bad_interrupt>
  12:	20 c0       	rjmp	.+64     	; 0x54 <__bad_interrupt>
  14:	1f c0       	rjmp	.+62     	; 0x54 <__bad_interrupt>
  16:	1e c0       	rjmp	.+60     	; 0x54 <__bad_interrupt>
  18:	1d c0       	rjmp	.+58     	; 0x54 <__bad_interrupt>
  1a:	1c c0       	rjmp	.+56     	; 0x54 <__bad_interrupt>
  1c:	1b c0       	rjmp	.+54     	; 0x54 <__bad_interrupt>

0000001e <__ctors_end>:
  1e:	11 24       	eor	r1, r1
  20:	1f be       	out	0x3f, r1	; 63
  22:	cf e5       	ldi	r28, 0x5F	; 95
  24:	d2 e0       	ldi	r29, 0x02	; 2
  26:	de bf       	out	0x3e, r29	; 62
  28:	cd bf       	out	0x3d, r28	; 61

0000002a <__do_copy_data>:
  2a:	10 e0       	ldi	r17, 0x00	; 0
  2c:	a0 e6       	ldi	r26, 0x60	; 96
  2e:	b0 e0       	ldi	r27, 0x00	; 0
  30:	e6 e9       	ldi	r30, 0x96	; 150
  32:	f6 e0       	ldi	r31, 0x06	; 6
  34:	02 c0       	rjmp	.+4      	; 0x3a <__do_copy_data+0x10>
  36:	05 90       	lpm	r0, Z+
  38:	0d 92       	st	X+, r0
  3a:	a0 3f       	cpi	r26, 0xF0	; 240
  3c:	b1 07       	cpc	r27, r17
  3e:	d9 f7       	brne	.-10     	; 0x36 <__do_copy_data+0xc>

00000040 <__do_clear_bss>:
  40:	20 e0       	ldi	r18, 0x00	; 0
  42:	a0 ef       	ldi	r26, 0xF0	; 240
  44:	b0 e0       	ldi	r27, 0x00	; 0
  46:	01 c0       	rjmp	.+2      	; 0x4a <.do_clear_bss_start>

00000048 <.do_clear_bss_loop>:
  48:	1d 92       	st	X+, r1

0000004a <.do_clear_bss_start>:
  4a:	a1 3f       	cpi	r26, 0xF1	; 241
  4c:	b2 07       	cpc	r27, r18
  4e:	e1 f7       	brne	.-8      	; 0x48 <.do_clear_bss_loop>
  50:	97 d0       	rcall	.+302    	; 0x180 <main>
  52:	1f c3       	rjmp	.+1598   	; 0x692 <_exit>

00000054 <__bad_interrupt>:
  54:	d5 cf       	rjmp	.-86     	; 0x0 <__vectors>

00000056 <ds1307_read_reg8>:
#include "ds1307tiny.h"

// ----------------------------------------------------------------------------

uint8_t ds1307_read_reg8(uint8_t reg_addr)
{
  56:	1f 93       	push	r17
  58:	cf 93       	push	r28
  5a:	df 93       	push	r29
  5c:	00 d0       	rcall	.+0      	; 0x5e <ds1307_read_reg8+0x8>
  5e:	cd b7       	in	r28, 0x3d	; 61
  60:	de b7       	in	r29, 0x3e	; 62
  62:	18 2f       	mov	r17, r24
	uint8_t buffer[2];
	uint8_t result;

	buffer[1] =	reg_addr;
  64:	8a 83       	std	Y+2, r24	; 0x02
	usitwim_data_write(DS1307_I2CADDR, buffer, 2);
  66:	42 e0       	ldi	r20, 0x02	; 2
  68:	be 01       	movw	r22, r28
  6a:	6f 5f       	subi	r22, 0xFF	; 255
  6c:	7f 4f       	sbci	r23, 0xFF	; 255
  6e:	88 e6       	ldi	r24, 0x68	; 104
  70:	ca d2       	rcall	.+1428   	; 0x606 <usitwim_data_write>
	
	buffer[1] =	reg_addr;
  72:	1a 83       	std	Y+2, r17	; 0x02
	usitwim_data_read(DS1307_I2CADDR, buffer, 2);
  74:	42 e0       	ldi	r20, 0x02	; 2
  76:	be 01       	movw	r22, r28
  78:	6f 5f       	subi	r22, 0xFF	; 255
  7a:	7f 4f       	sbci	r23, 0xFF	; 255
  7c:	88 e6       	ldi	r24, 0x68	; 104
  7e:	df d2       	rcall	.+1470   	; 0x63e <usitwim_data_read>
	result = buffer[1];
	
	return result;
}
  80:	8a 81       	ldd	r24, Y+2	; 0x02
  82:	0f 90       	pop	r0
  84:	0f 90       	pop	r0
  86:	df 91       	pop	r29
  88:	cf 91       	pop	r28
  8a:	1f 91       	pop	r17
  8c:	08 95       	ret

0000008e <ds1307_init>:
	return DS1307_RESULT_SUCCESS;
}

uint8_t ds1307_init(void)
{
	uint8_t ds1307_result = (ds1307_read_reg8(DS1307_REG_SECONDS) >> 7);
  8e:	80 e0       	ldi	r24, 0x00	; 0
  90:	e2 df       	rcall	.-60     	; 0x56 <ds1307_read_reg8>
	// /*DEBUGGING*/ DEBUGGING_VARU("init/result", ds1307_result);
	if (ds1307_result)
  92:	98 2f       	mov	r25, r24
  94:	99 1f       	adc	r25, r25
  96:	99 27       	eor	r25, r25
  98:	99 1f       	adc	r25, r25
	else
	{
		// /*DEBUGGING*/ DEBUGGING_STRINGLN("OK");
	}
	return DS1307_RESULT_SUCCESS;
}
  9a:	89 2f       	mov	r24, r25
  9c:	08 95       	ret

0000009e <ds1307_setdatetime>:

uint8_t ds1307_setdatetime(
	uint16_t year, uint8_t month, uint8_t date, 
	uint8_t weekday, 
	uint8_t hour, uint8_t min, uint8_t sec)
{
  9e:	cf 92       	push	r12
  a0:	ef 92       	push	r14
  a2:	0f 93       	push	r16
  a4:	cf 93       	push	r28
  a6:	df 93       	push	r29
  a8:	cd b7       	in	r28, 0x3d	; 61
  aa:	de b7       	in	r29, 0x3e	; 62
  ac:	29 97       	sbiw	r28, 0x09	; 9
  ae:	0f b6       	in	r0, 0x3f	; 63
  b0:	f8 94       	cli
  b2:	de bf       	out	0x3e, r29	; 62
  b4:	0f be       	out	0x3f, r0	; 63
  b6:	cd bf       	out	0x3d, r28	; 61
  b8:	58 2f       	mov	r21, r24
  ba:	b6 2f       	mov	r27, r22
	uint8_t buffer[9];
	buffer[1] =	DS1307_REGISTERS;
  bc:	1a 82       	std	Y+2, r1	; 0x02
#define DS1307_SET_SECONDS(val) { ds1307_write_reg8(DS1307_SET_SECONDS, val) };

// ----------------------------------------------------------------------------

static uint8_t bcd2bin (uint8_t val) { return val - 6 * (val >> 4); }
static uint8_t bin2bcd (uint8_t val) { return val + 6 * (val / 10); }
  be:	3a e0       	ldi	r19, 0x0A	; 10
  c0:	8c 2d       	mov	r24, r12
  c2:	63 2f       	mov	r22, r19
  c4:	da d2       	rcall	.+1460   	; 0x67a <__udivmodqi4>
  c6:	a8 2f       	mov	r26, r24
  c8:	88 0f       	add	r24, r24
  ca:	a8 0f       	add	r26, r24
  cc:	aa 0f       	add	r26, r26
  ce:	ac 0d       	add	r26, r12
	buffer[2] =	bin2bcd(sec);
  d0:	ab 83       	std	Y+3, r26	; 0x03
  d2:	8e 2d       	mov	r24, r14
  d4:	d2 d2       	rcall	.+1444   	; 0x67a <__udivmodqi4>
  d6:	f8 2f       	mov	r31, r24
  d8:	88 0f       	add	r24, r24
  da:	f8 0f       	add	r31, r24
  dc:	ff 0f       	add	r31, r31
  de:	fe 0d       	add	r31, r14
	buffer[3] =	bin2bcd(min);
  e0:	fc 83       	std	Y+4, r31	; 0x04
  e2:	80 2f       	mov	r24, r16
  e4:	ca d2       	rcall	.+1428   	; 0x67a <__udivmodqi4>
  e6:	e8 2f       	mov	r30, r24
  e8:	88 0f       	add	r24, r24
  ea:	e8 0f       	add	r30, r24
  ec:	ee 0f       	add	r30, r30
  ee:	e0 0f       	add	r30, r16
	buffer[4] =	bin2bcd(hour);
  f0:	ed 83       	std	Y+5, r30	; 0x05
  f2:	82 2f       	mov	r24, r18
  f4:	c2 d2       	rcall	.+1412   	; 0x67a <__udivmodqi4>
  f6:	78 2f       	mov	r23, r24
  f8:	88 0f       	add	r24, r24
  fa:	78 0f       	add	r23, r24
  fc:	77 0f       	add	r23, r23
  fe:	72 0f       	add	r23, r18
	buffer[5] =	bin2bcd(weekday);
 100:	7e 83       	std	Y+6, r23	; 0x06
 102:	84 2f       	mov	r24, r20
 104:	ba d2       	rcall	.+1396   	; 0x67a <__udivmodqi4>
 106:	28 2f       	mov	r18, r24
 108:	88 0f       	add	r24, r24
 10a:	28 0f       	add	r18, r24
 10c:	22 0f       	add	r18, r18
 10e:	24 0f       	add	r18, r20
	buffer[6] =	bin2bcd(date);
 110:	2f 83       	std	Y+7, r18	; 0x07
 112:	8b 2f       	mov	r24, r27
 114:	b2 d2       	rcall	.+1380   	; 0x67a <__udivmodqi4>
 116:	98 2f       	mov	r25, r24
 118:	99 0f       	add	r25, r25
 11a:	98 0f       	add	r25, r24
 11c:	99 0f       	add	r25, r25
 11e:	9b 0f       	add	r25, r27
	buffer[7] =	bin2bcd(month);
 120:	98 87       	std	Y+8, r25	; 0x08
	buffer[8] =	bin2bcd(year - 2000);
 122:	20 e3       	ldi	r18, 0x30	; 48
 124:	25 0f       	add	r18, r21
 126:	82 2f       	mov	r24, r18
 128:	a8 d2       	rcall	.+1360   	; 0x67a <__udivmodqi4>
 12a:	98 2f       	mov	r25, r24
 12c:	99 0f       	add	r25, r25
 12e:	89 0f       	add	r24, r25
 130:	88 0f       	add	r24, r24
 132:	28 0f       	add	r18, r24
 134:	29 87       	std	Y+9, r18	; 0x09
	return usitwim_data_write(DS1307_I2CADDR, buffer, 9);
 136:	49 e0       	ldi	r20, 0x09	; 9
 138:	be 01       	movw	r22, r28
 13a:	6f 5f       	subi	r22, 0xFF	; 255
 13c:	7f 4f       	sbci	r23, 0xFF	; 255
 13e:	88 e6       	ldi	r24, 0x68	; 104
 140:	62 d2       	rcall	.+1220   	; 0x606 <usitwim_data_write>
}
 142:	29 96       	adiw	r28, 0x09	; 9
 144:	0f b6       	in	r0, 0x3f	; 63
 146:	f8 94       	cli
 148:	de bf       	out	0x3e, r29	; 62
 14a:	0f be       	out	0x3f, r0	; 63
 14c:	cd bf       	out	0x3d, r28	; 61
 14e:	df 91       	pop	r29
 150:	cf 91       	pop	r28
 152:	0f 91       	pop	r16
 154:	ef 90       	pop	r14
 156:	cf 90       	pop	r12
 158:	08 95       	ret

0000015a <ds1307_adjust>:
/* end of characters to display */

// ----------------------------------------------------------------------------

uint8_t ds1307_adjust(void)
{
 15a:	cf 92       	push	r12
 15c:	ef 92       	push	r14
 15e:	0f 93       	push	r16
	// return ds1307_setdatetime(2013, 10, 25, 5, 10, 00, 00);	// The Tinusaur Birthday
	return ds1307_setdatetime(2016, 04, 29, 5, 17, 34, 00); // Set date/time
 160:	c1 2c       	mov	r12, r1
 162:	0f 2e       	mov	r0, r31
 164:	f2 e2       	ldi	r31, 0x22	; 34
 166:	ef 2e       	mov	r14, r31
 168:	f0 2d       	mov	r31, r0
 16a:	01 e1       	ldi	r16, 0x11	; 17
 16c:	25 e0       	ldi	r18, 0x05	; 5
 16e:	4d e1       	ldi	r20, 0x1D	; 29
 170:	64 e0       	ldi	r22, 0x04	; 4
 172:	80 ee       	ldi	r24, 0xE0	; 224
 174:	97 e0       	ldi	r25, 0x07	; 7
 176:	93 df       	rcall	.-218    	; 0x9e <ds1307_setdatetime>
}
 178:	0f 91       	pop	r16
 17a:	ef 90       	pop	r14
 17c:	cf 90       	pop	r12
 17e:	08 95       	ret

00000180 <main>:
    }
}


int main(void)
{
 180:	ef 92       	push	r14
 182:	ff 92       	push	r15
 184:	0f 93       	push	r16
 186:	1f 93       	push	r17
 188:	cf 93       	push	r28
 18a:	df 93       	push	r29
//       if the CPU clock is not calibrated to exactly 1 MHz or 8 MHz.

// ----------------------------------------------------------------------------

inline void owowod_init(void) {
	DDRB |= (1 << OWOWOD_PORT);		// Set port as output
 18c:	bb 9a       	sbi	0x17, 3	; 23
	PORTB |= (1 << OWOWOD_PORT);	// Set to HI
 18e:	c3 9a       	sbi	0x18, 3	; 24
	DEBUGGING_INIT();
	
	// ---- Setup CPU Frequency ----
	#if F_CPU == 1000000UL
	#pragma message "F_CPU=1MHZ"
	CLKPR_SET(CLKPR_1MHZ);
 190:	f8 94       	cli
 192:	80 e8       	ldi	r24, 0x80	; 128
 194:	86 bd       	out	0x26, r24	; 38
 196:	83 e0       	ldi	r24, 0x03	; 3
 198:	86 bd       	out	0x26, r24	; 38
 19a:	78 94       	sei
	DEBUGGING_REINIT(OWOWOD_BITLEN_FCPU1MHZ_009600BPS);
 19c:	8f e0       	ldi	r24, 0x0F	; 15
 19e:	fd d0       	rcall	.+506    	; 0x39a <owowod_reinit>
	#else
	#pragma message "F_CPU=????"
	#error "CPU frequency should be either 1 MHz or 8 MHz"
	#endif

	DEBUGGING_CRLF(); DEBUGGING_STRINGLN("HELLO[DS1307tiny]");	// Not really needed
 1a0:	8b e6       	ldi	r24, 0x6B	; 107
 1a2:	90 e0       	ldi	r25, 0x00	; 0
 1a4:	22 d1       	rcall	.+580    	; 0x3ea <owowod_print_string>
 1a6:	8e e6       	ldi	r24, 0x6E	; 110
 1a8:	90 e0       	ldi	r25, 0x00	; 0
 1aa:	1f d1       	rcall	.+574    	; 0x3ea <owowod_print_string>
 1ac:	8b e6       	ldi	r24, 0x6B	; 107
 1ae:	90 e0       	ldi	r25, 0x00	; 0
 1b0:	1c d1       	rcall	.+568    	; 0x3ea <owowod_print_string>
    //_delay_ms(1000);
    //image(clear);
    //update_display();


	usitwim_init();
 1b2:	67 d1       	rcall	.+718    	; 0x482 <usitwim_init>
    //image(clear);
    //update_display();

	uint8_t ds1307_result;
	// /*DEBUGGING*/ ds1307_setdatetime(2016, 04, 29, 5, 17, 34, 00); // Set date/time
	if ((ds1307_result = ds1307_init()) != DS1307_RESULT_SUCCESS)
 1b4:	6c df       	rcall	.-296    	; 0x8e <ds1307_init>
 1b6:	c8 2f       	mov	r28, r24
 1b8:	88 23       	and	r24, r24
 1ba:	81 f0       	breq	.+32     	; 0x1dc <main+0x5c>
	{
		if (ds1307_result == DS1307_RESULT_CLOCKHALT)
 1bc:	81 30       	cpi	r24, 0x01	; 1
 1be:	09 f0       	breq	.+2      	; 0x1c2 <main+0x42>
 1c0:	87 c0       	rjmp	.+270    	; 0x2d0 <__stack+0x71>
		{
			/*DEBUGGING*/ DEBUGGING_STRINGLN("DS1307_RESULT_CLOCKHALT");
 1c2:	80 e8       	ldi	r24, 0x80	; 128
 1c4:	90 e0       	ldi	r25, 0x00	; 0
 1c6:	11 d1       	rcall	.+546    	; 0x3ea <owowod_print_string>
 1c8:	8b e6       	ldi	r24, 0x6B	; 107
 1ca:	90 e0       	ldi	r25, 0x00	; 0
 1cc:	0e d1       	rcall	.+540    	; 0x3ea <owowod_print_string>
			/*DEBUGGING*/ DEBUGGING_STRINGLN("Init: date/time");
 1ce:	88 e9       	ldi	r24, 0x98	; 152
 1d0:	90 e0       	ldi	r25, 0x00	; 0
 1d2:	0b d1       	rcall	.+534    	; 0x3ea <owowod_print_string>
 1d4:	8b e6       	ldi	r24, 0x6B	; 107
 1d6:	90 e0       	ldi	r25, 0x00	; 0
 1d8:	08 d1       	rcall	.+528    	; 0x3ea <owowod_print_string>
			ds1307_adjust();
 1da:	bf df       	rcall	.-130    	; 0x15a <ds1307_adjust>
//      _delay_ms(10);
//  }
//  _delay_ms(500);

		/* Work with the DS1307 */
		uint8_t year = ds1307_read_reg8(DS1307_REG_YEAR);
 1dc:	86 e0       	ldi	r24, 0x06	; 6
 1de:	3b df       	rcall	.-394    	; 0x56 <ds1307_read_reg8>
 1e0:	d8 2f       	mov	r29, r24
		// /*DEBUGGING*/ DEBUGGING_VARU("year", bcd2bin(year));
		
		uint8_t month = ds1307_read_reg8(DS1307_REG_MONTH);
 1e2:	85 e0       	ldi	r24, 0x05	; 5
 1e4:	38 df       	rcall	.-400    	; 0x56 <ds1307_read_reg8>
 1e6:	e8 2e       	mov	r14, r24
		// /*DEBUGGING*/ DEBUGGING_VARU("month", month);
		// /*DEBUGGING*/ DEBUGGING_VARU("month", bcd2bin(month));
		
		uint8_t date = ds1307_read_reg8(DS1307_REG_DATE);
 1e8:	84 e0       	ldi	r24, 0x04	; 4
 1ea:	35 df       	rcall	.-406    	; 0x56 <ds1307_read_reg8>
 1ec:	f8 2e       	mov	r15, r24
		// /*DEBUGGING*/ DEBUGGING_VARU("date", bcd2bin(date));
		
		uint8_t weekday = ds1307_read_reg8(DS1307_REG_WEEKDAY);
 1ee:	83 e0       	ldi	r24, 0x03	; 3
 1f0:	32 df       	rcall	.-412    	; 0x56 <ds1307_read_reg8>
		// /*DEBUGGING*/ DEBUGGING_VARU("weekday", weekday);
		
		uint8_t hours = ds1307_read_reg8(DS1307_REG_HOURS);
 1f2:	82 e0       	ldi	r24, 0x02	; 2
 1f4:	30 df       	rcall	.-416    	; 0x56 <ds1307_read_reg8>
 1f6:	08 2f       	mov	r16, r24
		// /*DEBUGGING*/ DEBUGGING_VARU("hour", bcd2bin(hours));
		
		uint8_t minutes = ds1307_read_reg8(DS1307_REG_MINUTES);
 1f8:	81 e0       	ldi	r24, 0x01	; 1
 1fa:	2d df       	rcall	.-422    	; 0x56 <ds1307_read_reg8>
 1fc:	18 2f       	mov	r17, r24
		// /*DEBUGGING*/ DEBUGGING_VARU("min", bcd2bin(minutes));
		
		uint8_t seconds = ds1307_read_reg8(DS1307_REG_SECONDS);
 1fe:	80 e0       	ldi	r24, 0x00	; 0
 200:	2a df       	rcall	.-428    	; 0x56 <ds1307_read_reg8>
 202:	c8 2f       	mov	r28, r24
#define DS1307_SET_MINUTES(val) { ds1307_write_reg8(DS1307_REG_MINUTES, val) };
#define DS1307_SET_SECONDS(val) { ds1307_write_reg8(DS1307_SET_SECONDS, val) };

// ----------------------------------------------------------------------------

static uint8_t bcd2bin (uint8_t val) { return val - 6 * (val >> 4); }
 204:	6d 2f       	mov	r22, r29
 206:	62 95       	swap	r22
 208:	6f 70       	andi	r22, 0x0F	; 15
 20a:	86 2f       	mov	r24, r22
 20c:	88 0f       	add	r24, r24
 20e:	88 0f       	add	r24, r24
 210:	68 1b       	sub	r22, r24
 212:	66 0f       	add	r22, r22
 214:	d6 0f       	add	r29, r22
		// /*DEBUGGING*/ DEBUGGING_VARU("sec", bcd2bin(seconds));

		DEBUGGING_DATETIME(
 216:	8d 2f       	mov	r24, r29
 218:	90 e0       	ldi	r25, 0x00	; 0
 21a:	80 53       	subi	r24, 0x30	; 48
 21c:	98 4f       	sbci	r25, 0xF8	; 248
 21e:	f3 d0       	rcall	.+486    	; 0x406 <owowod_print_numdec>
 220:	85 eb       	ldi	r24, 0xB5	; 181
 222:	90 e0       	ldi	r25, 0x00	; 0
 224:	e2 d0       	rcall	.+452    	; 0x3ea <owowod_print_string>
 226:	5e 2d       	mov	r21, r14
 228:	52 95       	swap	r21
 22a:	5f 70       	andi	r21, 0x0F	; 15
 22c:	85 2f       	mov	r24, r21
 22e:	88 0f       	add	r24, r24
 230:	88 0f       	add	r24, r24
 232:	58 1b       	sub	r21, r24
 234:	55 0f       	add	r21, r21
 236:	85 2f       	mov	r24, r21
 238:	8e 0d       	add	r24, r14
 23a:	90 e0       	ldi	r25, 0x00	; 0
 23c:	e4 d0       	rcall	.+456    	; 0x406 <owowod_print_numdec>
 23e:	85 eb       	ldi	r24, 0xB5	; 181
 240:	90 e0       	ldi	r25, 0x00	; 0
 242:	d3 d0       	rcall	.+422    	; 0x3ea <owowod_print_string>
 244:	4f 2d       	mov	r20, r15
 246:	42 95       	swap	r20
 248:	4f 70       	andi	r20, 0x0F	; 15
 24a:	84 2f       	mov	r24, r20
 24c:	88 0f       	add	r24, r24
 24e:	88 0f       	add	r24, r24
 250:	48 1b       	sub	r20, r24
 252:	44 0f       	add	r20, r20
 254:	84 2f       	mov	r24, r20
 256:	8f 0d       	add	r24, r15
 258:	90 e0       	ldi	r25, 0x00	; 0
 25a:	d5 d0       	rcall	.+426    	; 0x406 <owowod_print_numdec>
 25c:	87 eb       	ldi	r24, 0xB7	; 183
 25e:	90 e0       	ldi	r25, 0x00	; 0
 260:	c4 d0       	rcall	.+392    	; 0x3ea <owowod_print_string>
 262:	30 2f       	mov	r19, r16
 264:	32 95       	swap	r19
 266:	3f 70       	andi	r19, 0x0F	; 15
 268:	83 2f       	mov	r24, r19
 26a:	88 0f       	add	r24, r24
 26c:	88 0f       	add	r24, r24
 26e:	38 1b       	sub	r19, r24
 270:	33 0f       	add	r19, r19
 272:	83 2f       	mov	r24, r19
 274:	80 0f       	add	r24, r16
 276:	90 e0       	ldi	r25, 0x00	; 0
 278:	c6 d0       	rcall	.+396    	; 0x406 <owowod_print_numdec>
 27a:	8e ea       	ldi	r24, 0xAE	; 174
 27c:	90 e0       	ldi	r25, 0x00	; 0
 27e:	b5 d0       	rcall	.+362    	; 0x3ea <owowod_print_string>
 280:	21 2f       	mov	r18, r17
 282:	22 95       	swap	r18
 284:	2f 70       	andi	r18, 0x0F	; 15
 286:	82 2f       	mov	r24, r18
 288:	88 0f       	add	r24, r24
 28a:	88 0f       	add	r24, r24
 28c:	28 1b       	sub	r18, r24
 28e:	22 0f       	add	r18, r18
 290:	82 2f       	mov	r24, r18
 292:	81 0f       	add	r24, r17
 294:	90 e0       	ldi	r25, 0x00	; 0
 296:	b7 d0       	rcall	.+366    	; 0x406 <owowod_print_numdec>
 298:	8e ea       	ldi	r24, 0xAE	; 174
 29a:	90 e0       	ldi	r25, 0x00	; 0
 29c:	a6 d0       	rcall	.+332    	; 0x3ea <owowod_print_string>
 29e:	9c 2f       	mov	r25, r28
 2a0:	92 95       	swap	r25
 2a2:	9f 70       	andi	r25, 0x0F	; 15
 2a4:	89 2f       	mov	r24, r25
 2a6:	88 0f       	add	r24, r24
 2a8:	88 0f       	add	r24, r24
 2aa:	98 1b       	sub	r25, r24
 2ac:	99 0f       	add	r25, r25
 2ae:	89 2f       	mov	r24, r25
 2b0:	8c 0f       	add	r24, r28
 2b2:	90 e0       	ldi	r25, 0x00	; 0
 2b4:	a8 d0       	rcall	.+336    	; 0x406 <owowod_print_numdec>
	#else
		//round up by default
		__ticks_dc = (uint32_t)(ceil(fabs(__tmp)));
	#endif

	__builtin_avr_delay_cycles(__ticks_dc);
 2b6:	2f e3       	ldi	r18, 0x3F	; 63
 2b8:	8d e0       	ldi	r24, 0x0D	; 13
 2ba:	93 e0       	ldi	r25, 0x03	; 3
 2bc:	21 50       	subi	r18, 0x01	; 1
 2be:	80 40       	sbci	r24, 0x00	; 0
 2c0:	90 40       	sbci	r25, 0x00	; 0
 2c2:	e1 f7       	brne	.-8      	; 0x2bc <__stack+0x5d>
 2c4:	00 c0       	rjmp	.+0      	; 0x2c6 <__stack+0x67>
 2c6:	00 00       	nop
		bcd2bin(year) + 2000, bcd2bin(month), bcd2bin(date),
		weekday,
		bcd2bin(hours), bcd2bin(minutes), bcd2bin(seconds));
		
		_delay_ms(1000);
		/*DEBUGGING*/ DEBUGGING_CRLF();
 2c8:	8b e6       	ldi	r24, 0x6B	; 107
 2ca:	90 e0       	ldi	r25, 0x00	; 0
 2cc:	8e d0       	rcall	.+284    	; 0x3ea <owowod_print_string>
		/* end of work with the DS1307 */

    }
 2ce:	86 cf       	rjmp	.-244    	; 0x1dc <main+0x5c>
			/*DEBUGGING*/ DEBUGGING_STRINGLN("Init: date/time");
			ds1307_adjust();
		}
		else
		{
			/*DEBUGGING*/ DEBUGGING_ERROR(ds1307_result, "init");
 2d0:	88 ea       	ldi	r24, 0xA8	; 168
 2d2:	90 e0       	ldi	r25, 0x00	; 0
 2d4:	8a d0       	rcall	.+276    	; 0x3ea <owowod_print_string>
 2d6:	8c 2f       	mov	r24, r28
 2d8:	90 e0       	ldi	r25, 0x00	; 0
 2da:	95 d0       	rcall	.+298    	; 0x406 <owowod_print_numdec>
 2dc:	8d ea       	ldi	r24, 0xAD	; 173
 2de:	90 e0       	ldi	r25, 0x00	; 0
 2e0:	84 d0       	rcall	.+264    	; 0x3ea <owowod_print_string>
 2e2:	80 eb       	ldi	r24, 0xB0	; 176
 2e4:	90 e0       	ldi	r25, 0x00	; 0
 2e6:	81 d0       	rcall	.+258    	; 0x3ea <owowod_print_string>
 2e8:	8b e6       	ldi	r24, 0x6B	; 107
 2ea:	90 e0       	ldi	r25, 0x00	; 0
 2ec:	7e d0       	rcall	.+252    	; 0x3ea <owowod_print_string>
		_delay_ms(1000);
		/*DEBUGGING*/ DEBUGGING_CRLF();
		/* end of work with the DS1307 */

    }
 2ee:	8f ef       	ldi	r24, 0xFF	; 255
 2f0:	9f ef       	ldi	r25, 0xFF	; 255
 2f2:	df 91       	pop	r29
 2f4:	cf 91       	pop	r28
 2f6:	1f 91       	pop	r17
 2f8:	0f 91       	pop	r16
 2fa:	ff 90       	pop	r15
 2fc:	ef 90       	pop	r14
 2fe:	08 95       	ret

00000300 <usint2decascii>:

// NOTE: This implementation is borrowed from the LCDDDD library.
// Original source code at: https://bitbucket.org/boyanov/avr/src/default/lcdddd/src/lcdddd/lcdddd.h

uint8_t usint2decascii(uint16_t num, char *buffer)
{
 300:	0f 93       	push	r16
 302:	1f 93       	push	r17
 304:	cf 93       	push	r28
 306:	df 93       	push	r29
 308:	cd b7       	in	r28, 0x3d	; 61
 30a:	de b7       	in	r29, 0x3e	; 62
 30c:	2a 97       	sbiw	r28, 0x0a	; 10
 30e:	0f b6       	in	r0, 0x3f	; 63
 310:	f8 94       	cli
 312:	de bf       	out	0x3e, r29	; 62
 314:	0f be       	out	0x3f, r0	; 63
 316:	cd bf       	out	0x3d, r28	; 61
	const unsigned short powers[] = { 10000u, 1000u, 100u, 10u, 1u }; // The "const unsigned short" combination gives shortest code.
 318:	2a e0       	ldi	r18, 0x0A	; 10
 31a:	e1 e6       	ldi	r30, 0x61	; 97
 31c:	f0 e0       	ldi	r31, 0x00	; 0
 31e:	de 01       	movw	r26, r28
 320:	11 96       	adiw	r26, 0x01	; 1
 322:	01 90       	ld	r0, Z+
 324:	0d 92       	st	X+, r0
 326:	2a 95       	dec	r18
 328:	e1 f7       	brne	.-8      	; 0x322 <usint2decascii+0x22>
 32a:	fe 01       	movw	r30, r28
 32c:	31 96       	adiw	r30, 0x01	; 1
 32e:	a6 2f       	mov	r26, r22
 330:	b7 2f       	mov	r27, r23
	char digit; // "digit" is stored in a char array, so it should be of type char.
	uint8_t digits = USINT2DECASCII_MAX_DIGITS - 1;
	for (uint8_t pos = 0; pos < 5; pos++) // "pos" is index in array, so should be of type int.
 332:	30 e0       	ldi	r19, 0x00	; 0

uint8_t usint2decascii(uint16_t num, char *buffer)
{
	const unsigned short powers[] = { 10000u, 1000u, 100u, 10u, 1u }; // The "const unsigned short" combination gives shortest code.
	char digit; // "digit" is stored in a char array, so it should be of type char.
	uint8_t digits = USINT2DECASCII_MAX_DIGITS - 1;
 334:	64 e0       	ldi	r22, 0x04	; 4
		*/

		// CHOICE (3) Fixed width, space (or anything else) padded result, digits offset.
		// Note: Determines the offset of the first significant digit.
		// Note: Could be used for variable width, not padded, left aligned result.
		if (digits == USINT2DECASCII_MAX_DIGITS - 1)
 336:	70 e0       	ldi	r23, 0x00	; 0
 338:	14 e0       	ldi	r17, 0x04	; 4
		{
			if (digit == 0)
			{
				if (pos < USINT2DECASCII_MAX_DIGITS - 1)	// Check position, so single "0" will be handled properly.
					digit = -16;	// Use: "-16" for space (' '), "-3" for dash/minus ('-'), "0" for zero ('0'), etc. ...
 33a:	00 ef       	ldi	r16, 0xF0	; 240
 33c:	19 c0       	rjmp	.+50     	; 0x370 <usint2decascii+0x70>
	char digit; // "digit" is stored in a char array, so it should be of type char.
	uint8_t digits = USINT2DECASCII_MAX_DIGITS - 1;
	for (uint8_t pos = 0; pos < 5; pos++) // "pos" is index in array, so should be of type int.
	{
		digit = 0;
		while (num >= powers[pos])
 33e:	27 2f       	mov	r18, r23
		{
			digit++;
 340:	2f 5f       	subi	r18, 0xFF	; 255
			num -= powers[pos];
 342:	84 1b       	sub	r24, r20
 344:	95 0b       	sbc	r25, r21
	char digit; // "digit" is stored in a char array, so it should be of type char.
	uint8_t digits = USINT2DECASCII_MAX_DIGITS - 1;
	for (uint8_t pos = 0; pos < 5; pos++) // "pos" is index in array, so should be of type int.
	{
		digit = 0;
		while (num >= powers[pos])
 346:	84 17       	cp	r24, r20
 348:	95 07       	cpc	r25, r21
 34a:	d0 f7       	brcc	.-12     	; 0x340 <usint2decascii+0x40>
		*/

		// CHOICE (3) Fixed width, space (or anything else) padded result, digits offset.
		// Note: Determines the offset of the first significant digit.
		// Note: Could be used for variable width, not padded, left aligned result.
		if (digits == USINT2DECASCII_MAX_DIGITS - 1)
 34c:	64 30       	cpi	r22, 0x04	; 4
 34e:	59 f4       	brne	.+22     	; 0x366 <usint2decascii+0x66>
		{
			if (digit == 0)
 350:	21 11       	cpse	r18, r1
 352:	05 c0       	rjmp	.+10     	; 0x35e <usint2decascii+0x5e>
			{
				if (pos < USINT2DECASCII_MAX_DIGITS - 1)	// Check position, so single "0" will be handled properly.
 354:	34 30       	cpi	r19, 0x04	; 4
 356:	28 f4       	brcc	.+10     	; 0x362 <usint2decascii+0x62>
 358:	61 2f       	mov	r22, r17
					digit = -16;	// Use: "-16" for space (' '), "-3" for dash/minus ('-'), "0" for zero ('0'), etc. ...
 35a:	20 2f       	mov	r18, r16
 35c:	04 c0       	rjmp	.+8      	; 0x366 <usint2decascii+0x66>
 35e:	63 2f       	mov	r22, r19
 360:	02 c0       	rjmp	.+4      	; 0x366 <usint2decascii+0x66>
 362:	61 2f       	mov	r22, r17
 364:	27 2f       	mov	r18, r23
			else
			{
				digits = pos;
			}
		}
		buffer[pos] = digit + '0';	// Convert to ASCII
 366:	20 5d       	subi	r18, 0xD0	; 208
 368:	2d 93       	st	X+, r18
uint8_t usint2decascii(uint16_t num, char *buffer)
{
	const unsigned short powers[] = { 10000u, 1000u, 100u, 10u, 1u }; // The "const unsigned short" combination gives shortest code.
	char digit; // "digit" is stored in a char array, so it should be of type char.
	uint8_t digits = USINT2DECASCII_MAX_DIGITS - 1;
	for (uint8_t pos = 0; pos < 5; pos++) // "pos" is index in array, so should be of type int.
 36a:	3f 5f       	subi	r19, 0xFF	; 255
 36c:	35 30       	cpi	r19, 0x05	; 5
 36e:	49 f0       	breq	.+18     	; 0x382 <usint2decascii+0x82>
	{
		digit = 0;
		while (num >= powers[pos])
 370:	41 91       	ld	r20, Z+
 372:	51 91       	ld	r21, Z+
 374:	84 17       	cp	r24, r20
 376:	95 07       	cpc	r25, r21
 378:	10 f7       	brcc	.-60     	; 0x33e <usint2decascii+0x3e>
		*/

		// CHOICE (3) Fixed width, space (or anything else) padded result, digits offset.
		// Note: Determines the offset of the first significant digit.
		// Note: Could be used for variable width, not padded, left aligned result.
		if (digits == USINT2DECASCII_MAX_DIGITS - 1)
 37a:	64 30       	cpi	r22, 0x04	; 4
 37c:	59 f3       	breq	.-42     	; 0x354 <usint2decascii+0x54>
 37e:	27 2f       	mov	r18, r23
 380:	f2 cf       	rjmp	.-28     	; 0x366 <usint2decascii+0x66>

	// NOTE: The resulting ascii text should not be terminated with '\0' here.
	//       The provided buffer maybe part of a larger text in both directions.

	return digits;
}
 382:	86 2f       	mov	r24, r22
 384:	2a 96       	adiw	r28, 0x0a	; 10
 386:	0f b6       	in	r0, 0x3f	; 63
 388:	f8 94       	cli
 38a:	de bf       	out	0x3e, r29	; 62
 38c:	0f be       	out	0x3f, r0	; 63
 38e:	cd bf       	out	0x3d, r28	; 61
 390:	df 91       	pop	r29
 392:	cf 91       	pop	r28
 394:	1f 91       	pop	r17
 396:	0f 91       	pop	r16
 398:	08 95       	ret

0000039a <owowod_reinit>:

// ----------------------------------------------------------------------------

uint8_t owowod_bitlen_val = OWOWOD_BITLEN_DEFAULT;

inline void owowod_bitlen_set(uint8_t val) { owowod_bitlen_val = val; }
 39a:	80 93 60 00 	sts	0x0060, r24
 39e:	08 95       	ret

000003a0 <owowod_print_char>:
}

// ----------------------------------------------------------------------------

void owowod_print_char(char c) {
	cli(); // disable interrupts
 3a0:	f8 94       	cli
	// TODO: make it optional, use define.

	PORTB &= ~(1 << OWOWOD_PORT);	// Set to LO
 3a2:	c3 98       	cbi	0x18, 3	; 24
inline void owowod_reinit(uint8_t delay_val) { owowod_bitlen_set(delay_val); }

// ----------------------------------------------------------------------------

inline void owowod_delay(void) {
	for (uint8_t i = owowod_bitlen_val; i != 0; i--) {
 3a4:	90 91 60 00 	lds	r25, 0x0060
 3a8:	99 23       	and	r25, r25
 3aa:	29 f0       	breq	.+10     	; 0x3b6 <owowod_print_char+0x16>
		asm volatile ("nop\n\t");
 3ac:	00 00       	nop
inline void owowod_reinit(uint8_t delay_val) { owowod_bitlen_set(delay_val); }

// ----------------------------------------------------------------------------

inline void owowod_delay(void) {
	for (uint8_t i = owowod_bitlen_val; i != 0; i--) {
 3ae:	91 50       	subi	r25, 0x01	; 1
 3b0:	e9 f7       	brne	.-6      	; 0x3ac <owowod_print_char+0xc>
 3b2:	28 e0       	ldi	r18, 0x08	; 8
 3b4:	01 c0       	rjmp	.+2      	; 0x3b8 <owowod_print_char+0x18>
 3b6:	28 e0       	ldi	r18, 0x08	; 8

	PORTB &= ~(1 << OWOWOD_PORT);	// Set to LO
	owowod_delay();
	for (uint8_t i = 0; i < 8; i++)
	{
		if (c & 1) {
 3b8:	80 ff       	sbrs	r24, 0
 3ba:	02 c0       	rjmp	.+4      	; 0x3c0 <owowod_print_char+0x20>
			PORTB |= (1 << OWOWOD_PORT);	// Set to HI
 3bc:	c3 9a       	sbi	0x18, 3	; 24
 3be:	01 c0       	rjmp	.+2      	; 0x3c2 <owowod_print_char+0x22>
		} else {
			PORTB &= ~(1 << OWOWOD_PORT);	// Set to LO
 3c0:	c3 98       	cbi	0x18, 3	; 24
inline void owowod_reinit(uint8_t delay_val) { owowod_bitlen_set(delay_val); }

// ----------------------------------------------------------------------------

inline void owowod_delay(void) {
	for (uint8_t i = owowod_bitlen_val; i != 0; i--) {
 3c2:	90 91 60 00 	lds	r25, 0x0060
 3c6:	99 23       	and	r25, r25
 3c8:	19 f0       	breq	.+6      	; 0x3d0 <owowod_print_char+0x30>
		asm volatile ("nop\n\t");
 3ca:	00 00       	nop
inline void owowod_reinit(uint8_t delay_val) { owowod_bitlen_set(delay_val); }

// ----------------------------------------------------------------------------

inline void owowod_delay(void) {
	for (uint8_t i = owowod_bitlen_val; i != 0; i--) {
 3cc:	91 50       	subi	r25, 0x01	; 1
 3ce:	e9 f7       	brne	.-6      	; 0x3ca <owowod_print_char+0x2a>
			PORTB |= (1 << OWOWOD_PORT);	// Set to HI
		} else {
			PORTB &= ~(1 << OWOWOD_PORT);	// Set to LO
		}
		owowod_delay();
		c = (c >> 1);
 3d0:	86 95       	lsr	r24
 3d2:	21 50       	subi	r18, 0x01	; 1
	cli(); // disable interrupts
	// TODO: make it optional, use define.

	PORTB &= ~(1 << OWOWOD_PORT);	// Set to LO
	owowod_delay();
	for (uint8_t i = 0; i < 8; i++)
 3d4:	89 f7       	brne	.-30     	; 0x3b8 <owowod_print_char+0x18>
			PORTB &= ~(1 << OWOWOD_PORT);	// Set to LO
		}
		owowod_delay();
		c = (c >> 1);
	}
	PORTB |= (1 << OWOWOD_PORT);	// Set to HI
 3d6:	c3 9a       	sbi	0x18, 3	; 24
inline void owowod_reinit(uint8_t delay_val) { owowod_bitlen_set(delay_val); }

// ----------------------------------------------------------------------------

inline void owowod_delay(void) {
	for (uint8_t i = owowod_bitlen_val; i != 0; i--) {
 3d8:	80 91 60 00 	lds	r24, 0x0060
 3dc:	88 23       	and	r24, r24
 3de:	19 f0       	breq	.+6      	; 0x3e6 <owowod_print_char+0x46>
		asm volatile ("nop\n\t");
 3e0:	00 00       	nop
inline void owowod_reinit(uint8_t delay_val) { owowod_bitlen_set(delay_val); }

// ----------------------------------------------------------------------------

inline void owowod_delay(void) {
	for (uint8_t i = owowod_bitlen_val; i != 0; i--) {
 3e2:	81 50       	subi	r24, 0x01	; 1
 3e4:	e9 f7       	brne	.-6      	; 0x3e0 <owowod_print_char+0x40>
		c = (c >> 1);
	}
	PORTB |= (1 << OWOWOD_PORT);	// Set to HI
	owowod_delay();

    sei(); // enable interrupts
 3e6:	78 94       	sei
 3e8:	08 95       	ret

000003ea <owowod_print_string>:
	// TODO: make it optional, use define.
}

void owowod_print_string(char *s) {
 3ea:	cf 93       	push	r28
 3ec:	df 93       	push	r29
 3ee:	ec 01       	movw	r28, r24
	while (*s) {
 3f0:	88 81       	ld	r24, Y
 3f2:	88 23       	and	r24, r24
 3f4:	29 f0       	breq	.+10     	; 0x400 <owowod_print_string+0x16>
 3f6:	21 96       	adiw	r28, 0x01	; 1
		owowod_print_char(*s++);
 3f8:	d3 df       	rcall	.-90     	; 0x3a0 <owowod_print_char>
    sei(); // enable interrupts
	// TODO: make it optional, use define.
}

void owowod_print_string(char *s) {
	while (*s) {
 3fa:	89 91       	ld	r24, Y+
 3fc:	81 11       	cpse	r24, r1
 3fe:	fc cf       	rjmp	.-8      	; 0x3f8 <owowod_print_string+0xe>
		owowod_print_char(*s++);
	}
}
 400:	df 91       	pop	r29
 402:	cf 91       	pop	r28
 404:	08 95       	ret

00000406 <owowod_print_numdec>:

// ----------------------------------------------------------------------------

void owowod_print_numdec(int16_t num) {
 406:	0f 93       	push	r16
 408:	1f 93       	push	r17
 40a:	cf 93       	push	r28
 40c:	df 93       	push	r29
 40e:	cd b7       	in	r28, 0x3d	; 61
 410:	de b7       	in	r29, 0x3e	; 62
 412:	27 97       	sbiw	r28, 0x07	; 7
 414:	0f b6       	in	r0, 0x3f	; 63
 416:	f8 94       	cli
 418:	de bf       	out	0x3e, r29	; 62
 41a:	0f be       	out	0x3f, r0	; 63
 41c:	cd bf       	out	0x3d, r28	; 61
 41e:	8c 01       	movw	r16, r24
	char buffer[USINT2DECASCII_MAX_DIGITS + 2];	// One more byte for the sign.
	buffer[0] = ' ';   // Init the string.
 420:	80 e2       	ldi	r24, 0x20	; 32
 422:	89 83       	std	Y+1, r24	; 0x01
	buffer[USINT2DECASCII_MAX_DIGITS + 1] = '\0';   // Terminate the string.
 424:	1f 82       	std	Y+7, r1	; 0x07
	uint8_t digits = usint2decascii((num < 0 ? -num : num), buffer + 1);
 426:	c8 01       	movw	r24, r16
 428:	11 23       	and	r17, r17
 42a:	24 f4       	brge	.+8      	; 0x434 <owowod_print_numdec+0x2e>
 42c:	88 27       	eor	r24, r24
 42e:	99 27       	eor	r25, r25
 430:	80 1b       	sub	r24, r16
 432:	91 0b       	sbc	r25, r17
 434:	be 01       	movw	r22, r28
 436:	6e 5f       	subi	r22, 0xFE	; 254
 438:	7f 4f       	sbci	r23, 0xFF	; 255
 43a:	62 df       	rcall	.-316    	; 0x300 <usint2decascii>
	if (num < 0) buffer[digits] = '-';
 43c:	11 23       	and	r17, r17
 43e:	2c f4       	brge	.+10     	; 0x44a <owowod_print_numdec+0x44>
 440:	9d e2       	ldi	r25, 0x2D	; 45
 442:	fe 01       	movw	r30, r28
 444:	e8 0f       	add	r30, r24
 446:	f1 1d       	adc	r31, r1
 448:	91 83       	std	Z+1, r25	; 0x01
	owowod_print_string(buffer + digits + (num < 0 ? 0 : 1));
 44a:	21 2f       	mov	r18, r17
 44c:	20 95       	com	r18
 44e:	22 1f       	adc	r18, r18
 450:	22 27       	eor	r18, r18
 452:	22 1f       	adc	r18, r18
 454:	30 e0       	ldi	r19, 0x00	; 0
 456:	a9 01       	movw	r20, r18
 458:	48 0f       	add	r20, r24
 45a:	51 1d       	adc	r21, r1
 45c:	ca 01       	movw	r24, r20
 45e:	21 e0       	ldi	r18, 0x01	; 1
 460:	30 e0       	ldi	r19, 0x00	; 0
 462:	2c 0f       	add	r18, r28
 464:	3d 1f       	adc	r19, r29
 466:	82 0f       	add	r24, r18
 468:	93 1f       	adc	r25, r19
 46a:	bf df       	rcall	.-130    	; 0x3ea <owowod_print_string>
}
 46c:	27 96       	adiw	r28, 0x07	; 7
 46e:	0f b6       	in	r0, 0x3f	; 63
 470:	f8 94       	cli
 472:	de bf       	out	0x3e, r29	; 62
 474:	0f be       	out	0x3f, r0	; 63
 476:	cd bf       	out	0x3d, r28	; 61
 478:	df 91       	pop	r29
 47a:	cf 91       	pop	r28
 47c:	1f 91       	pop	r17
 47e:	0f 91       	pop	r16
 480:	08 95       	ret

00000482 <usitwim_init>:
// ----------------------------------------------------------------------------

//	USI TWI single master initialization function
void usitwim_init(void)
{
	PORT_USI |= (1<<PIN_USI_SDA);			// Enable pullup on SDA, to set high as released state.
 482:	c0 9a       	sbi	0x18, 0	; 24
	PORT_USI |= (1<<PIN_USI_SCL);			// Enable pullup on SCL, to set high as released state.
 484:	c2 9a       	sbi	0x18, 2	; 24

	DDR_USI	 |= (1<<PIN_USI_SCL);			// Enable SCL as output.
 486:	ba 9a       	sbi	0x17, 2	; 23
	DDR_USI	 |= (1<<PIN_USI_SDA);			// Enable SDA as output.
 488:	b8 9a       	sbi	0x17, 0	; 23

	USIDR	 =	0xFF;						// Preload data register with "released level" data.
 48a:	8f ef       	ldi	r24, 0xFF	; 255
 48c:	8f b9       	out	0x0f, r24	; 15
	USICR	 =	(0<<USISIE)|(0<<USIOIE)|					// Disable Interrupts.
 48e:	8a e2       	ldi	r24, 0x2A	; 42
 490:	8d b9       	out	0x0d, r24	; 13
				(1<<USIWM1)|(0<<USIWM0)|					// Set USI in Two-wire mode.
				(1<<USICS1)|(0<<USICS0)|(1<<USICLK)|		// Software stobe as counter clock source
				(0<<USITC);
	USISR	=	(1<<USISIF)|(1<<USIOIF)|(1<<USIPF)|(1<<USIDC)|		// Clear flags,
 492:	80 ef       	ldi	r24, 0xF0	; 240
 494:	8e b9       	out	0x0e, r24	; 14
 496:	08 95       	ret

00000498 <USI_TWI_Master_Transfer>:
 Data to be sent has to be placed into the USIDR prior to calling
 this function. Data read, will be returned from the function.
---------------------------------------------------------------*/
uint8_t USI_TWI_Master_Transfer(uint8_t mode)
{
	USISR = mode;								// Set USISR according to mode.
 498:	8e b9       	out	0x0e, r24	; 14
	do {
		_delay_us(T2_TWI);
		USICR = USITWIM_USICR_MODE;				// Generate positive SCL edge.
 49a:	8b e2       	ldi	r24, 0x2B	; 43
	#else
		//round up by default
		__ticks_dc = (uint32_t)(ceil(fabs(__tmp)));
	#endif

	__builtin_avr_delay_cycles(__ticks_dc);
 49c:	00 c0       	rjmp	.+0      	; 0x49e <USI_TWI_Master_Transfer+0x6>
 49e:	00 c0       	rjmp	.+0      	; 0x4a0 <USI_TWI_Master_Transfer+0x8>
 4a0:	00 00       	nop
 4a2:	8d b9       	out	0x0d, r24	; 13
		while (!(PIN_USI & (1<<PIN_USI_SCL)));	// Wait for SCL to go high.
 4a4:	b2 9b       	sbis	0x16, 2	; 22
 4a6:	fe cf       	rjmp	.-4      	; 0x4a4 <USI_TWI_Master_Transfer+0xc>
 4a8:	00 c0       	rjmp	.+0      	; 0x4aa <USI_TWI_Master_Transfer+0x12>
 4aa:	00 c0       	rjmp	.+0      	; 0x4ac <USI_TWI_Master_Transfer+0x14>
		_delay_us(T4_TWI);
		USICR = USITWIM_USICR_MODE;				// Generate negative SCL edge.
 4ac:	8d b9       	out	0x0d, r24	; 13
	} while (!(USISR & (1<<USIOIF)));			// Check for transfer complete.
 4ae:	76 9b       	sbis	0x0e, 6	; 14
 4b0:	f5 cf       	rjmp	.-22     	; 0x49c <USI_TWI_Master_Transfer+0x4>
 4b2:	00 c0       	rjmp	.+0      	; 0x4b4 <USI_TWI_Master_Transfer+0x1c>
 4b4:	00 c0       	rjmp	.+0      	; 0x4b6 <USI_TWI_Master_Transfer+0x1e>
 4b6:	00 00       	nop
	_delay_us(T2_TWI);
	uint8_t data = USIDR;						// Read out data.
 4b8:	8f b1       	in	r24, 0x0f	; 15
	USIDR = 0xFF;								// Release SDA.
 4ba:	9f ef       	ldi	r25, 0xFF	; 255
 4bc:	9f b9       	out	0x0f, r25	; 15
	DDR_USI |= (1 << PIN_USI_SDA);				// Enable SDA as output.
 4be:	b8 9a       	sbi	0x17, 0	; 23
	return data;								// Return the data from the USIDR
}
 4c0:	08 95       	ret

000004c2 <USI_TWI_Master_Start>:
 Function for generating a TWI Start Condition.
---------------------------------------------------------------*/
uint8_t USI_TWI_Master_Start(void)
{
	/* Release SCL to ensure that (repeated) Start can be performed */
	PORT_USI |= (1<<PIN_USI_SCL);				// Release SCL.
 4c2:	c2 9a       	sbi	0x18, 2	; 24
	while (!(PORT_USI & (1 << PIN_USI_SCL)));	// Verify that SCL becomes high.
 4c4:	c2 9b       	sbis	0x18, 2	; 24
 4c6:	fe cf       	rjmp	.-4      	; 0x4c4 <USI_TWI_Master_Start+0x2>
 4c8:	00 c0       	rjmp	.+0      	; 0x4ca <USI_TWI_Master_Start+0x8>
 4ca:	00 c0       	rjmp	.+0      	; 0x4cc <USI_TWI_Master_Start+0xa>
 4cc:	00 00       	nop
	_delay_us(T2_TWI);

	/* Generate Start Condition */
	PORT_USI &= ~(1<<PIN_USI_SDA);				// Force SDA LOW.
 4ce:	c0 98       	cbi	0x18, 0	; 24
 4d0:	00 c0       	rjmp	.+0      	; 0x4d2 <USI_TWI_Master_Start+0x10>
 4d2:	00 c0       	rjmp	.+0      	; 0x4d4 <USI_TWI_Master_Start+0x12>
	_delay_us(T4_TWI);
	PORT_USI &= ~(1<<PIN_USI_SCL);				// Pull SCL LOW.
 4d4:	c2 98       	cbi	0x18, 2	; 24
	PORT_USI |= (1<<PIN_USI_SDA);				// Release SDA.
 4d6:	c0 9a       	sbi	0x18, 0	; 24

#ifdef USITWIM_SIGNAL_VERIFY
	if (!(USISR & (1<<USISIF)) )
 4d8:	77 9b       	sbis	0x0e, 7	; 14
 4da:	02 c0       	rjmp	.+4      	; 0x4e0 <USI_TWI_Master_Start+0x1e>
		return USI_TWI_MISSING_START_CON;		// return status code
#endif

	return USITWIM_RESULT_SUCCESS;				// return status code
 4dc:	80 e0       	ldi	r24, 0x00	; 0
 4de:	08 95       	ret
	PORT_USI &= ~(1<<PIN_USI_SCL);				// Pull SCL LOW.
	PORT_USI |= (1<<PIN_USI_SDA);				// Release SDA.

#ifdef USITWIM_SIGNAL_VERIFY
	if (!(USISR & (1<<USISIF)) )
		return USI_TWI_MISSING_START_CON;		// return status code
 4e0:	83 e0       	ldi	r24, 0x03	; 3
#endif

	return USITWIM_RESULT_SUCCESS;				// return status code
}
 4e2:	08 95       	ret

000004e4 <USI_TWI_Master_Stop>:
 Function for generating a TWI Stop Condition. Used to release
 the TWI bus.
---------------------------------------------------------------*/
uint8_t USI_TWI_Master_Stop(void)
{
	PORT_USI &= ~(1<<PIN_USI_SDA);				// Pull SDA low.
 4e4:	c0 98       	cbi	0x18, 0	; 24
	PORT_USI |= (1<<PIN_USI_SCL);				// Release SCL.
 4e6:	c2 9a       	sbi	0x18, 2	; 24
	while (!(PIN_USI & (1 << PIN_USI_SCL)));		// Wait for SCL to go high.
 4e8:	b2 9b       	sbis	0x16, 2	; 22
 4ea:	fe cf       	rjmp	.-4      	; 0x4e8 <USI_TWI_Master_Stop+0x4>
 4ec:	00 c0       	rjmp	.+0      	; 0x4ee <USI_TWI_Master_Stop+0xa>
 4ee:	00 c0       	rjmp	.+0      	; 0x4f0 <USI_TWI_Master_Stop+0xc>
	_delay_us(T4_TWI);
	PORT_USI |= (1<<PIN_USI_SDA);				// Release SDA.
 4f0:	c0 9a       	sbi	0x18, 0	; 24
 4f2:	00 c0       	rjmp	.+0      	; 0x4f4 <USI_TWI_Master_Stop+0x10>
 4f4:	00 c0       	rjmp	.+0      	; 0x4f6 <USI_TWI_Master_Stop+0x12>
 4f6:	00 00       	nop
	_delay_us(T2_TWI);

#ifdef USITWIM_SIGNAL_VERIFY
	if (!(USISR & (1<<USIPF)))
 4f8:	75 9b       	sbis	0x0e, 5	; 14
 4fa:	02 c0       	rjmp	.+4      	; 0x500 <USI_TWI_Master_Stop+0x1c>
		return USI_TWI_MISSING_STOP_CON;		// return status code
#endif

	return USITWIM_RESULT_SUCCESS;				// return status code
 4fc:	80 e0       	ldi	r24, 0x00	; 0
 4fe:	08 95       	ret
	PORT_USI |= (1<<PIN_USI_SDA);				// Release SDA.
	_delay_us(T2_TWI);

#ifdef USITWIM_SIGNAL_VERIFY
	if (!(USISR & (1<<USIPF)))
		return USI_TWI_MISSING_STOP_CON;		// return status code
 500:	84 e0       	ldi	r24, 0x04	; 4
#endif

	return USITWIM_RESULT_SUCCESS;				// return status code
}
 502:	08 95       	ret

00000504 <USI_TWI_Start_Transceiver_With_Data>:

 Success or error code is returned. Error codes are defined in
 the header file.
---------------------------------------------------------------*/
uint8_t USI_TWI_Start_Transceiver_With_Data( uint8_t *message, uint8_t message_size)
{
 504:	8f 92       	push	r8
 506:	9f 92       	push	r9
 508:	af 92       	push	r10
 50a:	bf 92       	push	r11
 50c:	cf 92       	push	r12
 50e:	df 92       	push	r13
 510:	ef 92       	push	r14
 512:	ff 92       	push	r15
 514:	0f 93       	push	r16
 516:	1f 93       	push	r17
 518:	cf 93       	push	r28
 51a:	df 93       	push	r29
 51c:	7c 01       	movw	r14, r24
 51e:	d6 2f       	mov	r29, r22
	uint8_t *saved_message;
	uint8_t saved_message_size;

	// This clear must be done before calling this function so that memReadMode can be specified.
	// USI_TWI_state.all_bits = 0;				// Clears all mode bits also
	USI_TWI_state.addressMode = 1;			// Always 1 for first byte
 520:	80 91 f0 00 	lds	r24, 0x00F0
 524:	81 60       	ori	r24, 0x01	; 1
 526:	80 93 f0 00 	sts	0x00F0, r24
	if (USISR & (1<<USIPF)) return USI_TWI_UE_STOP_CON;	// return status code
	if (USISR & (1<<USIDC)) return USI_TWI_UE_DATA_COL;	// return status code
#endif

// The LSB in the address byte determines if is a masterRead or masterWrite operation.
	if (!(*message & (1<<TWI_READ_BIT))) USI_TWI_state.masterWriteDataMode = 1;
 52a:	f7 01       	movw	r30, r14
 52c:	80 81       	ld	r24, Z
 52e:	80 fd       	sbrc	r24, 0
 530:	05 c0       	rjmp	.+10     	; 0x53c <USI_TWI_Start_Transceiver_With_Data+0x38>
 532:	80 91 f0 00 	lds	r24, 0x00F0
 536:	82 60       	ori	r24, 0x02	; 2
 538:	80 93 f0 00 	sts	0x00F0, r24
//	{
		saved_message = message;
		saved_message_size = message_size;
//	}

	result_code = USI_TWI_Master_Start();
 53c:	c2 df       	rcall	.-124    	; 0x4c2 <USI_TWI_Master_Start>
	if (result_code != USITWIM_RESULT_SUCCESS) return result_code;
 53e:	81 11       	cpse	r24, r1
 540:	51 c0       	rjmp	.+162    	; 0x5e4 <USI_TWI_Start_Transceiver_With_Data+0xe0>
 542:	cd 2f       	mov	r28, r29
 544:	87 01       	movw	r16, r14
	  *(message++)	= USI_TWI_Master_Transfer(USITWIM_USISR_MODE_8BIT);

	  /* Prepare to generate ACK (or NACK in case of End Of Transmission) */
	  if(message_size == 1)				// If transmission of last byte was performed.
	  {
		USIDR = 0xFF;					// Load NACK to confirm End Of Transmission.
 546:	bb 24       	eor	r11, r11
 548:	ba 94       	dec	r11
	  // means memory start address has been written
	  {
		message = saved_message;					// start at slave address again
		*(message) |= (1 << TWI_READ_BIT);	// set the Read Bit on Slave address
		USI_TWI_state.all_bits = 0;
		USI_TWI_state.addressMode = 1;	// Now set up for the Read cycle
 54a:	aa 24       	eor	r10, r10
 54c:	a3 94       	inc	r10
		}

	  if ((!USI_TWI_state.addressMode) && USI_TWI_state.memReadMode)
	  // means memory start address has been written
	  {
		message = saved_message;					// start at slave address again
 54e:	8e 2c       	mov	r8, r14
 550:	9f 2c       	mov	r9, r15

/*Write address and Read/Write data */
  do
  {
	/* If masterWrite cycle (or initial address transmission)*/
	if (USI_TWI_state.addressMode || USI_TWI_state.masterWriteDataMode)
 552:	90 91 f0 00 	lds	r25, 0x00F0
 556:	93 70       	andi	r25, 0x03	; 3
 558:	71 f1       	breq	.+92     	; 0x5b6 <USI_TWI_Start_Transceiver_With_Data+0xb2>
	{
	  /* Write a byte */
	  PORT_USI &= ~(1<<PIN_USI_SCL);					// Pull SCL LOW.
 55a:	c2 98       	cbi	0x18, 2	; 24
	  USIDR		= *(message++);							// Setup data.
 55c:	68 01       	movw	r12, r16
 55e:	ff ef       	ldi	r31, 0xFF	; 255
 560:	cf 1a       	sub	r12, r31
 562:	df 0a       	sbc	r13, r31
 564:	f8 01       	movw	r30, r16
 566:	80 81       	ld	r24, Z
 568:	8f b9       	out	0x0f, r24	; 15
	  USI_TWI_Master_Transfer(USITWIM_USISR_MODE_8BIT);	// Send 8 bits on bus.
 56a:	80 ef       	ldi	r24, 0xF0	; 240
 56c:	95 df       	rcall	.-214    	; 0x498 <USI_TWI_Master_Transfer>

		/* Clock and verify (N)ACK from slave */
		DDR_USI	 &= ~(1<<PIN_USI_SDA);					// Enable SDA as input.
 56e:	b8 98       	cbi	0x17, 0	; 23
		if (USI_TWI_Master_Transfer(USITWIM_USISR_MODE_1BIT) & (1 << TWI_NACK_BIT))
 570:	8e ef       	ldi	r24, 0xFE	; 254
 572:	92 df       	rcall	.-220    	; 0x498 <USI_TWI_Master_Transfer>
 574:	80 ff       	sbrs	r24, 0
 576:	06 c0       	rjmp	.+12     	; 0x584 <USI_TWI_Start_Transceiver_With_Data+0x80>
		{
			if (USI_TWI_state.addressMode)
 578:	80 91 f0 00 	lds	r24, 0x00F0
 57c:	80 fd       	sbrc	r24, 0
 57e:	31 c0       	rjmp	.+98     	; 0x5e2 <USI_TWI_Start_Transceiver_With_Data+0xde>
				return USI_TWI_NO_ACK_ON_ADDRESS;		// return status code
			else
				return USI_TWI_NO_ACK_ON_DATA;			// return status code
 580:	82 e0       	ldi	r24, 0x02	; 2
 582:	30 c0       	rjmp	.+96     	; 0x5e4 <USI_TWI_Start_Transceiver_With_Data+0xe0>
		}

	  if ((!USI_TWI_state.addressMode) && USI_TWI_state.memReadMode)
 584:	90 91 f0 00 	lds	r25, 0x00F0
 588:	95 70       	andi	r25, 0x05	; 5
 58a:	94 30       	cpi	r25, 0x04	; 4
 58c:	69 f4       	brne	.+26     	; 0x5a8 <USI_TWI_Start_Transceiver_With_Data+0xa4>
	  // means memory start address has been written
	  {
		message = saved_message;					// start at slave address again
		*(message) |= (1 << TWI_READ_BIT);	// set the Read Bit on Slave address
 58e:	f7 01       	movw	r30, r14
 590:	80 81       	ld	r24, Z
 592:	81 60       	ori	r24, 0x01	; 1
 594:	80 83       	st	Z, r24
		USI_TWI_state.all_bits = 0;
		USI_TWI_state.addressMode = 1;	// Now set up for the Read cycle
 596:	a0 92 f0 00 	sts	0x00F0, r10
		message_size = saved_message_size;				// Set byte count correctly
		// Note that the length should be Slave adrs byte + # bytes to read + 1 (gets decremented below)

		result_code = USI_TWI_Master_Start();
 59a:	93 df       	rcall	.-218    	; 0x4c2 <USI_TWI_Master_Start>
		if (result_code != USITWIM_RESULT_SUCCESS) return result_code;
 59c:	81 11       	cpse	r24, r1
 59e:	22 c0       	rjmp	.+68     	; 0x5e4 <USI_TWI_Start_Transceiver_With_Data+0xe0>
	  {
		message = saved_message;					// start at slave address again
		*(message) |= (1 << TWI_READ_BIT);	// set the Read Bit on Slave address
		USI_TWI_state.all_bits = 0;
		USI_TWI_state.addressMode = 1;	// Now set up for the Read cycle
		message_size = saved_message_size;				// Set byte count correctly
 5a0:	cd 2f       	mov	r28, r29
		}

	  if ((!USI_TWI_state.addressMode) && USI_TWI_state.memReadMode)
	  // means memory start address has been written
	  {
		message = saved_message;					// start at slave address again
 5a2:	08 2d       	mov	r16, r8
 5a4:	19 2d       	mov	r17, r9
 5a6:	18 c0       	rjmp	.+48     	; 0x5d8 <USI_TWI_Start_Transceiver_With_Data+0xd4>
		// NOTE: Return whatever the called function returns.
		// NOTE: Original code returns USI_TWI_BAD_MEM_READ, but maybe it's wrong code.
	  }
	  else
	  {
		USI_TWI_state.addressMode = 0;			  // Only perform address transmission once.
 5a8:	80 91 f0 00 	lds	r24, 0x00F0
 5ac:	8e 7f       	andi	r24, 0xFE	; 254
 5ae:	80 93 f0 00 	sts	0x00F0, r24
	/* If masterWrite cycle (or initial address transmission)*/
	if (USI_TWI_state.addressMode || USI_TWI_state.masterWriteDataMode)
	{
	  /* Write a byte */
	  PORT_USI &= ~(1<<PIN_USI_SCL);					// Pull SCL LOW.
	  USIDR		= *(message++);							// Setup data.
 5b2:	86 01       	movw	r16, r12
 5b4:	11 c0       	rjmp	.+34     	; 0x5d8 <USI_TWI_Start_Transceiver_With_Data+0xd4>
	}
	/* Else masterRead cycle*/
	else
	{
	  /* Read a data byte */
	  DDR_USI	&= ~(1<<PIN_USI_SDA);				// Enable SDA as input.
 5b6:	b8 98       	cbi	0x17, 0	; 23
	  *(message++)	= USI_TWI_Master_Transfer(USITWIM_USISR_MODE_8BIT);
 5b8:	68 01       	movw	r12, r16
 5ba:	ff ef       	ldi	r31, 0xFF	; 255
 5bc:	cf 1a       	sub	r12, r31
 5be:	df 0a       	sbc	r13, r31
 5c0:	80 ef       	ldi	r24, 0xF0	; 240
 5c2:	6a df       	rcall	.-300    	; 0x498 <USI_TWI_Master_Transfer>
 5c4:	f8 01       	movw	r30, r16
 5c6:	80 83       	st	Z, r24

	  /* Prepare to generate ACK (or NACK in case of End Of Transmission) */
	  if(message_size == 1)				// If transmission of last byte was performed.
 5c8:	c1 30       	cpi	r28, 0x01	; 1
 5ca:	11 f4       	brne	.+4      	; 0x5d0 <USI_TWI_Start_Transceiver_With_Data+0xcc>
	  {
		USIDR = 0xFF;					// Load NACK to confirm End Of Transmission.
 5cc:	bf b8       	out	0x0f, r11	; 15
 5ce:	01 c0       	rjmp	.+2      	; 0x5d2 <USI_TWI_Start_Transceiver_With_Data+0xce>
	  }
	  else
	  {
		USIDR = 0x00;					// Load ACK. Set data register bit 7 (output for SDA) low.
 5d0:	1f b8       	out	0x0f, r1	; 15
	  }
	  USI_TWI_Master_Transfer(USITWIM_USISR_MODE_1BIT);   // Generate ACK/NACK.
 5d2:	8e ef       	ldi	r24, 0xFE	; 254
 5d4:	61 df       	rcall	.-318    	; 0x498 <USI_TWI_Master_Transfer>
	/* Else masterRead cycle*/
	else
	{
	  /* Read a data byte */
	  DDR_USI	&= ~(1<<PIN_USI_SDA);				// Enable SDA as input.
	  *(message++)	= USI_TWI_Master_Transfer(USITWIM_USISR_MODE_8BIT);
 5d6:	86 01       	movw	r16, r12
	  {
		USIDR = 0x00;					// Load ACK. Set data register bit 7 (output for SDA) low.
	  }
	  USI_TWI_Master_Transfer(USITWIM_USISR_MODE_1BIT);   // Generate ACK/NACK.
	}
  } while (--message_size);								// Until all data sent/received.
 5d8:	c1 50       	subi	r28, 0x01	; 1
 5da:	09 f0       	breq	.+2      	; 0x5de <USI_TWI_Start_Transceiver_With_Data+0xda>
 5dc:	ba cf       	rjmp	.-140    	; 0x552 <USI_TWI_Start_Transceiver_With_Data+0x4e>

	return USI_TWI_Master_Stop();
 5de:	82 df       	rcall	.-252    	; 0x4e4 <USI_TWI_Master_Stop>
 5e0:	01 c0       	rjmp	.+2      	; 0x5e4 <USI_TWI_Start_Transceiver_With_Data+0xe0>
		/* Clock and verify (N)ACK from slave */
		DDR_USI	 &= ~(1<<PIN_USI_SDA);					// Enable SDA as input.
		if (USI_TWI_Master_Transfer(USITWIM_USISR_MODE_1BIT) & (1 << TWI_NACK_BIT))
		{
			if (USI_TWI_state.addressMode)
				return USI_TWI_NO_ACK_ON_ADDRESS;		// return status code
 5e2:	81 e0       	ldi	r24, 0x01	; 1
	  USI_TWI_Master_Transfer(USITWIM_USISR_MODE_1BIT);   // Generate ACK/NACK.
	}
  } while (--message_size);								// Until all data sent/received.

	return USI_TWI_Master_Stop();
}
 5e4:	df 91       	pop	r29
 5e6:	cf 91       	pop	r28
 5e8:	1f 91       	pop	r17
 5ea:	0f 91       	pop	r16
 5ec:	ff 90       	pop	r15
 5ee:	ef 90       	pop	r14
 5f0:	df 90       	pop	r13
 5f2:	cf 90       	pop	r12
 5f4:	bf 90       	pop	r11
 5f6:	af 90       	pop	r10
 5f8:	9f 90       	pop	r9
 5fa:	8f 90       	pop	r8
 5fc:	08 95       	ret

000005fe <USI_TWI_Start_Read_Write>:
 Success or error code is returned. Error codes are defined in
 the header file.
---------------------------------------------------------------*/
uint8_t USI_TWI_Start_Read_Write( uint8_t *message, uint8_t message_size)
{
	USI_TWI_state.all_bits = 0;	// Clears all mode bits also
 5fe:	10 92 f0 00 	sts	0x00F0, r1
	return (USI_TWI_Start_Transceiver_With_Data(message, message_size));	// return status code
 602:	80 df       	rcall	.-256    	; 0x504 <USI_TWI_Start_Transceiver_With_Data>
}
 604:	08 95       	ret

00000606 <usitwim_data_write>:
	USISR	=	(1<<USISIF)|(1<<USIOIF)|(1<<USIPF)|(1<<USIDC)|		// Clear flags,
				(0x0<<USICNT0);										// and reset counter.
}

uint8_t usitwim_data_write(uint8_t device_addr, uint8_t *data_buffer, uint8_t data_size)
{
 606:	cf 93       	push	r28
 608:	fb 01       	movw	r30, r22
	data_buffer[0] = (device_addr << TWI_ADR_BITS) & ~0x01;
 60a:	88 0f       	add	r24, r24
 60c:	80 83       	st	Z, r24
	uint8_t result_code = USI_TWI_Start_Read_Write(data_buffer, data_size);
 60e:	64 2f       	mov	r22, r20
 610:	cf 01       	movw	r24, r30
 612:	f5 df       	rcall	.-22     	; 0x5fe <USI_TWI_Start_Read_Write>
 614:	c8 2f       	mov	r28, r24
	// /*DEBUGGING*/ owowod_print_char(data_buffer[0]);
	// /*DEBUGGING*/ owowod_print_char(data_buffer[1]);
	if (result_code != USITWIM_RESULT_SUCCESS) {
 616:	88 23       	and	r24, r24
 618:	79 f0       	breq	.+30     	; 0x638 <usitwim_data_write+0x32>
		/*DEBUGGING*/ DEBUGGING_ERROR(result_code, "usitwim_data_write");
 61a:	88 ea       	ldi	r24, 0xA8	; 168
 61c:	90 e0       	ldi	r25, 0x00	; 0
 61e:	e5 de       	rcall	.-566    	; 0x3ea <owowod_print_string>
 620:	8c 2f       	mov	r24, r28
 622:	90 e0       	ldi	r25, 0x00	; 0
 624:	f0 de       	rcall	.-544    	; 0x406 <owowod_print_numdec>
 626:	8d ea       	ldi	r24, 0xAD	; 173
 628:	90 e0       	ldi	r25, 0x00	; 0
 62a:	df de       	rcall	.-578    	; 0x3ea <owowod_print_string>
 62c:	8a ec       	ldi	r24, 0xCA	; 202
 62e:	90 e0       	ldi	r25, 0x00	; 0
 630:	dc de       	rcall	.-584    	; 0x3ea <owowod_print_string>
 632:	8b e6       	ldi	r24, 0x6B	; 107
 634:	90 e0       	ldi	r25, 0x00	; 0
 636:	d9 de       	rcall	.-590    	; 0x3ea <owowod_print_string>
	} else {
		// /*DEBUGGING*/ owowod_print_string("(w:ok)");
	}
	return result_code;
}
 638:	8c 2f       	mov	r24, r28
 63a:	cf 91       	pop	r28
 63c:	08 95       	ret

0000063e <usitwim_data_read>:

uint8_t usitwim_data_read(uint8_t device_addr, uint8_t *data_buffer, uint8_t data_size)
{
 63e:	cf 93       	push	r28
 640:	fb 01       	movw	r30, r22
	data_buffer[0] = (device_addr << TWI_ADR_BITS) | 0x01;
 642:	88 0f       	add	r24, r24
 644:	98 2f       	mov	r25, r24
 646:	91 60       	ori	r25, 0x01	; 1
 648:	90 83       	st	Z, r25
	uint8_t result_code = USI_TWI_Start_Read_Write(data_buffer, data_size);
 64a:	64 2f       	mov	r22, r20
 64c:	cf 01       	movw	r24, r30
 64e:	d7 df       	rcall	.-82     	; 0x5fe <USI_TWI_Start_Read_Write>
 650:	c8 2f       	mov	r28, r24
	// /*DEBUGGING*/ owowod_print_char(data_buffer[0]);
	// /*DEBUGGING*/ owowod_print_char(data_buffer[1]);
	if (result_code != USITWIM_RESULT_SUCCESS) {
 652:	88 23       	and	r24, r24
 654:	79 f0       	breq	.+30     	; 0x674 <usitwim_data_read+0x36>
		/*DEBUGGING*/ DEBUGGING_ERROR(result_code, "usitwim_data_read");
 656:	88 ea       	ldi	r24, 0xA8	; 168
 658:	90 e0       	ldi	r25, 0x00	; 0
 65a:	c7 de       	rcall	.-626    	; 0x3ea <owowod_print_string>
 65c:	8c 2f       	mov	r24, r28
 65e:	90 e0       	ldi	r25, 0x00	; 0
 660:	d2 de       	rcall	.-604    	; 0x406 <owowod_print_numdec>
 662:	8d ea       	ldi	r24, 0xAD	; 173
 664:	90 e0       	ldi	r25, 0x00	; 0
 666:	c1 de       	rcall	.-638    	; 0x3ea <owowod_print_string>
 668:	8d ed       	ldi	r24, 0xDD	; 221
 66a:	90 e0       	ldi	r25, 0x00	; 0
 66c:	be de       	rcall	.-644    	; 0x3ea <owowod_print_string>
 66e:	8b e6       	ldi	r24, 0x6B	; 107
 670:	90 e0       	ldi	r25, 0x00	; 0
 672:	bb de       	rcall	.-650    	; 0x3ea <owowod_print_string>
	} else {
		// /*DEBUGGING*/ owowod_print_string("(r:ok)");
	}
	return result_code;
}
 674:	8c 2f       	mov	r24, r28
 676:	cf 91       	pop	r28
 678:	08 95       	ret

0000067a <__udivmodqi4>:
 67a:	99 1b       	sub	r25, r25
 67c:	79 e0       	ldi	r23, 0x09	; 9
 67e:	04 c0       	rjmp	.+8      	; 0x688 <__udivmodqi4_ep>

00000680 <__udivmodqi4_loop>:
 680:	99 1f       	adc	r25, r25
 682:	96 17       	cp	r25, r22
 684:	08 f0       	brcs	.+2      	; 0x688 <__udivmodqi4_ep>
 686:	96 1b       	sub	r25, r22

00000688 <__udivmodqi4_ep>:
 688:	88 1f       	adc	r24, r24
 68a:	7a 95       	dec	r23
 68c:	c9 f7       	brne	.-14     	; 0x680 <__udivmodqi4_loop>
 68e:	80 95       	com	r24
 690:	08 95       	ret

00000692 <_exit>:
 692:	f8 94       	cli

00000694 <__stop_program>:
 694:	ff cf       	rjmp	.-2      	; 0x694 <__stop_program>
