
FartDetector.elf:     file format elf32-avr

Sections:
Idx Name          Size      VMA       LMA       File off  Algn
  0 .data         00000086  00800100  00000628  000006bc  2**0
                  CONTENTS, ALLOC, LOAD, DATA
  1 .text         00000628  00000000  00000000  00000094  2**1
                  CONTENTS, ALLOC, LOAD, READONLY, CODE
  2 .bss          00000009  00800186  00800186  00000742  2**0
                  ALLOC
  3 .comment      00000030  00000000  00000000  00000742  2**0
                  CONTENTS, READONLY
  4 .note.gnu.avr.deviceinfo 00000040  00000000  00000000  00000774  2**2
                  CONTENTS, READONLY
  5 .debug_aranges 00000110  00000000  00000000  000007b4  2**0
                  CONTENTS, READONLY, DEBUGGING
  6 .debug_info   00000de1  00000000  00000000  000008c4  2**0
                  CONTENTS, READONLY, DEBUGGING
  7 .debug_abbrev 000004af  00000000  00000000  000016a5  2**0
                  CONTENTS, READONLY, DEBUGGING
  8 .debug_line   000004be  00000000  00000000  00001b54  2**0
                  CONTENTS, READONLY, DEBUGGING
  9 .debug_frame  00000348  00000000  00000000  00002014  2**2
                  CONTENTS, READONLY, DEBUGGING
 10 .debug_str    000004c1  00000000  00000000  0000235c  2**0
                  CONTENTS, READONLY, DEBUGGING
 11 .debug_loc    00000a9f  00000000  00000000  0000281d  2**0
                  CONTENTS, READONLY, DEBUGGING
 12 .debug_ranges 000000f0  00000000  00000000  000032bc  2**0
                  CONTENTS, READONLY, DEBUGGING

Disassembly of section .text:

00000000 <__vectors>:
   0:	0c 94 34 00 	jmp	0x68	; 0x68 <__ctors_end>
   4:	0c 94 51 00 	jmp	0xa2	; 0xa2 <__bad_interrupt>
   8:	0c 94 51 00 	jmp	0xa2	; 0xa2 <__bad_interrupt>
   c:	0c 94 3f 01 	jmp	0x27e	; 0x27e <__vector_3>
  10:	0c 94 51 00 	jmp	0xa2	; 0xa2 <__bad_interrupt>
  14:	0c 94 51 00 	jmp	0xa2	; 0xa2 <__bad_interrupt>
  18:	0c 94 51 00 	jmp	0xa2	; 0xa2 <__bad_interrupt>
  1c:	0c 94 51 00 	jmp	0xa2	; 0xa2 <__bad_interrupt>
  20:	0c 94 51 00 	jmp	0xa2	; 0xa2 <__bad_interrupt>
  24:	0c 94 51 00 	jmp	0xa2	; 0xa2 <__bad_interrupt>
  28:	0c 94 51 00 	jmp	0xa2	; 0xa2 <__bad_interrupt>
  2c:	0c 94 c8 00 	jmp	0x190	; 0x190 <__vector_11>
  30:	0c 94 51 00 	jmp	0xa2	; 0xa2 <__bad_interrupt>
  34:	0c 94 51 00 	jmp	0xa2	; 0xa2 <__bad_interrupt>
  38:	0c 94 51 00 	jmp	0xa2	; 0xa2 <__bad_interrupt>
  3c:	0c 94 51 00 	jmp	0xa2	; 0xa2 <__bad_interrupt>
  40:	0c 94 51 00 	jmp	0xa2	; 0xa2 <__bad_interrupt>
  44:	0c 94 51 00 	jmp	0xa2	; 0xa2 <__bad_interrupt>
  48:	0c 94 51 00 	jmp	0xa2	; 0xa2 <__bad_interrupt>
  4c:	0c 94 51 00 	jmp	0xa2	; 0xa2 <__bad_interrupt>
  50:	0c 94 51 00 	jmp	0xa2	; 0xa2 <__bad_interrupt>
  54:	0c 94 51 00 	jmp	0xa2	; 0xa2 <__bad_interrupt>
  58:	0c 94 51 00 	jmp	0xa2	; 0xa2 <__bad_interrupt>
  5c:	0c 94 51 00 	jmp	0xa2	; 0xa2 <__bad_interrupt>
  60:	0c 94 51 00 	jmp	0xa2	; 0xa2 <__bad_interrupt>
  64:	0c 94 51 00 	jmp	0xa2	; 0xa2 <__bad_interrupt>

00000068 <__ctors_end>:
  68:	11 24       	eor	r1, r1
  6a:	1f be       	out	0x3f, r1	; 63
  6c:	cf ef       	ldi	r28, 0xFF	; 255
  6e:	d8 e0       	ldi	r29, 0x08	; 8
  70:	de bf       	out	0x3e, r29	; 62
  72:	cd bf       	out	0x3d, r28	; 61

00000074 <__do_copy_data>:
  74:	11 e0       	ldi	r17, 0x01	; 1
  76:	a0 e0       	ldi	r26, 0x00	; 0
  78:	b1 e0       	ldi	r27, 0x01	; 1
  7a:	e8 e2       	ldi	r30, 0x28	; 40
  7c:	f6 e0       	ldi	r31, 0x06	; 6
  7e:	02 c0       	rjmp	.+4      	; 0x84 <__do_copy_data+0x10>
  80:	05 90       	lpm	r0, Z+
  82:	0d 92       	st	X+, r0
  84:	a6 38       	cpi	r26, 0x86	; 134
  86:	b1 07       	cpc	r27, r17
  88:	d9 f7       	brne	.-10     	; 0x80 <__do_copy_data+0xc>

0000008a <__do_clear_bss>:
  8a:	21 e0       	ldi	r18, 0x01	; 1
  8c:	a6 e8       	ldi	r26, 0x86	; 134
  8e:	b1 e0       	ldi	r27, 0x01	; 1
  90:	01 c0       	rjmp	.+2      	; 0x94 <.do_clear_bss_start>

00000092 <.do_clear_bss_loop>:
  92:	1d 92       	st	X+, r1

00000094 <.do_clear_bss_start>:
  94:	af 38       	cpi	r26, 0x8F	; 143
  96:	b2 07       	cpc	r27, r18
  98:	e1 f7       	brne	.-8      	; 0x92 <.do_clear_bss_loop>
  9a:	0e 94 a2 01 	call	0x344	; 0x344 <main>
  9e:	0c 94 12 03 	jmp	0x624	; 0x624 <_exit>

000000a2 <__bad_interrupt>:
  a2:	0c 94 00 00 	jmp	0	; 0x0 <__vectors>

000000a6 <debug>:
		z--;
	}
}

//--------------Debug Routines-----------------------------------------
void debug(const char myString[]) {
  a6:	0f 93       	push	r16
  a8:	1f 93       	push	r17
  aa:	cf 93       	push	r28
  ac:	8c 01       	movw	r16, r24
	if (DEBUG) {
		uint8_t i = 0;
		while (myString[i]) {
  ae:	fc 01       	movw	r30, r24
  b0:	80 81       	ld	r24, Z
  b2:	88 23       	and	r24, r24
  b4:	51 f0       	breq	.+20     	; 0xca <debug+0x24>
  b6:	c0 e0       	ldi	r28, 0x00	; 0
			transmitByte(myString[i]);
  b8:	0e 94 b0 02 	call	0x560	; 0x560 <transmitByte>
			i++;
  bc:	cf 5f       	subi	r28, 0xFF	; 255

//--------------Debug Routines-----------------------------------------
void debug(const char myString[]) {
	if (DEBUG) {
		uint8_t i = 0;
		while (myString[i]) {
  be:	f8 01       	movw	r30, r16
  c0:	ec 0f       	add	r30, r28
  c2:	f1 1d       	adc	r31, r1
  c4:	80 81       	ld	r24, Z
  c6:	81 11       	cpse	r24, r1
  c8:	f7 cf       	rjmp	.-18     	; 0xb8 <debug+0x12>
			transmitByte(myString[i]);
			i++;
		}
		printString("\r\n");
  ca:	80 e0       	ldi	r24, 0x00	; 0
  cc:	91 e0       	ldi	r25, 0x01	; 1
  ce:	0e 94 b8 02 	call	0x570	; 0x570 <printString>
	}
}
  d2:	cf 91       	pop	r28
  d4:	1f 91       	pop	r17
  d6:	0f 91       	pop	r16
  d8:	08 95       	ret

000000da <debugNoLF>:

void debugNoLF(const char myString[]) {
  da:	0f 93       	push	r16
  dc:	1f 93       	push	r17
  de:	cf 93       	push	r28
  e0:	fc 01       	movw	r30, r24
	if (DEBUG) {
		uint8_t i = 0;
		while (myString[i]) {
  e2:	80 81       	ld	r24, Z
  e4:	88 23       	and	r24, r24
  e6:	59 f0       	breq	.+22     	; 0xfe <debugNoLF+0x24>
  e8:	8f 01       	movw	r16, r30
  ea:	c0 e0       	ldi	r28, 0x00	; 0
			transmitByte(myString[i]);
  ec:	0e 94 b0 02 	call	0x560	; 0x560 <transmitByte>
			i++;
  f0:	cf 5f       	subi	r28, 0xFF	; 255
}

void debugNoLF(const char myString[]) {
	if (DEBUG) {
		uint8_t i = 0;
		while (myString[i]) {
  f2:	f8 01       	movw	r30, r16
  f4:	ec 0f       	add	r30, r28
  f6:	f1 1d       	adc	r31, r1
  f8:	80 81       	ld	r24, Z
  fa:	81 11       	cpse	r24, r1
  fc:	f7 cf       	rjmp	.-18     	; 0xec <debugNoLF+0x12>
			transmitByte(myString[i]);
			i++;
		}
	}
}
  fe:	cf 91       	pop	r28
 100:	1f 91       	pop	r17
 102:	0f 91       	pop	r16
 104:	08 95       	ret

00000106 <debugInt>:
			i++;
		}
	}
}

void debugInt(signed int anInt) {
 106:	cf 93       	push	r28
 108:	df 93       	push	r29
 10a:	00 d0       	rcall	.+0      	; 0x10c <debugInt+0x6>
 10c:	00 d0       	rcall	.+0      	; 0x10e <debugInt+0x8>
 10e:	cd b7       	in	r28, 0x3d	; 61
 110:	de b7       	in	r29, 0x3e	; 62
    } else if (__radix < 2 || __radix > 36) {
	*__s = 0;
	return __s;
    } else {
	extern char *__itoa_ncheck (int, char *, unsigned char);
	return __itoa_ncheck (__val, __s, __radix);
 112:	4a e0       	ldi	r20, 0x0A	; 10
 114:	be 01       	movw	r22, r28
 116:	6f 5f       	subi	r22, 0xFF	; 255
 118:	7f 4f       	sbci	r23, 0xFF	; 255
 11a:	0e 94 dd 02 	call	0x5ba	; 0x5ba <__itoa_ncheck>
	if (DEBUG) {
		char myInt[4];
		itoa(anInt,myInt,10);
		debug(myInt);
 11e:	ce 01       	movw	r24, r28
 120:	01 96       	adiw	r24, 0x01	; 1
 122:	0e 94 53 00 	call	0xa6	; 0xa6 <debug>
	}
}
 126:	0f 90       	pop	r0
 128:	0f 90       	pop	r0
 12a:	0f 90       	pop	r0
 12c:	0f 90       	pop	r0
 12e:	df 91       	pop	r29
 130:	cf 91       	pop	r28
 132:	08 95       	ret

00000134 <initHC595>:
#define HC595_DS_POS	PB0												// Data pin (DS) pin location
#define HC595_SH_CP_POS PB1												// Shift Clock (SH_CP) pin location
#define HC595_ST_CP_POS PB2												// Store Clock (ST_CP) pin location
																		// END Configure Connections
void initHC595() {														// Initialize HC595 System
   HC595_DDR|=((1<<HC595_SH_CP_POS)|(1<<HC595_ST_CP_POS)|(1<<HC595_DS_POS)); 
 134:	84 b1       	in	r24, 0x04	; 4
 136:	87 60       	ori	r24, 0x07	; 7
 138:	84 b9       	out	0x04, r24	; 4
 13a:	08 95       	ret

0000013c <HC595Pulse>:

#define HC595DataHigh() (HC595_PORT|=(1<<HC595_DS_POS))					// Low level macro to change data (DS)lines
#define HC595DataLow() (HC595_PORT&=(~(1<<HC595_DS_POS)))				// Low level macro to change data (DS)lines

void HC595Pulse() {														// Sends a clock pulse on SH_CP line
   HC595_PORT|=(1<<HC595_SH_CP_POS);									// Pulse the Shift Clock HIGH
 13c:	29 9a       	sbi	0x05, 1	; 5
   HC595_PORT&=(~(1<<HC595_SH_CP_POS));									// Pulse the Shift Clock LOW
 13e:	29 98       	cbi	0x05, 1	; 5
 140:	08 95       	ret

00000142 <HC595Latch>:
}

void HC595Latch() {														// Sends a clock pulse on ST_CP line
   HC595_PORT|=(1<<HC595_ST_CP_POS);									// Pulse the Store Clock HIGH
 142:	2a 9a       	sbi	0x05, 2	; 5
    can be achieved.
*/
void
_delay_loop_1(uint8_t __count)
{
	__asm__ volatile (
 144:	81 e0       	ldi	r24, 0x01	; 1
 146:	98 2f       	mov	r25, r24
 148:	9a 95       	dec	r25
 14a:	f1 f7       	brne	.-4      	; 0x148 <HC595Latch+0x6>
   _delay_loop_1(1);
   HC595_PORT&=(~(1<<HC595_ST_CP_POS));									// Pulse the Store Clock LOW
 14c:	2a 98       	cbi	0x05, 2	; 5
 14e:	8a 95       	dec	r24
 150:	f1 f7       	brne	.-4      	; 0x14e <HC595Latch+0xc>
 152:	08 95       	ret

00000154 <HC595Write>:
   _delay_loop_1(1);
}

void HC595Write(uint8_t data) {											// write a single byte to output shift register 74HC595. 
 154:	cf 93       	push	r28
 156:	df 93       	push	r29
 158:	c8 2f       	mov	r28, r24
																		// The byte is serially transfered to 74HC595 and then latched. The byte is then available on
																		// output line Q0 to Q7 of the HC595 IC.
	debugInt(data);
 15a:	90 e0       	ldi	r25, 0x00	; 0
 15c:	0e 94 83 00 	call	0x106	; 0x106 <debugInt>
 160:	d8 e0       	ldi	r29, 0x08	; 8
	for(uint8_t i=0;i<8;i++) {											// Send each 8 bits serially, order is MSB first
		if(data & 0b10000000) {											// Output the data on DS line according to the value of MSB	
 162:	cc 23       	and	r28, r28
 164:	34 f4       	brge	.+12     	; 0x172 <HC595Write+0x1e>
			HC595DataHigh();											// MSB is 1 so output high
 166:	28 9a       	sbi	0x05, 0	; 5
			debugNoLF("1");
 168:	83 e0       	ldi	r24, 0x03	; 3
 16a:	91 e0       	ldi	r25, 0x01	; 1
 16c:	0e 94 6d 00 	call	0xda	; 0xda <debugNoLF>
 170:	05 c0       	rjmp	.+10     	; 0x17c <HC595Write+0x28>
		} else {
			HC595DataLow();												// MSB is 0 so output high
 172:	28 98       	cbi	0x05, 0	; 5
			debugNoLF("0");
 174:	85 e0       	ldi	r24, 0x05	; 5
 176:	91 e0       	ldi	r25, 0x01	; 1
 178:	0e 94 6d 00 	call	0xda	; 0xda <debugNoLF>
		}
		HC595Pulse();													// Pulse the Clock line
 17c:	0e 94 9e 00 	call	0x13c	; 0x13c <HC595Pulse>
		data=data<<1;													// Now bring next bit at MSB position
 180:	cc 0f       	add	r28, r28
 182:	d1 50       	subi	r29, 0x01	; 1

void HC595Write(uint8_t data) {											// write a single byte to output shift register 74HC595. 
																		// The byte is serially transfered to 74HC595 and then latched. The byte is then available on
																		// output line Q0 to Q7 of the HC595 IC.
	debugInt(data);
	for(uint8_t i=0;i<8;i++) {											// Send each 8 bits serially, order is MSB first
 184:	71 f7       	brne	.-36     	; 0x162 <HC595Write+0xe>
			debugNoLF("0");
		}
		HC595Pulse();													// Pulse the Clock line
		data=data<<1;													// Now bring next bit at MSB position
	}
	HC595Latch();														// Now all 8 bits have been transferred to shift register, move them to output latch at one
 186:	0e 94 a1 00 	call	0x142	; 0x142 <HC595Latch>
}
 18a:	df 91       	pop	r29
 18c:	cf 91       	pop	r28
 18e:	08 95       	ret

00000190 <__vector_11>:
	TCCR1B |= (1 << WGM12);												// Mode 4, CTC on OCR1A
	TIMSK1 |= (1 << OCIE1A);											// Set interrupt on compare match
	TCCR1B |= (1 << CS12) | (1 << CS10);								// set pre-scaler to 1024 and start the timer
}*/

ISR(TIMER1_COMPA_vect) {												// ISR for Timer 1 
 190:	1f 92       	push	r1
 192:	0f 92       	push	r0
 194:	0f b6       	in	r0, 0x3f	; 63
 196:	0f 92       	push	r0
 198:	11 24       	eor	r1, r1
 19a:	2f 93       	push	r18
 19c:	3f 93       	push	r19
 19e:	4f 93       	push	r20
 1a0:	5f 93       	push	r21
 1a2:	6f 93       	push	r22
 1a4:	7f 93       	push	r23
 1a6:	8f 93       	push	r24
 1a8:	9f 93       	push	r25
 1aa:	af 93       	push	r26
 1ac:	bf 93       	push	r27
 1ae:	ef 93       	push	r30
 1b0:	ff 93       	push	r31
//	debug("Timer interrupt fired.");
//	debugInt(charToLight);
//	PORTD |= (1 << PORTD4);												// Turn on the transistor for the ones place
//	HC595Write(178);
	switch(charToLight) {												// determine which transistor to flip on
 1b2:	80 91 8a 01 	lds	r24, 0x018A
 1b6:	81 30       	cpi	r24, 0x01	; 1
 1b8:	91 f0       	breq	.+36     	; 0x1de <__vector_11+0x4e>
 1ba:	18 f0       	brcs	.+6      	; 0x1c2 <__vector_11+0x32>
 1bc:	82 30       	cpi	r24, 0x02	; 2
 1be:	e9 f0       	breq	.+58     	; 0x1fa <__vector_11+0x6a>
 1c0:	28 c0       	rjmp	.+80     	; 0x212 <__vector_11+0x82>
		case 0 :
//			PORTD &= ~(1 << PORTD2);									// Turn off the transistor for the hundreds place
			PORTD |= (1 << PORTD2);									// Turn off the transistor for the hundreds place
 1c2:	5a 9a       	sbi	0x0b, 2	; 11
			HC595Write(ssCharMap[charPosition[0]]);
 1c4:	e0 91 8b 01 	lds	r30, 0x018B
 1c8:	f0 e0       	ldi	r31, 0x00	; 0
 1ca:	e1 5a       	subi	r30, 0xA1	; 161
 1cc:	fe 4f       	sbci	r31, 0xFE	; 254
 1ce:	80 81       	ld	r24, Z
 1d0:	0e 94 aa 00 	call	0x154	; 0x154 <HC595Write>
//			HC595Write(255);
//			PORTD |= (1 << PORTD4);										// Turn on the transistor for the ones place
			PORTD &= ~(1 << PORTD4);										// Turn on the transistor for the ones place
 1d4:	5c 98       	cbi	0x0b, 4	; 11
//			debugInt(ssCharMap[charPosition[0]]);
			charToLight = 1;
 1d6:	81 e0       	ldi	r24, 0x01	; 1
 1d8:	80 93 8a 01 	sts	0x018A, r24
			break;
 1dc:	1a c0       	rjmp	.+52     	; 0x212 <__vector_11+0x82>
		case 1 :
//			PORTD &= ~(1 << PORTD4);									// Turn off the transistor for the ones place
			PORTD |= (1 << PORTD4);									// Turn off the transistor for the ones place
 1de:	5c 9a       	sbi	0x0b, 4	; 11
			HC595Write(ssCharMap[charPosition[1]]);
 1e0:	e0 91 8c 01 	lds	r30, 0x018C
 1e4:	f0 e0       	ldi	r31, 0x00	; 0
 1e6:	e1 5a       	subi	r30, 0xA1	; 161
 1e8:	fe 4f       	sbci	r31, 0xFE	; 254
 1ea:	80 81       	ld	r24, Z
 1ec:	0e 94 aa 00 	call	0x154	; 0x154 <HC595Write>
//			HC595Write(255);
//			PORTD |= (1 << PORTD3);										// Turn on the transistor for the tens place
			PORTD &= ~(1 << PORTD3);										// Turn on the transistor for the tens place
 1f0:	5b 98       	cbi	0x0b, 3	; 11
//			debugInt(ssCharMap[charPosition[1]]);
			charToLight = 2;
 1f2:	82 e0       	ldi	r24, 0x02	; 2
 1f4:	80 93 8a 01 	sts	0x018A, r24
			break;
 1f8:	0c c0       	rjmp	.+24     	; 0x212 <__vector_11+0x82>
		case 2 :
//			PORTD &= ~(1 << PORTD3);									// Turn off the transistor for the tens place
			PORTD |= (1 << PORTD3);									// Turn off the transistor for the tens place
 1fa:	5b 9a       	sbi	0x0b, 3	; 11
			HC595Write(ssCharMap[charPosition[2]]);
 1fc:	e0 91 8d 01 	lds	r30, 0x018D
 200:	f0 e0       	ldi	r31, 0x00	; 0
 202:	e1 5a       	subi	r30, 0xA1	; 161
 204:	fe 4f       	sbci	r31, 0xFE	; 254
 206:	80 81       	ld	r24, Z
 208:	0e 94 aa 00 	call	0x154	; 0x154 <HC595Write>
//			HC595Write(255);
//			PORTD |= (1 << PORTD2);										// Turn on the transistor for the hundreds place
			PORTD &= ~(1 << PORTD2);										// Turn on the transistor for the hundreds place
 20c:	5a 98       	cbi	0x0b, 2	; 11
//			debugInt(ssCharMap[charPosition[2]]);
			charToLight = 0;
 20e:	10 92 8a 01 	sts	0x018A, r1
			break;
	}

}
 212:	ff 91       	pop	r31
 214:	ef 91       	pop	r30
 216:	bf 91       	pop	r27
 218:	af 91       	pop	r26
 21a:	9f 91       	pop	r25
 21c:	8f 91       	pop	r24
 21e:	7f 91       	pop	r23
 220:	6f 91       	pop	r22
 222:	5f 91       	pop	r21
 224:	4f 91       	pop	r20
 226:	3f 91       	pop	r19
 228:	2f 91       	pop	r18
 22a:	0f 90       	pop	r0
 22c:	0f be       	out	0x3f, r0	; 63
 22e:	0f 90       	pop	r0
 230:	1f 90       	pop	r1
 232:	18 95       	reti

00000234 <initInturrupts>:

void initInturrupts() {													// Set up the interrupt used for the switch
	PCICR |= (1 << PCIE0);												// Pin Change Interrupt Control Register, set PCIE0 to enable PCMSK0 scan
 234:	e8 e6       	ldi	r30, 0x68	; 104
 236:	f0 e0       	ldi	r31, 0x00	; 0
 238:	80 81       	ld	r24, Z
 23a:	81 60       	ori	r24, 0x01	; 1
 23c:	80 83       	st	Z, r24
	PCMSK0 |= (1 << PCINT1);											// Pin Change Mask Register 0
 23e:	eb e6       	ldi	r30, 0x6B	; 107
 240:	f0 e0       	ldi	r31, 0x00	; 0
 242:	80 81       	ld	r24, Z
 244:	82 60       	ori	r24, 0x02	; 2
 246:	80 83       	st	Z, r24
 248:	08 95       	ret

0000024a <initPins>:
																		// Set PCINT1 to trigger an interrupt on state change
}

void initPins() {
	DDRC &= ~(1 << DDC1);												// Set PC1 to input for switch
 24a:	39 98       	cbi	0x07, 1	; 7
    PORTC |= (1 << PORTC1);												// Turn on the pull up
 24c:	41 9a       	sbi	0x08, 1	; 8
	DDRC &= ~((1 << DDC0) | (1 << DDC2));								// Set PC0 & PC2 to input for ADC
 24e:	87 b1       	in	r24, 0x07	; 7
 250:	8a 7f       	andi	r24, 0xFA	; 250
 252:	87 b9       	out	0x07, r24	; 7
	DDRD |= (1 << DDD2)|(1 << DDD3)|(1 << DDD4);						// transistors for multiplexing seven segment display
 254:	8a b1       	in	r24, 0x0a	; 10
 256:	8c 61       	ori	r24, 0x1C	; 28
 258:	8a b9       	out	0x0a, r24	; 10
	DDRB |= (1 << DDB6);												// make LED pin an output (PB6)
 25a:	26 9a       	sbi	0x04, 6	; 4
	DDRB |= (1 << DDB0)|(1 << DDB1)|(1 << DDB2);						// Set PB0, PB1, and PB2 as output for shift register (redundant)
 25c:	84 b1       	in	r24, 0x04	; 4
 25e:	87 60       	ori	r24, 0x07	; 7
 260:	84 b9       	out	0x04, r24	; 4
 262:	08 95       	ret

00000264 <initSwitchPosition>:
}

void initSwitchPosition() {
	if (bit_is_set(PINC, PINC1)) {
 264:	31 9b       	sbis	0x06, 1	; 6
 266:	03 c0       	rjmp	.+6      	; 0x26e <initSwitchPosition+0xa>
		switchPosition = 1;
 268:	81 e0       	ldi	r24, 0x01	; 1
 26a:	80 93 8e 01 	sts	0x018E, r24
	#else
		//round up by default
		__ticks_dc = (uint32_t)(ceil(fabs(__tmp)));
	#endif

	__builtin_avr_delay_cycles(__ticks_dc);
 26e:	86 ea       	ldi	r24, 0xA6	; 166
 270:	8a 95       	dec	r24
 272:	f1 f7       	brne	.-4      	; 0x270 <initSwitchPosition+0xc>
 274:	00 c0       	rjmp	.+0      	; 0x276 <initSwitchPosition+0x12>
	}
	_delay_us(DEBOUNCE_TIME);
	if (bit_is_clear(PINC, PINC1)) {            /* still pressed */
 276:	31 9b       	sbis	0x06, 1	; 6
		switchPosition = 0;
 278:	10 92 8e 01 	sts	0x018E, r1
 27c:	08 95       	ret

0000027e <__vector_3>:
	}
}

/* Interrupts for buttons and switches */
ISR (PCINT0_vect) {
 27e:	1f 92       	push	r1
 280:	0f 92       	push	r0
 282:	0f b6       	in	r0, 0x3f	; 63
 284:	0f 92       	push	r0
 286:	11 24       	eor	r1, r1
 288:	2f 93       	push	r18
 28a:	3f 93       	push	r19
 28c:	4f 93       	push	r20
 28e:	5f 93       	push	r21
 290:	6f 93       	push	r22
 292:	7f 93       	push	r23
 294:	8f 93       	push	r24
 296:	9f 93       	push	r25
 298:	af 93       	push	r26
 29a:	bf 93       	push	r27
 29c:	ef 93       	push	r30
 29e:	ff 93       	push	r31
	debug("***************ISR (PCINT0_vect)**********************");
 2a0:	87 e0       	ldi	r24, 0x07	; 7
 2a2:	91 e0       	ldi	r25, 0x01	; 1
 2a4:	0e 94 53 00 	call	0xa6	; 0xa6 <debug>
 2a8:	86 ea       	ldi	r24, 0xA6	; 166
 2aa:	8a 95       	dec	r24
 2ac:	f1 f7       	brne	.-4      	; 0x2aa <__vector_3+0x2c>
 2ae:	00 c0       	rjmp	.+0      	; 0x2b0 <__vector_3+0x32>
	_delay_us(DEBOUNCE_TIME);
	if (bit_is_set(PINC, PINC1)) {
 2b0:	31 9b       	sbis	0x06, 1	; 6
 2b2:	03 c0       	rjmp	.+6      	; 0x2ba <__vector_3+0x3c>
		switchPosition = 1;
 2b4:	81 e0       	ldi	r24, 0x01	; 1
 2b6:	80 93 8e 01 	sts	0x018E, r24
 2ba:	86 ea       	ldi	r24, 0xA6	; 166
 2bc:	8a 95       	dec	r24
 2be:	f1 f7       	brne	.-4      	; 0x2bc <__vector_3+0x3e>
 2c0:	00 c0       	rjmp	.+0      	; 0x2c2 <__vector_3+0x44>
	}
	_delay_us(DEBOUNCE_TIME);
	if (bit_is_clear(PINC, PINC1)) {            /* still pressed */
 2c2:	31 9b       	sbis	0x06, 1	; 6
		switchPosition = 0;
 2c4:	10 92 8e 01 	sts	0x018E, r1
	}
}
 2c8:	ff 91       	pop	r31
 2ca:	ef 91       	pop	r30
 2cc:	bf 91       	pop	r27
 2ce:	af 91       	pop	r26
 2d0:	9f 91       	pop	r25
 2d2:	8f 91       	pop	r24
 2d4:	7f 91       	pop	r23
 2d6:	6f 91       	pop	r22
 2d8:	5f 91       	pop	r21
 2da:	4f 91       	pop	r20
 2dc:	3f 91       	pop	r19
 2de:	2f 91       	pop	r18
 2e0:	0f 90       	pop	r0
 2e2:	0f be       	out	0x3f, r0	; 63
 2e4:	0f 90       	pop	r0
 2e6:	1f 90       	pop	r1
 2e8:	18 95       	reti

000002ea <initADC>:

void initADC() {
	ADMUX |= (1 << REFS0);												// reference voltage on AVCC 
 2ea:	ec e7       	ldi	r30, 0x7C	; 124
 2ec:	f0 e0       	ldi	r31, 0x00	; 0
 2ee:	80 81       	ld	r24, Z
 2f0:	80 64       	ori	r24, 0x40	; 64
 2f2:	80 83       	st	Z, r24
	ADCSRA |= (1 << ADPS1) | (1 << ADPS0);								// ADC clock prescaler  / 8 
 2f4:	ea e7       	ldi	r30, 0x7A	; 122
 2f6:	f0 e0       	ldi	r31, 0x00	; 0
 2f8:	80 81       	ld	r24, Z
 2fa:	83 60       	ori	r24, 0x03	; 3
 2fc:	80 83       	st	Z, r24
	ADCSRA |= (1 << ADEN);												// enable ADC 
 2fe:	80 81       	ld	r24, Z
 300:	80 68       	ori	r24, 0x80	; 128
 302:	80 83       	st	Z, r24
 304:	08 95       	ret

00000306 <readADC>:
}

uint16_t readADC(int channel) {
	ADMUX &= 0b11110000;												// 0xF0 clear the older channel that was read
 306:	ec e7       	ldi	r30, 0x7C	; 124
 308:	f0 e0       	ldi	r31, 0x00	; 0
 30a:	90 81       	ld	r25, Z
 30c:	90 7f       	andi	r25, 0xF0	; 240
 30e:	90 83       	st	Z, r25
	ADMUX |= channel;													// Defines the new ADC channel to be read
 310:	90 81       	ld	r25, Z
 312:	89 2b       	or	r24, r25
 314:	80 83       	st	Z, r24
																		// first sample after you've changed the
																		// multiplexer will still be from the old
																		// analog source, you need to wait at
																		// least one complete ADC cycle before
																		// getting a value from the new channel
	ADCSRA |= (1 << ADSC);												// start ADC conversion
 316:	ea e7       	ldi	r30, 0x7A	; 122
 318:	f0 e0       	ldi	r31, 0x00	; 0
 31a:	80 81       	ld	r24, Z
 31c:	80 64       	ori	r24, 0x40	; 64
 31e:	80 83       	st	Z, r24
	loop_until_bit_is_clear(ADCSRA, ADSC);								// wait until done
 320:	80 81       	ld	r24, Z
 322:	86 fd       	sbrc	r24, 6
 324:	fd cf       	rjmp	.-6      	; 0x320 <readADC+0x1a>
	ADCSRA |= (1 << ADSC);												// start ADC conversion
 326:	ea e7       	ldi	r30, 0x7A	; 122
 328:	f0 e0       	ldi	r31, 0x00	; 0
 32a:	80 81       	ld	r24, Z
 32c:	80 64       	ori	r24, 0x40	; 64
 32e:	80 83       	st	Z, r24
	loop_until_bit_is_clear(ADCSRA, ADSC);								// wait until done
 330:	80 81       	ld	r24, Z
 332:	86 fd       	sbrc	r24, 6
 334:	fd cf       	rjmp	.-6      	; 0x330 <readADC+0x2a>
	uint8_t theLowADC = ADCL;
 336:	80 91 78 00 	lds	r24, 0x0078
	uint16_t theTenBitResult = ADCH<<8 | theLowADC;
 33a:	20 91 79 00 	lds	r18, 0x0079
 33e:	90 e0       	ldi	r25, 0x00	; 0
	return(theTenBitResult);
}
 340:	92 2b       	or	r25, r18
 342:	08 95       	ret

00000344 <main>:

int main(void) {
	initUSART();
 344:	0e 94 9f 02 	call	0x53e	; 0x53e <initUSART>
	initPins();
 348:	0e 94 25 01 	call	0x24a	; 0x24a <initPins>
	initADC();
 34c:	0e 94 75 01 	call	0x2ea	; 0x2ea <initADC>
	initInturrupts();
 350:	0e 94 1a 01 	call	0x234	; 0x234 <initInturrupts>
	initHC595();														// Initialize HC595 system
 354:	0e 94 9a 00 	call	0x134	; 0x134 <initHC595>
	initSwitchPosition();												// determines if the switch is on or off
 358:	0e 94 32 01 	call	0x264	; 0x264 <initSwitchPosition>
}

//----------------------------------------------------------------------

static inline void initTimer1(void) {									// initialize timer1
	OCR1A = SS_WRITE_SPEED;												// determines how fast we write to the seven segment displays
 35c:	8a e0       	ldi	r24, 0x0A	; 10
 35e:	90 e0       	ldi	r25, 0x00	; 0
 360:	90 93 89 00 	sts	0x0089, r25
 364:	80 93 88 00 	sts	0x0088, r24
	TCCR1A |= (1 << COM1A1) | (1 << COM1A0);							// Set OC1A on Compare Match, clear OC1A at BOTTOM (inverting mode)
 368:	e0 e8       	ldi	r30, 0x80	; 128
 36a:	f0 e0       	ldi	r31, 0x00	; 0
 36c:	80 81       	ld	r24, Z
 36e:	80 6c       	ori	r24, 0xC0	; 192
 370:	80 83       	st	Z, r24
    TCCR1B |= (1 << WGM12);												// Mode 4, CTC on OCR1A
 372:	e1 e8       	ldi	r30, 0x81	; 129
 374:	f0 e0       	ldi	r31, 0x00	; 0
 376:	80 81       	ld	r24, Z
 378:	88 60       	ori	r24, 0x08	; 8
 37a:	80 83       	st	Z, r24
    TIMSK1 |= (1 << OCIE1A);											// Set interrupt on compare match
 37c:	af e6       	ldi	r26, 0x6F	; 111
 37e:	b0 e0       	ldi	r27, 0x00	; 0
 380:	8c 91       	ld	r24, X
 382:	82 60       	ori	r24, 0x02	; 2
 384:	8c 93       	st	X, r24
    TCCR1B |= (1 << CS12) | (1 << CS10);								// set prescaler to 1024 and start the timer
 386:	80 81       	ld	r24, Z
 388:	85 60       	ori	r24, 0x05	; 5
 38a:	80 83       	st	Z, r24
	initADC();
	initInturrupts();
	initHC595();														// Initialize HC595 system
	initSwitchPosition();												// determines if the switch is on or off
	initTimer1();
	sei();																// enable interrupts
 38c:	78 94       	sei
	charToLight = 0;
 38e:	10 92 8a 01 	sts	0x018A, r1
//			debug("Switch On");
//			debugInt(charPosition[0]);
//			debugInt(charPosition[1]);
//			debugInt(charPosition[2]);
		} else {
			charPosition[0] = (fartThreshold / 100);
 392:	cb e8       	ldi	r28, 0x8B	; 139
 394:	d1 e0       	ldi	r29, 0x01	; 1
			charPosition[1] = ((fartThreshold - ((fartThreshold / 100) * 100)) / 10 );
 396:	14 e6       	ldi	r17, 0x64	; 100
	initSwitchPosition();												// determines if the switch is on or off
	initTimer1();
	sei();																// enable interrupts
	charToLight = 0;
	while (1) {	
		fartDetected  = readADC(0b00000000);							// ADC0 = PC0, MUX3..0 = 0000
 398:	80 e0       	ldi	r24, 0x00	; 0
 39a:	90 e0       	ldi	r25, 0x00	; 0
 39c:	0e 94 83 01 	call	0x306	; 0x306 <readADC>
 3a0:	90 93 87 01 	sts	0x0187, r25
 3a4:	80 93 86 01 	sts	0x0186, r24
		fartThreshold = readADC(0b00000011);							// ADC3 = PC3, MUX3..0 = 0011
 3a8:	83 e0       	ldi	r24, 0x03	; 3
 3aa:	90 e0       	ldi	r25, 0x00	; 0
 3ac:	0e 94 83 01 	call	0x306	; 0x306 <readADC>
 3b0:	90 93 89 01 	sts	0x0189, r25
 3b4:	80 93 88 01 	sts	0x0188, r24

//		fartDetected = 	fartDetected * 999/1023;						// The sensor reads from 0  - 1023; normalize from 0 - 999
//		fartThreshold = fartThreshold * 999/1023;						// The sensor reads from 0  - 1023; normalize from 0 - 999
 		if (switchPosition) {
 3b8:	80 91 8e 01 	lds	r24, 0x018E
 3bc:	88 23       	and	r24, r24
 3be:	09 f4       	brne	.+2      	; 0x3c2 <main+0x7e>
 3c0:	4b c0       	rjmp	.+150    	; 0x458 <main+0x114>
			charPosition[0] = (fartDetected / 100);
 3c2:	20 91 86 01 	lds	r18, 0x0186
 3c6:	30 91 87 01 	lds	r19, 0x0187
 3ca:	36 95       	lsr	r19
 3cc:	27 95       	ror	r18
 3ce:	36 95       	lsr	r19
 3d0:	27 95       	ror	r18
 3d2:	ab e7       	ldi	r26, 0x7B	; 123
 3d4:	b4 e1       	ldi	r27, 0x14	; 20
 3d6:	0e 94 ce 02 	call	0x59c	; 0x59c <__umulhisi3>
 3da:	96 95       	lsr	r25
 3dc:	87 95       	ror	r24
 3de:	88 83       	st	Y, r24
			charPosition[1] = ((fartDetected - ((fartDetected / 100) * 100)) / 10 );
 3e0:	40 91 86 01 	lds	r20, 0x0186
 3e4:	50 91 87 01 	lds	r21, 0x0187
 3e8:	20 91 86 01 	lds	r18, 0x0186
 3ec:	30 91 87 01 	lds	r19, 0x0187
 3f0:	36 95       	lsr	r19
 3f2:	27 95       	ror	r18
 3f4:	36 95       	lsr	r19
 3f6:	27 95       	ror	r18
 3f8:	0e 94 ce 02 	call	0x59c	; 0x59c <__umulhisi3>
 3fc:	96 95       	lsr	r25
 3fe:	87 95       	ror	r24
 400:	18 9f       	mul	r17, r24
 402:	90 01       	movw	r18, r0
 404:	19 9f       	mul	r17, r25
 406:	30 0d       	add	r19, r0
 408:	11 24       	eor	r1, r1
 40a:	ca 01       	movw	r24, r20
 40c:	82 1b       	sub	r24, r18
 40e:	93 0b       	sbc	r25, r19
 410:	9c 01       	movw	r18, r24
 412:	ad ec       	ldi	r26, 0xCD	; 205
 414:	bc ec       	ldi	r27, 0xCC	; 204
 416:	0e 94 ce 02 	call	0x59c	; 0x59c <__umulhisi3>
 41a:	96 95       	lsr	r25
 41c:	87 95       	ror	r24
 41e:	96 95       	lsr	r25
 420:	87 95       	ror	r24
 422:	96 95       	lsr	r25
 424:	87 95       	ror	r24
 426:	89 83       	std	Y+1, r24	; 0x01
			charPosition[2] = (fartDetected - ((fartDetected / 10) * 10));
 428:	40 91 86 01 	lds	r20, 0x0186
 42c:	50 91 87 01 	lds	r21, 0x0187
 430:	20 91 86 01 	lds	r18, 0x0186
 434:	30 91 87 01 	lds	r19, 0x0187
 438:	0e 94 ce 02 	call	0x59c	; 0x59c <__umulhisi3>
 43c:	96 95       	lsr	r25
 43e:	87 95       	ror	r24
 440:	96 95       	lsr	r25
 442:	87 95       	ror	r24
 444:	96 95       	lsr	r25
 446:	87 95       	ror	r24
 448:	88 0f       	add	r24, r24
 44a:	98 2f       	mov	r25, r24
 44c:	99 0f       	add	r25, r25
 44e:	99 0f       	add	r25, r25
 450:	89 0f       	add	r24, r25
 452:	48 1b       	sub	r20, r24
 454:	4a 83       	std	Y+2, r20	; 0x02
 456:	4a c0       	rjmp	.+148    	; 0x4ec <main+0x1a8>
//			debug("Switch On");
//			debugInt(charPosition[0]);
//			debugInt(charPosition[1]);
//			debugInt(charPosition[2]);
		} else {
			charPosition[0] = (fartThreshold / 100);
 458:	20 91 88 01 	lds	r18, 0x0188
 45c:	30 91 89 01 	lds	r19, 0x0189
 460:	36 95       	lsr	r19
 462:	27 95       	ror	r18
 464:	36 95       	lsr	r19
 466:	27 95       	ror	r18
 468:	ab e7       	ldi	r26, 0x7B	; 123
 46a:	b4 e1       	ldi	r27, 0x14	; 20
 46c:	0e 94 ce 02 	call	0x59c	; 0x59c <__umulhisi3>
 470:	96 95       	lsr	r25
 472:	87 95       	ror	r24
 474:	88 83       	st	Y, r24
			charPosition[1] = ((fartThreshold - ((fartThreshold / 100) * 100)) / 10 );
 476:	40 91 88 01 	lds	r20, 0x0188
 47a:	50 91 89 01 	lds	r21, 0x0189
 47e:	20 91 88 01 	lds	r18, 0x0188
 482:	30 91 89 01 	lds	r19, 0x0189
 486:	36 95       	lsr	r19
 488:	27 95       	ror	r18
 48a:	36 95       	lsr	r19
 48c:	27 95       	ror	r18
 48e:	0e 94 ce 02 	call	0x59c	; 0x59c <__umulhisi3>
 492:	96 95       	lsr	r25
 494:	87 95       	ror	r24
 496:	18 9f       	mul	r17, r24
 498:	90 01       	movw	r18, r0
 49a:	19 9f       	mul	r17, r25
 49c:	30 0d       	add	r19, r0
 49e:	11 24       	eor	r1, r1
 4a0:	ca 01       	movw	r24, r20
 4a2:	82 1b       	sub	r24, r18
 4a4:	93 0b       	sbc	r25, r19
 4a6:	9c 01       	movw	r18, r24
 4a8:	ad ec       	ldi	r26, 0xCD	; 205
 4aa:	bc ec       	ldi	r27, 0xCC	; 204
 4ac:	0e 94 ce 02 	call	0x59c	; 0x59c <__umulhisi3>
 4b0:	96 95       	lsr	r25
 4b2:	87 95       	ror	r24
 4b4:	96 95       	lsr	r25
 4b6:	87 95       	ror	r24
 4b8:	96 95       	lsr	r25
 4ba:	87 95       	ror	r24
 4bc:	89 83       	std	Y+1, r24	; 0x01
			charPosition[2] = (fartThreshold - ((fartThreshold / 10) * 10));
 4be:	40 91 88 01 	lds	r20, 0x0188
 4c2:	50 91 89 01 	lds	r21, 0x0189
 4c6:	20 91 88 01 	lds	r18, 0x0188
 4ca:	30 91 89 01 	lds	r19, 0x0189
 4ce:	0e 94 ce 02 	call	0x59c	; 0x59c <__umulhisi3>
 4d2:	96 95       	lsr	r25
 4d4:	87 95       	ror	r24
 4d6:	96 95       	lsr	r25
 4d8:	87 95       	ror	r24
 4da:	96 95       	lsr	r25
 4dc:	87 95       	ror	r24
 4de:	88 0f       	add	r24, r24
 4e0:	98 2f       	mov	r25, r24
 4e2:	99 0f       	add	r25, r25
 4e4:	99 0f       	add	r25, r25
 4e6:	89 0f       	add	r24, r25
 4e8:	48 1b       	sub	r20, r24
 4ea:	4a 83       	std	Y+2, r20	; 0x02
//			debug("Switch Off");
//			debugInt(charPosition[0]);
//			debugInt(charPosition[1]);
//			debugInt(charPosition[2]);
		}
		debugNoLF("FART THRESHOLD: "); debugInt(fartThreshold);
 4ec:	8e e3       	ldi	r24, 0x3E	; 62
 4ee:	91 e0       	ldi	r25, 0x01	; 1
 4f0:	0e 94 6d 00 	call	0xda	; 0xda <debugNoLF>
 4f4:	80 91 88 01 	lds	r24, 0x0188
 4f8:	90 91 89 01 	lds	r25, 0x0189
 4fc:	0e 94 83 00 	call	0x106	; 0x106 <debugInt>
		debugNoLF("FART DETECTED: "); debugInt(fartDetected);
 500:	8f e4       	ldi	r24, 0x4F	; 79
 502:	91 e0       	ldi	r25, 0x01	; 1
 504:	0e 94 6d 00 	call	0xda	; 0xda <debugNoLF>
 508:	80 91 86 01 	lds	r24, 0x0186
 50c:	90 91 87 01 	lds	r25, 0x0187
 510:	0e 94 83 00 	call	0x106	; 0x106 <debugInt>
		if (fartDetected > fartThreshold) {
 514:	20 91 86 01 	lds	r18, 0x0186
 518:	30 91 87 01 	lds	r19, 0x0187
 51c:	80 91 88 01 	lds	r24, 0x0188
 520:	90 91 89 01 	lds	r25, 0x0189
 524:	82 17       	cp	r24, r18
 526:	93 07       	cpc	r25, r19
 528:	10 f4       	brcc	.+4      	; 0x52e <main+0x1ea>
			PORTB |= (1 << PORTB6);										// Sound the alarm
 52a:	2e 9a       	sbi	0x05, 6	; 5
 52c:	01 c0       	rjmp	.+2      	; 0x530 <main+0x1ec>
		}
		else {
			PORTB &= ~(1 << PORTB6);									// Silence the alarm
 52e:	2e 98       	cbi	0x05, 6	; 5
 530:	87 ea       	ldi	r24, 0xA7	; 167
 532:	91 e6       	ldi	r25, 0x61	; 97
 534:	01 97       	sbiw	r24, 0x01	; 1
 536:	f1 f7       	brne	.-4      	; 0x534 <main+0x1f0>
 538:	00 c0       	rjmp	.+0      	; 0x53a <main+0x1f6>
 53a:	00 00       	nop
 53c:	2d cf       	rjmp	.-422    	; 0x398 <main+0x54>

0000053e <initUSART>:
#include <avr/io.h>
#include "USART.h"
#include <util/setbaud.h>

void initUSART(void) {                                /* requires BAUD */
  UBRR0H = UBRRH_VALUE;                        /* defined in setbaud.h */
 53e:	10 92 c5 00 	sts	0x00C5, r1
  UBRR0L = UBRRL_VALUE;
 542:	8c e0       	ldi	r24, 0x0C	; 12
 544:	80 93 c4 00 	sts	0x00C4, r24
#if USE_2X
  UCSR0A |= (1 << U2X0);
 548:	e0 ec       	ldi	r30, 0xC0	; 192
 54a:	f0 e0       	ldi	r31, 0x00	; 0
 54c:	80 81       	ld	r24, Z
 54e:	82 60       	ori	r24, 0x02	; 2
 550:	80 83       	st	Z, r24
#else
  UCSR0A &= ~(1 << U2X0);
#endif
                                  /* Enable USART transmitter/receiver */
  UCSR0B = (1 << TXEN0) | (1 << RXEN0);
 552:	88 e1       	ldi	r24, 0x18	; 24
 554:	80 93 c1 00 	sts	0x00C1, r24
  UCSR0C = (1 << UCSZ01) | (1 << UCSZ00);   /* 8 data bits, 1 stop bit */
 558:	86 e0       	ldi	r24, 0x06	; 6
 55a:	80 93 c2 00 	sts	0x00C2, r24
 55e:	08 95       	ret

00000560 <transmitByte>:
}


void transmitByte(uint8_t data) {
                                     /* Wait for empty transmit buffer */
  loop_until_bit_is_set(UCSR0A, UDRE0);
 560:	e0 ec       	ldi	r30, 0xC0	; 192
 562:	f0 e0       	ldi	r31, 0x00	; 0
 564:	90 81       	ld	r25, Z
 566:	95 ff       	sbrs	r25, 5
 568:	fd cf       	rjmp	.-6      	; 0x564 <transmitByte+0x4>
  UDR0 = data;                                            /* send data */
 56a:	80 93 c6 00 	sts	0x00C6, r24
 56e:	08 95       	ret

00000570 <printString>:
}


                       /* Here are a bunch of useful printing commands */

void printString(const char myString[]) {
 570:	0f 93       	push	r16
 572:	1f 93       	push	r17
 574:	cf 93       	push	r28
 576:	fc 01       	movw	r30, r24
  uint8_t i = 0;
  while (myString[i]) {
 578:	80 81       	ld	r24, Z
 57a:	88 23       	and	r24, r24
 57c:	59 f0       	breq	.+22     	; 0x594 <printString+0x24>
 57e:	8f 01       	movw	r16, r30
 580:	c0 e0       	ldi	r28, 0x00	; 0
    transmitByte(myString[i]);
 582:	0e 94 b0 02 	call	0x560	; 0x560 <transmitByte>
    i++;
 586:	cf 5f       	subi	r28, 0xFF	; 255

                       /* Here are a bunch of useful printing commands */

void printString(const char myString[]) {
  uint8_t i = 0;
  while (myString[i]) {
 588:	f8 01       	movw	r30, r16
 58a:	ec 0f       	add	r30, r28
 58c:	f1 1d       	adc	r31, r1
 58e:	80 81       	ld	r24, Z
 590:	81 11       	cpse	r24, r1
 592:	f7 cf       	rjmp	.-18     	; 0x582 <printString+0x12>
    transmitByte(myString[i]);
    i++;
  }
}
 594:	cf 91       	pop	r28
 596:	1f 91       	pop	r17
 598:	0f 91       	pop	r16
 59a:	08 95       	ret

0000059c <__umulhisi3>:
 59c:	a2 9f       	mul	r26, r18
 59e:	b0 01       	movw	r22, r0
 5a0:	b3 9f       	mul	r27, r19
 5a2:	c0 01       	movw	r24, r0
 5a4:	a3 9f       	mul	r26, r19
 5a6:	70 0d       	add	r23, r0
 5a8:	81 1d       	adc	r24, r1
 5aa:	11 24       	eor	r1, r1
 5ac:	91 1d       	adc	r25, r1
 5ae:	b2 9f       	mul	r27, r18
 5b0:	70 0d       	add	r23, r0
 5b2:	81 1d       	adc	r24, r1
 5b4:	11 24       	eor	r1, r1
 5b6:	91 1d       	adc	r25, r1
 5b8:	08 95       	ret

000005ba <__itoa_ncheck>:
 5ba:	bb 27       	eor	r27, r27
 5bc:	4a 30       	cpi	r20, 0x0A	; 10
 5be:	31 f4       	brne	.+12     	; 0x5cc <__itoa_ncheck+0x12>
 5c0:	99 23       	and	r25, r25
 5c2:	22 f4       	brpl	.+8      	; 0x5cc <__itoa_ncheck+0x12>
 5c4:	bd e2       	ldi	r27, 0x2D	; 45
 5c6:	90 95       	com	r25
 5c8:	81 95       	neg	r24
 5ca:	9f 4f       	sbci	r25, 0xFF	; 255
 5cc:	0c 94 e9 02 	jmp	0x5d2	; 0x5d2 <__utoa_common>

000005d0 <__utoa_ncheck>:
 5d0:	bb 27       	eor	r27, r27

000005d2 <__utoa_common>:
 5d2:	fb 01       	movw	r30, r22
 5d4:	55 27       	eor	r21, r21
 5d6:	aa 27       	eor	r26, r26
 5d8:	88 0f       	add	r24, r24
 5da:	99 1f       	adc	r25, r25
 5dc:	aa 1f       	adc	r26, r26
 5de:	a4 17       	cp	r26, r20
 5e0:	10 f0       	brcs	.+4      	; 0x5e6 <__utoa_common+0x14>
 5e2:	a4 1b       	sub	r26, r20
 5e4:	83 95       	inc	r24
 5e6:	50 51       	subi	r21, 0x10	; 16
 5e8:	b9 f7       	brne	.-18     	; 0x5d8 <__utoa_common+0x6>
 5ea:	a0 5d       	subi	r26, 0xD0	; 208
 5ec:	aa 33       	cpi	r26, 0x3A	; 58
 5ee:	08 f0       	brcs	.+2      	; 0x5f2 <__utoa_common+0x20>
 5f0:	a9 5d       	subi	r26, 0xD9	; 217
 5f2:	a1 93       	st	Z+, r26
 5f4:	00 97       	sbiw	r24, 0x00	; 0
 5f6:	79 f7       	brne	.-34     	; 0x5d6 <__utoa_common+0x4>
 5f8:	b1 11       	cpse	r27, r1
 5fa:	b1 93       	st	Z+, r27
 5fc:	11 92       	st	Z+, r1
 5fe:	cb 01       	movw	r24, r22
 600:	0c 94 02 03 	jmp	0x604	; 0x604 <strrev>

00000604 <strrev>:
 604:	dc 01       	movw	r26, r24
 606:	fc 01       	movw	r30, r24
 608:	67 2f       	mov	r22, r23
 60a:	71 91       	ld	r23, Z+
 60c:	77 23       	and	r23, r23
 60e:	e1 f7       	brne	.-8      	; 0x608 <strrev+0x4>
 610:	32 97       	sbiw	r30, 0x02	; 2
 612:	04 c0       	rjmp	.+8      	; 0x61c <strrev+0x18>
 614:	7c 91       	ld	r23, X
 616:	6d 93       	st	X+, r22
 618:	70 83       	st	Z, r23
 61a:	62 91       	ld	r22, -Z
 61c:	ae 17       	cp	r26, r30
 61e:	bf 07       	cpc	r27, r31
 620:	c8 f3       	brcs	.-14     	; 0x614 <strrev+0x10>
 622:	08 95       	ret

00000624 <_exit>:
 624:	f8 94       	cli

00000626 <__stop_program>:
 626:	ff cf       	rjmp	.-2      	; 0x626 <__stop_program>
