S00D000054564F66662E7372656352
S113000045CF57CF56CF55CF54CF53CF52CF51CFE3
S113001050CF4FCF4ECF4DCF4CCF4BCF4ACFA70071
S1130020231E521DC11BC01A271AC619B5182C1835
S11300301B178216B115181547148613ED125412A6
S1130040CB113211A10F100E770DDE0C450C940B61
S11300502B0B5A0AD10900096F0816087D071C07E3
S11300608306F2045904C00367033A030D037402C0
S113007063024202D90140017A000A1A016C031A90
S113008001F6071A01F6071A016C031A016C031A28
S113009001F6071A016C031A01F6071A01F6071A8A
S11300A0016C031A0100000CBC01BE0136003300D0
S11300B03600330036003300360033003600330098
S11300C03600330036003300360033003600A30018
S11300D03600A3003600A3003600A3003600A300B8
S11300E03600A3003600A3003600A3003600A300A8
S11300F03600A3003600A3003600A3003600330008
S11301003600330036003300360033003600330047
S11301103600330036003300360033003600A300C7
S11301203600A3003600A3003600A30036006C108E
S11301308C03E000360027268C03E0003600000024
S11301400C9C03AF013800AD003800AD003800420C
S113015000380042003800420038004200380042B3
S1130160003800AD00380042003800AD00380042CD
S1130170003800AD003800AD003800AD003800ADE7
S11301800038004200380042003800420038004283
S1130190003800AD00380042003800420038004208
S11301A000380042003800AD003800AD003800AD22
S11301B000380042003800AD003800AD003800AD12
S11301C0003800AD00380070109C03E7003800C30D
S11301D0229C03E7003800000006FA003F00790083
S11301E03F003C003F0079003F003C003F007900A5
S11301F03F003C003F003C003F0079003F003C00D2
S11302003F003C003F003C003F003C00030BFA0071
S11302103F0079003F003C003F0079003F003C0074
S11302203F0079003F003C003F003C003F00790064
S11302303F003C003F003C003F003C003F003C00CE
S113024000000C76006700760067007600CD00762B
S113025000DA0A76006700760067007600CD007643
S11302600000000876006700C402DA0A760067001E
S1130270C40200000C9C03CB013B00B2003B0039DC
S1130280003B00B2003B0039003B00B2003B0039A8
S1130290003B0039003B0039003B0039003B00B211
S11302A0003B0039003B00B2003B0039003B00B288
S11302B0003B00B2003B00B2003B0039003B00B2FF
S11302C0003B0039003B0039003B00B2003B0039E1
S11302D0003B0039003B0039003B00B2003B0039D1
S11302E0003B00B2003B00B2003B0039003B00B2CF
S11302F0003B00B2003B00B2003B00A6109C03E7A9
S1130300003B001E269C03E7003B0000000B12028A
S1130310A7002A000D012A000D012A000D01AA00E0
S1130320A6002A000D01AA00A600AA00A6002A0021
S11303300D012A000D012A0000000D580053025837
S113034000FF005800FF005800FF005800520258F8
S113035000FF00580052025800520258005202583E
S113036000FF00580000000B65005E0065005E00A1
S113037065005E006500250165005E0065002501DD
S113038065005E006500250165005E0065005E0095
S11303906500C20D65005E0065005E0065005E00DC
S11303A06500250165005E006500250165005E00AD
S11303B06500250165005E0065005E0065000000C3
S11303C00C9C03D0013A0039003A0039003A003954
S11303D0003A00AD003A00AD003A0039003A003965
S11303E0003A0039003A00AD003A00AD003A00ADE1
S11303F0003A0039003A0039003A00AD003A00AD45
S1130400003A00AD003A0039003A0039003A0039A8
S1130410003A00AD003A0039003A0039003A003998
S1130420003A0039003A00AD003A00AD003A00ADA0
S1130430003A0039003A00AD003A00AD003A00AD90
S1130440003A00AD003A00D60F9E03E6003A009849
S1130450269E03E6003A0000000C9C03D0013A00FB
S113046039003A0039003A0039003A0039003A00BC
S1130470AD003A0039003A00AD003A0039003A00C4
S1130480AD003A00AD003A00AD003A00AD003A00CC
S113049039003A00AD003A0039003A00AD003A00A4
S11304A0AD003A00AD003A00AD003A00AD003A00AC
S11304B0AD003A00AD003A0039003A0039003A0084
S11304C039003A0039003A0039003A0039003A005C
S11304D039003A0039003A00AD003A00AD003A0064
S11304E0D60F9D03E6003A0098269D03E6003A00E5
S11304F000000C58019F002B002B002B002B002B1D
S1130500007C002B002B002B007C002B002B002BED
S1130510002B002B002B002B007C002B007C002BDD
S1130520002B002B002B002B002B002B007C002B1E
S1130530007C002B002B002B002B002B002B002B0E
S1130540002B002B002B002B002B002B002B002B4F
S1130550002B002B002B002B002B002B002B002B3F
S1130560007C002B002B002B002B002B002B002BDE
S1130570002B002B007C002B002B002B007C002B7D
S1130580002B002B007C002B002B002B002B002BBE
S1130590002B002B007C002B002B002B002B002BAE
S11305A0002B002B002B002B002B002B002B002BEF
S11305B0002B002B002B002B003E155B019D002B14
S11305C0002B002B002B002B007C002B002B002B7E
S11305D0007C002B002B002B002B002B002B002B6E
S11305E0007C002B007C002B002B002B002B002B0D
S11305F0002B002B007C002B007C002B002B002BFD
S1130600002B002B002B002B002B002B002B002B8E
S1130610002B002B002B002B002B002B002B002B7E
S1130620002B002B002B002B007C002B002B002B1D
S1130630002B002B002B002B002B002B007C002B0D
S1130640002B002B007C002B002B002B007C002BAC
S1130650002B002B002B002B002B002B007C002BED
S1130660002B002B002B002B002B002B002B002B2E
S1130670002B002B002B002B002B002B002B002B1E
S11306800000000C9C03CD0138003800380038000D
S113069038003800380038003800AE003800380020
S11306A03800AE00380038003800AE00380038009A
S11306B03800AE003800AE00380038003800AE0014
S11306C0380038003800AE00380038003800AE007A
S11306D03800380038003800380038003800380056
S11306E038003800380038003800AE0038003800D0
S11306F03800AE003800AE003800AE003800AE005E
S11307003800AE003800AE003800D70F9E03E60074
S113071038007F269E03E600380000000D5C005B75
S1130720005C005B00B8005B005C005B005C005B8D
S1130730005C005B005C005B005C005B005C00B67E
S1130740005C005B00B8005B005C0001245C005BA3
S1130750005C005B00B8005B005C005B005C005B5D
S1130760005C005B005C005B005C005B005C00B64E
S1130770005C005B00B8005B005C0000000C9C03A4
S1130780CD0138003800380038003800380038000F
S113079038003800AE00380038003800AE003800A9
S11307A038003800AE00380038003800AE00380099
S11307B0AE00380038003800AE0038003800380089
S11307C0AE003800380038003800380038003800EF
S11307D03800380038003800380038003800380055
S11307E038003800AE003800AE003800AE003800E3
S11307F0AE003800AE003800AE003800AE0038005D
S1130800AE003800D70F9E03E60038007F269E0313
S1130810E600380000000D5C005C00B8005C005C81
S1130820005C005C005C005C005C005C005C005CE4
S113083000B800B8005C005C00B8005C005C00B864
S11308400000245C005C00B8005C005C005C005CA0
S1130850005C005C005C005C005C005C00B800B8FC
S1130860005C005C00B8005C005C00B80000000C98
S11308700B0114017B007B007B0015017B007B00D6
S11308807B0015017B007B007B0015017B001501BB
S11308907B007B007B0015017B0015017B007B0046
S11308A07B007B007B007B007B0015017B007B00D1
S11308B07B0015017B000C130B0115017B007B00F1
S11308C07B0015017B007B007B0015017B007B0016
S11308D07B0015017B0015017B007B007B0015016B
S11308E07B0015017B007B007B007B007B007B0091
S11308F07B0015017B007B007B0015017B00000061
S1130900089B019A01340066003400CD003400CD08
S1130910003400CD0034006600340066003400CD9D
S113092000340066003400CD00340066003400CD8D
S113093000340066003400CD0034006600340066E4
S113094000340066003400CD003400CD003400666D
S1130950003400CD00340066003400CD003400665D
S1130960003400CD00340035039B019A0134006645
S1130970003400CD003400CD003400CD00340066D6
S113098000340066003400CD00340066003400CD2D
S113099000340066003400CD00340066003400CD1D
S11309A0003400660034006600340066003400CD74
S11309B0003400CD00340066003400CD00340066FD
S11309C0003400CD00340066003400CD0033000054
S11309D0000C340031003400A30134000A02340056
S11309E031003400A301340031003400A301340089
S11309F00A0234000A02340031003400A301340036
S1130A000A02340031003400A30134000A02340025
S1130A10310034007A32340031003400A301340050
S1130A200A02340031003400A301340031003400E0
S1130A30A30134000A0234000A02340031003400F5
S1130A40A30134000A02340031003400A30134004D
S1130A500A0234003100340000000C6501660158BC
S1130A60000E0158000E0158000E0158000E0158E6
S1130A70000E0158000E0158000E0158005B00588A
S1130A80005B0058005B0058005B0058005B005896
S1130A90005B0058005B0058005B0058005B005886
S1130AA0005B0058005B0058005B0058000E0158C2
S1130AB0000E0158000E0158000E0158000E015896
S1130AC000EA0D6601660158000E0158000E015837
S1130AD0000E0158000E0158000E0158000E015876
S1130AE0000E0158005B0058005B0058005B005882
S1130AF0005B0058005B0058005B0058005B005826
S1130B00005B0058005B0058005B0058005B005815
S1130B10005B0058000E0158000E0158000E0158E9
S1130B20000E0158000E01580000000CF5003C00B6
S1130B307B003C007B003C007B003C007B003C00D5
S1130B403D003C007B003C003D003C007B003C0041
S1130B503D003C003D003C003D003C003D004C0A93
S1130B60F6003C007B003C007B003C007B003C002A
S1130B707B003C003D003C007B003C003D003C0011
S1130B807B003C003D003C003D003C003D003C003F
S1130B903D0000000C33000402330004023300342F
S1130BA0003300A201330034003300A201330004F7
S1130BB002330034003300A2013300040233003452
S1130BC0003300A201330004023300040233003472
S1130BD0003300A201330034003300A201330004C7
S1130BE002330034003300A2013300FA2933000435
S1130BF00233000402330034003300A20133003412
S1130C00003300A20133000402330034003300A295
S1130C100133000402330034003300A20133000422
S1130C200233000402330034003300A201330034E1
S1130C30003300A20133000402330034003300A265
S1130C4001330000000C9603CC0138003D0038004D
S1130C503D0038003D003800B3003800B3003800D0
S1130C603D0038003D0038003D0038003D003800AC
S1130C703D0038003D003800B3003800B3003800B0
S1130C803D0038003D0038003D0038003D0038008C
S1130C903D0038003D0038003D0038003D0038007C
S1130CA03D003800B3003800B3003800B30038000A
S1130CB0B3003800B3003800B3003800B300380084
S1130CC0B30038003D0038003D003800E5119903B9
S1130CD0E6003800E9259903E600380000000C35E9
S1130CE003990133003400330034003300A300338C
S1130CF00034003300A300330034003300340033E5
S1130D00003400330099013300A30033003400336E
S1130D1000A300330034003300A300330034003355
S1130D200034003300340033005D09360399013385
S1130D30003400330034003300A3003300340033A4
S1130D4000A3003300340033003400330034003394
S1130D500099013300A300330034003300A30033AF
S1130D600034003300A30033003400330034003374
S1130D70003400330000000C9C03D8013F0037000E
S1130D803F0037003F00A6003F0037003F00370018
S1130D903F0037003F0037003F0037003F00A60008
S1130DA03F00A6003F0037003F00A6003F00A6001A
S1130DB03F00A6003F00A6003F00A6003F0037000A
S1130DC03F0037003F0037003F00A6003F003700D8
S1130DD03F0037003F0037003F0037003F00A600C8
S1130DE03F00A6003F00A6003F0037003F00A600DA
S1130DF03F00A6003F00A6003F00A6003F006F1082
S1130E009E03EA003F00E5269E03EA003E00000040
S1130E100C4F01A6002B002A002B002A002B007E79
S1130E20002B002A002B007E002B002A002B002A16
S1130E30002B002A002B007E002B007E002B002AB2
S1130E40002B002A002B002A002B007E002B007EA2
S1130E50002B002A002B002A002B002A002B002A3A
S1130E60002B002A002B002A002B002A002B002A2A
S1130E70002B002A002B002A002B002A002B007EC6
S1130E80002B002A002B002A002B002A002B002A0A
S1130E90002B007E002B002A002B002A002B007E52
S1130EA0002B002A002B002A002B002A002B002AEA
S1130EB0002B007E002B002A002B007E002B002A32
S1130EC0002B002A002B002A002B002A002B002ACA
S1130ED0002B002A002B0073125001A6002B002ABD
S1130EE0002B002A002B007E002B002A002B007E02
S1130EF0002B002A002B002A002B002A002B007E46
S1130F00002B007E002B002A002B002A002B002A35
S1130F10002B007E002B007E002B002A002B002AD1
S1130F20002B002A002B002A002B002A002B002A69
S1130F30002B002A002B002A002B002A002B002A59
S1130F40002B002A002B007E002B002A002B002AF5
S1130F50002B002A002B002A002B007E002B002AE5
S1130F60002B002A002B007E002B002A002B002AD5
S1130F70002B002A002B002A002B007E002B002AC5
S1130F80002B007E002B002A002B002A002B002AB5
S1130F90002B002A002B002A002B002A002B000023
S1130FA0000C6903B701350037003500A400350093
S1130FB037003500A400350037003500A4003500A3
S1130FC037003500A4003500A40035003700350093
S1130FD0A400350037003500A40035003700350083
S1130FE0A4003500370035003700350037003500E0
S1130FF0A4003500A4003500A400350037003500F6
S11310003700350037003500A4003500A400350052
S1131010370035003700350037003500A4003500AF
S1131020A4003500A4003500490A6903B80135005D
S113103037003500A400350037003500A400350022
S113104037003500A400350037003500A400350012
S1131050A400350037003500A40035003700350002
S1131060A400350037003500A400350037003500F2
S11310703700350037003500A4003500A4003500E2
S1131080A40035003700350037003500370035003F
S1131090A4003500A40035003700350037003500C2
S11310A037003500A4003500A4003500A400350045
S11310B0490A6903B801350037003500A40035003A
S11310C037003500A400350037003500A400350092
S11310D037003500A4003500A40035003700350082
S11310E0A400350037003500A40035003700350072
S11310F0A4003500370035003700350037003500CF
S1131100A4003500A4003500A400350037003500E4
S11311103700350037003500A4003500A400350041
S1131120370035003700350037003500A40035009E
S113113000000C9C03CB013B0039003B0039003B11
S11311400039003B00B2003B00B2003B00B2003B60
S11311500039003B0039003B00B2003B00B2003BC9
S113116000B2003B0039003B0039003B0039003B32
S113117000B2003B00B2003B0039003B00B2003B30
S11311800039003B0039003B00B2003B0039003B12
S11311900039003B0039003B00B2003B0039003B02
S11311A000B2003B00B2003B0039003B00B2003B00
S11311B000B2003B00B2003B00A4109C03E7003BDC
S11311C00019269C03E7003B0000000E1E00D70018
S11311D01E00D8001E00D8001E005B001E005B002D
S11311E01E005B001E00D8001E005B001E005B009A
S11311F01E00D8001E005B001E005B001E005B008A
S11312001E005B001E005B001E005B001E000D0A3A
S11312101E00D8001E00D8001E00D8001E005B006F
S11312201E005B001E005B001E00D8001E005B0059
S11312301E005B001E00D8001E005B001E005B0049
S11312401E005B001E005B001E005B001E005B00B6
S11312501E0000000C9C03D0013A0039003A00AD96
S1131260003A0039003A0039003A0039003A0039AE
S1131270003A00AD003A0039003A00AD003A0039B6
S1131280003A00AD003A00AD003A00AD003A00ADBE
S1131290003A0039003A00AD003A00AD003A003996
S11312A0003A0039003A0039003A0039003A00396E
S11312B0003A0039003A0039003A0039003A00ADEA
S11312C0003A00AD003A00AD003A00AD003A00AD7E
S11312D0003A00AD003A00AD003A00D60F9E03E696
S11312E0003A0098269E03E6003A0000000C9C0396
S11312F0D0013A0039003A0039003A0039003A0086
S113130039003A0039003A00AD003A00AD003A0025
S113131039003A00AD003A00AD003A00AD003A00A1
S1131320AD003A00AD003A0039003A0039003A0005
S1131330AD003A00AD003A00AD003A0039003A0081
S113134039003A0039003A0039003A0039003A00CD
S113135039003A0039003A0039003A00AD003A0049
S1131360AD003A00AD003A00AD003A00AD003A00DD
S1131370AD003A00D60F9E03E6003A0098269E037D
S1131380E6003A0000000C9603CB01380037003821
S11313900037003800AA003800AA003800AA003834
S11313A000370038003700380037003800AA00380A
S11313B0003700380037003800370038003700386D
S11313C000AA003800AA0038003700380037003877
S11313D00037003800AA003800AA003800AA0038F4
S11313E00037003800AA003800AA003800AA0038E4
S11313F000AA00380037003800AA00380037003847
S11314000037003800AA00380037003800370038A9
S11314100037003800AA00380037003800AA003826
S113142000AA00380037003800AA003800AA0038A3
S113143000AA0038003C099803CA01380094259892
S113144003CA01380000000C56015701550004017D
S1131450550057005500040155000401550057007C
S113146055000401550057005500040155000401BE
S113147055005700550057005500570055005700B8
S1131480550004015500570055000401550057004C
S113149055005700550004015500570055005700EA
S11314A05500040155000401550004015500260DA2
S11314B05601580155000401550057005500040118
S11314C0550004015500570055000401550057000C
S11314D055000401550004015500570055005700FC
S11314E0550057005500570055000401550057009A
S11314F055000401550057005500570055000401DC
S113150055005700550057005500040155000401CB
S113151055000401550000000C8D03C4013A003746
S1131520003A0037003A0037003A0037003A00AF7B
S1131530003A0037003A00AF003A0037003A00AFF3
S1131540003A00AF003A00AF003A00AF003A00376B
S1131550003A00AF003A0037003A00AF003A00AF5B
S1131560003A00AF003A00AF003A0037003A00AF4B
S1131570003A0037003A0037003A0037003A0037A3
S1131580003A0037003A0037003A00AF003A00371B
S1131590003A00AF003A00AF003A00AF003A003220
S11315A0108E03E5003A007D258E03E50038000027
S11315B0000C6103AD013500A1003500A100350028
S11315C03700350037003500370035003700350067
S11315D03700350037003500A1003500A100350083
S11315E0A100350037003500A10035003700350073
S11315F037003500370035002B093500A1003500D0
S1131600A1003500370035003700350037003500BC
S1131610370035003700350037003500A1003500AC
S1131620A1003500A100350037003500A1003500C8
S11316303700350037003500370035002B093500F9
S1131640A1003500A1003500370035003700350012
S113165037003500370035003700350037003500D6
S1131660A1003500A1003500A10035003700350088
S1131670A10035003700350037003500370035004C
S113168000000C9C03CD013800AE003800AE0038D9
S113169000AE003800380038003800380038003810
S11316A00038003800AE00380038003800AE00388A
S11316B000380038003800380038003800AE0038F0
S11316C00038003800380038003800380038003856
S11316D000380038003800380038003800AE0038D0
S11316E000AE003800AE003800AE003800AE00385E
S11316F000AE003800AE003800AE003800380038C4
S1131700003800380038003800D70F9E03E6003850
S1131710007F269E03E600380000000C9C03CE01E7
S11317203B00AD003B003B003B003B003B003B006B
S11317303B00AD003B00AD003B00AD003B003B0077
S11317403B003B003B00AD003B00AD003B00AD0067
S11317503B003B003B003B003B003B003B00AD003B
S11317603B003B003B00AD003B003B003B00AD00B9
S11317703B003B003B003B003B00AD003B003B001B
S11317803B00AD003B003B003B00AD003B003B0099
S11317903B00AD003B00AD003B003B003B00AD0017
S11317A03B0015109E03CB013B00AD003B003B000A
S11317B03B003B003B003B003B00AD003B00AD0069
S11317C03B00AD003B003B003B003B003B00AD0059
S11317D03B00AD003B00AD003B003B003B003B0049
S11317E03B003B003B00AD003B003B003B00AD0039
S11317F03B003B003B00AD003B003B003B003B009B
S11318003B00AD003B003B003B00AD003B003B0018
S11318103B00AD003B003B003B00AD003B00AD0096
S11318203B003B003B00AD003B0000000C340031AA
S1131830003400A30134000A02340031003400A350
S113184001340031003400A30134000A02340031B1
S1131850003400A30134000A02340031003400A330
S11318600134000A0234000A0234003100340091C9
S113187030340031003400A30134000A0234003152
S1131880003400A301340031003400A30134000A01
S113189002340031003400A30134000A0234003160
S11318A0003400A30134000A0234000A0234003177
S11318B000340000000CCE01DC013500AF0035001F
S11318C0AF003500AF0035003E0035003E00350066
S11318D03E0035003E0035003E003500AF003500C7
S11318E0AF003500AF0035003E0035003E00350046
S11318F03E0035003E0035003E0035003E00350018
S1131900AF0035003E0035003E0035003E00350096
S11319103E0035003E0035003E003500AF00350086
S11319203E003500AF003500AF003500AF00350094
S1131930AF003500AF003500AF0035003512D001DF
S1131940DC013500AF003500AF003500AF003500D5
S11319503E0035003E0035003E0035003E003500B7
S11319603E003500AF003500AF003500AF00350054
S11319703E0035003E0035003E0035003E00350097
S11319803E0035003E003500AF0035003E00350016
S11319903E0035003E0035003E0035003E00350077
S11319A03E003500AF0035003E003500AF00350085
S11319B0AF003500AF003500AF003500AF00350093
S11319C0AF00350000000D5C005C00B8005C005CFA
S11319D0005C005C005C005C005C005C005C005C23
S11319E0005C005C005C005C00B8005C005C00B85B
S11319F0005C005C0000245C005C00B8005C005CDF
S1131A00005C005C005C005C005C005C005C005CF2
S1131A10005C005C005C005C00B8005C005C00B82A
S1131A20005C005C0000000C9C03D0013A0039000B
S1131A303A0039003A0039003A0039003A003900D6
S1131A403A0039003A00AD003A0039003A00AD00DE
S1131A503A00AD003A00AD003A00AD003A00AD00E6
S1131A603A00AD003A0039003A00AD003A003900BE
S1131A703A00AD003A0039003A0039003A00AD00AE
S1131A803A0039003A0039003A0039003A00AD0012
S1131A903A0039003A00AD003A00AD003A0039008E
S1131AA03A00AD003A00AD003A00AD003A00D60F5E
S1131AB09E03E6003A0098269E03E6003A000000E2
S1131AC00C1C00BD001D0051001D0051001D0051E3
S1131AD0001D0051001D0051001D00BD001D00BD72
S1131AE0001D0051001D00BD001D0051001D0051CE
S1131AF0001D0051001D00BD001D0051001D003ED1
S1131B00121D00BD001D0051001D0051001D00519B
S1131B10001D0051001D00BD001D0051001D00519D
S1131B20001D00BD001D0051001D00BD001D00BDB5
S1131B30001D00BD001D0051001D00BD001D003E24
S1131B40121D00BD001D0051001D0051001D00515B
S1131B50001D0051001D0051001D00BD001D00BDF1
S1131B60001D0051001D00BD001D0051001D00514D
S1131B70001D0051001D00BD001D0051001D003E50
S1131B80121D00BD001D0051001D0051001D00511B
S1131B90001D0051001D00BD001D0051001D00511D
S1131BA0001D00BD001D0051001D00BD001D00BD35
S1131BB0001D00BD001D0051001D00BD001D0000E2
S1131BC0000D6601B3002C002D002C0087002C00B2
S1131BD02D002C002D002C002D002C002D002C009D
S1131BE02D002C002D002C002D002C002D002C008D
S1131BF02D002C002D002C002D002C0087002C0023
S1131C002D002C002D002C002D002C002D002C006C
S1131C102D002C002D002C002D002C002D002C005C
S1131C202D002C0087002C002D002C002D002C00F2
S1131C302D002C002D002C002D002C002D002C003C
S1131C402D002C002D002C0087002C002D002C00D2
S1131C5087002C0087002C0087002C0087002C00B4
S1131C602D002C002D002C0087002C002D002C00B2
S1131C7087002C0087002C0087002C0087002C0094
S1131C802D002C0087002C00281E6601B4002C00B7
S1131C902D002C0087002C002D002C002D002C0082
S1131CA02D002C002D002C002D002C002D002C00CC
S1131CB02D002C002D002C002D002C002D002C00BC
S1131CC02D002C0087002C002D002C002D002C0052
S1131CD02D002C002D002C002D002C002D002C009C
S1131CE02D002C002D002C002D002C0087002C0032
S1131CF02D002C002D002C002D002C002D002C007C
S1131D002D002C002D002C002D002C002D002C006B
S1131D1087002C002D002C0087002C0087002C004D
S1131D2087002C0087002C002D002C002D002C0097
S1131D3087002C002D002C0087002C0087002C002D
S1131D4087002C0087002C002D002C0087002C001D
S1131D500000089B019A013400CD003400CD00340A
S1131D6000CD003400CD0034006600340066003439
S1131D7000CD00340066003400CD00340066003429
S1131D8000CD003400660034006600340066003480
S1131D90006600340066003400CD003400CD003409
S1131DA00066003400CD00340066003400CD0034F9
S1131DB00066003400CD00340035039B019A0134E1
S1131DC000CD003400CD003400CD003400CD00340B
S1131DD0006600340066003400CD00340066003430
S1131DE000CD00340066003400CD003400660034B9
S1131DF00066003400660034006600340066003477
S1131E0000CD003400CD00340066003400CD003431
S1131E100066003400CD00340066003400CD003488
S1131E200000000CF5003C007B003C003D003C0041
S1131E307B003C003D003C007B003C003D003C003E
S1131E403D003C007B003C003D003C003D003C006C
S1131E503D003C003D00C70AF5003C007B003C000F
S1131E603D003C007B003C003D003C007B003C000E
S1131E703D003C003D003C007B003C003D003C003C
S1131E803D003C003D003C003D00000011241FBE0D
S1131E90CFE5D2E0DEBFCDBF10E0A0E6B0E0E2EFD8
S1131EA0FFE102C005900D92A236B107D9F73ED0EA
S1131EB09EC0A6C09C01892B51F408950000000027
S1131EC09150E1F700002150310911F408958CE09C
S1131ED0982FF4CFC29888EB9BE0ECDFC29A089568
S1131EE0F9DF88E99AE3E6DFF5DF88E99AE3E2DFE0
S1131EF0F1DF88E99AE3DEDFEDDF0895CF93DF9326
S1131F00EB0112BE1FBC18BE22E42ABD21E920BF8A
S1131F1021E023BFCFDF10BE13BE1ABC98B39C7F51
S1131F2098BBCE01C7DFDF91CF910895CF92DF92A6
S1131F30FF920F931F93CF93DF9387E087BB84E0D7
S1131F4088BB88B38C7F88BB80916000882309F4A8
S1131F5034C000E0F12CBEDFE02FF0E0EE0FFF1FF5
S1131F60E25EFF4F85919491EC01FC0184918DBD5B
S1131F7089BD1F2D212F30E0220F331F220F331F65
S1131F80F9013196EC0FFD1F85919491F901339677
S1131F90EC0FFD1FC590D490B601B0DF1F5FCD28B4
S1131FA049F788B38C7F88BB88EA91E683DF0F5FAB
S1131FB080916000081708F4CECF8CED9FEF7ADF94
S1131FC08FDF10BE13BEC29A88B38C7F88BB88EEA5
S1131FD093E070DF80E385BF889580E090E0DF9137
S1131FE0CF911F910F91FF90DF90CF900895F894B7
S1051FF0FFCF1D
S1051FF22E00BB
S9030000FC
